:020000040800F2
:10000000F00A00204D02000843390008F72F0008CD
:10001000413900087317000825430008000000005C
:100020000000000000000000000000006D3A000821
:10003000A917000800000000453900082D3D000800
:1000400067020008670200086702000867020008EC
:100050006702000867020008AB1700086702000883
:100060006702000867020008B91700086702000865
:1000700067020008670200086702000867020008BC
:10008000670200086702000867020008000000001D
:1000900000000000000000000000000067020008EF
:1000A000670200086702000867020008670200088C
:1000B000670200086702000867020008670200087C
:1000C000670200086702000867020008670200086C
:1000D00067020008670200081943000800000000DA
:1000E000B11700086702000867020008000000005E
:1000F000000000000000000000000000670200088F
:10010000000000006702000867020008670200089C
:1001100000000000000000000000000000000000DF
:10012000670200086702000867020008670200080B
:10013000670200080000000000000000000000004E
:10014000000000000000000000000000670200083E
:1001500067020008670200086702000867020008DB
:1001600067020008670200080000000000000000AD
:10017000000000000000000000000000000000007F
:1001800000000000670200080000000000000000FE
:100190006702000800F002F800F049F80AA090E8B1
:1001A000000C82448344AAF10107DA4501D100F032
:1001B0003EF8AFF2090EBAE80F0013F0010F18BFB6
:1001C000FB1A43F0010318478C890000AC8900003A
:1001D000103A24BF78C878C1FAD8520724BF30C873
:1001E00030C144BF04680C60704700000023002445
:1001F00000250026103A28BF78C1FBD8520728BF37
:1002000030C148BF0B607047642900F0E7800020D0
:1002100070471FB507F0A3FD9DE8030000F04CFDFB
:1002200000F03CFB1FBD10B500F0A1FB10BD00F0BD
:1002300009FC1146FFF7EDFF05F0A0FF00F00EFDF1
:1002400003B4FFF7F0FF03BC00F0A8FE09488047A5
:1002500009480047FEE7FEE7FEE7FEE7FEE7FEE7A8
:10026000FEE7FEE7FEE7FEE704480549054A064BC0
:1002700070470000C53D000895010008F00400200B
:10028000F00A0020F0060020F006002053EA020CDD
:1002900000F069802DE9F04B4FF00006002B1FBFE6
:1002A000B3FA83F503FA05F424FA05F65E4012BFAB
:1002B0001643B2FA82F502FA05F4C5F120051EBF15
:1002C00022FA05FC44EA0C04203556EA044C4FEAB5
:1002D000144418BF641C4FF000084FF0000990420E
:1002E00071EB030C39D3002919BFB1FA81F701FA78
:1002F00007F6B0FA80F700FA07F6C7F120071EBF2D
:1003000020FA07FC46EA0C062037B6FBF4FCA7EB04
:100310000507103F07F01F0BCBF120060CFA0BFB73
:100320002CFA06F644BFB3460026202FA4BF5E4633
:100330004FF0000B5BEA060C08BF4FF0010B19EB06
:100340000B09ABFB027C48EB0608C01B06FB02CC8A
:100350000BFB03CC71EB0C01C1E70B460246414697
:100360004846BDE8F08B13B54FF000004FF0000198
:10037000AFF30080BDE81C40704710B54C1084EA14
:10038000530404D54042C1F1000138BF491E1B424D
:1003900004D55242C3F1000338BF5B1EFFF776FF5E
:1003A00014F0804F04D04042C1F1000138BF491E13
:1003B00014F0004F04D05242C3F1000338BF5B1E5B
:1003C00010BD00000FB4044910B503AA029800F054
:1003D00033FA10BC5DF814FBE80300202DE9F0416E
:1003E0000646002410687529314616A510D0AFF3D3
:1003F0000080002802DA404213A507E031688A072E
:1004000001D512A502E0490704D511A5012401E098
:10041000AFF3008000210A2206F1240709E0B0FBB7
:10042000F2FCB0FBF2F302FB1C00303078541846AB
:10043000491C0028F3D123462A463046BDE8F04146
:1004400000F0A0B9000000002D0000002B0000000B
:10045000200000002DE9F05F894604464FF0000AB5
:10046000DFF824B1FB44C0F820A02046E1688847AB
:1004700000287DD0252806D0D4E901219047206AA4
:10048000401C2062F1E700255F462046E16888476E
:100490002028064607DB312E05D2B81910F8200CAB
:1004A00008B10543F1E7A80701D525F00405C4F814
:1004B0001CA00027C4F818A02A2E09D0304604F04A
:1004C000B1FE38B304EB8708303EC8F8186019E075
:1004D00059F8041B204604EB87029161E1688847C4
:1004E000012F064618D1E069002820DA25F0200502
:1004F0001DE0D8F8180000EB800006EB4000303813
:10050000C8F818002046E1688847064604F08AFECD
:100510000028EED1012F0AD02E2E08D12046E16806
:1005200088477F1C0646022F45F02005C4DBA069E2
:10053000002803DA404245F00105A061E80701D038
:1005400025F01005A6B1A6F14100192802D82036E1
:1005500045F400654A463146204625604D46FFF782
:1005600053FE60B1012807D0ED1D25F0070000E023
:1005700007E000F1080978E705F1040975E730465E
:100580007AE7206ABDE8F09F6A85000030B505462D
:100590000B462A4613F8014B12F8010B08B1A04292
:1005A000F8D01CB1002802D06D1CF1E7284630BD00
:1005B00040EA010310B59B070FD1042A0DD310C8E0
:1005C00008C9121F9C42F8D020BA19BA884201D932
:1005D000012010BD4FF0FF3010BD1AB1D30703D07A
:1005E000521C07E0002010BD10F8013B11F8014B30
:1005F0001B1B07D110F8013B11F8014B1B1B01D14C
:10060000921EF1D1184610BD10B5431C02E010F83F
:10061000011B71B18107FAD14FF0013202C88C1A67
:100620008C4314EAC211F9D0C01A0A0603D0C01EC6
:1006300010BDC01A10BD0A0401D0801E10BD0902F1
:10064000FCD0401E10BD02F0FF0343EA032242EA41
:10065000024200F002B84FF000020429C0F01280FC
:1006600010F0030C00F01B80CCF1040CBCF1020F65
:1006700018BF00F8012BA8BF20F8022BA1EB0C013A
:1006800000F00DB85FEAC17C24BF00F8012B00F830
:10069000012B48BF00F8012B70474FF0000200B556
:1006A000134694469646203922BFA0E80C50A0E895
:1006B0000C50B1F12001BFF4F7AF090728BFA0E843
:1006C0000C5048BF0CC05DF804EB890028BF40F80F
:1006D000042B08BF704748BF20F8022B11F0804F51
:1006E00018BF00F8012B70474FF0013C50F8042B65
:1006F00051F8043B9A4221D1A2EB0C03934313EA35
:10070000CC1317D150F8042B51F8043B9A4215D161
:10071000A2EB0C03934313EACC130BD150F8042B38
:1007200051F8043B9A4209D1A2EB0C03934313EA1C
:10073000CC13DBD04FF00000704700BFD01A01BAD5
:10074000B1FA81F101F0180122FA01F0CB40C1F1B8
:100750002001DBB2C0B2C01A2CFA01F3D11A9143C6
:1007600011EAC311E6D1704770477047704710B562
:1007700000F074F8006810BD10B5044600F06EF883
:10078000046010BD2DE9F0470D4699469246044697
:1007900000F124080168880604D5E06921F0100101
:1007A000216000E00120A84201DD471B00E0002796
:1007B000A1697A1902EB0900081AA0612078C00625
:1007C00002D42046AFF30080002608E0D4E90121DE
:1007D0001AF806009047206A401C761C20624E459D
:1007E000F4DB2078C0060AD52046AFF3008006E08F
:1007F000D4E9012130209047206A401C2062381E35
:10080000A7F10107F4DC07E0D4E9012118F805009D
:100810009047206A401C2062281EA5F10105F3DCE8
:100820002046AFF300802078000602D50220BDE804
:10083000F0870120FBE70000074B70B50D467B44B5
:1008400000F015F80446284600F024F810B14FF0E7
:10085000FF3070BD204670BD1B540000004870473B
:100860009004002001694A1C02610878704700B5B5
:100870008FB0CDE901310021059105497944CDE9D9
:10088000031011466846FFF7E5FD0FB000BD0000FC
:10089000E5FFFFFF007B00F08000704710B5424885
:1008A0005421FFF7FAFE41485421FFF7F6FE404875
:1008B0005421FFF7F2FE3F493B483C4A3F4B08605A
:1008C0003D490A603A491960531C0365481C10658C
:1008D000012008653B48344A39A1784400F022F9E8
:1008E00020B9384878440A3800F0C1F937482F4A0F
:1008F00035A1784400F016F920B9344878440A3814
:1009000000F0B5F932482A4A2FA1784400F00AF9DC
:1009100020B92F4878440A3800F0A9F9402322482A
:10092000DC000021224600F0D9F820B125487844A7
:10093000543800F09CF91D4822464023002100F065
:10094000CDF820B121487844543800F090F9184887
:1009500022461023002100F0C1F8002806D01C48D0
:100960007844BDE81040563800F081B910BD1048F9
:1009700070B5006D20F001040B4800F049F90B48F8
:1009800000F046F90A4800F043F909E0206D20F034
:100990000105204600F03CF9204600F078F82C468E
:1009A000002CF3D170BD000094030020E803002068
:1009B0003C040020980000209C000020A0000020A3
:1009C000720000001A82000077000000068200001A
:1009D000F28100000EB5CDE90001FFF715FE02908F
:1009E00069460120ABBE0EBD08B5694600900220E5
:1009F000ABBE08BD1FB58DE8070069460520ABBE3C
:100A000004B010BD1FB58DE80F0069460620ABBECF
:100A1000F6E708B5694600900920ABBE08BD1CB5D5
:100A2000CDE9000169460A20ABBE1CBD704708B580
:100A3000694600900C20ABBE08BD0000004870471E
:100A4000900400207546FFF7F9FFAE4605006946A1
:100A5000534620F00700854618B020B5FFF704FC88
:100A6000BDE820404FF000064FF000074FF00008AF
:100A70004FF0000B21F00701AC46ACE8C009ACE830
:100A8000C009ACE8C009ACE8C0098D46704770B534
:100A90000446051F00F0F4F80068002C14BF4468F9
:100AA00070BD002C18BFAC423CBF20466468F8D330
:100AB00001680A18AA4218BF456003D12A68054692
:100AC0001144016028684119A1421CBF6C6070BDCF
:100AD0006168696021680844286070BD70B5C468A9
:100AE000A50713D0650211D4B2F5807F09D0B2F505
:100AF000007F06D0B2F5806F08D1012300F12401F8
:100B000006E05D1E6FF07F46B54201D3012070BD47
:100B10000161C361416024F470611143C160002030
:100B200070BD00002DE9F0410C4607461646104600
:100B300000F06EF82078611C61280AD0722802D07B
:100B400077283CD102E00125002405E00225042499
:100B500002E0082448F2020511F8010B2B2806D008
:100B6000622809D011F8010C74280AD00BE045F076
:100B7000030544F00204EFE745F0040544F00104E6
:100B8000EAE744F0100438462146FFF723FF411CF2
:100B900015D00021316171604FF40071F560F16191
:100BA0007061200704D530460222002100F0E2F8EF
:100BB000306D40F0010030653046BDE8F081002026
:100BC000FBE72DE9F0410D460646104C206DC107AC
:100BD00004D0410804D020F00104F7E722460EE0DB
:100BE000542000F098F807000ED0206D47F0010166
:100BF0000843542120653846FFF74FFD3A46294601
:100C00003046BDE8F0418DE70020D6E79403002090
:100C10002DE9F04704464FF000094FF0FF37C56853
:100C2000D4E90486A80707D0204600F053F93046DF
:100C3000FFF7DAFE002802DA3846BDE8F08728051B
:100C400002D54046FFF723FF4C212046FFF725FD44
:100C5000206D20F0010020654846EEE710B50446FF
:100C6000AFF300802046BDE81040FFF7E9BA10B5A9
:100C700000F07AF9BDE8104000F070B9704700004C
:100C800000487047980400207047704770477047CD
:100C900038B504460A4600206946AFF300800028B4
:100CA00008BF38BD02460099204600F084F90120B3
:100CB00038BD012000F0D3B9F8B5AFF30080054688
:100CC00000200C46102000BF0646A819A0420DD9EE
:100CD000324669460020AFF30080070008BF00F0ED
:100CE000BEF90098A04218BF0546C419FFF7C8FF17
:100CF00005600746F01D20F007004619284600F061
:100D000053F9B44208BFF8BDA21B31463868BDE8AC
:100D1000F84000F050B970B50646FFF7B1FF05681E
:100D200006F10B0020F00704B4429CBF002070BD08
:100D30002B466A68BAB11068A04210D304F10801CA
:100D400088423CBF5068586007D351681019416011
:100D50001168091B016058601460101D70BD1346B6
:100D60005268002AE7D121462846FFF791FF002864
:100D7000DED170BD2DE9F041044616460D464769A7
:100D8000007B80072ED03846FFF743FE50BB3EB3B2
:100D9000012E02D0022E25D104E0204600F025F9D4
:100DA00005441DE03846FFF742FEE168002841F0A7
:100DB0001001E16005DA204600F058F80120BDE896
:100DC000F081C9030BD56268E16A914200D81146EF
:100DD000A26911442269891A814200DD084605444E
:100DE000002D01DA0220EAE7E16A6068E2688142E8
:100DF00006D29103E06203D522F4003141F01002E3
:100E0000A6690027AE4213DCE16A814201D90B4694
:100E100000E0034603EB060C2369ACEB030CAC4586
:100E200006DD814201D98C4600E084469C4505D10F
:100E3000A760276042F02000A5620DE0AD1BE669C7
:100E4000AE1B8142A66000D90846C01A281A20604D
:100E50005819606022F0200003490840E06000203B
:100E600084F84870ABE70000BFCFD7FFC16821F41A
:100E7000001141F08001C160002181600160704774
:100E80002DE9F047814614460E464FF0FF383248B0
:100E9000D5685769054209D03846A169FFF7BFFDFB
:100EA000002811DB2C48C0430540E5602B46324644
:100EB00049463846FFF79EFDA16920F00042B21A6C
:100EC00011440028A16103D02046FFF7CFFF404620
:100ED000BDE8F08770B504460569C06A616888425C
:100EE00000D80846E16821F42011E160C90312D559
:100EF000A84208D02246411B2846FFF7C1FF10B187
:100F00004FF0FF3070BD0020E562C4E90150E06899
:100F100020F48030E060002070BD10B50446C06849
:100F200020F02000E060A16AA06988420DD0204630
:100F3000FFF7D0FFE06820F4405040F01000E06080
:100F4000A06AA0612069E062606044F24001E0684C
:100F50008843E06010BD000010000200002801D0AE
:100F600000F01CB87047000010B5014602A000F068
:100F70005DF8012010BD00005349475254524544CA
:100F80003A2052656469726563743A2063616E2722
:100F900074206F70656E3A2000000000014918202F
:100FA000ABBEFEE72600020000210160C0E901108F
:100FB000704710207047034640688C46002818BFD1
:100FC00088423CBF03464068F8D3186818448842FA
:100FD00007D00CF1030020F00700001D411A521A3F
:100FE0000146081D0A60FFF752BD10B50146C268F0
:100FF000900703D0900607D5886A0AE0FFF72EFC19
:1010000001210160881E10BD8B69486818440B6976
:10101000C01A91F848301BB191F84910401A10BD20
:101020001103FCD50028FADD401E10BD70B5054641
:101030000C460A2000E06D1C00F018F835B1287845
:101040000028F8D102E0641C00F010F814B12078F8
:101050000028F8D1BDE870400A2000F007B810B5AC
:1010600000F00CF8BDE81040FFF778BF08B56946FE
:101070008DF800000320ABBE08BD000010B50128AC
:1010800005D0002103A0FFF7D1FF012010BD09A169
:10109000F8E7000053494752544D454D3A204F75EB
:1010A00074206F662068656170206D656D6F727960
:1010B000000000003A2048656170206D656D6F7218
:1010C0007920636F72727570746564002DE9F05F4A
:1010D000764C774F002563794FF00209A4F1100A8E
:1010E0009FED741ADFED740A9FED740A4FF09608B5
:1010F000DFED731A2246DFF8CCB15178907912797E
:1011000001260A2B7ED2DFE803F0CF051B394F6B97
:10111000809EAFC32078002810D09AED031A9FED6F
:101120006A0AF0EE400A02F033F805F0BDFF387DA0
:10113000012803D12570667084F80590BDE8F09F02
:1011400071B168B9B0EE410AF0EE400A02F020F841
:10115000A6716420F88201221021584600F03FFD5C
:10116000E0780028EAD000221021584600F037FD30
:10117000A571E57065702671032013E0012A0BD17B
:1011800050B99FED521A9FED520AF0EE400A01F05D
:10119000FFFFA6714820F882E0780028CED0A57124
:1011A000E57004206071C9E7012A09D140B9B0EEA9
:1011B000601AF0EE400ABBEE040A01F0E9FFA670E7
:1011C0009AED030ABDEEC00A10EE100A002800DAFC
:1011D00040425028B2DBA57084F804900520E1E776
:1011E000022A07D130B9F0EE400A01F0D1FFA67112
:1011F000A7F81680E0780028A0D0A571E5702571C9
:10120000667000E050E00620CCE779B170B9B0EE2E
:10121000410AF0EE400A01F0BBFFA6714FF4FA70EC
:10122000F88201221021584600F0D9FCE07800280D
:1012300084D000221021584600F0D1FCA571E57041
:1012400065700720AEE741B9B0EE610AF0EE400AE2
:1012500001F09EFFA6715520F882E0780028A2D008
:10126000A571E57008209DE750B9B0EE601ADFED7A
:10127000190AB0EE610A01F08BFFA671A7F816807B
:10128000E07800288FD0A571E5706670092089E7A5
:10129000002988D0002886D1BDE8F05FB0EE410A71
:1012A000F0EE400A01F074BF667147E75800002075
:1012B000E4020020000000000080C0430000C8C21B
:1012C0000000C84200000240000070420000AA4234
:1012D000000070C2000048432DE9F05FFE4D4FF062
:1012E000020BA5F1100795F805C0DFEDFC1AFC4EC6
:1012F0009FEDFC0A4FF0640A9FEDFB3ADFEDFB0A1D
:10130000DFEDFB3ADFEDFB2A9FEDFB4A9FEDFB2A69
:10131000294697ED031A91F800904A788879CB789E
:1013200009790124BCF1150F70D2DFE80CF06F0BC6
:101330001E3D527086A5B9D5F2F0EFEEEDECEBEA6A
:10134000E9E8E700B9F1000F0DD0B0EE610AF0EE68
:10135000400A01F01DFF307D012804D100202870D3
:101360006C7085F805B0BDE8F09F72B168B9B0EE59
:10137000401AF0EE400A01F00BFFAC71A6F816A07F
:1013800001221021DE4800F02AFCE8780028EAD08B
:1013900000221021DA4800F022FC0020A871E87039
:1013A00068702C71032012E0012909D140B9B0EE18
:1013B000431AB0EE600A01F0EBFEAC714820F082F7
:1013C000E8780028CFD00020A871E8700420687168
:1013D000C9E7012909D140B9B0EE631AF0EE620AFB
:1013E0009FEDC80A01F0D4FEAC7097ED030ABDEE84
:1013F000C00A10EE100A002800DA40425028B2DB82
:101400000020A87085F804B00520E0E7AFE10229CC
:1014100009D140B9B0EE401AB0EE600A01F0B8FE52
:10142000AC719620F082E87800289CD00020A8714A
:10143000E87028716C700620C9E77AB170B9B0EE17
:10144000401AF0EE400A01F0A3FEAC714FF4FA70BE
:10145000F08201221021AA4800F0C1FBE8780028A0
:1014600081D000221021A64800F0B9FB0020A8710D
:10147000E87068700720AAE752B9B0EE401AB0EEE3
:10148000610AF0EE400A01F083FEAC714B20F0825D
:10149000E87800289CD00020A871E870082096E722
:1014A00030B9B0EE631ADFED980A01F071FEAC704E
:1014B00097ED030ABDEEC00A10EE100A002800DA0C
:1014C0004042052884DC0020A8702C7030758FA065
:1014D00002F02AFF09207AE7B9F1000FA5D0B0EE9B
:1014E000610AF0EE400A01F053FE307D01287FF4DE
:1014F0006FAF002028706C700A2068E72BE10FE1C5
:10150000D5E0BAE0A4E084E06DE051E03AE01FE00D
:10151000FFE772B168B9B0EE401AF0EE400A01F090
:1015200037FEAC71A6F816A001221021744800F015
:1015300056FBE878002893D000221021704800F074
:101540004EFB0020A871E87068702C710B203EE7FC
:10155000012907D130B9B0EE631AF0EE620A01F04A
:1015600017FEAC7097ED030ABDEEC00A10EE100A2C
:10157000282801D02830BAD10020A87085F804B0FE
:101580000C2024E7022909D140B9B0EE431AB0EE8D
:10159000600A01F0FDFDAC71A6F816A0E8780028FD
:1015A0009CD00020A871E870032028710D200EE760
:1015B000032907D130B9B0EE441A9FED570A01F064
:1015C000E7FDAC7097ED030ABDEEC00A10EE100AFD
:1015D000002800DA404205283FF7FAAE0020A87143
:1015E00028710E20F3E659B950B9B0EE610AB0EE99
:1015F000431AF0EE400A01F0CBFDAC71A6F816A03C
:10160000E878002897D00020A871E8706C700F204F
:10161000DDE67AB170B9B0EE401AF0EE400A01F0A2
:10162000B7FDAC714FF4FA70F082012210213448FA
:1016300000F0D5FAE8780028B2D000221021304816
:1016400000F0CDFA0020A871E87068701020BEE6A6
:101650006BB900288FD1B0EE431AB0EE600A01F0EA
:1016600097FDAC713C20F082E878002898D00020EB
:10167000A871E87068701120A9E642B9F0EE400A3E
:10168000B0EE441AB0EE420A01F082FDAC7097ED64
:10169000030ABDEEC00A10EE100A002800DA40422C
:1016A0002828FFF695AE0020A87012208FE67BB99F
:1016B0000028CFD1B0EE401AB0EE610AF0EE400A39
:1016C00001F066FDAC715020F082E878002899D0D6
:1016D0000020A871E87021E0580000200000C842F6
:1016E000E4020020000000000000AA420000C8C27E
:1016F0000080C043000016C3000057C3000016431B
:1017000000000240000048C2000048437374617248
:1017100074636E7431000000000048C3132056E665
:1017200040B9B0EE631AF0EE420AB0EE610A01F081
:101730002FFDAC7097ED030ABDEEC00A10EE100A43
:10174000002800DA404205283FF742AE0020A8708A
:101750006C7014203BE6002A88D00028A9D1BDE88F
:10176000F05FB0EE401AF0EE400A01F011BD6C716E
:10177000F9E5FEE70A48007E01280BD002280BD0CD
:1017800003280BD09FED070AB0EE401AF0EE400A96
:1017900001F0FEBCFFF79ABC02F06AB9FFF79CBDEE
:1017A000E4020020000000007047012000F00EB9A4
:1017B0004FF4805000F00AB9102000F007B972B65B
:1017C000FEE72DE9F0410446876D00F00DFA06466C
:1017D00094F835000025022806D08020606584F842
:1017E00034500120BDE8F0812068016821F0160125
:1017F00001602068416921F080014161206C08B9D5
:10180000A06C20B12068016821F008010160206807
:10181000016821F0010101600CE000F0E5F9801B96
:10182000052807D920206065032084F8350084F856
:101830003450D7E720680068C007EED194F85C10F8
:101840003F208840B860012084F8350084F8345087
:101850000020C7E790F83510022903D080214165A8
:1018600001207047052180F835100068016821F0DB
:10187000010101600020704770B5044600F0B4F922
:101880000546601C02D004480078044400F0ACF91E
:10189000401BA042FAD370BD000000202DE9F041AA
:1018A000454C0126454F464D202815D0DFF81481C0
:1018B000012869D0102874D04FF48058404561D178
:1018C0000F20FFF7D9FF4146204600F07BF90128A1
:1018D00058D10320387661E02021204600F072F9CB
:1018E00000284FD1287808B9A87828B1344A121FA7
:1018F000111F081F04F0FCFC022002F0A5F87883F9
:101900003C46042002F0A0F8A08302F08BF802F01D
:101910001BFDBDEEC00A84ED030A02F03FFDBDEEE3
:10192000C00A2649221D0C3184ED040A081D01F06D
:1019300095FC94ED010ABCEEC00A10EE100A82B2CA
:10194000D4E9031001F0BCFC1D4C4FF00008103C22
:101950002088401C80B220800A2806D3A4F800808A
:101960004FF40051184800F032F9A879002809D046
:101970006088401C80B26080F98A884202D3A4F853
:101980000280EE70BDE8F0810F20FFF775FF0121A6
:10199000404600F017F90128F4D13E766E71F1E768
:1019A000FFE70F20FFF768FF1021404600F00AF91B
:1019B0000128E7D102208DE700040240E402002064
:1019C000580000200000024000080240044910B501
:1019D0000A68024202D00860FFF760FF10BD0000F5
:1019E000143C01402DE9F84FDFF8B8A10022012492
:1019F00003254FF00F090AF1040BAAF1040E00BFF2
:101A00000B6804FA02F63340B34273D10F7907F042
:101A10000307012F01D0022F16D187684FEA420831
:101A200005FA08FC27EA0C07D1F80CC00CFA08FCF0
:101A30004CEA070CC0F808C04768B7430E79C6F3F4
:101A4000001696403E4346600E79F643B6070DD029
:101A5000C768560005FA06FC27EA0C07D1F808C04B
:101A60000CFA06FC4CEA070CC0F80CC00E7906F024
:101A70000306022E10D1D60800EB8608D8F82060A5
:101A800057074FEAD76C09FA0CF7BE430F6907FAFC
:101A90000CF73743C8F8207006684FEA420C05FA85
:101AA0000CF7BE430F7907F0030707FA0CF737432B
:101AB00007604E6816F4403F6DD03B4E376847F4E0
:101AC00080473760366822F0030706F480460096A8
:101AD000364E07EB060CDCF8086897073F0F09FA4B
:101AE00007F826EA0806DFF8C880404503D14FF022
:101AF00000081EE04FE0DFF8BC80404502D14FF007
:101B0000010816E0DFF8B080404502D14FF002082E
:101B10000FE0DFF8A880404502D14FF0030808E04D
:101B2000DFF89C80404502D14FF0040801E04FF0FF
:101B3000070808FA07F848EA0608CCF80888DAF82F
:101B400000605746D1F804C09E435FEACC2C00D514
:101B50001E433E60DBF800605F46D1F804C09E4340
:101B60005FEA8C2C00D51E433E60DEF800607746AD
:101B7000D1F804C09E435FEA8C3C00D51E433E6012
:101B8000084F083F3E68D1F804C09E435FEACC3C52
:101B900000D51E433E60521C102AFFF431AFBDE851
:101BA000F88F0000083C01404438024000300140FA
:101BB000000002400004024000080240000C024005
:101BC000001002400069084000D0012070474269BF
:101BD00021EA02030A4043EA0241816170470AB1E7
:101BE000816170470904FBE7014880687047000085
:101BF0000000002070B5040025D094F83D000025B9
:101C000020B984F83C50204600F0B8F8242084F82D
:101C10003D002068016821F0010101602068016831
:101C200041F4004101602068016821F40041016035
:101C300000F00EFA4D4A6168914201D84C4900E02B
:101C40004C49884201D2012070BD4B492368B0FB4A
:101C5000F1F15E6826F03F060E435E6063689342D2
:101C600006D94FF4967359434FF47A73B1FBF3F1ED
:101C70002368491C1E6A26F03F06314319626168D9
:101C8000914210D84900401EB0FBF1F2521CC2F341
:101C90000B02042A01D2042022E0B0FBF1F0401C28
:101CA000C0F30B001CE0A268F2B301EBC10303EB2D
:101CB0000116431EB3FBF6F35B1C43F480431B0584
:101CC00049D092B301EBC10202EB0111401EB0FBFF
:101CD000F1F0401CC0F30B0040F4804040F40040A1
:101CE0002168CA694CF6FF739A431043C861D4E96E
:101CF000071001432068026822F0C002114301600E
:101D0000D4E9030101432068826848F2FF339A4313
:101D100011438160D4E9050108432168CA6822F0B3
:101D2000FF021043C86001E00EE016E02068016881
:101D300041F0010101602564202084F83D00256305
:101D400084F83E50002070BD01EB4106431EB3FBFA
:101D5000F6F35B1CB3E70120C2E701EB4101401E33
:101D6000B0FBF1F0401CC0F30B00B7E7A086010008
:101D700080841E0000093D0040420F0010B586B06F
:101D8000044614216846FEF788FC144920688842FE
:101D900021D113480021026842F00202026000686B
:101DA00000F0020005904FF4407000901220CDE941
:101DB0000101032003900420049069460948FFF7BD
:101DC00011FE07481030016841F4001101600068FD
:101DD00000F40010059006B010BD00000054004053
:101DE0003038024000040240024881680278114401
:101DF00081607047000000200B4810B5016841F475
:101E000000710160016841F480610160016841F482
:101E100080710160032000F06FF80F2000F006F8D9
:101E200000F024F8002010BD003C024070B50D4DBC
:101E300004464FF47A712878B1FBF0F00A4909683A
:101E4000B1FBF0F000F00CFB48B9102C07D20022D7
:101E50002146501E00F030F800206C6070BD01205B
:101E600070BD0000000000200C0000200A4808B5EA
:101E7000016841F480410160006800F480400090F6
:101E80000548001F016841F080510160006800F0C2
:101E90008050009008BD000044380240002809DB53
:101EA00000F01F02012191404009800000F1E02074
:101EB000C0F8001170470000F0B40E4B1B680C46D0
:101EC000C3F30223C3F10705042D00D90425191D0E
:101ED000072901D2002300E0DB1E012606FA05F1E6
:101EE000491E214099409E40761E16403143F0BC69
:101EF00002F045BB0CED00E0064900F0070208685F
:101F00004FF6FF03184040EA0220034A10430860DE
:101F1000704700000CED00E00000FA052DE9F047E5
:101F20000E46050065D0DFF81481D8F80000F7B23E
:101F300000F00700B04207D288F80070D8F800001F
:101F400000F00700B04254D128683D4C810712D5FB
:101F5000400703D5206840F4E0502060287800074F
:101F600003D5206840F4604020602068A96820F014
:101F7000F000084320602878C0072DD030496868F9
:101F80000839012812D0022813D0032811D009687B
:101F9000890700292DDA216821F00301014321601E
:101FA000FFF722FE814641F2883A0EE00968890374
:101FB000EFE709688901ECE7FFF716FEA0EB0901DE
:101FC000514502D90320BDE8F0872068696800F018
:101FD0000C00B0EB810FEFD1D8F80010404601F0B3
:101FE0000701B14207D90770006800F00700B0424E
:101FF00001D00120E7E72878400705D52068E96887
:1020000020F4E050084320602878000706D52068B7
:10201000296920F4604040EAC100206000F038F8EF
:102020002168084AC1F30311515CC84006490860A1
:1020300006480068FFF7FAFE0020C4E7003C0240B3
:1020400008380240727D00080C00002004000020C7
:102050000448054900680968044AC1F38221515CBB
:10206000C84070470C00002008380240827D0008FC
:102070000448054900680968044AC1F34231515CCB
:10208000C84070470C00002008380240827D0008DC
:10209000154810B5006810F00C02144813D014490C
:1020A000042A0FD0082A0ED10F4C241F226823685F
:1020B00002F03F025B0207D52068C0F38810A0FB46
:1020C000010106E0084610BD2168C1F38811A1FB9B
:1020D00000010023FEF7DAF82168C1F30141491C31
:1020E0004900B0FBF1F010BD083802400024F400B4
:1020F00040787D012DE9F84F04006ED02078DFF89C
:102100004C93C007A9F104054AD009F10400016805
:10211000C1F38101012908D00068C0F381000228C1
:102120000AD1D9F80000400206D52868800337D5C7
:1021300060680028E1D033E06068B0F5803F10D0DF
:10214000B0F5A02F286810D020F4803028602868CF
:1021500020F4802028606068A8B1FFF745FD06469E
:102160000DE0286840F48030F4E740F480202860D7
:10217000F7E700BFFFF738FD801B642873D8286895
:102180008003F7D50CE0FFF72FFD064605E000BF02
:10219000FFF72AFD801B6428F0D828688003F7D455
:1021A0002078DFF8AC8280074FF0000A3ED5A748C0
:1021B000001D016811F00C0F08D00068C0F3810009
:1021C00002280BD1D9F80000400207D42868800704
:1021D00016D5E068012800D112E033E1E068B8B11B
:1021E0000120C8F80000FFF7FFFC064605E000BF2D
:1021F000FFF7FAFC801B0228C0D828688007F7D5B3
:102200002868216920F0F80040EAC10028600DE04C
:10221000C8F800A0FFF7E8FC064604E0FFF7E4FC7E
:10222000801B02281FD828688007F7D42078000771
:1022300022D5864F87486169703771B101210160ED
:10224000FFF7D2FC064604E0FFF7CEFC801B022815
:1022500009D838688007F7D50EE0C0F800A0FFF76E
:10226000C3FC064605E082E0FFF7BEFC801B0228A7
:102270007DD838688007F7D42078400768D5DFF824
:10228000CCB100270BF13C0BDBF80000C0000BD4F5
:10229000DBF8001041F08051CBF80010DBF80000B3
:1022A000012700F0805000906B4E3068C00510D4BC
:1022B000306840F480703060FFF796FC009005E0D5
:1022C000FFF792FC0099401A022850D83068C005E8
:1022D000F6D55E4EA0686C3601280FD00528306810
:1022E00010D020F001003060306820F00400306031
:1022F000A068B8B1FFF778FC00900FE0306840F0BC
:102300000100F4E740F004003060F7E7FFF76CFCF1
:102310000099411A41F28830814266D830688007BE
:10232000F4D50EE0FFF760FC009007E0FFF75CFCDF
:102330000099411A41F28830814256D830688007AE
:10234000F4D42FB1DBF8001021F08051CBF800104D
:10235000A069C8B33D49091D0968C1F3810102297B
:102360004AD00228504607D0C8F8600000E03CE0A0
:10237000FFF73AFC04463BE04746C8F86000FFF729
:1023800033FC064605E000BFFFF72EFC801B022849
:102390002BD828688001F7D4D4E907010843A16A43
:1023A0002E4A490802EB0141626A41EA8211084360
:1023B00094F82C1040EA0161C9F800100120386639
:1023C000FFF712FC044606E03EE000BFFFF70CFCFE
:1023D000001B022809D828688001F7D534E000BF27
:1023E000FFF702FC001B022802D90320BDE8F88F8A
:1023F00028688001F4D427E00128F7D0D9F800003C
:10240000E26900F4800191421CD1226A00F03F0190
:10241000914217D147F6C071626A0140B1EB821F49
:1024200010D1A26A4FF0FF3300F4403103EB5202A7
:10243000B1EB024F06D194F82C1000F07060B0EBB5
:10244000016F01D00120D1E70020CFE7043802401E
:1024500000004742800E4742007000400000FFFF2E
:1024600010B5401EB0F1807F01D3012010BD4FF0A8
:10247000E02460610F21601702F081F80020A06164
:1024800007202061002010BD10B590F83C20012AE3
:1024900022D0012280F83C20CA688C6822F4407265
:1024A00022434C6822F4806222430C6822F40062CA
:1024B00022430C6922F4805222434C6922F40052D8
:1024C0002243C969002322F480420A4301684A6416
:1024D00080F83C30002010BD022010BD70B590F88F
:1024E0003C20012A2CD0012480F83C40022280F8B4
:1024F0003D2003685A689D6822F070060A683243DE
:102500005A60104B02689A420ED0B2F1804F0BD045
:102510000D4B9A4208D00D4B9A4205D00C4B9A4273
:1025200002D00C4B9A4204D1496825F0800319432C
:10253000916080F83D40002180F83C10084670BD55
:10254000022070BD0000014000040040000800406F
:10255000000C00400040014010B5040003D094F886
:102560003D0010B107E0012010BD002084F83C00C0
:10257000204600F01FF8022084F83D00211D20684D
:1025800001F028FC012084F8460084F83E0084F81D
:102590003F0084F8400084F8410084F8420084F849
:1025A000430084F8440084F8450084F83D0000208E
:1025B00010BD000008B5134A01681348914207D1C5
:1025C000016841F001010160006800F001000BE0CA
:1025D0000E4A91420AD10C48001F016841F00201E5
:1025E0000160006800F00200009008BD084A9142B6
:1025F000FBD1016841F480310160006800F4803053
:10260000F2E70000000001404438024000040040AE
:102610000040014090F83D10012901D00120704791
:10262000022180F83D1000680E4988420ED0B0F1BA
:10263000804F0BD00C49884208D00C49884205D005
:102640000B49884202D00B49884204D1816801F0CD
:102650000701062903D0016841F001010160002053
:1026600070470000000001400004004000080040E6
:10267000000C00400040014070B5044690F83C005A
:102680000025012817D0012684F83C60022084F838
:102690003D002068826822F0770222F47F42826047
:1026A0000868502838D00DDC20284FD005DC90B3C6
:1026B000102811D14AE0022070BD302846D04028B1
:1026C0000AD13BE060282FD070280DD0B0F5805F94
:1026D00003D0B0F5005F12D0012584F83D600020E2
:1026E00084F83C00284670BDCB68D1E90121206800
:1026F00001F0CFFB2068816841F0770109E0CB68E9
:10270000D1E90121206801F0C4FB2068816841F40F
:1027100080418160E1E719E0CA684968206801F0FA
:102720006DFC5021206806E0CA684968206801F005
:1027300076FC6021206801F0B6FBCEE7CA684968E4
:10274000206801F05BFC40212068F4E72268014624
:102750001046F0E72DE9F0410D46040003D094F84F
:102760003D0018B108E00120BDE8F081002084F8A8
:102770003C00204600F040F8022084F83D0020682C
:10278000816844F2070291438160211D206801F0B5
:1027900021FB226890689169166A2B68AF69034330
:1027A00040F20330814341EA0721A868EF690843FA
:1027B0004FF6FC418843E96840EA07200143286955
:1027C0002F6A000140EA0730084369686D6926F006
:1027D000AA0646EA0515294393602268906154F8D9
:1027E000460B0162012004F81F09E0752076E076AF
:1027F0002077A0750020B7E730B587B004461421D4
:102800006846FDF74AFF2148246800221F49103816
:102810000223B4F1804F1FD01D4DAC421AD10C6879
:1028200044F004040C60096801F00401059101689A
:1028300041F0020101600068694600F00200059065
:10284000C0200090CDE901321248CDE9032300BF3A
:10285000FFF7C8F807B030BD0C6844F001040C6005
:10286000096801F001010591016841F00101016071
:102870000068694600F00100059003200090CDE952
:1028800001320120CDE903200348E1E7403802404E
:1028900000080040000402400000024070B590F8BB
:1028A0003E60044690F83F5090F8423090F8432044
:1028B000022021B104290ED0012E1BD114E0012EDB
:1028C00018D1012B16D184F83E0084F84200012271
:1028D0000021206820E0012D0CD1012A0AD184F8C2
:1028E0003F0084F8430014E0012D03D1012B01D1F6
:1028F000012A01D0012070BD84F83E0084F83F0019
:1029000084F8420084F8430001220021206801F08D
:10291000B3FA01220421206801F0AEFA20680168B0
:1029200041F001010160002070BD000030B587B0AA
:10293000044614216846FDF7B0FE2468164D0021B8
:10294000164A02231648AC4210D1146844F0010420
:102950001460126802F0010205924FF4A062009226
:10296000CDE9013103910121049110E00D4DAC42FC
:1029700010D1146844F001041460126802F00102DE
:10298000059240220092CDE90131CDE90313694659
:10299000FFF728F807B030BD000001403038024092
:1029A000000002400004004070B5044690F83C006E
:1029B00000260D4601280FD0012084F83C006AB1A2
:1029C000042A1DD0082A2FD00C2A3FD0012600202F
:1029D00084F83C00304670BD022070BD206801F0D4
:1029E0006BFA2068816941F0080181612068816982
:1029F00021F004018161206881692A69114311E095
:102A0000206801F081FA2068816941F400618161E8
:102A10002068816921F480618161206881692A6967
:102A200041EA02218161D2E7206801F099FA206829
:102A3000C16941F00801C1612068C16921F0040148
:102A4000C1612068C1692A69114311E0206801F061
:102A5000B3FA2068C16941F40061C1612068C169AD
:102A600021F48061C1612068C1692A6941EA0221BB
:102A7000C161ACE710B5040003D094F83D0010B17B
:102A800007E0012010BD002084F83C00204600F043
:102A90001EF8022084F83D00211D206801F09AF9FB
:102AA000012084F8460084F83E0084F83F0084F852
:102AB000400084F8410084F8420084F8430084F820
:102AC000440084F8450084F83D00002010BD7047A4
:102AD00010B50446022249B104290ED0082913D0AA
:102AE00094F84100012816D0012010BD94F83E0052
:102AF0000128F9D184F83E200FE094F83F00012826
:102B0000F2D184F83F2008E094F840000128EBD18E
:102B100084F8402001E084F841200122206801F07F
:102B2000ABF912492068884203D1426C42F400425A
:102B30004264206888420ED0B0F1804F0BD00C491F
:102B4000884208D00B49884205D00B49884202D000
:102B50000A49884204D1816801F00701062903D09F
:102B6000016841F001010160002010BD000001403A
:102B70000004004000080040000C004000400140FC
:102B80000246002041B1042909D008290AD00C29A5
:102B900001D11068006C70471068406B7047106876
:102BA000806B70471068C06B7047704770470000BB
:102BB000F8B5016804460868CA684B6910F00F0F41
:102BC0004FF0000559D003F0010602F49077374327
:102BD00065D0C10705D0D10503D5616C41F0010175
:102BE0006164410705D5D90703D0616C41F002014A
:102BF0006164810705D5D90703D0616C41F00401F8
:102C00006164010707D502F02001314303D0616CF4
:102C100041F008016164616C00293AD0800604D556
:102C2000900602D5204601F03BFA20684069616CAD
:102C3000C0F38010090700D460B3204601F009FA00
:102C400020684069400621D52068143050E8001FF4
:102C500021F0400140E80012002AF5D1E06BA8B154
:102C60006E490165E06BFEF7F5FD002811D0E06BC1
:102C7000016D01B0BDE8F040084783060FD593060B
:102C80000DD52046BDE8F84001F00ABA2046FFF70E
:102C90008DFFF8BD2046FFF789FF6564F8BD266B00
:102CA0002023012E7DD1C6067BD5D60679D50868AE
:102CB0004868009048694FF00206400641D5E16B34
:102CC000086840680004000CE8D0A28D8242E5D973
:102CD000E085C869B0F5807F2DD020680C3050E8C1
:102CE000001F21F4807140E80012002AF5D120680D
:102CF000143050E8001F21F0010140E80012002AC2
:102D0000F5D12068143050E8001F21F0400140E860
:102D10000012002AF5D184F84230256320680C3077
:102D200050E8001F21F0100140E80012002AF5D100
:102D3000E06BFEF746FD6663A08DE18D401A81B21F
:102D40002AE0A08DE18D401A81B2E08D0028A5D047
:102D50000029A3D022680C3252E8000F20F49070B2
:102D600042E80007002FF5D12068143050E8002F0A
:102D700022F0010240E80027002FF5D184F842300C
:102D8000256320680C3050E8002F22F0100240E844
:102D90000023002BF5D166632046FFF706FFF8BD40
:102DA000FFE705062BD5150629D594F84100212803
:102DB000F5D1A068B0F5805F01D12069B0B1206A7B
:102DC000411C2162216800784860E08C401E0004AC
:102DD000000CE084E3D12068C16821F08001C1606B
:102DE0002068C16841F04001C160D8E7206A0088CE
:102DF000C0F308004860206A801C2062E5E74006B6
:102E0000CDD55006CBD5CA68204622F04002CA6014
:102E100084F8413000F0EEF8C1E7000043400008BC
:102E200070B5040004D094F84100002510B106E00C
:102E3000012070BD84F84050204600F023F8242083
:102E400084F841002068C16821F40051C160204627
:102E500001F088F92068016921F49041016120683E
:102E6000416921F02A0141612068C16841F40051A3
:102E7000C1606564202084F8410084F842006563E5
:102E8000002070BD10B586B0044614216846FDF7D9
:102E900004FC17492068884228D11648002102689E
:102EA00042F400320260006800F4003005901148DE
:102EB0001038026842F001020260006800F0010070
:102EC00005900C2000900220CDE901010320039021
:102ED0000720049069460848FEF784FD0022114649
:102EE0002620FEF7E9FF2620FEF7D8FF06B010BD2A
:102EF00000440040403802400000024090F8423058
:102F0000202B01D00220704721B11AB100230363A6
:102F100001F0AEB90120704700680A4988420FD11C
:102F200009480178491C01700178802901D30021EA
:102F3000017006490078012201440548FFF7DEBF11
:102F400070470000004400405F00002004030020A0
:102F5000600200202DE9F843044690F841009846AD
:102F600016460D46202802D00220BDE8F88385B120
:102F70007EB100206064212084F84100FEF734FE19
:102F8000A6848146E684A0682027B0F5805F02D041
:102F900003E00120E9E7206910B12E4600250EE08C
:102FA00000260CE08021204601F07DF9A8B9C6B1C9
:102FB00016F8010B21684860E08C401EE084E08C2C
:102FC0004B464FF00002CDF800800028EAD14FF0C8
:102FD0004001204601F067F940B184F841700320B8
:102FE000C3E735F8020BC0F30800E3E784F841704B
:102FF0000020BAE77047FEE7FF20401EFDD2704771
:1030000010B50B4C002202212046FEF7E8FD0122FC
:1030100011462046FEF7E3FDFFF7EEFF01220221F5
:103020002046FEF7DCFDBDE81040FFF7E5BF0000DD
:10303000000002402DE9F041144E07460024012211
:1030400002213046FEF7CBFD00256006040E01226A
:1030500011463046FEF7C3FDFFF7CEFF0221304692
:10306000FEF7B0FD08B1641CE4B200220121304635
:10307000FEF7B5FDFFF7C0FF6D1C082DE5DB3846F8
:1030800000F068F82046BDE8F08100000000024032
:1030900070B5114E05460024280601D5012200E036
:1030A000002202213046FEF79AFDFFF7A5FF01221C
:1030B00011463046FEF793FDFFF79EFF00220121E7
:1030C0003046FEF78CFD6806050E641C082CE3DB19
:1030D000BDE8704000F020B80000024010B50D4C73
:1030E000012202212046FEF77AFD012211462046E8
:1030F000FEF775FDFFF780FF002202212046FEF754
:103100006EFDFFF779FF20460022BDE81040012147
:10311000FEF765BD0000024070B50D4D0122022191
:103120002846FEF75CFDFFF767FF0122114628469F
:10313000FEF755FDFFF760FF02212846FEF742FD2E
:103140000446002201212846FEF749FD204670BDB5
:103150000000024010B50D4C012814D000220221BD
:103160002046FEF73CFDFFF747FF012211462046AF
:10317000FEF735FDFFF740FF20460022BDE8104076
:103180000121FEF72CBD0122E9E70000000002400A
:1031900010B511EE100A25492DED028BB0EE408AD4
:1031A000884202DD9FED221A06E011EE100A214945
:1031B000884201D99FED201A2048214CF0EE418A27
:1031C000017811B90079012804D084ED068AC4ED94
:1031D0000C0A1FE09FED1B0A9FED1B1A68EE800A88
:1031E00080EE810A01F0F0FDDFED180A20EE201AD2
:1031F0009FED170AC1EE000AB7EE000A30EE601A22
:1032000030EE800A21EE081A20EE080A84ED061A34
:1032100084ED0C0A9FED0F0AF1EE040A0E4808EE49
:10322000A00A80ED020ABDEC028B10BD00007042C6
:1032300000007042000070C2000070C25800002000
:10324000A8020020DB0F494000003443C1CA213EE0
:103250003F359E3E0000AA42E402002030B541F610
:10326000641504686B42AC4201DD2C4602E09C42CE
:1032700000DA1C4604600868A84201DD2B4602E023
:10328000984200DB03460B6092ED000A084910EEFD
:10329000100A884202DD9FED070A06E010EE100AD0
:1032A0000549884201DA9FED050A82ED000A30BD2A
:1032B0000080ED440080ED440000E1440000E14462
:1032C0002DE9F0410C1E1E4E904605464FF48041FC
:1032D0004FF4004705DD01223046FEF780FC002256
:1032E00004E000223046FEF77AFC012239463046DF
:1032F000FEF775FC4FF400514F10002D05DD012243
:103300003046FEF76CFC002204E000223046FEF757
:1033100066FC012239463046FEF761FC002C00DADB
:103320006442084801684C63002D00DA6D42006871
:10333000056405490968C1F83480BDE8F0810000E2
:1033400000040240F80000208801002010B5802110
:103350006B2000F0ABF86420FEF78EFA00216B20A2
:1033600000F0A4F8032000F06DF8002000F065F8EC
:10337000322000F084F80021382000F097F8002176
:103380006A2000F093F80021232000F08FF88021BC
:10339000372000F08BF8752000F00DF801216B202C
:1033A00000F084F800216C2000F080F8C82000F0C4
:1033B00066F8002010BD10B50446FFF78FFED02040
:1033C000FFF766FE2046FFF763FEFFF787FED1207A
:1033D000FFF75EFE0120FFF72DFE0446FFF710FE0B
:1033E000204610BD2DE9F0411D4614460F46064605
:1033F000FFF774FE7006000EFFF74AFE3846FFF72F
:1034000047FEFFF76BFE012000EB4600C0B2FFF75E
:103410003FFE09E0012C0ED05FF00000FFF70AFE2E
:10342000641E05F8010BE4B2002CF3D1FFF7E8FDB0
:103430000020BDE8F0810120F0E7C006010E1C204D
:1034400000F034B8C006010E1B2000F02FB8BC28D5
:1034500001D3012110E0622801D302210CE02A28C7
:1034600001D3032108E0142801D3042104E00A2831
:1034700001D3052100E006211A2000F017B810B58D
:1034800004464FF47A70844201D9044602E0042CC9
:1034900000D20424B0FBF4F0401EC1B2192000F0A9
:1034A00005F86008BDE81040FFF7D1BF70B50D46C4
:1034B0000446FFF713FED020FFF7EAFD2046FFF792
:1034C000E7FD2846FFF7E4FDFFF79AFD002070BDF9
:1034D0002DE9F0411E4615460F460446FFF7FEFD56
:1034E0006006000EFFF7D4FD3846FFF7D1FD00243B
:1034F00004E0305DFFF7CCFD641CE4B2AC42F8D3CD
:10350000FFF77EFD0020BDE8F08100002DE9F043CB
:1035100087B014216846FDF7C0F8454800250168CA
:1035200041F004010160016801F0040105910168A6
:1035300041F080010160016801F08001059101689E
:1035400041F001010160016801F00101059101688C
:1035500041F0020101600068364F00F002004FF4B4
:1035600000540590002221463846FEF738FBDFF86C
:10357000C890002210214846FEF731FBDFF8BC80DE
:1035800000224FF206014046FEF729FB0094012479
:1035900002260395CDE9014669463846FEF722FA30
:1035A000102003958DE8510069464846FEF71AFA47
:1035B00031204FF40416CDE90006694602944046D6
:1035C000FEF710FA0620009001AA112082E83100CF
:1035D00069464046FEF706FA4FF470408DE8310028
:1035E000694640460395FEF7FDF92003CDE9000644
:1035F000694602944846FEF7F5F900221146062076
:10360000FEF75AFC0620FEF749FC002211460A206C
:10361000FEF752FC0A20FEF741FC0022114628204A
:10362000FEF74AFC2820FEF739FC07B0BDE8F0831E
:10363000303802400008024000000240000402400E
:103640000D4810B50B4901600C49416000214FF451
:1036500080428160C0E9031241618161C161016200
:10366000FEF7C8FA002803D0BDE81040FEF7A7B85F
:1036700010BD000000540040A4000020A0860100FE
:1036800010B596B000240F941094119412941394D2
:103690001C2168461494FDF700F8202107A8FCF7C8
:1036A000FCFF2C482A49C0E900144FF6FF71C0E91D
:1036B0000241046144618461FEF74EFF08B1FEF7E8
:1036C0007EF84FF480500F900FA92248FEF7D4FFE8
:1036D00008B1FEF774F81F48FFF7CCF908B1FEF700
:1036E0006EF8139413A91B481494FEF7F7FE08B163
:1036F000FEF765F86020CDE9000402940394049479
:1037000005940022694613480694FFF74DF908B165
:10371000FEF755F8082269460E48FFF745F908B14B
:10372000FEF74DF80794089409944FF400500A945A
:10373000CDE90B4007A907480E94FEF7A5FE08B196
:10374000FEF73DF80348FFF7F1F816B010BD000092
:1037500000000140F800002010B58CB0242168461C
:10376000FCF79BFF0024144809944FF080410A9411
:10377000C0E90014611EC0E90241046184610120B6
:10378000CDE90004CDE902040494CDE90540079495
:10379000694609480894FEF7DDFF08B1FEF70FF807
:1037A000099409A904480A94FEF798FE002801D05C
:1037B000FEF705F80CB010BD4001002010B58EB02A
:1037C00000240794089409940A940B941C216846D9
:1037D0000C94FCF762FF1E481C49C0E900144FF628
:1037E000FF71C0E9024104618461FEF7B5FE08B1D2
:1037F000FDF7E5FF4FF48050079007A91448FEF746
:103800003BFF08B1FDF7DBFF1148FFF733F908B1C3
:10381000FDF7D5FF0B940BA90D480C94FEF75EFE47
:1038200008B1FDF7CCFF6020CDE90004029400222E
:10383000694607480494FFF7B7F808B1FDF7BFFFE2
:103840000348FFF773F80EB010BD000000040040FD
:103850008801002010B58CB024216846FCF71DFFBC
:1038600000241548099413490A94C0E900144FF63E
:10387000FF71C0E90241046184610120CDE90004C7
:10388000CDE902040494CDE90540079469460A484D
:103890000894FEF75FFF08B1FDF791FF099409A9AD
:1038A00005480A94FEF71AFE002801D0FDF787FFAD
:1038B0000CB010BD00080040D00100201FB5002151
:1038C00010480091019102910D4A0391C0E9002135
:1038D0004FF6FF72C0E9021201618161FEF73CFE02
:1038E00008B1FDF76CFF4FF4805000906946054821
:1038F000FEF7C2FE002801D0FDF761FF1FBD0000EA
:1039000000400140180200200C4810B50A4901602F
:103910004FF4E1314160002181600C22C160C0E9B7
:1039200004128161C161FFF77BFA002803D0BDE872
:103930001040FDF744BF10BD00440040600200206D
:10394000FEE7FEE77047000010B500212DED028B69
:10395000B0EE408A2948FFF713F900EE100A284C10
:10396000F8EE400AC4ED050A10EE900A04F086F95C
:103970009FED240B53EC102B03F0BEFF9FED230BA8
:1039800053EC102B03F0BAFE9FED220B53EC102BDF
:1039900003F044FD03F068FC00EE900A1F48C4EDFC
:1039A000040A78EE600AC4ED000A94ED020A30EED3
:1039B000201A84ED021A90ED000A20EE202A9FEDD5
:1039C000180AC2EE001A90ED012A22EE011A81EEC9
:1039D000002A31EE821A94ED032AD0ED021A30EE5D
:1039E000C22A61EE821A81EE802A31EE020A84ED4B
:1039F000010AC4ED030ABDEC028B10BD8801002052
:103A0000100000200000000000789E400000000030
:103A1000000022400000000000002440A802002016
:103A20000000C84210B5074C94ED020AFFF78CFF66
:103A300084ED000AD4ED010A30EE800A84ED010A1B
:103A400010BD0000E4020020024600200146022AC8
:103A500006D0042A03D103480268506A51627047B5
:103A60000148F9E7D0010020400100207047000024
:103A70002DE9F05FA14C00254FF0030B6379A4F111
:103A80001008DFED9F1A9F4F9FED9F0A4FF0640AC9
:103A9000DFED9E2A9FED9E1ADFED9E0A9FED9E3A76
:103AA0009FED9E2A214601264A78887991F8039055
:103AB00009790D2B7ED2DFE803F07D071B3A5468AD
:103AC0008396B4C7DFF8F600207800280ED0B0EE59
:103AD000610A98ED031AF0EE400AFFF759FB387DB2
:103AE000012803D12570667002216171BDE8F09F45
:103AF00072B168B9B0EE401AF0EE400AFFF748FB29
:103B0000A671A7F816A0012210218548FEF767F8D4
:103B1000E0780028EAD0002210218148FEF75FF803
:103B2000A571E5706570267184F805B0DEE701299E
:103B300007D130B9B0EE621ADFED7A0AFFF728FB41
:103B4000A67098ED030ABDEEC00A10EE100A002818
:103B500000DA40422828C9DBA57002202071042029
:103B600011E0022907D130B9B0EE600AFFF710FB6F
:103B7000A671A7F816A0E0780028B7D0A571E57067
:103B800084F804B005206071B0E7032907D130B98B
:103B9000B0EE431A9FED640AFFF7FAFAA67098EDAB
:103BA000030ABDEEC00A10EE100A002800DA4042F7
:103BB000052800E09FE099DCA57025710620E2E76A
:103BC00049B940B9B0EE610AF0EE400AFFF7E0FAF9
:103BD000A671A7F816A0E078002887D0A571E57037
:103BE00066700720CFE77AB170B9B0EE401AF0EEF8
:103BF000400AFFF7CDFAA6714FF4FA70F88201225D
:103C000010214748FDF7EBFFE07800288ED0002216
:103C100010214348FDF7E3FFA571E57065700820AA
:103C2000B1E7B9F1000F0BD10028ADD1B0EE600AB9
:103C3000FFF7AEFAA6713C20F882E0780028A3D006
:103C4000A571E57009209EE742B9F0EE400AB0EE9A
:103C5000431AB0EE420AFFF79BFAA67098ED030AEA
:103C6000BDEEC00A10EE100A002800DA40422828F3
:103C70008ADBA5700A2086E7B9F1000F0FD1002872
:103C8000D3D1B0EE401AB0EE610AF0EE400AFFF771
:103C90007FFAA6715020F882E07800289DD0A571A7
:103CA000E5700B206FE71AE0FFE740B9B0EE621A4B
:103CB000F0EE420AB0EE610AFFF76AFAA67098EDDC
:103CC000030ABDEEC00A10EE100A002800DA4042D6
:103CD00005283FF72BAFA57066700C2053E7002A2C
:103CE00094D00028A1D1BDE8F05FB0EE401AF0EE0C
:103CF000400AFFF74DBA6671F8E600005800002050
:103D00000000C842E4020020000000000080C04320
:103D10000000AA420000C8C2000057C30000484388
:103D200000000240000048C3000066C3FEF75CB814
:103D300030B593B030216846FCF7AFFC14210CA8D5
:103D4000FCF7ABFC1D480025016841F08051016083
:103D5000006800F0805011901948016821F440413A
:103D600041F4004101600068022400F440401190D9
:103D700001200090000401908001CDE90640192047
:103D80000890A820CDE9090404200B906846FEF7AE
:103D9000B1F908B172B6FEE70CA90F2081E8310035
:103DA0004FF48050CDE90F0502210CA8FEF7B6F8BC
:103DB000002801D072B6FEE713B030BD4038024093
:103DC000007000400248016841F4700101607047D2
:103DD00088ED00E0F0B50268204B214C9F03214D97
:103DE000214E984207D0B84205D0A04203D0A84245
:103DF00001D0B04204D122F0700C4A6842EA0C02B1
:103E0000984210D0B8420ED0A0420CD0A8420AD09E
:103E1000B04208D0154CA04205D0154CA04202D0AB
:103E2000144CA04203D122F44074CA6822434C6966
:103E300022F08002224302608A68C2620A688262BB
:103E4000984201D109690163012141610169C907F2
:103E500003D0016921F001010161F0BD00000140C2
:103E60000004004000080040000C004000400140F9
:103E7000004401400048014010B501F01F0301213A
:103E8000046A99408C430462016A9A4011430162BA
:103E900010BD10B5846842EA032224F47F440A432B
:103EA0002243826010BD826822F070020A4342F011
:103EB000070181607047000030B5036A026A22F092
:103EC000010202624268846924F073050C682C4385
:103ED00023F002058B682B430A4DA8420BD123F037
:103EE0000805CB6822F440722B434D6923F004038C
:103EF00015438A692A4342608461496841630362C9
:103F000030BD00000000014030B5026A036A23F0B2
:103F100010030362436884690D6824F4E64444EAAC
:103F200005248D6822F0200242EA05120B4DA842BA
:103F30000ED1CD6822F0800242EA05124D6923F4C9
:103F4000406343EA85038D6922F0400243EA85031A
:103F50004360846149688163026230BD00000140B2
:103F600030B5036A026A22F4807202624268C46950
:103F700023F4007324F073050C682C438D6843EA26
:103F800005230C4DA8420ED1CD6823F4006343EA0B
:103F900005234D6922F4405242EA05128D6923F44B
:103FA000806342EA05124260C4614968C1630362EA
:103FB00030BD00000000014030B5046A026A22F4FE
:103FC000805202624268C3690D6823F4E64343EA03
:103FD00005238D6824F4005444EA0534064DA842B4
:103FE00004D14D6922F4804242EA85124260C361E5
:103FF00049680164046230BD0000014010B5036AE5
:10400000046A24F001040462846924F0F00444EAA0
:10401000021423F00A020A438461026210BD10B543
:10402000036A046A24F010040462846923F0A00384
:1040300024F4704444EA023243EA011182610162CD
:1040400010BD10B5806B0021C185C184FEF7AEFDA7
:1040500010BD01680C3151E8002F22F4907241E844
:104060000023002BF5D10168143151E8002F22F014
:10407000010241E80023002BF5D1016B012909D190
:1040800001680C3151E8002F22F0100241E80023B2
:10409000002BF5D1202180F84210002101637047E8
:1040A00008B590F84210222901D0022008BD82688C
:1040B0004FF480539A4201D1016921B1816A9A4239
:1040C0001BD04AB10AE00268816A5268C2F3080252
:1040D0000A80816A891C08E0026972B1026852682C
:1040E00002F07F020A70816A491C8162C18D491EFB
:1040F0000904090CC18503D01BE002685268F1E78E
:104100000168CA6822F02002CA600168CA6822F405
:104110008072CA6001684A6922F001024A61202166
:1041200080F8421000214163026B012A03D0FEF7A0
:10413000F3FE002008BD016301680C3151E8002F37
:1041400022F0100241E80023002BF5D101680A6833
:10415000D20602D50A6849680091818DFEF725FDD7
:10416000E7E7000070B5044600680169E26821F4E1
:104170004051114301612169A068E2690843616906
:10418000114308432168CA6849F20C639A43024309
:10419000CA6020684169A26921F4407111434161FC
:1041A00031492068884202D03049884202D1FDF767
:1041B0005FFF01E0FDF74CFFE26900231921642550
:1041C0003226B2F5004F626828D0A0FB0101930FA0
:1041D0009200FCF75BF80146B0FBF5F06FF01802B7
:1041E000504301EB800006EB0010B0FBF5F000F04F
:1041F000F002B1FBF5F002EB0012B1FBF5F06FF04D
:104200001803584301EB800006EB0010B0FBF5F0FB
:1042100000F00F0021681044886070BDA0FB010110
:1042200092185B41FCF732F80146B0FBF5F0020151
:10423000B1FBF5F06FF01803584301EB800006EB7B
:10424000C000B0FBF5F000F0F80002EB4002B1FB5B
:10425000F5F0584301EB800006EBC000B0FBF5F031
:1042600000F00700D6E700000010014000140140F4
:1042700081628285C28500214164222180F842103A
:10428000016921B10168CA6842F48072CA6001689C
:104290004A6942F001024A610068C16841F02001A8
:1042A000C160002070472DE9F843984617460D4637
:1042B0000446089E24E0701C22D0FDF795FCA0EB7C
:1042C0000800B0421AD8CEB12068C168490717D596
:1042D000802D15D0402D13D00168C94309070FD494
:1042E00001680025406800902046FFF7B2FE0820D4
:1042F000606484F840500120BDE8F8830320FBE7A8
:104300002068006835EA000004D00020B842D2D00E
:104310000020F1E70120F9E70148FEF749BC000061
:1043200060020020FEE7000010B50446FCF76CF9BF
:10433000214682B2BDE810404FF0FF330148FEF73E
:1043400009BE0000600200200E4810B5B0F91A0046
:1043500003F0BCF99FED0C1B53EC112B03F0CEF9CD
:104360009FED0B1B53EC112B03F058F802F07CFF70
:1043700000EE100A084880ED070ABDE8104000F082
:1043800037B80000E402002000000000004CED40BF
:10439000000000000050C440A80200200E4810B5E4
:1043A000B0F91C0003F092F99FED0C1B53EC112B9C
:1043B00003F0A4F99FED0B1B53EC112B03F02EF827
:1043C00002F052FF00EE100A084880ED0D0ABDE829
:1043D000104000F05BB80000E40200200000000084
:1043E000004CED40000000000078CE40A802002004
:1043F0001F49D1ED060A70EEC00A10EE900AB0F126
:104400007C5F06DA10EE900AB0F13F4F01D2DFED8B
:10441000190A1948194B90ED080A30EE200A10EEDF
:10442000102A80ED080A9A4202DD9FED150A06E087
:1044300010EE102A134B9A4203D99FED130A80ED18
:10444000080A91ED030A91ED041AD0ED081A20EE46
:10445000200A01EE210AD0ED071A91ED051A70EE3F
:10446000E11A01EE210A80ED090AC0ED070A704742
:10447000A8020020000000001000002000802C4452
:1044800000802C4400802CC400802CC41F49D1ED36
:104490000C0A70EEC00A10EE900AB0F17C5F06DAEA
:1044A00010EE900AB0F13F4F01D2DFED190A194822
:1044B000194B90ED0C0A30EE200A10EE102A80ED18
:1044C0000C0A9A4202DD9FED150A06E010EE102A52
:1044D000134B9A4203D99FED130A80ED0C0A91ED1C
:1044E000090A91ED0A1AD0ED0C1A20EE200A01EE0D
:1044F000210AD0ED0B1A91ED0B1A70EEE11A01EEC4
:10450000210A80ED0D0AC0ED0B0A7047A8020020B9
:10451000000000001000002000802C4400802C448B
:1045200000802CC400802CC403B401984100009882
:1045300050EAC12018BF04204A0D18BF40F0010006
:1045400040F2FF72B2EB515F08BF40F00200012859
:1045500008BF052002B070474100080218BF0420C0
:104560000A0E18BF40F001004FF07F4232EA01010D
:1045700008BF40F00200012808BF05207047090766
:10458000090E002804DB00F1E02080F800147047D9
:1045900000F00F0000F1E02080F8141D70470000CB
:1045A00070B5C1482DED020B2DED0E8B82B0119D23
:1045B00025F000449FEDBEDB9FEDBFEB84423EDB68
:1045C000A4F140511098A1F17F6108430FD0BC487D
:1045D000844202DC28D1109830B39DED100B02B05C
:1045E000BDEC0E8B02B0BDE8704000F027BD9DED24
:1045F000100B53EC1D2B51EC100B03F07FF89DEDCD
:10460000100B41EC180B53EC1E2B51EC100B03F06C
:1046100075F853EC182B02F059FE41EC100B02B068
:10462000BDEC0E8B02B070BD0120FCF7A5F802B006
:10463000BDEC0E8B02B0BDE8704000F015BDA14886
:104640009FEDA18B844256DA9DED100BB4F1795F9A
:104650000ADA51EC100BFFF767FF042808BF00F0DF
:1046600013FD9DED100BDAE753EC102B51EC100B02
:1046700003F044F841EC190B95480621B0EE490AC5
:10468000F0EE690A784400F05DFC53EC192B51EC14
:10469000100B03F033F841EC1A0B8E48B0EE490AC8
:1046A000F0EE690A0421784400F04CFC53EC192B1D
:1046B00051EC100B03F022F853EC182B02F006FE1D
:1046C00041EC100B51EC1A0B53EC102B02F0A6FE30
:1046D000CDE900019DED000B53EC102B9DED100B6F
:1046E00051EC100B03F00AF89DED101B53EC112B4D
:1046F00002F0ECFDD2E09DED100B51EC100B01F03F
:10470000A1FA53EC182B03F0F7F89FED730BCDE9EA
:10471000000153EC102B9DED000B51EC100B02F03F
:10472000EDFF41EC190B6E480621B0EE490AF0EEA0
:10473000690A784400F006FC53EC192B51EC100B7D
:1047400002F0DCFF41EC1B0B6648B0EE490AF0EECC
:10475000690A0421784400F0F5FB53EC192B51EC65
:10476000100B02F0CBFF53EC182B02F0AFFD41EC25
:104770001C0B51EC190B02F033FD41EC180B5A489D
:104780009FED5BABA04222DC53EC1C2B51EC1B0BCE
:1047900002F044FECDE900019DED000B51EC180B39
:1047A00053EC102B02F0AAFF53EC182B02F08EFDF5
:1047B00053EC1A2B02F0A2FF53EC1D2B03F074F9FB
:1047C00053EC1E2B03F098F841EC100B5FE08DEDDD
:1047D000008B002000909DED000B51EC180B53EC6A
:1047E000102B02F073FD9DED000B41EC1E0B53EC02
:1047F000102B51EC100B02F081FF53EC192B03F03E
:104800007BF853EC1E2B02F009FE41EC190B53EC24
:104810001C2B51EC1B0B02F001FE41EC1B0B53EC6B
:104820001A2B51EC190B02F069FF53EC1D2B03F00E
:1048300063F841EC190B53EC1A2B51EC180B02F0F6
:104840005DFF53EC1B2B02F059FF53EC192B03F0C7
:104850002BF99DED000B41EC180B53EC1A2B51EC8E
:10486000100B02F04BFF9FED249B53EC192B03F030
:1048700043F841EC100B51EC180B53EC102B03F0E8
:1048800013F953EC192B03F037F841EC100B002D02
:104890003FF7C5AE51EC100B02F0D9FC41EC100B08
:1048A000BDE60000000000000000F03F0000000036
:1048B000075C143326A6913C182D4454FB21F93F84
:1048C0000000F07F0000E03F000000000000F03F2B
:1048D000604300006E430000000000000000E03F65
:1048E000B2420000C04200003333EF3F000000003E
:1048F0000000000000000040182D4454FB21E93F57
:1049000070B59B482DED020B2DED068B079D25F014
:104910000044A04218DC9748844202DC0AD1069881
:1049200040B19DED060BBDEC068B02B0BDE87040BA
:1049300000F084BB002DCCBF9FED8F0B9FED900B43
:10494000BDEC068B02B070BD8F48A04215DD8F48CC
:10495000A042D8BF4FF0FF3458DD9DED060B51EC5F
:10496000100BFFF7E1FD042808BF00F08DFB9DED63
:10497000060BBDEC068B02B070BD9DED060B51EC35
:10498000100B01F05FF9CDE9060181489FED828BA4
:10499000A0423CDD8248A0421FDD00249FED82AB97
:1049A0009DED060B53EC1A2B51EC100B02F08EFC14
:1049B0009DED060B41EC190B53EC1A2B51EC100B2F
:1049C00002F09CFE53EC182B03F06EF853EC192BFD
:1049D00002F024FDCDE9060149E09DED060B01241E
:1049E00053EC182B51EC100B02F070FC9DED060BF4
:1049F00041EC190B53EC182B51EC100B03F054F84D
:104A000053EC192B02F00AFDCDE906012FE06848AE
:104A1000A0421FDD02249FED689B9DED060B53EC29
:104A2000192B51EC100B02F069FE53EC182B02F01D
:104A30004DFC9DED060B41EC180B53EC192B51EC82
:104A4000100B03F031F853EC182B02F0E7FCCDE922
:104A500006010CE09DED060B032453EC102B9FED9B
:104A6000580B51EC100B02F0D9FCCDE906019DED7D
:104A7000060B53EC102B51EC100B02F03FFE41ECF7
:104A8000180B53EC182B02F039FE41EC190B4E4871
:104A90000621B0EE490AF0EE690A784400F052FAB5
:104AA00053EC182B51EC100B02F028FE41EC180BC4
:104AB0004648B0EE490AF0EE690A0521784400F054
:104AC00041FA53EC192B51EC100B02F017FE41EC9C
:104AD000100B51EC180B53EC102B002C0EDA02F0DB
:104AE000F5FB9DED061B53EC112B02F007FE9DED2F
:104AF000061B53EC112B02F0FFFE35E002F0E6FB43
:104B00009DED061B53EC112B02F0F8FD41EC100B50
:104B10002F48784400EBC40090ED001B51EC100BC3
:104B200053EC112B02F0C0FF9DED061B53EC112B33
:104B300002F0BAFF41EC100B2648784400EBC400A9
:104B400090ED001B51EC100B53EC112B02F0D4FE36
:104B500041EC100B002DA2BFBDEC068B02B070BD66
:104B600051EC100B02F073FB41EC100B01E700005D
:104B7000000010440000F07F182D4454FB21F93F41
:104B8000182D4454FB21F9BF0000DC3F0000203EFB
:104B90000000F33F00000000000000000000F03FB4
:104BA0000000E63F000000000000000000000040A0
:104BB0000080034000000000000000000000F83FFB
:104BC000000000000000F0BF02400000B83F0000FD
:104BD000423F0000FA3E000070B56B4E2DED040B15
:104BE0002DED028B82B0DDF81CC0DDE905235C42AF
:104BF0002CF000411C4341EAD474049D22F0004093
:104C0000B44205D86C422C4340EAD474B4420BD968
:104C10009DED061B9DED040B02B0BDEC028B04B0B4
:104C2000BDE8704000F014BAACF14054A4F17F64C8
:104C30001C430BD0022404EAAC7444EAD27405434A
:104C40009FED538B9FED542B07D015E09DED040B8A
:104C500051EC100B00F036FB42E0002C11BF012C90
:104C60009DED040B02B0BDEC028B04BF04B070BD1F
:104C7000022C38D0032C3BD00B439FED491B9FEDFA
:104C80004A0B0AD0B14218D1B04209D121F080417B
:104C900020F08040079105900FE0002A15DA10E01F
:104CA000434B7B44002C08BF93ED000B0DD0012C2F
:104CB00010D0022C17D0032C1AD0B0421DD1002ADC
:104CC00003DAB0EE410AF0EE610A02B0BDEC028BED
:104CD00004B070BD93ED000B51EC100B02F0B7FA6D
:104CE00041EC100BF1E7B0EE480AF0EE680AECE791
:104CF000B0EE420AF0EE620AE7E7401A00153C28DF
:104D0000C8BF8DED000B19DCBCF1000FBEBF10F168
:104D10003C0F9FED290B8DED000B0FDB9DED060B7E
:104D200053EC102B9DED040B51EC100B02F076FBB5
:104D300000F088FF00F0C6FACDE90001002C08BFA2
:104D40009DED000BC1D0012C10D0022C9FED1C0B4F
:104D500053EC102B9DED000B51EC100B0DD002F01D
:104D6000A3FE53EC182B02F09FFEB9E7019880F0E8
:104D7000004001909DED000BA7E702F095FE53EC7B
:104D8000182B02F0B9FDABE70000F07F0000000037
:104D9000182D4454FB210940182D4454FB2109C00F
:104DA000182D4454FB21F9BF182D4454FB21F93F21
:104DB0002A3E00000000000000000000000000008B
:104DC000075C143326A6A13C00B510EE101A2DED99
:104DD000028B81B04D4A6846B2EB410F3CD94FF08F
:104DE000E640B0EB410F94BF00204FF0FF30009041
:104DF0000098B0EE408A00285FDB28EE080ADFED5D
:104E0000440A9FED441A00EE201ADFED430A40EEFB
:104E1000010A9FED421A00EE201ADFED410A10F060
:104E2000010F40EE010A9FED3F1A00EE201A61EEDD
:104E3000000AB0EE480A08EE200A02BF01B0BDEC3D
:104E4000028B00BDBFEE001A01B0C1EE000ABDEC3E
:104E5000028BB0EE600A00BD334B21F0004293425A
:104E600028D911F0004FDFED310A20EE201ADFEDD6
:104E7000300A19BF31EE601A71EE200A31EE201AA5
:104E800071EE600ABDEEE01A11EE100A9FED291ACC
:104E900000F0030000EEC10A9FED271A009000EE1B
:104EA000C10A9FED261A00EEC10A9FED251A00EEF9
:104EB000C10A9DE700F00CF99AE718EE100A4000CD
:104EC000B0F17F4F0DD218EE100AFFF745FB042812
:104ED00008BF00F0F5F8B0EE480A01B0BDEC028B57
:104EE00000BD09D10120FBF747FC01B0BDEC028BEE
:104EF0005DF804EB00F0DCB801B0B0EE480ABDECA0
:104F0000028B5DF804EB00F0CFB80000B61F927E74
:104F1000BBE9223C0C6D063B8A76CE3CACB5593DD4
:104F200035A1083E29AAAA3E490E494683F9223FE7
:104F30000000004B0000C93F00A0FD390020A23353
:104F40001A61342C70B504462DED028B4D1E00EB1A
:104F5000C500B0EE408AF0EE608A90ED000B35F0AF
:104F6000060017D053EC182B51EC100B02F0C6FBC7
:104F700041EC100B6D1E04EBC50090ED001B51ECD5
:104F8000100B53EC112B02F0A1F941EC100B35F092
:104F90000600E7D1022D36D0042D1CD0062D1CBFF3
:104FA000BDEC028B70BD53EC182B51EC100B02F0D2
:104FB000A5FB94ED0A1B53EC112B02F087F953EC7F
:104FC000182B02F09BFB94ED081B53EC112B02F005
:104FD0007DF941EC100B53EC182B51EC100B02F047
:104FE0008DFB94ED061B53EC112B02F06FF953EC83
:104FF000182B02F083FB94ED040B53EC102B02F002
:1050000065F941EC100B53EC182B51EC100B02F02E
:1050100075FB94ED021B53EC112B02F057F953EC86
:10502000182B02F06BFB94ED001B53EC112B02F0DC
:105030004DF9BDEC028B41EC100B70BD10B553EC7B
:10504000102B51EC100B02F041F941EC100B10BD8C
:1050500010B553EC112B51EC100B02F037F941EC69
:10506000100B10BD000000009FED050B10B553ECB8
:10507000102B51EC100B02F0D1F941EC100B10BDCC
:1050800000000000000000009FED050B10B553EC80
:10509000102B51EC100B02F031FB41EC100B10BD4A
:1050A000000000000000001030EE000A7047000011
:1050B000DFED020A80EEA00A704700000000000049
:1050C0009FED020A20EE000A704700000000001069
:1050D0002DE9F0014FF07F42B2EB410F9FBF4FF03F
:1050E000FF310160BDE8F00170474FF0004242EA35
:1050F0000123C1F3C752783A551112F01F0C434CEB
:10510000CCF120067C44C1F3C752A2F178024FEAE9
:10511000621204EB820254F8254008BFD2E901561E
:1051200012D0556804FA0CF425FA06F73C43976848
:1051300005FA0CF527FA06F8D26807FA0CFCF240DB
:1051400045EA08054CEA0206A4FB034CA5FB035202
:10515000A6FB03631D449D4234BF0126002613199C
:10516000334416B1934202D903E0934201D20122A3
:1051700000E00022624402F1200C9206DC0C42EABC
:10518000443200EE102A5B03DFED210AF8EEC01A6C
:1051900000EE103A4FEA9C1C11F0004FB8EE400AA6
:1051A000C0F800C020EE201A00EE105ADFED190AF8
:1051B000B8EE400A20EE200A71EE810A70EE800AF5
:1051C00010EE902A02F500626FF30B0200EE902AB7
:1051D00070EEE11A31EEC11ADFED101A30EE411A0D
:1051E0009FED0D0A20EE800A01EE210A9FED0C1AB8
:1051F00000EE810A04BFBDE8F0017047CCF1805198
:105200000160BDE8F001B1EE400A7047D0390000FE
:10521000000000360000802C22AAFD29DB0FC92FD8
:105220000000C92F30380A2801D201207047002021
:1052300070470000FEB506460D460024684600F0A3
:1052400019FD00229FED1B1A6B46012156F82270B2
:1052500055F82200381A00D5404200EE100A03EB40
:105260008200B8EEC00AD0ED000A20EE010AF5EE89
:10527000C00AF1EE10FA0DD0C0EE201AB7EE000A07
:105280000D4F31EEC00AB0EEC00A10EE100AB8425F
:1052900007DC09E010EE100A084F3844084FB84206
:1052A00002D301FA02F00443521C032ACEDB20464B
:1052B000FEBD000000008037295C0F3E666666C1B7
:1052C0009A99D90010B541EC100BFFF719FB51EC7E
:1052D000100B10BD08B560B120208DF8000028200B
:1052E0008DF8010030208DF8020038208DF8030081
:1052F00004E0A32204216846FBF7A5F96A460421CD
:1053000040F69E2001F0A6FE01F064FB08BD0000FF
:105310003EB5044602208DF80000CA208DF8010039
:10532000E3208DF8020009208DF803006A4604216D
:10533000682001F08FFEA3208DF80000610609D5DA
:10534000C0218DF80110C8218DF80210C2218DF8FE
:10535000031005E08DF801008DF802008DF80300C0
:1053600014F4C07F09D0C4218DF80410CC218DF82D
:105370000510C6218DF8061005E08DF804008DF8A3
:1053800005008DF806008DF808008DF807008DF8EF
:1053900009006A460A2140F6A72001F05BFEA0073B
:1053A0004FF0D80503D020208DF8000001E08DF8E3
:1053B00000506A46012140F6B62001F04BFEA006DF
:1053C00001D5012000E0002000F08EF814F4C07F29
:1053D0001ED0E0050AD5B2208DF800008B208DF894
:1053E0000100B6208DF802009B2009E0B0208DF866
:1053F000000080208DF80100B4208DF8020090207C
:105400008DF803006A46042140F6A22001F022FE36
:10541000E1074FF40B6022D0F8218DF800106A46A6
:10542000012101F017FEFA21072000F03BFB0720C5
:1054300000F006FB012000F023FB642000F0E2FBFB
:105440004FF4FA7000F0EEFBC821254800F0C0FAD6
:10545000282000F0D5FA0A2000F0E2FA05E08DF8E5
:1054600000506A46012101F0F5FDA00703D5D920BF
:105470008DF8000001E08DF800506A46012140F2ED
:105480003D7001F0E7FD600701D5012000E000203C
:1054900000F048F8E00601D5012000E00020FFF709
:1054A00019FF104D44F00800688101F093FA0020C4
:1054B000A873600601D50620A87314F4C07F02D03B
:1054C000A87B801DA87314F0140F02D0A87B1030A5
:1054D000A873A00702D0A87B001DA87300203EBDC2
:1054E00009E3CA02840300200EB54FF4976310B19C
:1054F00006A107C901E008A207CA8DE807006A46AD
:105500000921184601F0A6FD0EBD0000B8AAB38D12
:10551000B4980D355D000000B8AAAAAAB088C3C52A
:10552000C700000008B560B1C0208DF80000C2209F
:105530008DF80100C4208DF80200C6208DF803000C
:1055400004E08B2204216846FBF77DF86A460421BB
:1055500040F6982001F07EFD01F03CFA08BD000005
:10556000C8234FF48062024940F6F63001F014B9C6
:10557000DC7D00082DE9FF4F89B01746DDE91652A2
:1055800000244D4E884681462C80A246B07B694659
:1055900001F0AEF94FF0FF3B18B158460DB0BDE831
:1055A000F08F708910F0140F3ED0009909BA21F0E5
:1055B000FF029DF803100A433A6001999DF80730F5
:1055C00009BA21F0FF0119437960029B9DF80B4055
:1055D0001BBA23F0FF032343BB60039C121424BABD
:1055E00024F0FF0C9DF80F4009144CEA040C102421
:1055F000C7F80CC01B144FEA2C4712FB02F211FB38
:10560000012113FB03F217FB07221144A1F1706182
:10561000B1F1007F04D901F0DDF9A5F800A0BCE7E5
:10562000298841F4807129804206694611D50A19FA
:10563000A41D13885BBAA8F8003053885BBAA8F899
:105640000230928852BAA8F804202A8842F0080250
:105650002A8010F4C07F11D00A19A41D13885BBAE8
:10566000A9F8003053885BBAA9F80230928852BA80
:10567000A9F804202A8842F070022A80800716D0F8
:105680000C44E07800F0C00500F03F016078C007EE
:1056900006D0C80801F007013268491C02B19047E2
:1056A0006078000703D5716809B1A80988470C988C
:1056B00000F0F2FD002071E7840300202DE9FF4196
:1056C000044603A800F030FFBDF80C00410CC303F2
:1056D0002F48028902F00300550754F8200000D536
:1056E0004042C2F3C105960654F8255000D56D42DC
:1056F000C2F38116D20554F8264000D56442A0FBBF
:105700000367C21702FB037200FB0120820042EA1A
:105710009670A5FB0367EA1702FB037205FB0122E3
:10572000950045EA9672A4FB0367E51705FB037332
:1057300004FB01318B0043EA9671030E8DF80030B3
:10574000030C8DF80130030A8DF802308DF8030048
:10575000100E8DF80400100C8DF80500100A8DF85D
:105760000600080E8DF80800080C8DF80900080ADC
:105770008DF80A008DF807208DF80B106A460C2171
:105780004FF4257001F066FC04B0BDE8F081000024
:105790008403002030B5044613A285B007CA8DE803
:1057A00007004FF0FF35C82C16D8C820B0FBF4F125
:1057B000491E080A8DF80C008DF80D1003AA02216D
:1057C00040F2162001F046FC30B96A460C2140F642
:1057D000C12001F03FFC10B1284605B030BD05489E
:1057E00084810020F9E70000FEF2ABC4AAF1DFDFFC
:1057F000BBAFDFDF84030020F8B53049098901F031
:10580000030250F822404A0700D56442C1F3C102A6
:105810008B0650F8222000D55242C1F3811350F874
:105820002330C80500D55B42254984FB0140850033
:1058300045EA947082FB0142A40F44EA820483FB90
:105840000121950F45EA8105010E8DF80010010C2C
:105850008DF80110010A8DF802108DF803006A46D8
:1058600004214FF4747001F0F5FB4FF0FF3688B956
:10587000200E8DF80000200C8DF80100200A8DF814
:1058800002008DF803406A4604214FF4757001F060
:10589000E1FB08B13046F8BD280E8DF80000280C59
:1058A0008DF80100280A8DF802008DF803506A4631
:1058B00004214FF4767001F0CDFBF8BD8403002085
:1058C00009E3CA022DE9FF4104463CA004F00303AA
:1058D000006802903AA0006803903AA006683AA0D7
:1058E000056802A8C15C8DF80010C4F3C101425CD8
:1058F0008DF80120C4F38112805C8DF8020003A8AA
:10590000C35C8DF80430415C8DF80510805C8DF827
:1059100006006A46032140F2264001F09BFB4FF04F
:10592000FF37E0BB01AA032140F22A4001F092FBBD
:10593000A8BBCDE9006560070BD59DF8000040F0DD
:1059400001008DF800009DF8040040F001008DF882
:105950000400A0060BD59DF8010040F001008DF871
:1059600001009DF8050040F001008DF80500E005FC
:105970000BD59DF8020040F001008DF802009DF863
:10598000060040F001008DF806006A4603214FF43E
:10599000886001F05FFB10B901AA032100E004E078
:1059A00040F2314001F056FB18B1384604B0BDE872
:1059B000F081064804810020F8E700004CCD6C001F
:1059C0000CC92C003656760026466600840300205B
:1059D0004FF47A7290FBF2F008B54843010E8DF84F
:1059E0000010010C8DF80110010A8DF802108DF8DD
:1059F00003006A4604214FF4AE7001F02BFB08BD92
:105A00000521B0FBF1F008B5010A8DF800108DF802
:105A100001006A4602214FF4AD7001F01BFB08BD86
:105A20000521B0FBF1F008B5010A8DF800108DF8E2
:105A300001006A4602214FF4AC7001F00BFB08BD77
:105A400008B500218DF80010C10702D030218DF873
:105A50000010810705D59DF8001041F00C018DF86C
:105A60000010400705D59DF8000040F003008DF8B8
:105A700000006A4601214FF4A47001F0EBFA08BD62
:105A800008B560B1042800D90420401E8DF800003C
:105A90006A46012140F24F1001F0DCFA08BD0120F6
:105AA000F3E7000070B504462DED028B82B040078D
:105AB0004FF0FF357ED0B1F5C86F7BD800EE101ADD
:105AC000B8EE400ADFED460A01A880EE208A00F019
:105AD0000DFD9DF80400022806D0042810D00828E7
