:020000040800F2
:10000000880A002055020008213C00083932000807
:100010001D3C00086D19000875480008000000002C
:10002000000000000000000000000000953D0008F6
:10003000B919000800000000513C000849410008BF
:100040006F0200086F0200086F0200086F020008CC
:100050006F0200086F020008BD1900086F02000857
:100060006F0200086F020008D51900086F0200082F
:100070006F0200086F0200086F0200086F0200089C
:100080006F0200086F0200086F0200080000000005
:100090000000000000000000000000006F020008E7
:1000A0006F0200086F0200086F0200086F0200086C
:1000B0006F0200086F0200086F0200086F0200085C
:1000C0006F0200086F0200086F0200086F0200084C
:1000D0006F0200086F020008654800080000000079
:1000E000C91900086F0200086F0200080000000034
:1000F0000000000000000000000000006F02000887
:10010000000000006F0200086F0200086F02000884
:1001100000000000000000000000000000000000DF
:100120006F0200086F0200086F0200086F020008EB
:100130006F02000800000000000000000000000046
:100140000000000000000000000000006F02000836
:100150006F0200086F0200086F0200086F020008BB
:100160006F0200086F02000800000000000000009D
:10017000000000000000000000000000000000007F
:10018000000000006F0200080000000000000000F6
:100190006F02000800F002F800F04CF80AA090E8A6
:1001A000000C82448344AAF10107DA4501D100F032
:1001B00041F8AFF2090EBAE80F0013F0010F18BFB3
:1001C000FB1A43F0010318472C9400004C940000E4
:1001D000103A24BF78C878C1FAD8520724BF30C873
:1001E00030C144BF04680C60704700000023002445
:1001F00000250026103A28BF78C1FBD8520728BF37
:1002000030C148BF0B607047642900F0298178290C
:1002100000F06281002070471FB508F0B8FA9DE831
:10022000030000F051FD00F041FB1FBD10B500F0D0
:10023000A6FB10BD00F0DAFB1146FFF7EDFF05F05D
:10024000FFFC00F0E1FC03B4FFF7F0FF03BC00F09B
:10025000ADFE00000948804709480047FEE7FEE779
:10026000FEE7FEE7FEE7FEE7FEE7FEE7FEE7FEE766
:1002700004480549054A064B70470000F141000853
:100280009501000888040020880A002088060020C4
:100290008806002053EA020C00F069802DE9F04B3B
:1002A0004FF00006002B1FBFB3FA83F503FA05F4E5
:1002B00024FA05F65E4012BF1643B2FA82F502FA3E
:1002C00005F4C5F120051EBF22FA05FC44EA0C0422
:1002D000203556EA044C4FEA144418BF641C4FF012
:1002E00000084FF00009904271EB030C39D300294C
:1002F00019BFB1FA81F701FA07F6B0FA80F700FAF0
:1003000007F6C7F120071EBF20FA07FC46EA0C06D5
:100310002037B6FBF4FCA7EB0507103F07F01F0BD7
:10032000CBF120062CFA06F60CFA0BFB44BFB346C1
:100330000026202FA4BF5E464FF0000B5BEA060CA0
:1003400008BF4FF0010B19EB0B0948EB0608ABFB9C
:10035000027C06FB02CC0BFB03CCC01B71EB0C0137
:10036000C1E70B46024641464846BDE8F08B13B54F
:10037000084318BF4FF0FF300146AFF30080BDE8DF
:100380001C40704753EA020C23D010B54C1084EA8D
:10039000530404D54042C1F1000138BF491E1B423D
:1003A00004D55242C3F1000338BF5B1EFFF772FF52
:1003B00014F0804F04D04042C1F1000138BF491E03
:1003C00014F0004F04D05242C3F1000338BF5B1E4B
:1003D00010BD13B540424FF0000070EB0104B8BFF0
:1003E000012001F0004100281CBF6FF000414FF0D8
:1003F000FF30AFF300801CBD0FB4044910B503AA51
:10040000029800F021FA10BC5DF814FBA400002053
:1004100070B5044685690068C10601D5302600E044
:100420002026C00707D070BDD4E90121304690478F
:10043000206A401C20626D1EF6D570BD70B5044662
:1004400085690078C00707D170BDD4E9012120205B
:100450009047206A401C20626D1EF6D570BD0000DA
:100460002DE9F0410646002410687529314616A58D
:1004700010D0AFF30080002802DA404213A507E055
:1004800031688A0701D512A502E0490704D511A5F4
:10049000012401E0AFF3008000210A2206F12407C5
:1004A00009E0B0FBF2FCB0FBF2F302FB1C003030C1
:1004B00078541846491C0028F3D123462A46304672
:1004C000BDE8F04100F066B9000000002D0000001A
:1004D0002B0000002000000070B504460D462146A8
:1004E0001068AFF300802188090502D50F4A7A44CD
:1004F00002E00E4A7A440E32002104F1240305E0A2
:1005000000F00F060009965D5E54491C0028F7D1E3
:1005100020780023000704D5702D02D009B10223F2
:1005200011322046BDE8704000F034B9C0820000AE
:100530002DE9F05F894604464FF0000ADFF824B148
:10054000FB44C0F820A02046E168884700287DD001
:10055000252806D0D4E901219047206A401C20625A
:10056000F1E700255F462046E168884720280646D7
:1005700007DB312E05D2B81910F8200C08B105435D
:10058000F1E7A80701D525F00405C4F81CA0002751
:10059000C4F818A02A2E09D0304607F0EFFA38B375
:1005A00004EB8708303EC8F8186019E059F8041BBE
:1005B000204604EB87029161E1688847012F0646D7
:1005C00018D1E069002820DA25F020051DE0D8F8D0
:1005D000180000EB800006EB40003038C8F8180027
:1005E0002046E1688847064607F0C8FA0028EED1A1
:1005F000012F0AD02E2E08D12046E16888477F1CA3
:100600000646022F45F02005C4DBA069002803DA66
:10061000404245F00105A061E80701D025F0100532
:10062000A6B1A6F14100192802D8203645F400658C
:100630004A463146204625604D46FFF7E5FD60B14C
:10064000012807D0ED1D25F0070000E007E000F1CC
:10065000080978E705F1040975E730467AE7206A6A
:10066000BDE8F09F9682000010B5044603E004F058
:10067000E9FF401C09D014F8010B05490028F6D108
:10068000BDE810400A2004F0DDBF4FF0FF3010BD80
:10069000A400002040EA010310B59B070FD1042AF3
:1006A0000DD310C808C9121F9C42F8D020BA19BA3D
:1006B000884201D9012010BD4FF0FF3010BD1AB1A2
:1006C000D30703D0521C07E0002010BD10F8013BF7
:1006D00011F8014B1B1B07D110F8013B11F8014B1E
:1006E0001B1B01D1921EF1D1184610BD10B5431C41
:1006F00002E010F8011B71B18107FAD14FF001320D
:1007000002C88C1A8C4314EAC211F9D0C01A0A0626
:1007100003D0C01E10BDC01A10BD0A0401D0801E37
:1007200010BD0902FCD0401E10BD4FF0000200B504
:10073000134694469646203922BFA0E80C50A0E804
:100740000C50B1F12001BFF4F7AF090728BFA0E8B2
:100750000C5048BF0CC05DF804EB890028BF40F87E
:10076000042B08BF704748BF20F8022B11F0804FC0
:1007700018BF00F8012B704770477047704710B5DD
:1007800000F074F8006810BD10B5044600F06EF873
:10079000046010BD2DE9F0470D4699469246044687
:1007A00000F124080168880604D5E06921F01001F1
:1007B000216000E00120A84201DD471B00E0002786
:1007C000A1697A1902EB0900081AA0612078C00615
:1007D00002D42046FFF71CFE002608E0D4E90121E0
:1007E0001AF806009047206A401C761C20624E458D
:1007F000F4DB2078C0060AD52046FFF709FE06E0A4
:10080000D4E9012130209047206A401C2062381E24
:10081000A7F10107F4DC07E0D4E9012118F805008D
:100820009047206A401C2062281EA5F10105F3DCD8
:100830002046FFF703FE2078000602D50220BDE81F
:10084000F0870120FBE70000074B70B50D467B44A5
:1008500000F015F80446284600F024F810B14FF0D7
:10086000FF3070BD204670BDF34D0000004870475A
:100870004C01002001694A1C02610878704700B5EC
:100880008FB0CDE901310021059105497944CDE9C9
:10089000031011466846FFF74BFE0FB000BD000085
:1008A000E5FFFFFF007B00F08000704710B5424875
:1008B0005421FFF73AFF41485421FFF736FF4048E3
:1008C0005421FFF732FF3F493B483C4A3F4B086009
:1008D0003D490A603A491960531C0365481C10657C
:1008E000012008653B48344A39A1784400F0EEF80D
:1008F00020B9384878440A3800F08FF937482F4A31
:1009000035A1784400F0E2F820B9344878440A3838
:1009100000F083F932482A4A2FA1784400F0D6F833
:1009200020B92F4878440A3800F077F9402322484C
:10093000DC000021224600F0A5F820B125487844CB
:10094000543800F06AF91D4822464023002100F087
:1009500099F820B121487844543800F05EF91848DD
:1009600022461023002100F08DF8002806D01C48F4
:100970007844BDE81040563800F04FB910BD10481B
:1009800070B5006D20F001040B4800F017F90B481A
:1009900000F014F90A4800F011F909E0206D20F088
:1009A0000105204600F00AF9204600F044F82C46E4
:1009B000002CF3D170BD000050000020A4000020E6
:1009C000F8000020000000200400002008000020A3
:1009D000720000001280000077000000FE7F00001F
:1009E000EA7F0000004870474C0100207546FFF781
:1009F000F9FFAE4605006946534620F007008546DC
:100A000018B020B5FFF734FCBDE820404FF00006D9
:100A10004FF000074FF000084FF0000BAC46ACE879
:100A2000C009ACE8C009ACE8C009ACE8C00921F0D5
:100A300007018D46704770B50446051F00F028F980
:100A40000068002C14BF446870BD002C18BFAC4275
:100A50003CBF20466468F8D301680A18AA4218BF50
:100A6000456003D12A680546114401602868411990
:100A7000A1421CBF6C6070BD616869602168084458
:100A8000286070BD70B5C468A50713D0650211D485
:100A9000B2F5807F09D0B2F5007F06D0B2F5806F45
:100AA00008D1012300F1240106E05D1E6FF07F46AE
:100AB000B54201D3012070BD0161C361416024F4DE
:100AC00070611143C160002070BD00002DE9F0414C
:100AD0000C461646070047D0104600F06FF8207805
:100AE000611C61280AD0722802D077283CD102E02C
:100AF0000125002405E00225042402E0082448F230
:100B0000020511F8010B2B2806D0622809D011F834
:100B1000010C74280AD00BE045F0030544F00204F0
:100B2000EFE745F0040544F00104EAE744F010045F
:100B30003846214600F078F8411C15D0002131617B
:100B400071604FF40071F560F1617061200704D5A8
:100B500030460222002100F015F9306D40F001000E
:100B600030653046BDE8F0810020FBE72DE9F0411B
:100B70000D460646104C206DC10704D0410804D034
:100B800020F00104F7E722460EE0542000F0CBF8F5
:100B900007000ED0206D47F0010108435421206565
:100BA0003846FFF7C2FD3A4629463046BDE8F041D7
:100BB0008CE70020D6E70000500000202DE9F04728
:100BC00004464FF000094FF0FF37C568D4E90486AA
:100BD000A80707D0204600F085F9304600F02EF82F
:100BE000002802DA3846BDE8F087280502D54046DD
:100BF000FFF721FF4C212046FFF797FD206D20F0E5
:100C0000010020654846EEE710B50446AFF30080CA
:100C10002046BDE81040FFF716BB10B500F0ACF958
:100C2000BDE8104000F0A2B90EB5CDE90001FFF714
:100C30005DFD029069460120ABBE0EBD08B5694658
:100C400000900220ABBE08BD1FB58DE807006946C5
:100C50000520ABBE04B010BD1FB58DE80F0069467E
:100C60000620ABBEF6E708B5694600900920ABBE8A
:100C700008BD1CB5CDE9000169460A20ABBE1CBD0C
:100C8000704708B5694600900C20ABBE08BD000057
:100C90000048704754010020704770477047704704
:100CA00038B504460A4600206946AFF300800028A4
:100CB00008BF38BD02460099204600F085F90120A2
:100CC00038BD012000F0D4B9F8B5AFF30080054677
:100CD00000200C46102000BF0646A819A0420DD9DE
:100CE000324669460020AFF30080070008BF00F0DD
:100CF000BFF90098A04218BF0546C419FFF7C8FF06
:100D000005600746F01D20F007004619284600F050
:100D100054F9B44208BFF8BDA21B31463868BDE89B
:100D2000F84000F051B970B50646FFF7B1FF05680D
:100D300006F10B0020F00704B4429CBF002070BDF8
:100D40002B466A68BAB11068A04210D304F10801BA
:100D500088423CBF5068586007D351681019416001
:100D60001168091B016058601460101D70BD1346A6
:100D70005268002AE7D121462846FFF791FF002854
:100D8000DED170BD2DE9F041044616460D46476997
:100D9000007B80072ED03846FFF765FF50BB3EB37F
:100DA000012E02D0022E25D104E0204600F026F9C3
:100DB00005441DE03846FFF764FFE168002841F074
:100DC0001001E16005DA204600F058F80120BDE886
:100DD000F081C9030BD56268E16A914200D81146DF
:100DE000A26911442269891A814200DD084605443E
:100DF000002D01DA0220EAE7E16A6068E2688142D8
:100E000006D29103E06203D522F4003141F01002D2
:100E1000A6690027AE4213DCE16A814201D90B4684
:100E200000E0034603EB060C2369ACEB030CAC4576
:100E300006DD814201D98C4600E084469C4505D1FF
:100E4000A760276042F02000A5620DE0AD1BE669B7
:100E5000AE1B8142A66000D90846C01A281A20603D
:100E60005819606022F0200003490840E06000202B
:100E700084F84870ABE70000BFCFD7FFC16821F40A
:100E8000001141F08001C160002181600160704764
:100E90002DE9F047814614460E464FF0FF383248A0
:100EA000D5685769054209D03846A169FFF7E1FEC8
:100EB000002811DB2C48C0430540E5602B46324634
:100EC00049463846FFF7C0FEA16920F00042B21A39
:100ED00011440028A16103D02046FFF7CFFF404610
:100EE000BDE8F08770B504460569C06A616888424C
:100EF00000D80846E16821F42011E160C90312D549
:100F0000A84208D02246411B2846FFF7C1FF10B176
:100F10004FF0FF3070BD0020E562C4E90150E06889
:100F200020F48030E060002070BD10B50446C06839
:100F300020F02000E060A16AA06988420DD0204620
:100F4000FFF7D0FFE06820F4405040F01000E06070
:100F5000A06AA0612069E062606044F24001E0683C
:100F60008843E06010BD000010000200002801D09E
:100F700000F01CB87047000010B5014602A000F058
:100F80005EF8012010BD00005349475254524544B9
:100F90003A2052656469726563743A2063616E2712
:100FA00074206F70656E3A2000000000014918201F
:100FB000ABBEFEE726000200704700210160C0E9D9
:100FC0000110704710207047034640688C46002887
:100FD00018BF88423CBF03464068F8D318681844DD
:100FE000884207D00CF1030020F00700001D411AD1
:100FF000521A0146081D0A60FFF71DBD10B50146D3
:10100000C268900703D0900607D5886A0AE0FFF708
:101010002DFC01210160881E10BD8B6948681844B1
:101020000B69C01A91F848301BB191F84910401A69
:1010300010BD1103FCD50028FADD401E10BD70B5AF
:1010400005460C460A2000E06D1C00F018F835B18A
:1010500028780028F8D102E0641C00F010F814B1E0
:1010600020780028F8D1BDE870400A2000F007B8C9
:1010700010B500F00BF8BDE81040FFF777BF08B5DA
:1010800069468DF800000320ABBE08BD10B50128ED
:1010900005D0002103A0FFF7D2FF012010BD09A158
:1010A000F8E7000053494752544D454D3A204F75DB
:1010B00074206F662068656170206D656D6F727950
:1010C000000000003A2048656170206D656D6F7208
:1010D0007920636F7272757074656400B0B540F208
:1010E000AC15C2F2000568790138082827D8DFE876
:1010F00010F009002900550073009700B700E400C4
:1011000000011E012878E0B140F28440C2F20000E4
:101110009FED990A90ED001AF0EE400A02F036F9C0
:1011200005F020FE40F27041C2F200010128086083
:1011300007D14FF48070288002206871B0BD012073
:101140006871B0BD68780024C4F20204B0B1A87917
:10115000A0B99FED820AF0EE400AB0EE401A02F00C
:1011600015F90120A87140F2FC10C2F200006421C0
:10117000018320461021012200F0EEFDE8780028CE
:10118000DFD0204610210022002400F0E5FD40F2CF
:101190000130AC71EC706C70A880B0BD287901286A
:1011A00011D1A87978B99FED720A9FED721AF0EE0D
:1011B000400A02F0EBF80120A87140F2FC10C2F2E4
:1011C000000048210183E8780028BAD00020E870A8
:1011D0000420A5F80500B0BD287901280BD1A87915
:1011E00048B9DFED620A9FED601ABBEE040A02F017
:1011F000CDF80120A87040F28440C2F2000090EDCA
:10120000000ABDEEC00A10EE100A002848BF404296
:10121000502896DB0020A87040F20250A880B0BD94
:101220002879022811D1A87978B99FED500A9FED4D
:101230004B1AF0EE400A02F0A9F80120A87140F222
:10124000FC10C2F2000096210183E87800283FF4E8
:1012500078AF4FF4C020C5F8030001206870B0BD1E
:1012600068780024C4F20204B8B1A879A8B99FED47
:101270003B0AF0EE400AB0EE401A02F087F8012077
:10128000A87140F2FC10C2F200004FF4FA71018321
:1012900020461021012200F05FFDE87800283FF48D
:1012A00050AF204610210022002400F055FD0720F9
:1012B000EC706C70A5F80500B0BD687878B99FED4A
:1012C000280A9FED261AF0EE400A02F05FF801208E
:1012D000A87140F2FC10C2F2000055210183E878A9
:1012E00000283FF42EAF0020E8700820A5F8050084
:1012F000B0BDA87978B99FED1A0ADFED1A0A9FED03
:101300001A1A02F043F80120A87140F2FC10C2F250
:10131000000096210183E87800283FF412AF0020F6
:10132000E870012068700920A5F80500B0BD687854
:1013300000283FF406AFA879002818BFB0BD9FED84
:10134000070AF0EE400AB0EE401A02F01FF849F228
:101350006D50C0F6000003F08FFAB0BD0000000031
:101360000000C842000048430080C0430000C8C2DB
:10137000000070C20000AA420000704270B540F246
:10138000AC15C2F2000568790138132832D8DFE8BD
:1013900010F0140034005C007A009E00BE00EB00E8
:1013A0000701300150017D01A201C201F5011502C2
:1013B000420261028202A002C2022878E0B140F239
:1013C0008440C2F200009FEDE60A90ED001AF0EEB4
:1013D000400A01F0DBFF05F0C5FC40F27041C2F2AB
:1013E00000010128086007D14FF480702880022096
:1013F000687170BD0120687170BD68780024C4F206
:101400000204B0B1A879A0B99FEDD60AF0EE400A67
:10141000B0EE401A01F0BAFF0120A87140F2FC10B2
:10142000C2F200006421018320461021012200F055
:1014300093FCE8780028DFD0204610210022002409
:1014400000F08AFC40F201301BE12879012811D11B
:10145000A87978B99FEDC40A9FEDC41AF0EE400A4E
:1014600001F094FF0120A87140F2FC10C2F20000CC
:1014700048210183E8780028BED00020E8700420CD
:10148000A5F8050070BD287901280BD1A87948B9C5
:101490009FEDB70ADFEDB70A9FEDB71A01F076FFAF
:1014A0000120A87040F28440C2F2000090ED000AD2
:1014B000BDEEC00A10EE100A002848BF4042502876
:1014C0009ADB0020A87040F20250A88070BD2879F5
:1014D000022811D1A87978B99FEDA30A9FEDA11A2E
:1014E000F0EE400A01F052FF0120A87140F2FC101A
:1014F000C2F2000096210183E87800283FF47CAF17
:101500004FF4C020C5F803000120687070BD6878F2
:101510000024C4F20204B8B1A879A8B99FED910AD9
:10152000F0EE400AB0EE401A01F030FF0120A87141
:1015300040F2FC10C2F200004FF4FA710183204621
:101540001021012200F008FCE87800283FF454AF95
:10155000204610210022002400F0FEFB0720EC7042
:101560006C70A5F8050070BD687878B99FED7C0AAD
:101570009FED7C1AF0EE400A01F008FF0120A871EF
:1015800040F2FC10C2F200004B210183E8780028F1
:101590003FF432AF0020E8700820A5F8050070BDC8
:1015A000A87948B99FEDE70ADFEDEF0A9FEDE81A49
:1015B00001F0ECFE0120A87040F28440C2F200006D
:1015C00090ED000ABDEEC00A10EE100A002848BFD8
:1015D000404205283FF710AF0020A8700120287076
:1015E00049F26D50C0F6000003F046F90920687119
:1015F00070BD287800283FF4FFAE40F28440C2F26C
:1016000000009FEDD10A90ED001AF0EE400A01F0C3
:10161000BDFE05F0A7FB40F27041C2F200010228B6
:1016200008607FF4E9AE4FF4807028800A2068716A
:1016300070BD68780024C4F20204B0B1A879A0B9E2
:101640009FEDC00AF0EE400AB0EE401A01F09EFE97
:101650000120A87140F2FC10C2F200006421018355
:1016600020461021012200F077FBE87800283FF4A3
:10167000C3AE204610210022002400F06DFB40F68E
:101680000130AC71EC706C70A88070BD28790128B5
:101690000BD1A87948B99FEDAB0ADFEDB20A9FEDF7
:1016A000AC1A01F073FE0120A87040F28440C2F22F
:1016B000000090ED000ABDEEC00A10EE100A0028EE
:1016C00048BF404228287FF497AE0020A87040F61B
:1016D0000240A88070BD2879022811D1A87978B974
:1016E0009FED9D0A9FED9D1AF0EE400A01F04EFE1F
:1016F0000120A87140F2FC10C2F2000064210183B5
:10170000E87800283FF478AE40F20030C0F20D00D7
:10171000C5F8030070BD287903280BD1A87948B912
:101720009FED8F0ADFED8C0A9FED8A1A01F02EFEE5
:101730000120A87040F28440C2F2000090ED000A3F
:10174000BDEEC00A10EE100A002848BF404205282E
:101750003FF752AE0020A8714FF46060A88070BDC2
:101760000000C842000000000000C8C20000AA42F9
:10177000000048C2000016C30080C0432879A97940
:1017800008430FD19FED700A9FED741AF0EE400AE6
:1017900001F0FCFD0120A87140F2FC10C2F2000033
:1017A00064210183E87800283FF426AE0020E87029
:1017B000012068700F20A5F8050070BD687800242E
:1017C000C4F20204B8B1A879A8B99FED5E0AF0EEA0
:1017D000400AB0EE401A01F0D9FD0120A87140F294
:1017E000FC10C2F200004FF4FA7101832046102170
:1017F000012200F0B1FAE87800283FF4FDAD204660
:10180000102100221026002400F0A6FAEC706C7063
:10181000A5F8056070BDE878A97908430FD19FED60
:101820004E0A9FED4E1AF0EE400A01F0AFFD012086
:10183000A87140F2FC10C2F200003C210183E8785C
:1018400000283FF4D9AD0020E87068701120A5F899
:10185000050070BD687848B99FED3C0ADFED390A94
:101860009FED3C1A01F092FD0120A87040F28440E7
:10187000C2F2000090ED000ABDEEC00A10EE100AA0
:10188000002848BF40422828FFF6B6AD0020A870C7
:101890001220687170BDE878A97908430FD19FEDD7
:1018A0002A0A9FED281AF0EE400A01F06FFD012090
:1018B000A87140F2FC10C2F2000050210183E878C8
:1018C00000283FF499AD0020E8701320A5F805002A
:1018D00070BDA87948B99FED1C0ADFED1C0A9FED89
:1018E0001C1A01F053FD0120A87040F28440C2F29E
:1018F000000090ED000ABDEEC00A10EE100A0028AC
:1019000048BF404205283FF777AD0120A5F8010008
:101910001420687170BD687800283FF46DADA87917
:10192000002818BF70BD9FED070AF0EE400AB0EE28
:10193000401A01F02BFD49F27550C0F6000002F08C
:101940009BFF70BD000000000000C842000016436D
:101950000080C043000057C30000C8C20000AA4274
:10196000000048C3000016C300004843FEE7000023
:1019700010B540F2BC14C2F20004204604F0F8F99D
:101980002078032806D0022807D0012808D1FFF7C5
:10199000A5FB10BDFFF7F2FC10BD02F0FDF910BD74
:1019A0009FED040AF0EE400AB0EE401A01F0EEFCA2
:1019B00010BD00BF000000007047000080B501208E
:1019C00000F0E0F880BD000080B54FF4805000F0DA
:1019D000D9F880BD80B5102000F0D4F880BD00009B
:1019E00072B600BFFEE7000070B5866D044600F0D9
:1019F000B9F994F83510022925D105462068216CE3
:101A0000026822F016020260426922F080024261FE
:101A100009B9A16C19B1016821F0080101600168E0
:101A200021F00101016000BF20680068C0070ED0EE
:101A300000F098F9401B0628F6D3202060650320AB
:101A400084F835000CE080206065012008E0E06D3E
:101A50003F2101FA00F0B060012084F83500002039
:101A6000002184F8341070BD90F83510022909D196
:101A7000052180F835100068016821F0010101603E
:101A8000002070478021416501207047B0B50446B1
:101A900000F068F9054640F24800C2F20000007804
:101AA000611C18BF044400BF00F05CF9401BA04259
:101AB000FAD3B0BD70B5202863D140F20044C4F21F
:101AC00002042046202100F039F9002818BF70BD1B
:101AD00040F2AC10C2F200000178807808430DD0CB
:101AE00040F26C4040F2744140F28442C2F2000085
:101AF000C2F20001C2F2000204F0AAF9022002F0D0
:101B000033F940F2FC15C2F20005A883042002F06C
:101B10002BF9E88302F016F902F0BEFEBDEEC00A12
:101B200010EE100A2E4646F80C0F02F0E5FEBDEE50
:101B3000C00A10EE100A45F8100FA5F10C02284655
:101B4000314601F089FC15ED030A28683168BDEEC5
:101B5000C00A10EE102A01F0B1FC40F2B410C2F23B
:101B60000000018801318AB20A2A018007D30021CE
:101B7000018004F580604FF4005100F0E5F802F0B8
:101B8000BDFC70BD80B543F61441C4F201010A6882
:101B9000024208BF80BD0860FFF78CFF80BD0000D7
:101BA0002DE9F04F83B000F13E4202F1FF724FEA9F
:101BB000B22241F200070192C4F2020707224FF05D
:101BC000010E00254FF0000A4FF00008B84208BF90
:101BD000042200920AE000BF08F101080AF1040A99
:101BE000B8F1100F05F1020500F0A4800C680EFAA0
:101BF00008FB14EA0B09EFD04C6804F0030CACF1BD
:101C0000010EBEF1010F11D80322876802FA05F612
:101C1000CA68B743AA403A4382604268C4F30017D7
:101C200022EA0B0207FA08F73A434260BCF1030FBD
:101C30001CD0C26803238E6803FA05F7BA4306FA7C
:101C400005F73A43BCF1020FC2600FD16FF00302F7
:101C500002EA580202440AF01C060F23176A03FA2C
:101C600006F40B69A743B3403B43136202680323A6
:101C70004F68AB409A4307F00303AB401A4317F495
:101C8000403F4FF0010E0260A6D0002243F644030D
:101C90000292C4F202031A6843F6004442F48042FE
:101CA0001A601A68C4F2010402F480420292029A95
:101CB00028F003024FF6084B2244CFF6FF7B52F880
:101CC0000B300AF00C070F26BE4023EA060C019BDE
:101CD000009E042B38BF1E4606FA07F747EA0C039E
:101CE00042F80B30A2684B6842EA090743F60C4CF5
:101CF000DE0258BF22EA0907A760C4F2010CDCF833
:101D000000209E0242EA090758BF22EA0907CCF8E0
:101D1000007062689E0342EA090758BF22EA090779
:101D200067602268DB0342EA090358BF22EA09031D
:101D3000236051E703B0BDE8F08F00000069084060
:101D400018BF012070470000426902EA0103914375
:101D500041EA034181617047002A08BF090481619B
:101D60007047000040F27C40C2F2000000687047FB
:101D700070B5B0B3044690F83D0028B9002084F84F
:101D80003C00204600F0BCF8242084F83D00206888
:101D9000016821F001010160016841F40041016026
:101DA000016821F40041016000F020FA48F280410E
:101DB000C0F21E0140F60012666888424FF0000132
:101DC000C0F23D0248F2A16C4FF0000338BF012180
:101DD0009042C0F2010C38BF0123664538BF0B4664
:101DE0000BB1012070BD4DF68361C4F21B31A0FB25
:101DF00001122168930C4D68664525F03F0545EAC0
:101E000092424A600A6A22F03F0C09D34FF496725C
:101E10005A4344F6D353C1F26203A2FB03239B0946
:101E20005A1C42EA0C020A6248F2A063CA69C0F274
:101E300001039E424CF6FF7322EA030C0AD80138D4
:101E40007200B0FBF2F001306FF31F30042898BF2E
:101E500004202BE0A368A0F1010E9BB11920704370
:101E6000BEFBF0F00422013062F31F30000512D0F7
:101E70009BB119207043BEFBF0F00422013062F3E5
:101E80001F3011E006EB4600BEFBF0F001306FF3AF
:101E90001F300005ECD1012008E006EB4600BEFB38
:101EA000F0F001306FF31F3040F4004040EA0C00C6
:101EB000C8610868D4E9072320F0C0001043184324
:101EC0000860886848F2FF3204F10C0690434CCE5B
:101ED00018431043A5698860C86820F0FF003043AC
:101EE0002843C860086840F00100086000202021F5
:101EF000206484F83D10206384F83E0070BD00002B
:101F0000B0B586B000240594CDE9034445F2004104
:101F10000068C4F2000188420294019401D006B026
:101F2000B0BD43F630050094C4F20205286840F0C5
:101F300002002860286800F00200009000984FF42A
:101F4000407001901220CDE9020403200490042087
:101F5000059001F5D83001A9FFF722FE0094286909
:101F600040F400102861286900F4001000900098E7
:101F700006B0B0BD40F2480040F27C41C2F2000021
:101F8000C2F2000100780A6810440860704700003F
:101F900080B543F60040C4F20200016841F40071CC
:101FA0000160016841F480610160016841F4807161
:101FB0000160032000F060F80F2000F005F800F049
:101FC0002BF8002080BD0000B0B540F24802C2F2FC
:101FD000000240F20C011278C2F200014FF47A7351
:101FE0000968B3FBF2F20446B1FBF2F1084600F0D7
:101FF000F7FA0F2C4FF001050CD858B94FF0FF300D
:1020000021460022002500F027F840F24C00C2F2E1
:10201000000004602846B0BD82B0002043F64001B5
:102020000190C4F202014A6842F480424A604A6860
:1020300002F480420192019A0090086840F08050BA
:102040000860086800F080500090009802B0704767
:1020500080B502F045FD80BD70B514460D460646BC
:1020600002F04EFD2946224601F0DCFD01463046D5
:1020700002F04EFD70BD000080B502F05BFD80BD3A
:102080002DE9F041002800F08B8043F60808C4F2E7
:1020900002080446D8F8F8030D4600F0070088420D
:1020A00007D288F8F853D8F8F80300F00700A842E0
:1020B00076D12068810717D5410705D5D8F80010DB
:1020C00041F4E051C8F80010010705D5D8F8001018
:1020D00041F46041C8F80010D8F80010A26821F05F
:1020E000F0011143C8F80010C0073FD1D8F8F80339
:1020F00000F00700A84207D988F8F853D8F8F80389
:1021000000F00700A8424BD12068410707D5D8F856
:102110000010E26821F4E0511143C8F800100007F4
:1021200008D5D8F80000216920F4604040EAC100D9
:10213000C8F8000000F07EF8D8F8001048F6121237
:10214000C1F30311C0F60002515C40F20C0220FA08
:1021500001F140F24C00C2F200000068C2F200023D
:102160001160FFF731FF0020BDE8F0816068811E3B
:10217000022907D258F8081C89015CBF0120BDE87C
:10218000F08110E0012807D158F8081C89035CBFD2
:102190000120BDE8F08106E058F8081C890702D448
:1021A0000120BDE8F081D8F8001021F003010843B8
:1021B000C8F80000FFF7D6FD064641F2883700BF99
:1021C000D8F80000616800F00C00B0EB810F8DD0F2
:1021D000FFF7C8FD801BB842F2D90320BDE8F081AB
:1021E00040F20C00C2F200000068704780B5FFF7B3
:1021F000F7FF43F60801C4F20201096848F622120B
:10220000C1F38221C0F60002515CC84080BD0000CD
:1022100080B5FFF7E5FF43F60801C4F20201096843
:1022200048F62212C1F34231C0F60002515CC840A8
:1022300080BD000010B543F60404C4F202046068D7
:1022400000F00C0008280AD0042819BF42F2004010
:10225000C0F2F40047F64000C0F27D1010BD2068C7
:1022600021682368490247F64001C0F27D1100F061
:102270003F02C3F388105CBF42F20041C0F2F40198
:10228000A1FB00010023FEF705F821680222C1F33B
:10229000014102EB4101B0FBF1F010BD2DE9F0412D
:1022A00082B0002800F09F800446007843F60006C4
:1022B000C007C4F2020641D0B06800F00C00042848
:1022C00005D13068800339D56068B8BB8BE0B06851
:1022D00000F00C00082802D170684002F1D4656853
:1022E000B5F5803F06D03068B5F5A02F06D140F493
:1022F00080203060306840F4803005E020F4803089
:102300003060306820F480203060FFF72BFD002D16
:10231000054610D03068800310D4FFF723FD401B22
:102320006428F7D922E100BFFFF71CFD401B642899
:102330004FF0030054D830688003F5D4207880072C
:102340001AD5B06810F00C0F09D0B06800F00C007E
:10235000082840F08C807068400200F18880306866
:10236000800702D5E06801283DD13068216920F05E
:10237000F80040EAC10030602078000737D42078A8
:1023800040074AD4A56955B3B06800F00C0008288E
:1023900040F0A080012D26D07068E16900F4800231
:1023A0008A4220D1216A00F03F028A421BD147F6BF
:1023B000C071626A0140B1EB821F14D1A16A4FF66D
:1023C000FF73C903994300F44032A1F580318A427A
:1023D00009D1E16A00F07060B0EB016F03D1002019
:1023E00002B0BDE8F081012002B0BDE8F081606973
:1023F000002840F20000C4F247205AD00121C0F862
:10240000801EFFF7AFFC0546706F8007B7D4FFF75B
:10241000A9FC401B0228F7D9A8E0306C4FF0000857
:10242000C0000CD4CDF80480306C4FF0010840F0AF
:1024300080503064306C00F080500190019847F279
:102440000007C4F200073868C00525D4386840F496
:1024500080703860FFF786FC054600BF3868C0050D
:102460001AD4FFF77FFC401B0228F7D97EE0E06812
:10247000002851D00020C4F2472001210160FFF75D
:1024800071FC0546306880073FF56FAFFFF76AFCC7
:10249000401B0228F6D969E0A568012D05D0306FF0
:1024A000052D4DD140F004003067306F40F0010041
:1024B0004CE00021C0F8801EFFF754FC054600BF29
:1024C000706F80077FF55BAFFFF74CFC401B022865
:1024D000F6D94BE00027C4F2472700203866FFF703
:1024E00041FC022D05460BD13068800156D5FFF71F
:1024F00039FC401B02284FF00300F5D970E700BFFC
:10250000306880017FF56BAFFFF72CFC401B022881
:102510004FF00300F4D963E70020C4F24720002104
:102520000160FFF71FFC0546306880077FF524AF88
:10253000FFF718FC401B02284FF00300F4D94FE7C7
:1025400020F001003067306F20F004003067FFF7A3
:1025500009FC002D054641F2883713D0306F800703
:1025600013D4FFF7FFFB401BB842F7D9032002B09A
:10257000BDE8F081FFF7F6FB401BB8424FF00300C7
:102580003FF62EAF306F8007F4D4B8F1000F3FF460
:10259000F9AE306C20F080503064F3E604F11C0595
:1025A0002FCD084340EA8210D9034FF6FF729143C2
:1025B000A1F5803140EA056008437060012038666B
:1025C000FFF7D0FB044600BF306880013FF507AF3E
:1025D000FFF7C8FB001B02284FF00300F4D9FFE609
:1025E00080B501F099FD80BDB0B590F83C20012A7E
:1025F00004BF0220B0BD01F108053CCDD1E900CEF9
:1026000023F47C5322F470521A432EF4F0431A43FD
:102610002CF4E0431A4324F4C0431A432A43C96903
:1026200022F48042036811435964002180F83C1071
:102630000846B0BD10B590F83C20012A4FF00202C8
:1026400040D0012380F83C3080F83D200268D2F869
:1026500004E0D2F808C00C682EF07003234340F663
:10266000FF34C4F20004A24253600FDCB2F1804F89
:102670001DD040F20043C4F200039A4217D040F646
:102680000003C4F200039A4211D015E040F6004363
:10269000C4F200039A420AD044F20003C4F20103D8
:1026A0009A4204D00023C4F201039A4204D149683B
:1026B0002CF08003194391600121002280F83D1025
:1026C00080F83C20104610BD002804BF0120704750
:1026D00010B5044690F83D0028B9002084F83C006D
:1026E000204600F01FF8022084F83D002068211DDC
:1026F00001F088FD012084F8460084F83E0084F84B
:102700003F0084F8400084F8410084F8420084F8D7
:10271000430084F8440084F8450084F83D0000201C
:1027200010BD000083B0006840F20041C4F2000117
:1027300088421BD044F20001C4F20101884229D032
:102740000021C4F20101884233D10020029043F6F7
:102750004400C4F20200016841F001010160006818
:1027600000F001000290029803B070470020019031
:1027700043F64400C4F2020050F8041C41F0020188
:1027800040F8041C50F8040C00F00200019001987D
:1027900003B070470020009043F64400C4F20200EA
:1027A000016841F480310160006800F480300090DD
:1027B000009803B07047000090F83D1001291CBF3D
:1027C00001207047022180F83D10006840F6FF317B
:1027D000C4F2000188420FDCB0F1804F1DD040F2FE
:1027E0000041C4F20001884217D040F60001C4F253
:1027F0000001884211D017E040F60041C4F2000108
:1028000088420AD044F20001C4F20101884204D097
:102810000021C4F20101884206D1816801F007015C
:10282000062904BF00207047016841F001010160E2
:102830000020704710B5044690F83C0001284FF086
:10284000020008BF10BD012284F83C2084F83D003E
:1028500020684FF6777382689A4382600A684F2A2D
:102860000FDC1F2A22DD202A23D0302A21D0402A43
:102870004DD14B68CA68194601F01CFE2068402102
:102880003BE06F2A17DDB2F5005F20D0B2F5805F24
:102890002AD0702A3BD1D1E9012CCB68614601F0E6
:1028A00039FD2068816841F077011AE00AB1102AE9
:1028B0002DD1114621E0502A18D0602A27D14B682B
:1028C000CA68194601F008FE2068602115E0D1E9C8
:1028D000012CCB68614601F01DFD2068816841F440
:1028E0008041816000200BE0002009E04B68CA684D
:1028F000194601F0DFFD2068502101F017FD00208E
:10290000012184F83D10002184F83C1010BD012005
:10291000F6E70000002804BF012070472DE9F047CA
:10292000044690F83D000D4628B9002084F83C008C
:10293000204600F049F8022084F83D00206844F267
:102940000702816891438160211D01F05BFC2068D2
:102950004FF6FF7881688269D0F820C0D5E9003E43
:10296000D5E9026A43EA0109AB6922EA080246EAAC
:1029700003234FF6FC46B343D5E9076742EA0A0250
:1029800029691A4342EA062242EA01112CF0AA02FE
:102990006B6942EA0E0241EA073142EA0312C0F8CB
:1029A000089081610262012084F8460084F83E00AC
:1029B00084F83F0084F8420084F8430084F83D0026
:1029C0000020BDE8F087000080B586B00021CDE989
:1029D0000411CDE90211006840F60002C4F20002C1
:1029E0009042019122D0B0F1804F48D1002043F6AF
:1029F00030010090C4F202010A6942F001020A614A
:102A00000A6902F001020092009A0090086840F002
:102A1000010008600868012100F0010000900098A2
:102A2000032001900020C4F202001FE043F63000B2
:102A30000091C4F20200026942F0040202610269DC
:102A400002F004020092009A0091016841F0020134
:102A500001600068022100F0020000900098C02090
:102A600001900020C4F2020000F580600222029270
:102A70000022CDE90322059101A9FFF791F806B0E4
:102A800080BD000010B5044690F83E0094F83F2049
:102A900094F8423094F843C0042907D089B901283A
:102AA0004FF0010008BF012B23D010BD012A4FF0C9
:102AB000010008BFBCF1010FF7D1022084F83F00EC
:102AC00012E001284FF0010008BF012AEDD1012BCF
:102AD000EBD1BCF1010F18BF10BD022084F83E00FD
:102AE00084F83F0084F8420084F84300042907D1A9
:102AF0000EE0022084F83E0084F84200042907D04A
:102B000009B9002105E020680021012201F0F0FB55
:102B100004212068012201F0EBFB2068016841F0EC
:102B200001010160002010BD80B586B00021CDE913
:102B30000411CDE90211006840F20042C4F2000223
:102B40009042019118D00021C4F20101884230D195
:102B50000020009043F63000C4F20200016841F00A
:102B600001010160006800F00100009000984FF43E
:102B7000A0600190012010E043F630000091C4F203
:102B80000200016841F001010160006800F00100ED
:102B90000090009840200190022002210291002123
:102BA000CDE9031105900020C4F2020001A9FEF74F
:102BB000F7FF06B080BD0000B0B5044690F83C00B9
:102BC000012804BF0220B0BD0D464FEAB20101202A
:102BD000032984F83C0037D8DFE801F0020A12220A
:102BE0002068294601F0AAFB206850F8181F0EE063
:102BF0002068294601F0D2FB206850F8181F16E023
:102C00002068294601F0FEFB206850F81C1F41F0A7
:102C100008010160016821F00401016029690FE0E9
:102C20002068294601F022FC206850F81C1F41F45E
:102C300000610160016821F4806101602969090275
:102C40000268114301600020002184F83C10B0BDEF
:102C5000002804BF0120704710B5044690F83D00DD
:102C600028B9002084F83C00204600F01FF802201C
:102C700084F83D002068211D01F0C4FA012084F889
:102C8000460084F83E0084F83F0084F8400084F851
:102C9000410084F8420084F8430084F8440084F83A
:102CA000450084F83D00002010BD00007047000082
:102CB000B0B5044641B1082909D0042914BF04F174
:102CC000410004F13F0004E004F13E0001E004F1A2
:102CD0004000007801281CBF0120B0BD022041B196
:102CE000082909D0042914BF84F8410084F83F0062
:102CF00004E084F83E0001E084F8400020684425A8
:102D00000122C4F2010501F0F3FA2068A5F14401A3
:102D1000884203D1296841F40041296040F6FF311F
:102D2000C4F2000188420FDCB0F1804F1DD040F2A8
:102D30000041C4F20001884217D040F60001C4F2FD
:102D40000001884211D017E040F60041C4F20001B2
:102D500088420AD044F20001C4F20101884204D042
:102D60000021C4F20101884206D1816801F0070107
:102D7000062904BF0020B0BD016841F001010160D7
:102D80000020B0BD4FEAB101032984BF0020704785
:102D9000DFE801F0020E060A006834300068704770
:102DA00000683C3000687047006840300068704739
:102DB00000683830006870477047000070470000B6
:102DC00070B582B0036804461868D9685D6900F080
:102DD0002F02202A01F0200205D122B1204601F065
:102DE000E7FB02B070BD5FEA007C08D005F0010E81
:102DF00011F4907F8EF001054FD1002D4DD0226B44
:102E00000840C1063FD5012A3DD100200190186835
:102E100001905868019001985869400600F19C8023
:102E2000A08DE18DE28D002A1CBF401A5FEA0041AF
:102E300002D102B070BD00BF216851E8031F2268B3
:102E400021F4907142E80313002BF5D1216851E879
:102E5000051F226821F0010142E80513002BF5D17E
:102E6000202184F842100021216300BF216851E82D
:102E7000031F226821F0100142E80313002BF5D153
:102E800002216163AEE0010600F1B2804006D0D5B8
:102E9000204601F081FB02B070BDC30718BF11F4DA
:102EA000807303D0636C43F00103636400F0040695
:102EB000012383EA96062E4303D1666C46F0020690
:102EC000666400F0020683EA56032B4303D1636C69
:102ED00043F00403636452EA0E0218BF0122BCF1FE
:102EE000000F04D51AB1626C42F008026264626C91
:102EF000002A9ED00840800602D5204601F058FBEB
:102F000020684069616C00F0400001F00801401841
:102F100078D0204601F018FB2068406940066CD547
:102F2000206850E8050F216820F0400041E80502C4
:102F3000002AF5D1E06B00285FD044F23951C0F689
:102F400000010165FEF790FD00283FF472AFE06BD1
:102F5000016D884702B070BDE06B016849688AB2B4
:102F6000002A3FF466AFA38D9A42BFF462AFE185B9
:102F7000C069B0F5807F30D0206850E8030F216829
:102F800020F4807041E80302002AF5D1206850E85F
:102F9000050F216820F0010041E80502002AF5D163
:102FA000206850E8050F216820F0400041E8050244
:102FB000002AF5D1202084F842000020206300BFC1
:102FC000206850E8030F216820F0100041E8030258
:102FD000002AF5D1E06BFEF707FD02206063A08DAB
:102FE000E18D401A81B22046FFF7E6FE02B070BDC7
:102FF000204601F0C9FB02B070BD2046FFF7DEFE9F
:1030000002B070BD2046FFF7D9FE0020606402B018
:1030100070BD0000002804BF0120704710B50446B1
:1030200090F8410028B9002084F84000204600F0C4
:1030300021F8242084F841002068C16821F400515F
:10304000C160204601F018FB2068016921F490411D
:103050000161416921F02A014161C16841F40051D7
:10306000C16000202021606484F8411084F842107F
:10307000606310BD80B586B000220592CDE90322C1
:1030800044F200410068C4F20001884202920192B9
:1030900001D006B080BD43F630000092C4F20200B9
:1030A000036943F400330361036903F400330093BD
:1030B000009B0092036843F001030360006800F086
:1030C0000100009000980C2001900220CDE902023E
:1030D000032004900720059001F5DE3001A9FEF7DA
:1030E0005FFD262000210022FEF7B6FF2620FEF716
:1030F000AFFF06B080BD000010B590F84230202B25
:103100001CBF022010BD00294FF0010418BF002A87
:1031100001D1204610BD0024046301F01BFB2046B2
:1031200010BD000080B5006844F20041C4F2000107
:10313000884218BF80BD40F27840C2F200000121F1
:10314000017040F23B2140F23A2CC2F20001C2F27F
:10315000000C08789CF8003040F22A22C2F20002EB
:10316000D054581CC2B20F2A88BF00208CF800002F
:1031700040F22440C2F200000122FFF7BDFF80BDF3
:103180002DE9F041044690F8410020281CBF0220A0
:10319000BDE8F0810E4600294FF0010042D01746ED
:1031A000002A08BFBDE8F0814FF0000821201D462D
:1031B000C4F8448084F84100FEF7D4FDA784E78476
:1031C000A1680746B1F5805F0DD12069002814BFC2
:1031D0003046B046064606E016F8010B2168486006
:1031E000E08C0138E084E08C80B1204680213A46B2
:1031F0002B4601F0F3FAB8B9002EEDD138F8020BE6
:1032000021686FF35F2048600026E9E720464021EF
:103210003A462B4601F0E2FA202184F841100028BA
:1032200018BF0320BDE8F081202084F8410003206E
:10323000BDE8F08170470000FEE7000010B50024F3
:10324000C4F20204204602210022FEF785FD20463A
:1032500001210122FEF780FD204602210122FEF716
:103260007BFD10BDF0B581B00025C4F20205044617
:10327000284602210122FEF76FFD0026082700BF25
:10328000284601210122FEF767FD28460221FEF7AC
:1032900055FD002818BF012040EA460628460121B6
:1032A0000022FEF759FD013FEAD1204600F056F812
:1032B000F0B201B0F0BD000070B50025044608264C
:1032C000C4F20205E0B2C20928460221FEF744FD1D
:1032D000284601210122FEF73FFD28460121002258
:1032E000FEF73AFD013E4FEA4404EBD100F01CF832
:1032F00070BD000010B50024C4F202042046022173
:103300000122FEF729FD204601210122FEF724FDBE
:10331000204602210022FEF71FFD20460121002247
:10332000FEF71AFD10BD0000B0B50024C4F202047F
:10333000204602210122FEF70FFD20460121012235
:10334000FEF70AFD20460221FEF7F8FC054620465E
:1033500001210022FEF700FD2846B0BD10B501385E
:103360000024B0FA80F0C4F202044209204602218F
:10337000FEF7F2FC204601210122FEF7EDFC20467B
:1033800001210022FEF7E8FC10BD000010B52DED74
:10339000048B9FED2A2A9FED2A9A40F2AC10B4EEDE
:1033A000421AC2F20000F1EE10FAB8BFB0EE421AB3
:1033B000B4EE491A0178F1EE10FA40F2C014B0EE02
:1033C000408AB8BFB0EE419AC2F2000409BB00794E
:1033D00001281ED19FED1B0A9FED1B1A29EE000A42
:1033E00080EE010A04F09CF99FED181A9FED182A4F
:1033F00020EE010A80EE020AB7EE001A31EE402AF2
:1034000030EE010A22EE082A60EE080A84ED062A50
:1034100001E084ED068AB1EE040A9FED0E1A29EE52
:10342000000A40F2FC1030EE010AC2F20000C4EDC6
:103430000C0A80ED020ABDEC048B10BD000070C2C6
:1034400000007042DB0F494000003443C1CA213EF6
:103450003F359E3E0000AA4280B503684EF29C6C48
:10346000CFF6FF7C6345D8BF634641F6641E7345C3
:10347000A8BF7346036008689FED0E1A6045C8BF79
:10348000844692ED000AF445B4EE410AA8BFF44622
:10349000F1EE10FAC1F800C008DC9FED071AB4EE97
:1034A000410AF1EE10FAA8BFB0EE401A82ED001A00
:1034B00080BD00BF0080ED440000E1442DE9F043F1
:1034C00081B040F2004901294FF00004C4F2020922
:1034D00090460E460546B8BF012400294FF0000271
:1034E00048464FF480414FF00007C8BF0122FEF765
:1034F00033FC48464FF400412246FEF72DFC012DD7
:103500004FF00004B8BF0124002DC8BF0127484672
:103510004FF400513A46FEF71FFC48464FF48051E5
:103520002246FEF719FC40F2BC20C2F20000002E39
:1035300048BF76420068002D466348BF6D4205646F
:1035400040F24C30C2F200000068C0F8348001B094
:10355000BDE8F08380B56B20802100F0B1F86420D5
:10356000FEF794FA6B20002100F0AAF8032000F087
:103570006FF8002000F064F8322000F08BF838205B
:10358000002100F09DF86A20002100F099F8232026
:10359000002100F095F83720802100F091F8752087
:1035A00000F00EF86B20012100F08AF86C20002159
:1035B00000F086F8C82000F06DF8002080BD000003
:1035C00010B50446FFF796FED020FFF775FE2046A3
:1035D000FFF772FEFFF78EFED120FFF76DFE012090
:1035E000FFF740FE0446FFF729FE204610BD00000D
:1035F000F0B581B01C4615460E460746FFF77AFE29
:103600007F00F8B2FFF758FE3046FFF755FEFFF790
:1036100071FE781CC0B2FFF74FFE05E0C0B2FFF7A5
:1036200021FE04F8010B013DE9B201292846F5D03D
:1036300009B10020F2E7FFF701FE002001B0F0BD64
:1036400080B5C000C1B21C2000F03AF880BD000077
:1036500080B5C000C1B21B2000F032F880BD000070
:10366000BB2801D901210FE0612801D902210BE01B
:10367000292801D9032107E0132801D9042103E0F7
:103680000621092888BF052180B51A2000F018F806
:1036900080BD000010B504464FF47A70B4F57A7F0F
:1036A00028BF0446042C98BF0424B0FBF4F0013872
:1036B000C1B2192000F004F86008FFF7D1FF10BD77
:1036C000B0B50C460546FFF715FED020FFF7F4FD18
:1036D0002846FFF7F1FD2046FFF7EEFDFFF7AEFDB0
:1036E0000020B0BDF0B581B01D4614460E46074619
:1036F000FFF700FE7800C0B2FFF7DEFD3046FFF7AF
:10370000DBFD3CB1013D00BF15F8010FFFF7D4FD13
:10371000013CF9D1FFF792FD002001B0F0BD00009F
:103720002DE9F04F87B0002443F630000694CDE930
:103730000444CDE902440194C4F20200016840F25D
:10374000004841F0040101600168C4F2020801F080
:103750000401019101990194016808F5806741F025
:10376000800101600168002201F08001019101994E
:10377000019401684FF4005541F0010101600168B6
:1037800001F00101019101990194016841F00201E8
:10379000016000684FF4005100F0020001900198B0
:1037A0003846FEF7D9FAA8F580694846102100226C
:1037B0004FF0100AFEF7D0FA40464FF20601002201
:1037C000FEF7CAFA02AE029501254FF0020B384609
:1037D00031460395CDE904B4FEF7E2F94846314697
:1037E000CDE902A5CDE904B4FEF7DAF93120029063
:1037F0004FF4041740463146CDE90375FEF7D0F982
:10380000062002901120CDE903054046314605947B
:10381000FEF7C6F94FF47040CDE902054046314647
:10382000CDE90444FEF7BCF94FF48050CDE902071E
:10383000484631460495FEF7B3F9062000210022E0
:10384000FEF70AFC0620FEF703FC0A2000210022F6
:10385000FEF702FC0A20FEF7FBFB282000210022D5
:10386000FEF7FAFB2820FEF7F3FB07B0BDE8F08F68
:1038700080B540F2682045F20041C2F20000C4F277
:10388000000148F2A06200234FF4804CC0F2010214
:1038900080E80E00C0E9033CC0E90533C0E9073306
:1038A000FEF766FA002818BFFEF79AF880BD000000
:1038B00010B596B040F2BC2000220021C2F20000F8
:1038C000C4F2010242F2CF031591CDE91311CDE903
:1038D0001111CDE90F11CDE90D11CDE90B11CDE994
:1038E0000911CDE90711CDE90511CDE90311CDE9A4
:1038F0000111C0E90021C0E90213C0E9041181618E
:10390000FEF7E2FE002818BFFEF76AF84FF4805079
:10391000129040F2BC20C2F2000012A9FEF78AFF0A
:10392000002818BFFEF75CF840F2BC20C2F200008D
:10393000FFF78EF9002818BFFEF752F840F2BC20BE
:103940000024C2F2000010A9CDE91044FEF772FE77
:10395000002818BFFEF744F86020CDE9090440F2C2
:10396000BC20C2F2000009A90022CDE90B44CDE938
:103970000D440F94FFF720F9002818BFFEF730F828
:1039800040F2BC20C2F2000009A90822FFF714F996
:10399000002818BFFEF724F800200590CDE90300A9
:1039A000CDE901004FF40051089040F2BC2006918F
:1039B000C2F2000001A9FEF717FE002818BFFEF7AB
:1039C0000FF840F2BC20C2F20000FFF7ADF816B0CD
:1039D00010BD0000B0B58CB003AC20462421FCF72C
:1039E000A4FE40F204300025C2F200004FF08041F6
:1039F000C0E9001501214FF0FF32CDE90315CDE9F3
:103A00000515CDE90755CDE909152146CDE9005544
:103A1000C0E90252056185610B95FEF77BFF002826
:103A200018BFFDF7DDFF40F20430C2F20000694626
:103A3000CDE90055FEF7FEFD002818BFFDF7D0FFC9
:103A40000CB0B0BD10B58EB040F24C3040F2004228
:103A50000021C2F20000C4F2000240F2473340F2FB
:103A6000CF740D91CDE90B11CDE90911CDE9071105
:103A7000CDE90511CDE90311CDE90111C0E900231C
:103A8000C0E9021401618161FEF71EFE002818BF23
:103A9000FDF7A6FF4FF480500A9040F24C30C2F27E
:103AA00000000AA9FEF7C6FE002818BFFDF798FF20
:103AB00040F24C30C2F20000FFF7CAF8002818BFED
:103AC000FDF78EFF40F24C300024C2F2000008A93E
:103AD000CDE90844FEF7AEFD002818BFFDF780FFD2
:103AE0006020CDE9010440F24C30C2F2000001A98F
:103AF000002203940594FFF75FF8002818BFFDF734
:103B00006FFF40F24C30C2F20000FFF70DF80EB02C
:103B100010BD0000B0B58CB003AC20462421FCF7EA
:103B200004FE40F2943040F600010025C2F200008D
:103B3000C4F20001C0E9001501214FF6FF72CDE982
:103B40000315CDE90515CDE90755CDE90915214640
:103B5000CDE90055C0E90252056185610B95FEF77C
:103B6000D9FE002818BFFDF73BFF40F29430C2F2A7
:103B700000006946CDE90055FEF75CFD002818BF3E
:103B8000FDF72EFF0CB0B0BD80B584B040F2DC3044
:103B900044F200020021C2F20000C4F201024FF61A
:103BA000FF73CDE90211CDE90011C0E90021C0E9A0
:103BB000021301618161FEF787FD002818BFFDF740
:103BC0000FFF4FF48050009040F2DC30C2F2000052
:103BD0006946FEF72FFE002818BFFDF701FF04B06D
:103BE00080BD000080B540F2244044F20041C2F2A2
:103BF0000000C4F2000100234FF00C0C4FF4E1323E
:103C000080E80E00C0E90333C0E905C3C361FFF7D4
:103C100001FA002818BFFDF7E3FE80BDFEE70000B3
:103C2000FEE7000000F0070080F00703042B28BF28
:103C300004234FF0FF3C03380CFA03F338BF002095
:103C4000994381400CFA00F022EA000008437047D3
:103C5000704700000000000080B52DED028B40F29F
:103C60004C30C2F200000021B0EE408AFFF78AF823
:103C700000EE100AB8EE400A10EE100A04F016FD2D
:103C80009FED290B53EC102B04F008F89FED280B47
:103C900053EC102B04F04AFA9FED270B53EC102B3A
:103CA00004F0B0F803F0C8FF40F2C011C2F2000106
:103CB00091ED002A91ED013A91ED024A40F2202166
:103CC00000EE100A40F22420C2F20001C2F200000D
:103CD00091ED005A38EE000A90ED001A30EE455A88
:103CE00031EE001A24EE054A9FED155A22EE002A05
:103CF00023EE013A82EE052A83EE053A84EE054A68
:103D000080ED001A40F21C20C2F2000080ED000A93
:103D10000068086032EE030A34EE000ABDEC028B44
:103D200080BD00BF00BF00BF0000000000789EC043
:103D300000000000000022400000000000002440BD
:103D40000000C84210B540F2FC14C2F2000494ED29
:103D5000020AFFF781FF94ED011A84ED000A30EEAC
:103D6000010A84ED010A10BD014602284FF000004F
:103D700007D0042918BF704740F29431C2F2000105
:103D800003E040F20431C2F2000109684A6A486265
:103D90001046704770470000B0B540F2AC15C2F253
:103DA0000005687901380B282AD8DFE810F00C00EC
:103DB0002C0058007C009B00C000E0000D012B018E
:103DC0004C016A018C012878E0B140F28440C2F2D3
:103DD00000009FEDC90A90ED001AF0EE400AFFF7CF
:103DE000D5FA02F0BFFF40F27041C2F20001012893
:103DF000086007D14FF48070288002206871B0BD40
:103E000001206871B0BD68780024C4F20204B0B12A
:103E1000A879A0B99FEDB70AF0EE400AB0EE401ABB
:103E2000FFF7B4FA0120A87140F2FC10C2F20000C2
:103E300064210183204610210122FDF78DFFE878DF
:103E40000028DFD02046102100220024FDF784FF47
:103E500040F20130AC71EC706C70A880B0BD287974
:103E600001280BD1A87948B99FEDA20ADFEDA90A74
:103E70009FEDA31AFFF78AFA0120A87040F2844050
:103E8000C2F2000090ED000ABDEEC00A10EE100A6A
:103E9000002848BF40422828B4DB0020A87040F228
:103EA0000240A880B0BD2879022811D1A87978B93C
:103EB0009FED950A9FED951AF0EE400AFFF766FA1E
:103EC0000120A87140F2FC10C2F2000064210183BD
:103ED000E878002896D040F20030C0F20500C5F81E
:103EE0000300B0BD287903280BD1A87948B99FED0C
:103EF000880ADFED850A9FED831AFFF747FA012054
:103F0000A87040F28440C2F2000090ED000ABDEEBD
:103F1000C00A10EE100A002848BF404205283FF7AB
:103F200071AF0020A8704FF4C060A880B0BD2879A0
:103F3000A97908430FD19FED700A9FED741AF0EE36
:103F4000400AFFF723FA0120A87140F2FC10C2F2E8
:103F5000000064210183E87800283FF453AF00207B
:103F6000E870012068700720A5F80500B0BD6878EA
:103F70000024C4F20204B8B1A879A8B99FED5D0A83
:103F8000F0EE400AB0EE401AFFF700FA0120A871E7
:103F900040F2FC10C2F200004FF4FA710183204697
:103FA00010210122FDF7D8FEE87800283FF42AAF5F
:103FB0002046102100220024FDF7CEFE0820EC70E0
:103FC0006C70A5F80500B0BDE878A97908430FD159
:103FD0009FED4D0A9FED4D1AF0EE400AFFF7D6F91E
:103FE0000120A87140F2FC10C2F200003C210183C4
:103FF000E87800283FF406AF0020E8700920A5F813
:104000000500B0BD687848B99FED3C0ADFED390A7C
:104010009FED3C1AFFF7BAF90120A87040F28440E6
:10402000C2F2000090ED000ABDEEC00A10EE100AC8
:10403000002848BF40422828FFF6E4AE0020A870C0
:104040000A206871B0BDE878A97908430FD19FEDC7
:104050002A0A9FED281AF0EE400AFFF797F901208F
:10406000A87140F2FC10C2F2000050210183E878F0
:1040700000283FF4C7AE0020E8700B20A5F805002B
:10408000B0BDA87948B99FED1C0ADFED1C0A9FED71
:104090001C1AFFF77BF90120A87040F28440C2F29D
:1040A000000090ED000ABDEEC00A10EE100A0028D4
:1040B00048BF404205283FF7A5AE0120A5F8010002
:1040C0000C206871B0BD687800283FF49BAEA879D9
:1040D000002818BFB0BD9FED070AF0EE400AB0EE11
:1040E000401AFFF753F949F27550C0F6000000F08E
:1040F000C3FBB0BD000000000000C8420000484300
:104100000080C043000057C30000C8C20000AA429C
:10411000000066C3000048C3B0B501380024B4EB0A
:10412000106F1CBF0120B0BD4EF21005CEF200058D
:1041300068604FF0FF300F2100F0EAFC0720AC6010
:1041400028602046B0BD000080B5FDF713FF80BD9C
:1041500070B592B006AC20463021FCF7E6FA002597
:1041600043F640000595CDE90355CDE9015500958D
:10417000C4F202000168022641F08051016000682B
:1041800000F080500090009847F200000095C4F2C3
:104190000000016866F38F310160006800F4404060
:1041A00000900098012006904FF4803007904FF463
:1041B00080000D9019200E90A8200C96CDE90F06D6
:1041C000042011902046FEF769F878B90F20CDE958
:1041D00001064FF480500395CDE9040501A80221A2
:1041E000FDF74EFF002804BF12B070BDFDF7F8FBCD
:1041F0004EF68850CEF20000016841F47001016073
:104200007047000010B540F2FF7E0368C4F2000E54
:1042100040F2000C7045C4F2010C0ADD40F60002C9
:10422000C4F2000290420DD060450BD040F600422F
:1042300004E0B0F1804F05D040F20042C4F2000229
:10424000904203D14A6823F0700313434FF6FF7284
:10425000C4F20002904209DC704512DCB0F1804FDC
:1042600026D040F20042C4F200021FE044F2FF32C6
:10427000C4F2010290420FDC604519D044F2000202
:1042800012E040F60002C4F20002904210D040F664
:104290000042C4F2000209E044F60002C4F2010246
:1042A000904205D044F20042C4F20102904203D190
:1042B000CA6823F44073134323F080024B69D1F89A
:1042C00000E08C681A4360450260C462C0F828E0D0
:1042D00002D10969CCF83010012141610169C90797
:1042E00008BF10BD016921F00101016110BD00008E
:1042F00080B501F01F014FF0010CD0F820E00CFA5E
:1043000001F32EEA03030362036A02FA01F119437F
:10431000016280BDD0F808C011432CF47F4C41EA03
:10432000032141EA0C01816070470000826822F09D
:104330007002114341F007018160704770B5026A55
:10434000036A40F2000E23F00103036245688369AB
:104350000C688E6823F0730322F00202C4F2010E8F
:1043600043EA040C704542EA060208D070450ED0BC
:104370004560C0F818C049684163026270BDCB68EF
:1043800022F00C0223F004031A437045F0D125F407
:104390004073D1E9056533431D43E9E770B5026A0F
:1043A000036A40F2000E23F010030362456883693C
:1043B0000C688E6823F4E64322F02002C4F2010E5A
:1043C00043EA042C704542EA061208D0704510D02A
:1043D0004560C0F818C049688163026270BDCB684F
:1043E0006FF0400422F0C00204EA03131A43704540
:1043F000EED125F44063D1E9056543EA860343EA3B
:104400008505E5E770B5026A036A40F2000E23F401
:10441000807303624568C3690C688E6823F0730378
:1044200022F40072C4F2010E43EA040C704542EA21
:10443000062208D0704510D04560C0F81CC04968FD
:10444000C163026270BDCB6840F2FF441B0222F4DC
:104450004062A3431A437045EED125F44053D1E99D
:10446000056543EA061343EA0515E5E7B0B5D0F85C
:1044700020E0026A22F4805202624468C3690A683A
:1044800023F4E6438D6843EA022C00232EF4005205
:10449000C4F20103984242EA053304D14A6924F484
:1044A000804545EA82144460C0F81CC04968016434
:1044B0000362B0BDD0F820C0036A23F00103036299
:1044C000836923F0F00343EA02122CF00A03194334
:1044D0008261016270470000D0F820C0036A23F0B7
:1044E00010030362836923F4704343EA02322CF021
:1044F000A00343EA011182610162704740F2AC1CE3
:10450000C2F2000C9CF80610A1B140F22821C2F2C0
:1045100000010A8840F2FC13C2F2000301321B8B37
:1045200090B298420A8038BF70470020088001206E
:104530008CF803007047000080B5806B0021C185B6
:10454000C184FEF73BFC80BD016851E8031F02688F
:1045500021F4907142E80313002BF5D1016851E872
:10456000051F026821F0010142E80513002BF5D177
:10457000016B01290AD100BF016851E8031F0268DD
:1045800021F0100142E80313002BF5D1202180F81F
:10459000421000210163704780B50168CA6822F0AB
:1045A0004002CA60202180F84110FEF743FE80BD22
:1045B00080B582B090F8421022291ED18268B2F5EF
:1045C000805F02D1016900294AD0816AB2F5805F1B
:1045D00007D00AB9026922B10268526802F07F026C
:1045E00001E0026852680A700121826A1144816206
:1045F000C18D01390A04C18501D002B080BD0168B6
:10460000CA6822F02002CA60CA6822F48072CA60B6
:104610004A6922F001024A61202180F842100021FB
:104620004163026B012A23D1016300BF016851E895
:10463000031F026821F0100142E80313002BF5D19B
:1046400001680A68D20606D5002201920A68019222
:10465000496801910199818DFEF7AEFB02B080BDE2
:104660000168826A49686FF35F2111800221BCE70B
:10467000FEF758FD02B080BD10B504460068D4E9CD
:1046800002C22369016921F4405111430161626949
:1046900043EA0C01E3691143C268194349F20C6310
:1046A0009A431143C1604169A26921F4407141F20A
:1046B0000043114340F48062C4F201039A42416115
:1046C00002D1FDF7A5FD01E0FDF790FDE16963680A
:1046D0001922B1F5004FA0FB02011CD15A00DB0FDB
:1046E000FBF7D8FD48F21F51C5F2EB11A0FB0123E7
:1046F0005A096FF0630302FB0300322303EBC0008F
:10470000A0FB01014FF4F87000EA111000EB021059
:10471000C1F342111AE09A009B0FFBF7BBFD48F270
:104720001F51C5F2EB11A0FB01235A096FF063037F
:1047300002FB0300322303EB0010A0FB0101F02079
:1047400000EA511000EB0210C1F343112268084344
:10475000906010BD816200218285C2854164222162
:1047600080F84210016921B10168CA6842F4807280
:10477000CA600168486940F001004861C86840F0BB
:1047800020020020CA60704790F84110212923D1EF
:104790008168B1F5805F01D1016931B1016A0268B8
:1047A0004B1C03620978516007E0016A036831F825
:1047B000022B6FF35F225A600162C18C01390A0437
:1047C000C18418BF70470068C16821F08001C160D2
:1047D000C16841F04001C160704700002DE9F0411F
:1047E00082B00446006800680840884203D1002077
:1047F00002B0BDE8F0811D460E4690465F1C04E005
:10480000206800683040B04228D0002FF8D0FDF773
:10481000A9FA01464FF003000DB3A1EB0801A9422C
:104820001DD82068C1684907EAD5402EE8D0802EFF
:10483000E6D001680907E3D50025019501680191DB
:104840004068019001982046FFF77EFE08206064D2
:1048500084F84050012002B0BDE8F081002002B091
:10486000BDE8F08180B540F22440C2F20000FEF7BE
:10487000A7FA80BDFEE7000010B50446FBF736FF3F
:1048800082B240F22440C2F2000021464FF0FF33D2
:10489000FEF776FC10BD000080B540F2FC10C2F2BD
:1048A0000000B0F91C0000EE100AB8EEC00A10EECD
:1048B000100A03F0FBFE9FED0C0B53EC102B03F0E2
:1048C00035FC9FED0B0B53EC102B03F09BFA03F020
:1048D000B3F940F2C01100EE100AC2F20001C86143
:1048E00000F03AF880BD00BF00000000004CED4031
:1048F000000000000050C44080B540F2FC10C2F23D
:104900000000B0F91E0000EE100AB8EEC00A10EE6A
:10491000100A03F0CBFE9FED0C0B53EC102B03F0B1
:1049200005FC9FED0B0B53EC102B03F06BFA03F01F
:1049300083F940F2C01100EE100AC2F20001486390
:1049400000F06CF880BD00BF00000000004CED409E
:10495000000000000078CE4040F2C010C2F200001B
:1049600090ED063A9FED2A5A33EE400ABEEE003A29
:10497000B4EE430AB0EE403A90ED031A90ED042AEB
:1049800090ED054AF1EE10FAC8BFB0EE453AB6EE2A
:10499000005A40F24421B4EE450AC2F20001F1EEA1
:1049A00010FAB8BFB0EE430A91ED003A9FED195AE4
:1049B00033EE003AB4EE453AF1EE10FAB8BFB0EE7D
:1049C000453A9FED155A40F23C20C2F20000B4EE89
:1049D000453A80ED000AF1EE10FAB8BFB0EE435A46
:1049E00081ED005A40F24021C2F2000191ED003AFF
:1049F00021EE001A22EE052A30EE430A31EE021AA9
:104A000024EE000A006830EE010A0860704700BF1B
:104A10000000000000802CC400802C4440F2C01034
:104A2000C2F2000090ED0C3A9FED2A5A33EE400A94
:104A3000BEEE003AB4EE430AB0EE403A90ED091AE9
:104A400090ED0A2A90ED0B4AF1EE10FAC8BFB0EED5
:104A5000453AB6EE005A40F25021B4EE450AC2F291
:104A60000001F1EE10FAB8BFB0EE430A91ED003A42
:104A70009FED195A33EE003AB4EE453AF1EE10FAD2
:104A8000B8BFB0EE453A9FED155A40F24820C2F249
:104A90000000B4EE453A80ED000AF1EE10FAB8BF1E
:104AA000B0EE435A81ED005A40F24C21C2F20001AF
:104AB00091ED003A21EE001A22EE052A30EE430A6B
:104AC00031EE021A24EE000A006830EE010A086096
:104AD000704700BF0000000000802CC400802C4400
:104AE000002848BF704700F01F01012202FA01F1BF
:104AF0004EF200124009CEF2000242F82010704738
:104B00004EF60C50CEF200000068C0F30220704751
:104B10004EF6145300F00F02CEF2000309011A44BE
:104B200000F16043B0F1FF3FC8BF03F5644211706C
:104B3000704700004EF60C51CEF200010A684FF6A5
:104B4000FF031A4060F30A2242F0806040F0FD70DB
:104B50000860704770B584B001AE054630460C461B
:104B600000F080FD9FED220A9FED242A9FED213A5F
:104B70009FED214A0021BFEE001A4FF0010C0020EA
:104B800008E000BF0CFA01F210430131032906F1DD
:104B900004062AD055F8213054F821209B1A48BF2A
:104BA0005B4205EE103AB8EEC55A96ED006A25EE66
:104BB000005AB5EE406AF1EE10FA0BD085EE065AB7
:104BC00035EE015AB0EEC55AB4EE425AF1EE10FA83
:104BD000DBDDD7E7B4EE435AF1EE10FAD2DBB4EEE8
:104BE000445AF1EE10FAD0DDCCE704B070BD00BF3E
:104BF000000080379A99993E3333733F295C0F3E0A
:104C0000B0B504464078E578C0070BD040F2542098
:104C1000C2F2000002682AB105F00700411CC5F38A
:104C2000C20090476078000709D540F25820C2F2D0
:104C300000000168002908BFB0BDA8098847B0BDC1
:104C400080B582B000280EBF4FF0A33042F620009E
:104C5000C3F63000019001AA40F69E20042102F024
:104C60004FF801F0BDFC02B080BD00002DE9F0411D
:104C700084B004464CF60220C0F6E3100DF10605A0
:104C8000CDF80600682004212A4602F039F8A32056
:104C90006FF05C026FF05C038DF8060014F04006C4
:104CA00018BF6FF03F0218BF6FF037036FF05C075B
:104CB0006FF05C0118BF6FF03D078DF807208DF88D
:104CC00008306FF05C026FF05C038DF8097014F42B
:104CD000C07718BF6FF03B021CBF6FF033036FF05B
:104CE00039018DF80C104AF2A3318DF80A20ADF885
:104CF0000D108DF80F0040F6A7200A212A468DF8E6
:104D00000B3001F0FDFF6FF0270014F0030818BF0F
:104D100020208DF8060040F6B62001212A4601F039
:104D2000EFFFC4F3401000F097F82FB36FF04D0180
:104D30006FF0740214F4807008BF6FF04F0108BF69
:104D40006FF07F026FF049036FF0640508BF6FF0EA
:104D50004B03002808BF6FF06F058DF806108DF823
:104D600007200DF1060240F6A22004218DF808303C
:104D70008DF8095001F0C4FFE0070AD1D8208DF862
:104D800006000DF106024FF40B60012101F0B8FF9F
:104D900027E0F8208DF806000DF106024FF40B60B5
:104DA000012101F0ADFF0720FA2100F063FB07208D
:104DB00000F02CFB012000F049FB642000F016FC01
:104DC0004FF4FA7000F028FC4EF20930C0F2CA200D
:104DD000C82100F0D9FA282000F0ECFA0A2000F0EF
:104DE000FFFAA0076FF0260058BF6FF027008DF87C
:104DF00006000DF1060240F23D70012101F080FF36
:104E0000C4F3800000F04EF8C4F30010FFF718FF61
:104E100040F2602144F00800C2F20001088001F075
:104E2000DFFB002E18BF0626002F40F2662018BFB9
:104E30000636C2F2000014F0140F067002D001789A
:104E400010310170B8F1000F02D001780431017007
:104E5000002004B0BDE8F08180B584B060B15D2071
:104E60008DF80C0049F6B400C3F20D5002904AF6DA
:104E7000B820C8F6B3500BE0C7208DF80C0048F6F8
:104E8000B000CCF2C35002904AF6B820CAF6AA206D
:104E9000019001AA4FF49760092101F031FF04B09D
:104EA00080BD000080B582B000280EBF4FF08B306F
:104EB0004CF2C020CCF2C460019001AA40F69820C8
:104EC000042101F01DFF01F08BFB02B080BD00004A
:104ED00080B548F63C11C0F6000140F6F6304FF4BC
:104EE0008062C82301F02CFA80BD00002DE9F04F4C
:104EF00089B01446DDE912920F460021A9F800108E
:104F000040F26621C2F2000109780DF1040A8346DD
:104F100008465146984601F0DDFA20B14FF0FF30C7
:104F200009B0BDE8F08F40F26020C2F20000B0F896
:104F300000C01CF0140F4ED09DF805209DF8041001
:104F40009DF8063012049DF8075042EA016141EADB
:104F500003222A4422609DF809209DF8083012049B
:104F600042EA03629DF80A309DF80B5042EA03239F
:104F70002B4463609DF80D309DF80C501B0443EAF0
:104F800005639DF80E509DF80F6043EA05252E44F9
:104F9000A6609DF811609DF8105011FB31F13604A8
:104FA00012FB321146EA05669DF8125013FB3311CD
:104FB0009DF8130016FB361146EA052501F17141F3
:104FC0002844B1F1007FE0600AD901F009FB00201C
:104FD000A9F80000A2E700215FEA4C600AD430E0A3
:104FE000B9F80000102140F48070A9F800005FEAD1
:104FF0004C6026D541F001021AF801001AF802208F
:1050000041F0030342EA002041F002021AF80220B4
:105010001AF80330388043EA022041F0040241F0DC
:1050200005031AF802201AF80330788043EA0220B8
:10503000B880B9F8000041F0060140F00800A9F876
:1050400000001CF4C07F18D03AF801000AEB0102FE
:1050500000BA5388000CABF8000018BA9288000C14
:10506000ABF8020010BA000CABF80400B9F800006D
:10507000063140F07000A9F800005FEA8C7003D0A0
:105080000AEB0100FFF7BCFD404600F06FFE002078
:1050900009B0BDE8F08F0000B0B584B004460DF152
:1050A000020000F0FFFF40F25C21C2F2000109881B
:1050B000BDF802004B0701F003024FF00C0354F857
:1050C000222003EA51034FEAC03C48BF5242E35852
:1050D000880648BF5B42C1F3811054F82000C9051F
:1050E00048BF40428CFB00018CFB02E2800F8CFB2E
:1050F000035440EA810C900D8DF80400900B8DF85C
:10510000050090098DF80600A00D8DF80800A00B91
:105110008DF80900A0098DF80A00880D8DF80C00A3
:10512000880B4FEA9E73AD0F8DF80D00880943EA96
:10513000820345EA84058DF80E0001AA4FF425701C
:105140000C218DF807308DF80B508DF80FC001F051
:10515000D7FD04B0B0BD000010B586B004464AF6D5
:10516000BB70CDF6DF7005904FF2AA10CDF6DF7060
:1051700004904FF2FE20CCF2AB40C82C039015D81F
:10518000C820B0FBF4F001AA013800BA000CADF859
:10519000040040F21620022101F0B2FD30B903AA4A
:1051A00040F6C1200C2101F0ABFD18B14FF0FF30EB
:1051B00006B010BD40F26420C2F20000048000205E
:1051C00006B010BD70B582B040F25C21C2F20001A1
:1051D00009880C2601F0030250F822204EF209340F
:1051E00006EA51064B0748BF5242C0F2CA2486590C
:1051F000C1F3811582FB042350F82550880648BF6F
:105200007642C8054FEA935148BF6D42900F8DF822
:105210000410990B40EA83008DF8051099098DF868
:1052200006108DF8070001AA4FF47470042101F0F4
:1052300067FD68B986FB0401800F40EA810000BA6F
:10524000019001AA4FF47570042101F059FD18B1C5
:105250004FF0FF3002B070BD85FB0401800F40EAC3
:10526000810000BA019001AA4FF47670042101F088
:1052700047FD02B070BD0000B0B582B048F60F1116
:10528000054600F00300C0F600010A5C48F60C1465
:105290008DF80420C5F3C1028B5CC0F600048DF8C4
:1052A0000530C5F38113C95C205C8DF806108DF8BC
:1052B0000000A05CE15C8DF801008DF8021001AAED
:1052C00040F22640032101F01BFDA0BB6A4640F2DC
:1052D0002A40032101F014FD68BB76208DF80600FA
:1052E00045F23660ADF8040044F22660ADF80000E7
:1052F000662069078DF8020021D4A8062DD4E805A0
:105300000BD59DF806009DF8021040F001008DF8C5
:10531000060041F001008DF8020001AA4FF48860F8
:10532000032101F0EDFC30B96A4640F2314003211F
:1053300001F0E6FC00B34FF0FF3002B0B0BD9DF8C5
:1053400004009DF8001040F001008DF8040041F0C9
:1053500001008DF80000A806D1D59DF805009DF844
:10536000011040F001008DF8050041F001008DF8BA
:105370000100E805C5D4D0E740F25C20C2F200008D
:105380000580002002B0B0BD80B582B044F6D35293
:10539000C1F2620250FB02F0821102EBD07048436E
:1053A00000BA019001AA4FF4AE70042101F0A8FCEC
:1053B00002B080BD80B582B04CF6CD41CCF6CC4178
:1053C000A0FB0101880840BAADF806000DF1060205
:1053D0004FF4AD70022101F093FC02B080BD0000DB
:1053E00080B582B04CF6CD41CCF6CC41A0FB01019A
:1053F000880840BAADF806000DF106024FF4AC7013
:10540000022101F07DFC02B080BD000080B582B0B9
:1054100000F001025242410802F0300261F38202C0
:1054200061F3C30240078DF8072005D59DF80700FA
:1054300040F003008DF807000DF107024FF4A4704F
:10544000012101F05DFC02B080BD000080B582B09A
:105450000428014628BF0421002818BF481E8DF8E3
:1054600007000DF1070240F24F10012101F048FC46
:1054700002B080BDB0B52DED028B82B00446B1F50F
:10548000C86F4FF0FF301DD814F007021AD000EE9D
:10549000101A0DF10300B8EE408A00F0E7FD9DF808
:1054A0000300811E4FEA7100072809D84908C9B2D4
:1054B0008B2222FA01F1C90708D14FF0FF3001E039
:1054C0004FF0FF3002B0BDEC028BB0BD9FED360A4D
:1054D00036A188EE000A01EB800191ED001A3BA194
:1054E00001EB800090ED002A20EE011A20EE020A66
:1054F000BDEEC00A10EE100ABDEEC10A10EE101A81
:105500000A0A8DF804208DF80510010A01AA951CDD
:105510008DF80610E1078DF8070005D1A0070DD41E
:10552000600720D40020CDE701AA4FF4EA700221E1
:1055300001F0E6FB60B14FF0FF30C3E701AA4FF482
:10554000EC70022101F0DCFBB8B14FF0FF30B9E79D
:105550004FF4927002212A4601F0D2FB0028DDD0E0
:105560004FF0FF30AEE701AA4FF4EE70022101F0D8
:10557000C7FB68B14FF0FF30A4E74FF494700221ED
:105580002A4601F0BDFB0028CAD04FF0FF3099E752
:105590004FF4967002212A4601F0B2FB0028C1D0D8
:1055A0004FF0FF308EE700BF000048430000804608
:1055B0000000004600008046000080450000804654
:1055C0000000804600008046000000450000404684
:1055D0000000C04500004046000040450000404635
:1055E00000004046000040460000C04480B582B044
:1055F0004CF6CD41CCF6CC41A0FB0101880840BA65
:10560000ADF806000DF106024FF4EF70022101F033
:1056100077FB02B080BD000080B582B04CF6CD4172
:10562000CCF6CC41A0FB0101880840BAADF80600D9
:105630000DF106024FF4ED70022101F061FB02B0A2
:1056400080BD000080B582B0019040F22440C2F2DB
:10565000000001A901224FF6FF73FDF791FD0198AB
:1056600002B080BDB0B582B040F21C01C2F20001B0
:1056700049680446097801AB08460D210422FDF76C
:10568000B7FF08B102B0B0BD9DF804009DF8073027
:105690004FF01C0E9DF805109DF806C00EEAD000D4
:1056A000C3F3011210448DF801000EEAD100C3F3D8
:1056B000810108448DF802000EEADC0003F00301CA
:1056C00041F27B4C9FED160A9FED161A08444FF0ED
:1056D000000E0DF10101C3F6AE6C00238DF803003E
:1056E00005E000BFC2F800E00133032BCAD0C85C5C
:1056F00004EB83020028F5D0C85CC2F800C0013872
:105700000506C854F0D0C85CB0EE402A0138050642
:1057100022EE012AFAD182ED002A01F803E0E3E744
:105720007B14AE3E1D5A843F2DE9F04383B040F216
:105730001C0705460120C2F200070C46ADF8000028
:10574000D7E9001016460078897C6B460222FDF7E7
:10575000C9FF10B14FF0FF378CE1C820FCF796F974
:1057600000208DF80000D7E900106B460078C97B57
:105770000122FDF7B7FF10B14FF0FF377AE1D7E90B
:1057800000106B46007849790122FDF7ABFF10B19C
:105790004FF0FF376EE1D7E900106B460078897C47
:1057A0000122FDF79FFF10B14FF0FF3762E1D7E90B
:1057B00000106B460078C97D0122FDF793FF10B100
:1057C0004FF0FF3756E1D7E900106B4600780979B2
:1057D0000122FDF787FF10B14FF0FF374AE10C209F
:1057E0008DF80000D7E900106B4600780979012296
:1057F000FDF778FF10B14FF0FF373BE10F20FCF7CA
:1058000045F9B86A3968407A7A688DF800001078EE
:1058100089786B460122FDF765FF10B14FF0FF3725
:1058200028E1B86A3968007A7A688DF80000107843
:1058300049786B460122FDF755FF10B14FF0FF3755
:1058400018E1B86AD7E90012807A002E18BF40F03C
:10585000E0008DF80000107889796B460122FDF791
:1058600041FF10B14FF0FF3704E126B1B86AC07AAA
:1058700060F01F0000E018208DF80000D7E900104C
:105880006B460078C9790122FDF72CFF10B14FF06B
:10589000FF37EFE016B1C820FCF7F8F840208DF88C
:1058A0000000D7E900106B46007809790122FDF766
:1058B00019FF10B14FF0FF37DCE078208DF80000C1
:1058C000D7E900106B46007849790122FDF70AFFFD
:1058D00010B14FF0FF37CDE03220FCF7D7F80020B1
:1058E0008DF80000D7E900106B4600784979012255
:1058F000FDF7F8FE10B14FF0FF37BBE0D7E900101D
:105900006B460078897A0222FDF772FE10B14FF0E3
:10591000FF37AFE0BDF800004AF6AB21000400BA43
:10592000CAF6AA21A0FB01010020C5E90000A86079
:10593000C4E90000A060C1F3C709B9F1000F3ED06F
:105940000026E846D7E900100C220078C97A4346C1
:10595000FDF74EFE002840F08B80BDF80000BDF83A
:10596000021090FA80FCBDF80420D4E9003009BA96
:1059700092FA82FEA26803EB2C4300EB2140C4E9BB
:10598000003002EB2E41BDF80600A160BDF8081002
:1059900090FA80FCBDF80A20D5E9003009BA92FAE5
:1059A00082FEAA6803EB2C4300EB21400136C5E9D7
:1059B0000030F0B202EB2E418145A960C2D895E8D3
:1059C00041018322C117090441EA10410004002368
:1059D0000027FAF7D7FC4A460023FAF7D3FC2860E1
:1059E000F017000440EA1641300483220023FAF73E
:1059F000C9FC4A460023FAF7C5FC68604FEAE87024
:105A0000000440EA18414FEA084083220023FAF7D5
:105A1000B9FC4A460023FAF7B5FCA860D4E90006B1
:105A2000A568C117490141EAD06140014A460023F7
:105A3000FAF7A8FC2060F017400140EAD661700137
:105A40004A460023FAF79EFC6060E817400140EAEE
:105A5000D56168014A460023FAF794FC4FF480317F
:105A60000028C4BF0021CFF6FF710844A06001E008
:105A70004FF0FF37384603B0BDE8F08370B582B011
:105A800040F21C02C2F2000252680C4611780DF17D
:105A90000506054608460D2103223346FDF7A8FDFD
:105AA00010B1072002B070BD9DF805009DF80610EA
:105AB0009DF8072000F01F008DF8050001F01F0081
:105AC0008DF8060002F01F009FED2C0A9FED2E2A94
:105AD0009FED2C5A9FED2A6A8DF807004FF0000CBD
