:020000040800F2
:10000000780A00205502000889320008612900089A
:1000100085320008DD1000085D3B0008000000008C
:10002000000000000000000000000000FD33000898
:10003000E110000800000000B93200083134000867
:100040006F0200086F0200086F0200086F020008CC
:100050006F0200086F020008E51000086F02000838
:100060006F0200086F020008FD1000086F02000810
:100070006F0200086F0200086F0200086F0200089C
:100080006F0200086F0200086F0200080000000005
:100090000000000000000000000000006F020008E7
:1000A0006F0200086F0200086F0200086F0200086C
:1000B0006F0200086F0200086F0200086F0200085C
:1000C0006F0200086F0200086F0200086F0200084C
:1000D0006F0200086F0200084D3B0008000000009E
:1000E000F11000086F0200086F0200080000000015
:1000F0000000000000000000000000006F02000887
:10010000000000006F0200086F0200086F02000884
:1001100000000000000000000000000000000000DF
:100120006F0200086F0200086F0200086F020008EB
:100130006F02000800000000000000000000000046
:100140000000000000000000000000006F02000836
:100150006F0200086F0200086F0200086F020008BB
:100160006F0200086F02000800000000000000009D
:10017000000000000000000000000000000000007F
:10018000000000006F0200080000000000000000F6
:100190006F02000800F002F800F04CF80AA090E8A6
:1001A000000C82448344AAF10107DA4501D100F032
:1001B00041F8AFF2090EBAE80F0013F0010F18BFB3
:1001C000FB1A43F0010318478C820000AC82000048
:1001D000103A24BF78C878C1FAD8520724BF30C873
:1001E00030C144BF04680C60704700000023002445
:1001F00000250026103A28BF78C1FBD8520728BF37
:1002000030C148BF0B607047642900F0298178290C
:1002100000F06281002070471FB507F002FA9DE8E8
:10022000030000F051FD00F041FB1FBD10B500F0D0
:10023000A6FB10BD00F0DAFB1146FFF7EDFF04F05E
:1002400049FE00F0E1FC03B4FFF7F0FF03BC00F04F
:10025000ADFE00000948804709480047FEE7FEE779
:10026000FEE7FEE7FEE7FEE7FEE7FEE7FEE7FEE766
:1002700004480549054A064B70470000D934000878
:100280009501000878040020780A002078060020F4
:100290007806002053EA020C00F069802DE9F04B4B
:1002A0004FF00006002B1FBFB3FA83F503FA05F4E5
:1002B00024FA05F65E4012BF1643B2FA82F502FA3E
:1002C00005F4C5F120051EBF22FA05FC44EA0C0422
:1002D000203556EA044C4FEA144418BF641C4FF012
:1002E00000084FF00009904271EB030C39D300294C
:1002F00019BFB1FA81F701FA07F6B0FA80F700FAF0
:1003000007F6C7F120071EBF20FA07FC46EA0C06D5
:100310002037B6FBF4FCA7EB0507103F07F01F0BD7
:10032000CBF120062CFA06F60CFA0BFB44BFB346C1
:100330000026202FA4BF5E464FF0000B5BEA060CA0
:1003400008BF4FF0010B19EB0B0948EB0608ABFB9C
:10035000027C06FB02CC0BFB03CCC01B71EB0C0137
:10036000C1E70B46024641464846BDE8F08B13B54F
:10037000084318BF4FF0FF300146AFF30080BDE8DF
:100380001C40704753EA020C23D010B54C1084EA8D
:10039000530404D54042C1F1000138BF491E1B423D
:1003A00004D55242C3F1000338BF5B1EFFF772FF52
:1003B00014F0804F04D04042C1F1000138BF491E03
:1003C00014F0004F04D05242C3F1000338BF5B1E4B
:1003D00010BD13B540424FF0000070EB0104B8BFF0
:1003E000012001F0004100281CBF6FF000414FF0D8
:1003F000FF30AFF300801CBD0FB4044910B503AA51
:10040000029800F021FA10BC5DF814FBA400002053
:1004100070B5044685690068C10601D5302600E044
:100420002026C00707D070BDD4E90121304690478F
:10043000206A401C20626D1EF6D570BD70B5044662
:1004400085690078C00707D170BDD4E9012120205B
:100450009047206A401C20626D1EF6D570BD0000DA
:100460002DE9F0410646002410687529314616A58D
:1004700010D0AFF30080002802DA404213A507E055
:1004800031688A0701D512A502E0490704D511A5F4
:10049000012401E0AFF3008000210A2206F12407C5
:1004A00009E0B0FBF2FCB0FBF2F302FB1C003030C1
:1004B00078541846491C0028F3D123462A46304672
:1004C000BDE8F04100F066B9000000002D0000001A
:1004D0002B0000002000000070B504460D462146A8
:1004E0001068AFF300802188090502D50F4A7A44CD
:1004F00002E00E4A7A440E32002104F1240305E0A2
:1005000000F00F060009965D5E54491C0028F7D1E3
:1005100020780023000704D5702D02D009B10223F2
:1005200011322046BDE8704000F034B9547100002B
:100530002DE9F05F894604464FF0000ADFF824B148
:10054000FB44C0F820A02046E168884700287DD001
:10055000252806D0D4E901219047206A401C20625A
:10056000F1E700255F462046E168884720280646D7
:1005700007DB312E05D2B81910F8200C08B105435D
:10058000F1E7A80701D525F00405C4F81CA0002751
:10059000C4F818A02A2E09D0304606F039FA38B32C
:1005A00004EB8708303EC8F8186019E059F8041BBE
:1005B000204604EB87029161E1688847012F0646D7
:1005C00018D1E069002820DA25F020051DE0D8F8D0
:1005D000180000EB800006EB40003038C8F8180027
:1005E0002046E1688847064606F012FA0028EED158
:1005F000012F0AD02E2E08D12046E16888477F1CA3
:100600000646022F45F02005C4DBA069002803DA66
:10061000404245F00105A061E80701D025F0100532
:10062000A6B1A6F14100192802D8203645F400658C
:100630004A463146204625604D46FFF7E5FD60B14C
:10064000012807D0ED1D25F0070000E007E000F1CC
:10065000080978E705F1040975E730467AE7206A6A
:10066000BDE8F09F2A71000010B5044603E004F0D5
:100670005DF9401C09D014F8010B05490028F6D19A
:10068000BDE810400A2004F051B94FF0FF3010BD12
:10069000A400002040EA010310B59B070FD1042AF3
:1006A0000DD310C808C9121F9C42F8D020BA19BA3D
:1006B000884201D9012010BD4FF0FF3010BD1AB1A2
:1006C000D30703D0521C07E0002010BD10F8013BF7
:1006D00011F8014B1B1B07D110F8013B11F8014B1E
:1006E0001B1B01D1921EF1D1184610BD10B5431C41
:1006F00002E010F8011B71B18107FAD14FF001320D
:1007000002C88C1A8C4314EAC211F9D0C01A0A0626
:1007100003D0C01E10BDC01A10BD0A0401D0801E37
:1007200010BD0902FCD0401E10BD4FF0000200B504
:10073000134694469646203922BFA0E80C50A0E804
:100740000C50B1F12001BFF4F7AF090728BFA0E8B2
:100750000C5048BF0CC05DF804EB890028BF40F87E
:10076000042B08BF704748BF20F8022B11F0804FC0
:1007700018BF00F8012B704770477047704710B5DD
:1007800000F074F8006810BD10B5044600F06EF873
:10079000046010BD2DE9F0470D4699469246044687
:1007A00000F124080168880604D5E06921F01001F1
:1007B000216000E00120A84201DD471B00E0002786
:1007C000A1697A1902EB0900081AA0612078C00615
:1007D00002D42046FFF71CFE002608E0D4E90121E0
:1007E0001AF806009047206A401C761C20624E458D
:1007F000F4DB2078C0060AD52046FFF709FE06E0A4
:10080000D4E9012130209047206A401C2062381E24
:10081000A7F10107F4DC07E0D4E9012118F805008D
:100820009047206A401C2062281EA5F10105F3DCD8
:100830002046FFF703FE2078000602D50220BDE81F
:10084000F0870120FBE70000074B70B50D467B44A5
:1008500000F015F80446284600F024F810B14FF0D7
:10086000FF3070BD204670BDDB400000004870477F
:100870004C01002001694A1C02610878704700B5EC
:100880008FB0CDE901310021059105497944CDE9C9
:10089000031011466846FFF74BFE0FB000BD000085
:1008A000E5FFFFFF007B00F08000704710B5424875
:1008B0005421FFF73AFF41485421FFF736FF4048E3
:1008C0005421FFF732FF3F493B483C4A3F4B086009
:1008D0003D490A603A491960531C0365481C10657C
:1008E000012008653B48344A39A1784400F0EEF80D
:1008F00020B9384878440A3800F08FF937482F4A31
:1009000035A1784400F0E2F820B9344878440A3838
:1009100000F083F932482A4A2FA1784400F0D6F833
:1009200020B92F4878440A3800F077F9402322484C
:10093000DC000021224600F0A5F820B125487844CB
:10094000543800F06AF91D4822464023002100F087
:1009500099F820B121487844543800F05EF91848DD
:1009600022461023002100F08DF8002806D01C48F4
:100970007844BDE81040563800F04FB910BD10481B
:1009800070B5006D20F001040B4800F017F90B481A
:1009900000F014F90A4800F011F909E0206D20F088
:1009A0000105204600F00AF9204600F044F82C46E4
:1009B000002CF3D170BD000050000020A4000020E6
:1009C000F8000020000000200400002008000020A3
:1009D00072000000826E0000770000006E6E000062
:1009E0005A6E0000004870474C0100207546FFF722
:1009F000F9FFAE4605006946534620F007008546DC
:100A000018B020B5FFF734FCBDE820404FF00006D9
:100A10004FF000074FF000084FF0000BAC46ACE879
:100A2000C009ACE8C009ACE8C009ACE8C00921F0D5
:100A300007018D46704770B50446051F00F028F980
:100A40000068002C14BF446870BD002C18BFAC4275
:100A50003CBF20466468F8D301680A18AA4218BF50
:100A6000456003D12A680546114401602868411990
:100A7000A1421CBF6C6070BD616869602168084458
:100A8000286070BD70B5C468A50713D0650211D485
:100A9000B2F5807F09D0B2F5007F06D0B2F5806F45
:100AA00008D1012300F1240106E05D1E6FF07F46AE
:100AB000B54201D3012070BD0161C361416024F4DE
:100AC00070611143C160002070BD00002DE9F0414C
:100AD0000C461646070047D0104600F06FF8207805
:100AE000611C61280AD0722802D077283CD102E02C
:100AF0000125002405E00225042402E0082448F230
:100B0000020511F8010B2B2806D0622809D011F834
:100B1000010C74280AD00BE045F0030544F00204F0
:100B2000EFE745F0040544F00104EAE744F010045F
:100B30003846214600F078F8411C15D0002131617B
:100B400071604FF40071F560F1617061200704D5A8
:100B500030460222002100F015F9306D40F001000E
:100B600030653046BDE8F0810020FBE72DE9F0411B
:100B70000D460646104C206DC10704D0410804D034
:100B800020F00104F7E722460EE0542000F0CBF8F5
:100B900007000ED0206D47F0010108435421206565
:100BA0003846FFF7C2FD3A4629463046BDE8F041D7
:100BB0008CE70020D6E70000500000202DE9F04728
:100BC00004464FF000094FF0FF37C568D4E90486AA
:100BD000A80707D0204600F085F9304600F02EF82F
:100BE000002802DA3846BDE8F087280502D54046DD
:100BF000FFF721FF4C212046FFF797FD206D20F0E5
:100C0000010020654846EEE710B50446AFF30080CA
:100C10002046BDE81040FFF716BB10B500F0ACF958
:100C2000BDE8104000F0A2B90EB5CDE90001FFF714
:100C30005DFD029069460120ABBE0EBD08B5694658
:100C400000900220ABBE08BD1FB58DE807006946C5
:100C50000520ABBE04B010BD1FB58DE80F0069467E
:100C60000620ABBEF6E708B5694600900920ABBE8A
:100C700008BD1CB5CDE9000169460A20ABBE1CBD0C
:100C8000704708B5694600900C20ABBE08BD000057
:100C90000048704754010020704770477047704704
:100CA00038B504460A4600206946AFF300800028A4
:100CB00008BF38BD02460099204600F085F90120A2
:100CC00038BD012000F0D4B9F8B5AFF30080054677
:100CD00000200C46102000BF0646A819A0420DD9DE
:100CE000324669460020AFF30080070008BF00F0DD
:100CF000BFF90098A04218BF0546C419FFF7C8FF06
:100D000005600746F01D20F007004619284600F050
:100D100054F9B44208BFF8BDA21B31463868BDE89B
:100D2000F84000F051B970B50646FFF7B1FF05680D
:100D300006F10B0020F00704B4429CBF002070BDF8
:100D40002B466A68BAB11068A04210D304F10801BA
:100D500088423CBF5068586007D351681019416001
:100D60001168091B016058601460101D70BD1346A6
:100D70005268002AE7D121462846FFF791FF002854
:100D8000DED170BD2DE9F041044616460D46476997
:100D9000007B80072ED03846FFF765FF50BB3EB37F
:100DA000012E02D0022E25D104E0204600F026F9C3
:100DB00005441DE03846FFF764FFE168002841F074
:100DC0001001E16005DA204600F058F80120BDE886
:100DD000F081C9030BD56268E16A914200D81146DF
:100DE000A26911442269891A814200DD084605443E
:100DF000002D01DA0220EAE7E16A6068E2688142D8
:100E000006D29103E06203D522F4003141F01002D2
:100E1000A6690027AE4213DCE16A814201D90B4684
:100E200000E0034603EB060C2369ACEB030CAC4576
:100E300006DD814201D98C4600E084469C4505D1FF
:100E4000A760276042F02000A5620DE0AD1BE669B7
:100E5000AE1B8142A66000D90846C01A281A20603D
:100E60005819606022F0200003490840E06000202B
:100E700084F84870ABE70000BFCFD7FFC16821F40A
:100E8000001141F08001C160002181600160704764
:100E90002DE9F047814614460E464FF0FF383248A0
:100EA000D5685769054209D03846A169FFF7E1FEC8
:100EB000002811DB2C48C0430540E5602B46324634
:100EC00049463846FFF7C0FEA16920F00042B21A39
:100ED00011440028A16103D02046FFF7CFFF404610
:100EE000BDE8F08770B504460569C06A616888424C
:100EF00000D80846E16821F42011E160C90312D549
:100F0000A84208D02246411B2846FFF7C1FF10B176
:100F10004FF0FF3070BD0020E562C4E90150E06889
:100F200020F48030E060002070BD10B50446C06839
:100F300020F02000E060A16AA06988420DD0204620
:100F4000FFF7D0FFE06820F4405040F01000E06070
:100F5000A06AA0612069E062606044F24001E0683C
:100F60008843E06010BD000010000200002801D09E
:100F700000F01CB87047000010B5014602A000F058
:100F80005EF8012010BD00005349475254524544B9
:100F90003A2052656469726563743A2063616E2712
:100FA00074206F70656E3A2000000000014918201F
:100FB000ABBEFEE726000200704700210160C0E9D9
:100FC0000110704710207047034640688C46002887
:100FD00018BF88423CBF03464068F8D318681844DD
:100FE000884207D00CF1030020F00700001D411AD1
:100FF000521A0146081D0A60FFF71DBD10B50146D3
:10100000C268900703D0900607D5886A0AE0FFF708
:101010002DFC01210160881E10BD8B6948681844B1
:101020000B69C01A91F848301BB191F84910401A69
:1010300010BD1103FCD50028FADD401E10BD70B5AF
:1010400005460C460A2000E06D1C00F018F835B18A
:1010500028780028F8D102E0641C00F010F814B1E0
:1010600020780028F8D1BDE870400A2000F007B8C9
:1010700010B500F00BF8BDE81040FFF777BF08B5DA
:1010800069468DF800000320ABBE08BD10B50128ED
:1010900005D0002103A0FFF7D2FF012010BD09A158
:1010A000F8E7000053494752544D454D3A204F75DB
:1010B00074206F662068656170206D656D6F727950
:1010C000000000003A2048656170206D656D6F7208
:1010D0007920636F7272757074656400FEE70000BA
:1010E0007047000080B5012000F0E0F880BD0000EE
:1010F00080B54FF4805000F0D9F880BD80B5102045
:1011000000F0D4F880BD000072B600BFFEE700001A
:1011100070B5866D044600F0B9F994F835100229CF
:1011200025D105462068216C026822F01602026073
:10113000426922F08002426109B9A16C19B10168CB
:1011400021F008010160016821F00101016000BF88
:1011500020680068C0070ED000F098F9401B0628F0
:10116000F6D320206065032084F835000CE0802051
:101170006065012008E0E06D3F2101FA00F0B060F9
:10118000012084F835000020002184F8341070BD5F
:1011900090F83510022909D1052180F83510006832
:1011A000016821F001010160002070478021416544
:1011B00001207047B0B5044600F068F9054640F2DA
:1011C0004800C2F200000078611C18BF044400BF50
:1011D00000F05CF9401BA042FAD3B0BD70B52028E6
:1011E00063D140F20044C4F202042046202100F002
:1011F00039F9002818BF70BD40F2AC10C2F20000EF
:101200000178807808430DD040F2644040F2684194
:1012100040F27442C2F20000C2F20001C2F20002C7
:1012200003F012FF022002F0D3F840F2F415C2F2EC
:101230000005A883042002F0CBF8E88302F0B6F89A
:1012400002F09EFCBDEEC00A10EE100A2E4646F8D3
:101250000C0F02F0C5FCBDEEC00A10EE100A45F8F6
:10126000100FA5F10C022846314601F029FC15EDBE
:10127000030A28683168BDEEC00A10EE102A01F09A
:1012800051FC40F2B410C2F20000018801318AB270
:101290000A2A018007D30021018004F580604FF401
:1012A000005100F0E5F802F09DFA70BD80B543F6FC
:1012B0001441C4F201010A68024208BF80BD0860FF
:1012C000FFF78CFF80BD00002DE9F04F83B000F1E7
:1012D0003E4202F1FF724FEAB22241F20007019250
:1012E000C4F2020707224FF0010E00254FF0000A5A
:1012F0004FF00008B84208BF042200920AE000BF85
:1013000008F101080AF1040AB8F1100F05F102050D
:1013100000F0A4800C680EFA08FB14EA0B09EFD069
:101320004C6804F0030CACF1010EBEF1010F11D8B2
:101330000322876802FA05F6CA68B743AA403A430F
:1013400082604268C4F3001722EA0B0207FA08F72A
:101350003A434260BCF1030F1CD0C26803238E687D
:1013600003FA05F7BA4306FA05F73A43BCF1020F50
:10137000C2600FD16FF0030202EA580202440AF081
:101380001C060F23176A03FA06F40B69A743B34040
:101390003B431362026803234F68AB409A4307F054
:1013A0000303AB401A4317F4403F4FF0010E0260B5
:1013B000A6D0002243F644030292C4F202031A6844
:1013C00043F6004442F480421A601A68C4F20104F1
:1013D00002F480420292029A28F003024FF6084B70
:1013E0002244CFF6FF7B52F80B300AF00C070F2691
:1013F000BE4023EA060C019B009E042B38BF1E460C
:1014000006FA07F747EA0C0342F80B30A2684B686C
:1014100042EA090743F60C4CDE0258BF22EA0907EC
:10142000A760C4F2010CDCF800209E0242EA090722
:1014300058BF22EA0907CCF8007062689E0342EAAE
:10144000090758BF22EA090767602268DB0342EAFE
:10145000090358BF22EA0903236051E703B0BDE83E
:10146000F08F00000069084018BF0120704700009D
:10147000426902EA0103914341EA034181617047F5
:10148000002A08BF090481617047000040F27040E3
:10149000C2F200000068704770B5B0B3044690F81F
:1014A0003D0028B9002084F83C00204600F0BCF83C
:1014B000242084F83D002068016821F001010160CA
:1014C000016841F400410160016821F400410160BC
:1014D00000F020FA48F28041C0F21E0140F60012EE
:1014E000666888424FF00001C0F23D0248F2A16CEC
:1014F0004FF0000338BF01219042C0F2010C38BF09
:101500000123664538BF0B460BB1012070BD4DF677
:101510008361C4F21B31A0FB01122168930C4D685A
:10152000664525F03F0545EA92424A600A6A22F084
:101530003F0C09D34FF496725A4344F6D353C1F289
:101540006203A2FB03239B095A1C42EA0C020A62B3
:1015500048F2A063CA69C0F201039E424CF6FF73D1
:1015600022EA030C0AD801387200B0FBF2F0013015
:101570006FF31F30042898BF04202BE0A368A0F16C
:10158000010E9BB119207043BEFBF0F00422013024
:1015900062F31F30000512D09BB119207043BEFBCF
:1015A000F0F00422013062F31F3011E006EB460038
:1015B000BEFBF0F001306FF31F300005ECD10120CD
:1015C00008E006EB4600BEFBF0F001306FF31F3081
:1015D00040F4004040EA0C00C8610868D4E90723E1
:1015E00020F0C000104318430860886848F2FF32BA
:1015F00004F10C0690434CCE18431043A569886053
:10160000C86820F0FF0030432843C860086840F0F5
:101610000100086000202021206484F83D10206330
:1016200084F83E0070BD0000B0B586B0002405947B
:10163000CDE9034445F200410068C4F2000188424C
:101640000294019401D006B0B0BD43F63005009479
:10165000C4F20205286840F002002860286800F003
:101660000200009000984FF4407001901220CDE9E4
:101670000204032004900420059001F5D83001A94C
:10168000FFF722FE0094286940F4001028612869C1
:1016900000F400100090009806B0B0BD40F2480081
:1016A00040F27041C2F20000C2F2000100780A6804
:1016B000104408607047000080B543F60040C4F253
:1016C0000200016841F400710160016841F4806129
:1016D0000160016841F480710160032000F060F84E
:1016E0000F2000F005F800F02BF8002080BD00006E
:1016F000B0B540F24802C2F2000240F20C0112788A
:10170000C2F200014FF47A730968B3FBF2F20446A7
:10171000B1FBF2F1084600F0F7FA0F2C4FF001058B
:101720000CD858B94FF0FF3021460022002500F0B8
:1017300027F840F24C00C2F2000004602846B0BD19
:1017400082B0002043F640010190C4F202014A68D1
:1017500042F480424A604A6802F480420192019A4F
:101760000090086840F080500860086800F08050E1
:101770000090009802B0704780B502F025FB80BD54
:1017800070B514460D46064602F02EFB2946224649
:1017900001F07CFD0146304602F02EFB70BD0000DA
:1017A00080B502F03BFB80BD2DE9F041002800F040
:1017B0008B8043F60808C4F202080446D8F8F80300
:1017C0000D4600F00700884207D288F8F853D8F891
:1017D000F80300F00700A84276D12068810717D5EA
:1017E000410705D5D8F8001041F4E051C8F80010C1
:1017F000010705D5D8F8001041F46041C8F8001081
:10180000D8F80010A26821F0F0011143C8F80010C8
:10181000C0073FD1D8F8F80300F00700A84207D965
:1018200088F8F853D8F8F80300F00700A8424BD125
:101830002068410707D5D8F80010E26821F4E0518C
:101840001143C8F80010000708D5D8F80000216936
:1018500020F4604040EAC100C8F8000000F07EF8C3
:10186000D8F8001047F28272C1F30311C0F60002EB
:10187000515C40F20C0220FA01F140F24C00C2F23D
:1018800000000068C2F200021160FFF731FF002083
:10189000BDE8F0816068811E022907D258F8081C53
:1018A00089015CBF0120BDE8F08110E0012807D16B
:1018B00058F8081C89035CBF0120BDE8F08106E0F0
:1018C00058F8081C890702D40120BDE8F081D8F837
:1018D000001021F003010843C8F80000FFF7D6FD0F
:1018E000064641F2883700BFD8F80000616800F072
:1018F0000C00B0EB810F8DD0FFF7C8FD801BB84204
:10190000F2D90320BDE8F08140F20C00C2F20000E1
:101910000068704780B5FFF7F7FF43F60801C4F28F
:101920000201096847F29272C1F38221C0F60002F7
:10193000515CC84080BD000080B5FFF7E5FF43F66D
:101940000801C4F20201096847F29272C1F3423100
:10195000C0F60002515CC84080BD000010B543F6DF
:101960000404C4F20204606800F00C0008280AD0E5
:10197000042819BF42F20040C0F2F40047F64000CC
:10198000C0F27D1010BD206821682368490247F627
:101990004001C0F27D1100F03F02C3F388105CBF2C
:1019A00042F20041C0F2F401A1FB00010023FEF766
:1019B00071FC21680222C1F3014102EB4101B0FB3D
:1019C000F1F010BD2DE9F04182B0002800F09F80B9
:1019D0000446007843F60006C007C4F2020641D070
:1019E000B06800F00C00042805D13068800339D5B8
:1019F0006068B8BB8BE0B06800F00C00082802D12A
:101A000070684002F1D46568B5F5803F06D0306853
:101A1000B5F5A02F06D140F480203060306840F446
:101A2000803005E020F480303060306820F4802081
:101A30003060FFF72BFD002D054610D03068800385
:101A400010D4FFF723FD401B6428F7D922E100BF23
:101A5000FFF71CFD401B64284FF0030054D830688A
:101A60008003F5D4207880071AD5B06810F00C0FE9
:101A700009D0B06800F00C00082840F08C80706835
:101A8000400200F188803068800702D5E0680128B4
:101A90003DD13068216920F0F80040EAC100306093
:101AA0002078000737D4207840074AD4A56955B379
:101AB000B06800F00C00082840F0A080012D26D06E
:101AC0007068E16900F480028A4220D1216A00F046
:101AD0003F028A421BD147F6C071626A0140B1EBF6
:101AE000821F14D1A16A4FF6FF73C903994300F412
:101AF0004032A1F580318A4209D1E16A00F070607C
:101B0000B0EB016F03D1002002B0BDE8F0810120ED
:101B100002B0BDE8F0816069002840F20000C4F224
:101B200047205AD00121C0F8801EFFF7AFFC0546C0
:101B3000706F8007B7D4FFF7A9FC401B0228F7D9C4
:101B4000A8E0306C4FF00008C0000CD4CDF8048041
:101B5000306C4FF0010840F080503064306C00F081
:101B600080500190019847F20007C4F200073868DE
:101B7000C00525D4386840F480703860FFF786FCD3
:101B8000054600BF3868C0051AD4FFF77FFC401B2C
:101B90000228F7D97EE0E068002851D00020C4F286
:101BA000472001210160FFF771FC0546306880077E
:101BB0003FF56FAFFFF76AFC401B0228F6D969E0DA
:101BC000A568012D05D0306F052D4DD140F00400E2
:101BD0003067306F40F001004CE00021C0F8801EFB
:101BE000FFF754FC054600BF706F80077FF55BAFC1
:101BF000FFF74CFC401B0228F6D94BE00027C4F24B
:101C0000472700203866FFF741FC022D05460BD11F
:101C10003068800156D5FFF739FC401B02284FF091
:101C20000300F5D970E700BF306880017FF56BAF26
:101C3000FFF72CFC401B02284FF00300F4D963E7A8
:101C40000020C4F2472000210160FFF71FFC054679
:101C5000306880077FF524AFFFF718FC401B02288F
:101C60004FF00300F4D94FE720F001003067306FE8
:101C700020F004003067FFF709FC002D054641F213
:101C8000883713D0306F800713D4FFF7FFFB401B5A
:101C9000B842F7D9032002B0BDE8F081FFF7F6FBA8
:101CA000401BB8424FF003003FF62EAF306F800765
:101CB000F4D4B8F1000F3FF4F9AE306C20F080504E
:101CC0003064F3E604F11C052FCD084340EA82108E
:101CD000D9034FF6FF729143A1F5803140EA0560C8
:101CE0000843706001203866FFF7D0FB044600BF50
:101CF000306880013FF507AFFFF7C8FB001B0228E3
:101D00004FF00300F4D9FFE680B501F079FB80BD08
:101D1000B0B590F83C20012A04BF0220B0BD01F10B
:101D200008053CCDD1E900CE23F47C5322F4705257
:101D30001A432EF4F0431A432CF4E0431A4324F4DC
:101D4000C0431A432A43C96922F4804203681143FD
:101D50005964002180F83C100846B0BD10B590F8D9
:101D60003C20012A4FF0020240D0012380F83C3091
:101D700080F83D200268D2F804E0D2F808C00C6870
:101D80002EF07003234340F6FF34C4F20004A24255
:101D900053600FDCB2F1804F1DD040F20043C4F21B
:101DA00000039A4217D040F60003C4F200039A429F
:101DB00011D015E040F60043C4F200039A420AD065
:101DC00044F20003C4F201039A4204D00023C4F297
:101DD00001039A4204D149682CF0800319439160B1
:101DE0000121002280F83D1080F83C20104610BDF3
:101DF000002804BF0120704710B5044690F83D004C
:101E000028B9002084F83C00204600F01FF802208A
:101E100084F83D002068211D01F068FB012084F852
:101E2000460084F83E0084F83F0084F8400084F8BF
:101E3000410084F8420084F8430084F8440084F8A8
:101E4000450084F83D00002010BD000083B000680C
:101E500040F20041C4F2000188421BD044F200016C
:101E6000C4F20101884229D00021C4F20101884254
:101E700033D10020029043F64400C4F2020001680E
:101E800041F001010160006800F001000290029839
:101E900003B070470020019043F64400C4F20200F2
:101EA00050F8041C41F0020140F8041C50F8040CE6
:101EB00000F002000190019803B0704700200090EC
:101EC00043F64400C4F20200016841F4803101602D
:101ED000006800F480300090009803B07047000064
:101EE00090F83D1001291CBF01207047022180F8A5
:101EF0003D10006840F6FF31C4F2000188420FDC5B
:101F0000B0F1804F1DD040F20041C4F20001884280
:101F100017D040F60001C4F20001884211D017E04A
:101F200040F60041C4F2000188420AD044F20001A8
:101F3000C4F20101884204D00021C4F201018842A8
:101F400006D1816801F00701062904BF002070470F
:101F5000016841F0010101600020704710B504469E
:101F600090F83C0001284FF0020008BF10BD01228C
:101F700084F83C2084F83D0020684FF6777382682F
:101F80009A4382600A684F2A0FDC1F2A22DD202A2A
:101F900023D0302A21D0402A4DD14B68CA68194637
:101FA00001F0FCFB206840213BE06F2A17DDB2F511
:101FB000005F20D0B2F5805F2AD0702A3BD1D1E9F2
:101FC000012CCB68614601F019FB2068816841F063
:101FD00077011AE00AB1102A2DD1114621E0502ACA
:101FE00018D0602A27D14B68CA68194601F0E8FB6F
:101FF0002068602115E0D1E9012CCB68614601F031
:10200000FDFA2068816841F48041816000200BE086
:10201000002009E04B68CA68194601F0BFFB206840
:10202000502101F0F7FA0020012184F83D10002131
:1020300084F83C1010BD0120F6E70000002804BF22
:10204000012070472DE9F047044690F83D000D4609
:1020500028B9002084F83C00204600F049F802200E
:1020600084F83D00206844F2070281689143816052
:10207000211D01F03BFA20684FF6FF7881688269E4
:10208000D0F820C0D5E9003ED5E9026A43EA01094B
:10209000AB6922EA080246EA03234FF6FC46B34343
:1020A000D5E9076742EA0A0229691A4342EA062289
:1020B00042EA01112CF0AA026B6942EA0E0241EADF
:1020C000073142EA0312C0F80890816102620120E0
:1020D00084F8460084F83E0084F83F0084F842000B
:1020E00084F8430084F83D000020BDE8F08700003C
:1020F00080B586B00021CDE90411CDE90211006858
:1021000040F60002C4F200029042019122D0B0F1E8
:10211000804F48D1002043F630010090C4F2020104
:102120000A6942F001020A610A6902F001020092A2
:10213000009A0090086840F00100086008680121DA
:1021400000F0010000900098032001900020C4F2EC
:1021500002001FE043F630000091C4F20200026961
:1021600042F004020261026902F004020092009A45
:102170000091016841F0020101600068022100F055
:10218000020000900098C02001900020C4F20200DC
:1021900000F58060022202920022CDE9032205911F
:1021A00001A9FFF791F806B080BD000010B5044604
:1021B00090F83E0094F83F2094F8423094F843C0E1
:1021C000042907D089B901284FF0010008BF012B6D
:1021D00023D010BD012A4FF0010008BFBCF1010F50
:1021E000F7D1022084F83F0012E001284FF00100EF
:1021F00008BF012AEDD1012BEBD1BCF1010F18BFB3
:1022000010BD022084F83E0084F83F0084F84200AC
:1022100084F84300042907D10EE0022084F83E0030
:1022200084F84200042907D009B9002105E020689C
:102230000021012201F0D0F904212068012201F0DF
:10224000CBF92068016841F001010160002010BD58
:1022500080B586B00021CDE90411CDE902110068F6
:1022600040F20042C4F200029042019118D00021D5
:10227000C4F20101884230D10020009043F63000C2
:10228000C4F20200016841F001010160006800F041
:102290000100009000984FF4A0600190012010E030
:1022A00043F630000091C4F20200016841F00101E0
:1022B0000160006800F0010000900098402001904B
:1022C0000220022102910021CDE903110590002096
:1022D000C4F2020001A9FEF7F7FF06B080BD0000BE
:1022E000B0B5044690F83C00012804BF0220B0BD00
:1022F0000D464FEAB2010120032984F83C0037D88B
:10230000DFE801F0020A12222068294601F08AF96A
:10231000206850F8181F0EE02068294601F0B2F935
:10232000206850F8181F16E02068294601F0DEF9F1
:10233000206850F81C1F41F008010160016821F07D
:102340000401016029690FE02068294601F002FAC2
:10235000206850F81C1F41F400610160016821F4FD
:10236000806101602969090202681143016000204F
:10237000002184F83C10B0BD002804BF0120704744
:1023800010B5044690F83D0028B9002084F83C00C0
:10239000204600F01FF8022084F83D002068211D2F
:1023A00001F0A4F8012084F8460084F83E0084F887
:1023B0003F0084F8400084F8410084F8420084F82B
:1023C000430084F8440084F8450084F83D00002070
:1023D00010BD000070470000B0B5044641B10829A7
:1023E00009D0042914BF04F1410004F13F0004E0C6
:1023F00004F13E0001E004F14000007801281CBF18
:102400000120B0BD022041B1082909D0042914BF20
:1024100084F8410084F83F0004E084F83E0001E0C5
:1024200084F84000206844250122C4F2010501F02F
:10243000D3F82068A5F14401884203D1296841F40A
:102440000041296040F6FF31C4F2000188420FDCF0
:10245000B0F1804F1DD040F20041C4F2000188422B
:1024600017D040F60001C4F20001884211D017E0F5
:1024700040F60041C4F2000188420AD044F2000153
:10248000C4F20101884204D00021C4F20101884253
:1024900006D1816801F00701062904BF0020B0BD04
:1024A000016841F0010101600020B0BD4FEAB101B7
:1024B000032984BF00207047DFE801F0020E060AFE
:1024C000006834300068704700683C30006870472E
:1024D0000068403000687047006838300068704716
:1024E000704700007047000070B582B00368044672
:1024F0001868D9685D6900F02F02202A01F02002D7
:1025000005D122B1204601F0C7F902B070BD5FEAE3
:10251000007C08D005F0010E11F4907F8EF00105CB
:102520004FD1002D4DD0226B0840C1063FD5012A66
:102530003DD10020019018680190586801900198E1
:102540005869400600F19C80A08DE18DE28D002A43
:102550001CBF401A5FEA004102D102B070BD00BF4B
:10256000216851E8031F226821F4907142E80313A7
:10257000002BF5D1216851E8051F226821F00101E7
:1025800042E80513002BF5D1202184F842100021E8
:10259000216300BF216851E8031F226821F0100168
:1025A00042E80313002BF5D102216163AEE001067E
:1025B00000F1B2804006D0D5204601F061F902B0AA
:1025C00070BDC30718BF11F4807303D0636C43F070
:1025D0000103636400F00406012383EA96062E4398
:1025E00003D1666C46F00206666400F0020683EAD8
:1025F00056032B4303D1636C43F00403636452EA34
:102600000E0218BF0122BCF1000F04D51AB1626C92
:1026100042F008026264626C002A9ED00840800684
:1026200002D5204601F038F920684069616C00F05D
:10263000400001F00801401878D0204601F0F8F879
:102640002068406940066CD5206850E8050F216875
:1026500020F0400041E80502002AF5D1E06B002897
:102660005FD043F62101C0F600010165FEF790FD41
:1026700000283FF472AFE06B016D884702B070BD77
:10268000E06B016849688AB2002A3FF466AFA38D07
:102690009A42BFF462AFE185C069B0F5807F30D067
:1026A000206850E8030F216820F4807041E803029D
:1026B000002AF5D1206850E8050F216820F00100BC
:1026C00041E80502002AF5D1206850E8050F21688D
:1026D00020F0400041E80502002AF5D1202084F8CE
:1026E00042000020206300BF206850E8030F2168EB
:1026F00020F0100041E80302002AF5D1E06BFEF75C
:1027000007FD02206063A08DE18D401A81B2204652
:10271000FFF7E6FE02B070BD204601F0A9F902B055
:1027200070BD2046FFF7DEFE02B070BD2046FFF709
:10273000D9FE0020606402B070BD0000002804BF14
:102740000120704710B5044690F8410028B90020D8
:1027500084F84000204600F021F8242084F841004D
:102760002068C16821F40051C160204601F0F8F8EA
:102770002068016921F490410161416921F02A0139
:102780004161C16841F40051C160002020216064B2
:1027900084F8411084F84210606310BD80B586B0A3
:1027A00000220592CDE9032244F200410068C4F200
:1027B000000188420292019201D006B080BD43F62A
:1027C00030000092C4F20200036943F40033036155
:1027D000036903F400330093009B0092036843F005
:1027E00001030360006800F00100009000980C20D5
:1027F00001900220CDE902020320049007200590F9
:1028000001F5DE3001A9FEF75FFD26200021002240
:10281000FEF7B6FF2620FEF7AFFF06B080BD000032
:1028200010B590F84230202B1CBF022010BD0029AB
:102830004FF0010418BF002A01D1204610BD00242A
:10284000046301F0FBF8204610BD000080B500686D
:1028500044F20041C4F20001884218BF80BD40F23A
:102860006C40C2F200000121017040F2332140F2BD
:10287000322CC2F20001C2F2000C08789CF8003041
:1028800040F22222C2F20002D054581CC2B20F2AD7
:1028900088BF00208CF8000040F21C40C2F200000B
:1028A0000122FFF7BDFF80BD2DE9F041044690F8FD
:1028B000410020281CBF0220BDE8F0810E460029FF
:1028C0004FF0010042D01746002A08BFBDE8F08152
:1028D0004FF0000821201D46C4F8448084F84100D0
:1028E000FEF7D4FDA784E784A1680746B1F5805FB1
:1028F0000DD12069002814BF3046B046064606E0D8
:1029000016F8010B21684860E08C0138E084E08C07
:1029100080B1204680213A462B4601F0D3F8B8B961
:10292000002EEDD138F8020B21686FF35F2048606C
:102930000026E9E7204640213A462B4601F0C2F83E
:10294000202184F84110002818BF0320BDE8F08141
:10295000202084F841000320BDE8F081704700008A
:10296000FEE7000010B540F20044C4F20204204625
:1029700004210022FEF784FD204602210122FEF7F9
:102980007FFD204604210122FEF77AFD10BD0000E4
:10299000F0B581B040F20045C4F202050446284675
:1029A00004210122FEF76CFD00260827284602219B
:1029B0000122FEF765FD28460421FEF753FD00289D
:1029C00018BF012040EA4606284602210022FEF7F1
:1029D00057FD013FEAD1204600F05AF8F0B201B0AD
:1029E000F0BD000070B540F2004504460826C4F270
:1029F000020500BFE0B2C20928460421FEF740FDEF
:102A0000284602210122FEF73BFD28460221002232
:102A1000FEF736FD013E4FEA4404EBD100F01CF80E
:102A200070BD000010B540F20044C4F2020420461C
:102A300004210122FEF724FD204602210122FEF797
:102A40001FFD204604210022FEF71AFD2046022128
:102A50000022FEF715FD10BDB0B540F20044C4F2EF
:102A60000204204604210122FEF70AFD204602212D
:102A70000122FEF705FD20460421FEF7F3FC054682
:102A8000204602210022FEF7FBFC2846B0BD0000D4
:102A900010B5013840F20044B0FA80F0C4F20204EC
:102AA000420920460421FEF7EBFC204602210122C8
:102AB000FEF7E6FC204602210022FEF7E1FC10BDF5
:102AC00080B503684EF29C6CCFF6FF7C6345D8BF9F
:102AD000634641F6641E7345A8BF734603600868E9
:102AE0009FED0E1A6045C8BF844692ED000AF4457A
:102AF000B4EE410AA8BFF446F1EE10FAC1F800C0E6
:102B000008DC9FED071AB4EE410AF1EE10FAA8BFF7
:102B1000B0EE401A82ED001A80BD00BF0080ED4487
:102B20000000E1442DE9F04381B040F20049012961
:102B30004FF00004C4F2020990460E460546B8BFA5
:102B4000012400294FF0000248464FF480414FF025
:102B50000007C8BF0122FEF793FC48464FF400412E
:102B60002246FEF78DFC012D4FF00004B8BF012472
:102B7000002DC8BF012748464FF400513A46FEF7E2
:102B80007FFC48464FF480512246FEF779FC40F224
:102B9000B420C2F20000002E48BF76420068002D2B
:102BA000466348BF6D42056440F24430C2F2000003
:102BB0000068C0F8348001B0BDE8F08380B56B20B8
:102BC000802100F0B1F86420FEF7F4FA6B200021B8
:102BD00000F0AAF8032000F06FF8002000F064F87D
:102BE000322000F08BF83820002100F09DF86A2098
:102BF000002100F099F82320002100F095F83720FB
:102C0000802100F091F8752000F00EF86B20012172
:102C100000F08AF86C20002100F086F8C82000F04F
:102C20006DF8002080BD000010B50446FFF7FAFEE5
:102C3000D020FFF7D7FE2046FFF7D4FEFFF7F2FEC5
:102C4000D120FFF7CFFE0120FFF7A2FE0446FFF7D9
:102C500089FE204610BD0000F0B581B01C46154627
:102C60000E460746FFF7DEFE7F00F8B2FFF7BAFE1A
:102C70003046FFF7B7FEFFF7D5FE781CC0B2FFF76E
:102C8000B1FE05E0C0B2FFF783FE04F8010B013D81
:102C9000E9B201292846F5D009B10020F2E7FFF793
:102CA00061FE002001B0F0BD80B5C000C1B21C20A3
:102CB00000F03AF880BD000080B5C000C1B21B2012
:102CC00000F032F880BD0000BB2801D901210FE0DF
:102CD000612801D902210BE0292801D9032107E04D
:102CE000132801D9042103E00621092888BF052102
:102CF00080B51A2000F018F880BD000010B5044619
:102D00004FF47A70B4F57A7F28BF0446042C98BF3C
:102D10000424B0FBF4F00138C1B2192000F004F82B
:102D20006008FFF7D1FF10BDB0B50C460546FFF7B0
:102D300079FED020FFF756FE2846FFF753FE2046C7
:102D4000FFF750FEFFF70EFE0020B0BDF0B581B0DA
:102D50001D4614460E460746FFF764FE7800C0B2D3
:102D6000FFF740FE3046FFF73DFE3CB1013D00BF9E
:102D700015F8010FFFF736FE013CF9D1FFF7F2FD20
:102D8000002001B0F0BD00002DE9F04F87B0002415
:102D900043F630000694CDE90444CDE902440194A1
:102DA000C4F20200016840F2004841F004010160F1
:102DB0000168C4F2020801F0040101910199019433
:102DC000016808F5806741F0800101600168002218
:102DD00001F0800101910199019401684FF40055BF
:102DE00041F001010160016801F0010101910199C7
:102DF0000194016841F00201016000684FF4005144
:102E000000F00200019001983846FEF739FBA8F562
:102E100080694846102100224FF0100AFEF730FB6F
:102E200040464FF206010022FEF72AFB02AE029551
:102E300001254FF0020B384631460395CDE904B425
:102E4000FEF742FA48463146CDE902A5CDE904B481
:102E5000FEF73AFA312002904FF40417404631460B
:102E6000CDE90375FEF730FA062002901120CDE976
:102E70000305404631460594FEF726FA4FF47040AC
:102E8000CDE9020540463146CDE90444FEF71CFA7F
:102E90004FF48050CDE90207484631460495FEF7CD
:102EA00013FA062000210022FEF76AFC0620FEF736
:102EB00063FC0A2000210022FEF762FC0A20FEF7D4
:102EC0005BFC282000210022FEF75AFC2820FEF798
:102ED00053FC07B0BDE8F08F80B540F2602045F2AA
:102EE0000041C2F20000C4F2000148F2A0620023D7
:102EF0004FF4804CC0F2010280E80E00C0E9033CB0
:102F0000C0E90533C0E90733FEF7C6FA002818BF49
:102F1000FEF7FAF880BD000010B596B040F2B4207C
:102F200000220021C2F20000C4F2010242F2CF03EB
:102F30001591CDE91311CDE91111CDE90F11CDE9AD
:102F40000D11CDE90B11CDE90911CDE90711CDE93D
:102F50000511CDE90311CDE90111C0E90021C0E956
:102F60000213C0E904118161FEF742FF002818BF77
:102F7000FEF7CAF84FF48050129040F2B420C2F22B
:102F8000000012A9FEF7EAFF002818BFFEF7BCF800
:102F900040F2B420C2F20000FFF7EEF9002818BF9B
:102FA000FEF7B2F840F2B4200024C2F2000010A9EB
:102FB000CDE91044FEF7D2FE002818BFFEF7A4F8B2
:102FC0006020CDE9090440F2B420C2F2000009A952
:102FD0000022CDE90B44CDE90D440F94FFF780F9B1
:102FE000002818BFFEF790F840F2B420C2F20000AB
:102FF00009A90822FFF774F9002818BFFEF784F822
:1030000000200590CDE90300CDE901004FF4005107
:10301000089040F2B4200691C2F2000001A9FEF728
:1030200077FE002818BFFEF76FF840F2B420C2F216
:103030000000FFF70DF916B010BD0000B0B58CB060
:1030400003AC20462421FDF770FB40F2FC20002554
:10305000C2F200004FF08041C0E9001501214FF09D
:10306000FF32CDE90315CDE90515CDE90755CDE9C9
:1030700009152146CDE90055C0E902520561856177
:103080000B95FEF7DBFF002818BFFEF73DF840F276
:10309000FC20C2F200006946CDE90055FEF75EFE55
:1030A000002818BFFEF730F80CB0B0BD10B58EB0D8
:1030B00040F2443040F200420021C2F20000C4F26B
:1030C000000240F2473340F2CF740D91CDE90B116D
:1030D000CDE90911CDE90711CDE90511CDE90311BC
:1030E000CDE90111C0E90023C0E902140161816149
:1030F000FEF77EFE002818BFFEF706F84FF480505A
:103100000A9040F24430C2F200000AA9FEF726FFFE
:10311000002818BFFDF7F8FF40F24430C2F200006B
:10312000FFF72AF9002818BFFDF7EEFF40F2443000
:103130000024C2F2000008A9CDE90844FEF70EFE03
:10314000002818BFFDF7E0FF6020CDE9010440F240
:103150004430C2F2000001A9002203940594FFF755
:10316000BFF8002818BFFDF7CFFF40F24430C2F28D
:103170000000FFF76DF80EB010BD0000B0B58CB0C8
:1031800003AC20462421FDF7D0FA40F28C3040F603
:1031900000010025C2F20000C4F20001C0E90015E0
:1031A00001214FF6FF72CDE90315CDE90515CDE9F3
:1031B0000755CDE909152146CDE90055C0E9025270
:1031C000056185610B95FEF739FF002818BFFDF7F3
:1031D0009BFF40F28C30C2F200006946CDE90055F9
:1031E000FEF7BCFD002818BFFDF78EFF0CB0B0BD88
:1031F00080B584B040F2D43044F200020021C2F223
:103200000000C4F201024FF6FF73CDE90211CDE9CF
:103210000011C0E90021C0E9021301618161FEF7DC
:10322000E7FD002818BFFDF76FFF4FF480500090B6
:1032300040F2D430C2F200006946FEF78FFE00284B
:1032400018BFFDF761FF04B080BD000080B540F2FB
:103250001C4044F20041C2F20000C4F2000100230D
:103260004FF00C0C4FF4E13280E80E00C0E903335C
:10327000C0E905C3C361FFF761FA002818BFFDF775
:1032800043FF80BDFEE70000FEE7000000F00700FE
:1032900080F00703042B28BF04234FF0FF3C0338C2
:1032A0000CFA03F338BF0020994381400CFA00F078
:1032B00022EA000008437047704700000000000049
:1032C00080B52DED028B40F24430C2F200000021A7
:1032D000B0EE408AFFF7EAF800EE100AB8EE400AB6
:1032E00010EE100A04F02CF99FED290B53EC102B73
:1032F00003F01EFC9FED280B53EC102B03F060FE37
:103300009FED270B53EC102B03F0C6FC03F0DEFB04
:1033100040F2B811C2F2000191ED002A91ED013A9C
:1033200091ED024A40F2182100EE100A40F21C20F2
:10333000C2F20001C2F2000091ED005A38EE000A1C
:1033400090ED001A30EE455A31EE001A24EE054A8F
:103350009FED155A22EE002A23EE013A82EE052A4D
:1033600083EE053A84EE054A80ED001A40F21420FF
:10337000C2F2000080ED000A0068086032EE030A25
:1033800034EE000ABDEC028B80BD00BF00BF00BF61
:103390000000000000789EC00000000000002240F5
:1033A00000000000000024400000C84210B540F2B8
:1033B000F414C2F2000494ED020AFFF781FF94EDC9
:1033C000011A84ED000A30EE010A84ED010A10BDF5
:1033D000014602284FF0000007D0042918BF7047AB
:1033E00040F28C31C2F2000103E040F2FC21C2F253
:1033F000000109684A6A4862104670477047000039
:10340000B0B501380024B4EB106F1CBF0120B0BD73
:103410004EF21005CEF2000568604FF0FF300F212C
:1034200000F0EAFC0720AC6028602046B0BD000038
:1034300080B5FEF733F980BD70B592B006AC20467A
:103440003021FDF772F9002543F640000595CDE9DE
:103450000355CDE901550095C4F20200016802262A
:1034600041F080510160006800F0805000900098A9
:1034700047F200000095C4F20000016866F38F3146
:103480000160006800F44040009000980120069020
:103490004FF4803007904FF480000D9019200E906B
:1034A000A8200C96CDE90F06042011902046FEF7C7
:1034B00089FA78B90F20CDE901064FF480500395C1
:1034C000CDE9040501A80221FEF76EF9002804BF2A
:1034D00012B070BDFDF718FE4EF68850CEF2000017
:1034E000016841F4700101607047000010B540F2BE
:1034F000FF7E0368C4F2000E40F2000C7045C4F277
:10350000010C0ADD40F60002C4F2000290420DD028
:1035100060450BD040F6004204E0B0F1804F05D08A
:1035200040F20042C4F20002904203D14A6823F004
:10353000700313434FF6FF72C4F20002904209DC9D
:10354000704512DCB0F1804F26D040F20042C4F248
:1035500000021FE044F2FF32C4F2010290420FDC8D
:10356000604519D044F2000212E040F60002C4F2B5
:103570000002904210D040F60042C4F2000209E07E
:1035800044F60002C4F20102904205D044F2004227
:10359000C4F20102904203D1CA6823F4407313437A
:1035A00023F080024B69D1F800E08C681A43604533
:1035B0000260C462C0F828E002D10969CCF830107A
:1035C000012141610169C90708BF10BD016921F0EE
:1035D0000101016110BD000080B501F01F014FF035
:1035E000010CD0F820E00CFA01F32EEA0303036289
:1035F000036A02FA01F11943016280BDD0F808C0E4
:1036000011432CF47F4C41EA032141EA0C01816013
:1036100070470000826822F07002114341F00701F8
:103620008160704770B5026A036A40F2000E23F0B1
:1036300001030362456883690C688E6823F0730395
:1036400022F00202C4F2010E43EA040C704542EA81
:10365000060208D070450ED04560C0F818C0496811
:103660004163026270BDCB6822F00C0223F00403B8
:103670001A437045F0D125F44073D1E90565334311
:103680001D43E9E770B5026A036A40F2000E23F0B9
:1036900010030362456883690C688E6823F4E6436F
:1036A00022F02002C4F2010E43EA042C704542EAE3
:1036B000061208D0704510D04560C0F818C049689F
:1036C0008163026270BDCB686FF0400422F0C002DB
:1036D00004EA03131A437045EED125F44063D1E99F
:1036E000056543EA860343EA8505E5E770B5026AA6
:1036F000036A40F2000E23F4807303624568C369D5
:103700000C688E6823F0730322F40072C4F2010E79
:1037100043EA040C704542EA062208D0704510D0F6
:103720004560C0F81CC04968C163026270BDCB68C7
:1037300040F2FF441B0222F44062A3431A43704547
:10374000EED125F44053D1E9056543EA061343EA77
:103750000515E5E7B0B5D0F820E0026A22F4805202
:1037600002624468C3690A6823F4E6438D6843EA49
:10377000022C00232EF40052C4F20103984242EAC4
:10378000053304D14A6924F4804545EA8214446033
:10379000C0F81CC0496801640362B0BDD0F820C005
:1037A000036A23F001030362836923F0F00343EA11
:1037B00002122CF00A031943826101627047000073
:1037C000D0F820C0036A23F010030362836923F456
:1037D000704343EA02322CF0A00343EA01118261F4
:1037E0000162704740F2AC1CC2F2000C9CF806105B
:1037F000A1B140F22021C2F200010A8840F2F41384
:10380000C2F2000301321B8B90B298420A8038BF8B
:1038100070470020088001208CF8030070470000EA
:1038200080B5806B0021C185C184FEF75BFE80BD41
:10383000016851E8031F026821F4907142E8031304
:10384000002BF5D1016851E8051F026821F0010144
:1038500042E80513002BF5D1016B01290AD100BF05
:10386000016851E8031F026821F0100142E80313C8
:10387000002BF5D1202180F8421000210163704710
:1038800080B50168CA6822F04002CA60202180F831
:103890004110FFF763F880BD80B582B090F8421008
:1038A00022291ED18268B2F5805F02D10169002908
:1038B0004AD0816AB2F5805F07D00AB9026922B1A5
:1038C0000268526802F07F0201E0026852680A70E2
:1038D0000121826A11448162C18D01390A04C185C6
:1038E00001D002B080BD0168CA6822F02002CA601F
:1038F000CA6822F48072CA604A6922F001024A61F1
:10390000202180F8421000214163026B012A23D15B
:10391000016300BF016851E8031F026821F0100134
:1039200042E80313002BF5D101680A68D20606D5D8
:10393000002201920A680192496801910199818DE2
:10394000FEF7CEFD02B080BD0168826A49686FF360
:103950005F2111800221BCE7FEF778FF02B080BD35
:1039600010B504460068D4E902C22369016921F454
:10397000405111430161626943EA0C01E36911435B
:10398000C268194349F20C639A431143C16041690B
:10399000A26921F4407141F20043114340F4806276
:1039A000C4F201039A42416102D1FDF7C5FF01E073
:1039B000FDF7B0FFE16963681922B1F5004FA0FB84
:1039C00002011CD15A00DB0FFCF764FC48F21F51C6
:1039D000C5F2EB11A0FB01235A096FF0630302FB50
:1039E0000300322303EBC000A0FB01014FF4F87089
:1039F00000EA111000EB0210C1F342111AE09A0024
:103A00009B0FFCF747FC48F21F51C5F2EB11A0FBDE
:103A100001235A096FF0630302FB0300322303EB17
:103A20000010A0FB0101F02000EA511000EB021091
:103A3000C1F3431122680843906010BD81620021E8
:103A40008285C2854164222180F84210016921B13A
:103A50000168CA6842F48072CA600168486940F02F
:103A600001004861C86840F020020020CA60704729
:103A700090F84110212923D18168B1F5805F01D1EF
:103A8000016931B1016A02684B1C03620978516017
:103A900007E0016A036831F8022B6FF35F225A6076
:103AA0000162C18C01390A04C18418BF70470068E3
:103AB000C16821F08001C160C16841F04001C1606E
:103AC000704700002DE9F04182B0044600680068AC
:103AD0000840884203D1002002B0BDE8F0811D46B5
:103AE0000E4690465F1C04E0206800683040B042FB
:103AF00028D0002FF8D0FDF7C9FC01464FF0030095
:103B00000DB3A1EB0801A9421DD82068C16849077F
:103B1000EAD5402EE8D0802EE6D001680907E3D52B
:103B200000250195016801914068019001982046A7
:103B3000FFF77EFE0820606484F84050012002B048
:103B4000BDE8F081002002B0BDE8F08180B540F210
:103B50001C40C2F20000FEF7C7FC80BDFEE700007B
:103B600010B50446FCF7C2FD82B240F21C40C2F21E
:103B7000000021464FF0FF33FEF796FE10BD000017
:103B800080B540F2F410C2F20000B0F91C0000EE63
:103B9000100AB8EEC00A10EE100A03F0D1FC9FED37
:103BA0000C0B53EC102B03F00BFA9FED0B0B53ECAB
:103BB000102B03F071F802F089FF40F2B81100EE0B
:103BC000100AC2F20001C86100F03AF880BD00BFDF
:103BD00000000000004CED40000000000050C44018
:103BE00080B540F2F410C2F20000B0F91E0000EE01
:103BF000100AB8EEC00A10EE100A03F0A1FC9FED07
:103C00000C0B53EC102B03F0DBF99FED0B0B53EC7B
:103C1000102B03F041F802F059FF40F2B81100EE0A
:103C2000100AC2F20001486300F06CF880BD00BFCA
:103C300000000000004CED40000000000078CE4085
:103C400040F2B810C2F2000090ED063A9FED2A5AF9
:103C500033EE400ABEEE003AB4EE430AB0EE403A0C
:103C600090ED031A90ED042A90ED054AF1EE10FA5A
:103C7000C8BFB0EE453AB6EE005A40F23C21B4EE71
:103C8000450AC2F20001F1EE10FAB8BFB0EE430AE5
:103C900091ED003A9FED195A33EE003AB4EE453AF1
:103CA000F1EE10FAB8BFB0EE453A9FED155A40F26A
:103CB0003420C2F20000B4EE453A80ED000AF1EE85
:103CC00010FAB8BFB0EE435A81ED005A40F23821E5
:103CD000C2F2000191ED003A21EE001A22EE052A0F
:103CE00030EE430A31EE021A24EE000A006830EE8C
:103CF000010A0860704700BF0000000000802CC46B
:103D000000802C4440F2B810C2F2000090ED0C3A52
:103D10009FED2A5A33EE400ABEEE003AB4EE430A53
:103D2000B0EE403A90ED091A90ED0A2A90ED0B4A58
:103D3000F1EE10FAC8BFB0EE453AB6EE005A40F2C6
:103D40004821B4EE450AC2F20001F1EE10FAB8BF04
:103D5000B0EE430A91ED003A9FED195A33EE003A66
:103D6000B4EE453AF1EE10FAB8BFB0EE453A9FED29
:103D7000155A40F24020C2F20000B4EE453A80ED00
:103D8000000AF1EE10FAB8BFB0EE435A81ED005AC6
:103D900040F24421C2F2000191ED003A21EE001AF6
:103DA00022EE052A30EE430A31EE021A24EE000A12
:103DB000006830EE010A0860704700BF0000000094
:103DC00000802CC400802C44002848BF704700F0BD
:103DD0001F01012202FA01F14EF200124009CEF257
:103DE000000242F8201070474EF60C50CEF2000050
:103DF0000068C0F3022070474EF6145300F00F0223
:103E0000CEF2000309011A4400F16043B0F1FF3F14
:103E1000C8BF03F564421170704700004EF60C51A4
:103E2000CEF200010A684FF6FF031A4060F30A223F
:103E300042F0806040F0FD700860704770B584B05B
:103E400001AE054630460C4600F080FD9FED220A8B
:103E50009FED242A9FED213A9FED214A0021BFEEDC
:103E6000001A4FF0010C002008E000BF0CFA01F22C
:103E700010430131032906F104062AD055F82130F8
:103E800054F821209B1A48BF5B4205EE103AB8EE69
:103E9000C55A96ED006A25EE005AB5EE406AF1EE7D
:103EA00010FA0BD085EE065A35EE015AB0EEC55A1F
:103EB000B4EE425AF1EE10FADBDDD7E7B4EE435A26
:103EC000F1EE10FAD2DBB4EE445AF1EE10FAD0DD86
:103ED000CCE704B070BD00BF000080379A99993ECE
:103EE0003333733F295C0F3EB0B504464078E57824
:103EF000C0070BD040F24C20C2F2000002682AB189
:103F000005F00700411CC5F3C20090476078000728
:103F100009D540F25020C2F200000168002908BF14
:103F2000B0BDA8098847B0BD80B582B000280EBFDB
:103F30004FF0A33042F62000C3F63000019001AAF2
:103F400040F69E20042101F0D7FF01F045FC02B0AD
:103F500080BD00002DE9F04184B004464CF60220FB
:103F6000C0F6E3100DF10605CDF806006820042127
:103F70002A4601F0C1FFA3206FF05C026FF05C03E2
:103F80008DF8060014F0400618BF6FF03F0218BF0E
:103F90006FF037036FF05C076FF05C0118BF6FF0D4
:103FA0003D078DF807208DF808306FF05C026FF048
:103FB0005C038DF8097014F4C07718BF6FF03B02F2
:103FC0001CBF6FF033036FF039018DF80C104AF20B
:103FD000A3318DF80A20ADF80D108DF80F0040F6D2
:103FE000A7200A212A468DF80B3001F085FF6FF0DB
:103FF000270014F0030818BF20208DF8060040F6B3
:10400000B62001212A4601F077FFC4F3401000F0EA
:1040100097F82FB36FF04D016FF0740214F48070B5
:1040200008BF6FF04F0108BF6FF07F026FF04903C8
:104030006FF0640508BF6FF04B03002808BF6FF0F6
:104040006F058DF806108DF807200DF1060240F679
:10405000A22004218DF808308DF8095001F04CFFA2
:10406000E0070AD1D8208DF806000DF106024FF4C2
:104070000B60012101F040FF27E0F8208DF80600D9
:104080000DF106024FF40B60012101F035FF07200E
:10409000FA2100F063FB072000F02CFB012000F068
:1040A00049FB642000F016FC4FF4FA7000F028FC85
:1040B0004EF20930C0F2CA20C82100F0D9FA2820F7
:1040C00000F0ECFA0A2000F0FFFAA0076FF02600DB
:1040D00058BF6FF027008DF806000DF1060240F280
:1040E0003D70012101F008FFC4F3800000F04EF89C
:1040F000C4F30010FFF718FF40F2582144F0080005
:10410000C2F20001088001F067FB002E18BF0626EE
:10411000002F40F25E2018BF0636C2F2000014F0F5
:10412000140F067002D0017810310170B8F1000F41
:1041300002D0017804310170002004B0BDE8F081A4
:1041400080B584B060B15D208DF80C0049F6B400F4
:10415000C3F20D5002904AF6B820C8F6B3500BE0F7
:10416000C7208DF80C0048F6B000CCF2C350029086
:104170004AF6B820CAF6AA20019001AA4FF4976027
:10418000092101F0B9FE04B080BD000080B582B005
:1041900000280EBF4FF08B304CF2C020CCF2C46030
:1041A000019001AA40F69820042101F0A5FE01F03B
:1041B00013FB02B080BD000080B547F2AC71C0F6C1
:1041C000000140F6F6304FF48062C82301F0B4F9E4
:1041D00080BD00002DE9F04F89B01446DDE9129250
:1041E0000F460021A9F8001040F25E21C2F2000142
:1041F00009780DF1040A834608465146984601F0B5
:1042000065FA20B14FF0FF3009B0BDE8F08F40F201
:104210005820C2F20000B0F800C01CF0140F4ED0BD
:104220009DF805209DF804109DF8063012049DF8B5
:10423000075042EA016141EA03222A4422609DF8C4
:1042400009209DF80830120442EA03629DF80A3002
:104250009DF80B5042EA03232B4463609DF80D3018
:104260009DF80C501B0443EA05639DF80E509DF821
:104270000F6043EA05252E44A6609DF811609DF865
:10428000105011FB31F1360412FB321146EA05667B
:104290009DF8125013FB33119DF8130016FB3611D5
:1042A00046EA052501F171412844B1F1007FE06043
:1042B0000AD901F091FA0020A9F80000A2E7002134
:1042C0005FEA4C600AD430E0B9F80000102140F4F5
:1042D0008070A9F800005FEA4C6026D541F0010229
:1042E0001AF801001AF8022041F0030342EA002004
:1042F00041F002021AF802201AF80330388043EA2B
:10430000022041F0040241F005031AF802201AF8D5
:104310000330788043EA0220B880B9F8000041F009
:10432000060140F00800A9F800001CF4C07F18D076
:104330003AF801000AEB010200BA5388000CABF80E
:10434000000018BA9288000CABF8020010BA000CFA
:10435000ABF80400B9F80000063140F07000A9F88D
:1043600000005FEA8C7003D00AEB0100FFF7BCFD90
:10437000404600F039FE002009B0BDE8F08F000093
:10438000B0B584B004460DF1020000F087FF40F2A2
:104390005421C2F200010988BDF802004B0701F068
:1043A00003024FF00C0354F8222003EA51034FEAB2
:1043B000C03C48BF5242E358880648BF5B42C1F345
:1043C000811054F82000C90548BF40428CFB000111
:1043D0008CFB02E2800F8CFB035440EA810C900DB1
:1043E0008DF80400900B8DF8050090098DF80600FB
:1043F000A00D8DF80800A00B8DF80900A0098DF81C
:104400000A00880D8DF80C00880B4FEA9E73AD0FE3
:104410008DF80D00880943EA820345EA84058DF88A
:104420000E0001AA4FF425700C218DF807308DF88D
:104430000B508DF80FC001F05FFD04B0B0BD00005F
:1044400010B586B004464AF6BB70CDF6DF70059015
:104450004FF2AA10CDF6DF7004904FF2FE20CCF29E
:10446000AB40C82C039015D8C820B0FBF4F001AACB
:10447000013800BA000CADF8040040F21620022109
:1044800001F03AFD30B903AA40F6C1200C2101F039
:1044900033FD18B14FF0FF3006B010BD40F25C2084
:1044A000C2F200000480002006B010BD70B582B0DA
:1044B00040F25421C2F2000109880C2601F00302E7
:1044C00050F822204EF2093406EA51064B0748BF45
:1044D0005242C0F2CA248659C1F3811582FB0423DB
:1044E00050F82550880648BF7642C8054FEA9351D8
:1044F00048BF6D42900F8DF80410990B40EA83007D
:104500008DF8051099098DF806108DF8070001AA9D
:104510004FF47470042101F0EFFC68B986FB0401CC
:10452000800F40EA810000BA019001AA4FF4757033
:10453000042101F0E1FC18B14FF0FF3002B070BD72
:1045400085FB0401800F40EA810000BA019001AAB6
:104550004FF47670042101F0CFFC02B070BD000072
:10456000B0B582B047F27F71054600F00300C0F697
:1045700000010A5C47F27C748DF80420C5F3C10287
:104580008B5CC0F600048DF80530C5F38113C95C5F
:10459000205C8DF806108DF80000A05CE15C8DF8C1
:1045A00001008DF8021001AA40F22640032101F01B
:1045B000A3FCA0BB6A4640F22A40032101F09CFC08
:1045C00068BB76208DF8060045F23660ADF8040031
:1045D00044F22660ADF80000662069078DF80200FD
:1045E00021D4A8062DD4E8050BD59DF806009DF82A
:1045F000021040F001008DF8060041F001008DF836
:10460000020001AA4FF48860032101F075FC30B963
:104610006A4640F23140032101F06EFC00B34FF0D6
:10462000FF3002B0B0BD9DF804009DF8001040F0CE
:1046300001008DF8040041F001008DF80000A8068B
:10464000D1D59DF805009DF8011040F001008DF8CE
:10465000050041F001008DF80100E805C5D4D0E760
:1046600040F25420C2F200000580002002B0B0BD2C
:1046700080B582B044F6D352C1F2620250FB02F020
:10468000821102EBD070484300BA019001AA4FF4A6
:10469000AE70042101F030FC02B080BD80B582B064
:1046A0004CF6CD41CCF6CC41A0FB0101880840BAC4
:1046B000ADF806000DF106024FF4AD70022101F0D5
:1046C0001BFC02B080BD000080B582B04CF6CD412D
:1046D000CCF6CC41A0FB0101880840BAADF8060039
:1046E0000DF106024FF4AC70022101F005FC02B09E
:1046F00080BD000080B582B000F001025242410846
:1047000002F0300261F3820261F3C30240078DF8C8
:10471000072005D59DF8070040F003008DF807003D
:104720000DF107024FF4A470012101F0E5FB02B086
:1047300080BD000080B582B00428014628BF042156
:10474000002818BF481E8DF807000DF1070240F23F
:104750004F10012101F0D0FB02B080BDB0B52DEDAE
:10476000028B82B00446B1F5C86F4FF0FF301DD800
:1047700014F007021AD000EE101A0DF10300B8EE83
:10478000408A00F06FFD9DF80300811E4FEA710022
:10479000072809D84908C9B28B2222FA01F1C907B2
:1047A00008D14FF0FF3001E04FF0FF3002B0BDEC18
:1047B000028BB0BD9FED360A36A188EE000A01EBF0
:1047C000800191ED001A3BA101EB800090ED002AE1
:1047D00020EE011A20EE020ABDEEC00A10EE100A09
:1047E000BDEEC10A10EE101A0A0A8DF804208DF8E9
:1047F0000510010A01AA951C8DF80610E1078DF835
:10480000070005D1A0070DD4600720D40020CDE714
:1048100001AA4FF4EA70022101F06EFB60B14FF083
:10482000FF30C3E701AA4FF4EC70022101F064FBF2
:10483000B8B14FF0FF30B9E74FF4927002212A4629
:1048400001F05AFB0028DDD04FF0FF30AEE701AA9F
:104850004FF4EE70022101F04FFB68B14FF0FF30D2
:10486000A4E74FF4947002212A4601F045FB00288A
:10487000CAD04FF0FF3099E74FF4967002212A46D4
:1048800001F03AFB0028C1D04FF0FF308EE700BFA7
:1048900000004843000080460000004600008046BB
:1048A00000008045000080460000804600008046F1
:1048B00000000045000040460000C04500004046A2
:1048C00000004045000040460000404600004046D1
:1048D0000000C04480B582B04CF6CD41CCF6CC414E
:1048E000A0FB0101880840BAADF806000DF10602F0
:1048F0004FF4EF70022101F0FFFA02B080BD00001A
:1049000080B582B04CF6CD41CCF6CC41A0FB010184
:10491000880840BAADF806000DF106024FF4ED70BC
:10492000022101F0E9FA02B080BD000080B582B03A
:10493000019040F21C40C2F2000001A901224FF692
:10494000FF73FDF7B1FF019802B080BDB0B582B032
:1049500040F21C01C2F2000149680446097801AB2B
:1049600008460D210422FEF777F908B102B0B0BD68
:104970009DF804009DF807304FF01C0E9DF80510BF
:104980009DF806C00EEAD000C3F3011210448DF862
:1049900001000EEAD100C3F3810108448DF8020042
:1049A0000EEADC0003F0030141F27B4C9FED160A96
:1049B0009FED161A08444FF0000E0DF10101C3F6E9
:1049C000AE6C00238DF8030005E000BFC2F800E0E4
:1049D0000133032BCAD0C85C04EB83020028F5D056
:1049E000C85CC2F800C001380506C854F0D0C85CE5
:1049F000B0EE402A0138050622EE012AFAD182EDF6
:104A0000002A01F803E0E3E77B14AE3E1D5A843F21
:104A10002DE9F04383B040F21C0705460120C2F2A5
:104A200000070C46ADF80000D7E9001016460078E4
:104A3000897C6B460222FEF789F910B14FF0FF37EF
:104A40008CE1C820FCF7B6FB00208DF80000D7E908
:104A500000106B460078C97B0122FEF777F910B190
:104A60004FF0FF377AE1D7E900106B4600784979BB
:104A70000122FEF76BF910B14FF0FF376EE1D7E975
:104A800000106B460078897C0122FEF75FF910B1B7
:104A90004FF0FF3762E1D7E900106B460078C97D1F
:104AA0000122FEF753F910B14FF0FF3756E1D7E975
:104AB00000106B46007809790122FEF747F910B122
:104AC0004FF0FF374AE10C208DF80000D7E90010C5
:104AD0006B46007809790122FEF738F910B14FF0E2
:104AE000FF373BE10F20FCF765FBB86A3968407A75
:104AF0007A688DF80000107889786B460122FEF7FD
:104B000025F910B14FF0FF3728E1B86A3968007A0B
:104B10007A688DF80000107849786B460122FEF71C
:104B200015F910B14FF0FF3718E1B86AD7E9001254
:104B3000807A002E18BF40F0E0008DF80000107859
:104B400089796B460122FEF701F910B14FF0FF376A
:104B500004E126B1B86AC07A60F01F0000E01820B6
:104B60008DF80000D7E900106B460078C979012262
:104B7000FEF7ECF810B14FF0FF37EFE016B1C820A8
:104B8000FCF718FB40208DF80000D7E900106B46B9
:104B9000007809790122FEF7D9F810B14FF0FF37FC
:104BA000DCE078208DF80000D7E900106B46007833
:104BB00049790122FEF7CAF810B14FF0FF37CDE076
:104BC0003220FCF7F7FA00208DF80000D7E900103A
:104BD0006B46007849790122FEF7B8F810B14FF022
:104BE000FF37BBE0D7E900106B460078897A0222D4
:104BF000FEF732F810B14FF0FF37AFE0BDF800001C
:104C00004AF6AB21000400BACAF6AA21A0FB0101B2
:104C10000020C5E90000A860C4E90000A060C1F35D
:104C2000C709B9F1000F3ED00026E846D7E90010C9
:104C30000C220078C97A4346FEF70EF8002840F0AF
:104C40008B80BDF80000BDF8021090FA80FCBDF822
:104C50000420D4E9003009BA92FA82FEA26803EB7C
:104C60002C4300EB2140C4E9003002EB2E41BDF89B
:104C70000600A160BDF8081090FA80FCBDF80A207B
:104C8000D5E9003009BA92FA82FEAA6803EB2C43F8
:104C900000EB21400136C5E90030F0B202EB2E41B5
:104CA0008145A960C2D895E841018322C117090452
:104CB00041EA1041000400230027FBF763FB4A464A
:104CC0000023FBF75FFB2860F017000440EA164161
:104CD000300483220023FBF755FB4A460023FBF7F1
:104CE00051FB68604FEAE870000440EA18414FEA5F
:104CF000084083220023FBF745FB4A460023FBF7CD
:104D000041FBA860D4E90006A568C117490141EA42
:104D1000D06140014A460023FBF734FB2060F017C6
:104D2000400140EAD66170014A460023FBF72AFBA6
:104D30006060E817400140EAD56168014A460023F7
:104D4000FBF720FB4FF480310028C4BF0021CFF6D1
:104D5000FF710844A06001E04FF0FF37384603B010
:104D6000BDE8F08370B582B040F21C02C2F20002CE
:104D700052680C4611780DF10506054608460D21CE
:104D800003223346FDF768FF10B1072002B070BD63
:104D90009DF805009DF806109DF8072000F01F0003
:104DA0008DF8050001F01F008DF8060002F01F00CD
:104DB0009FED2C0A9FED2E2A9FED2C5A9FED2A6A1B
:104DC0008DF807004FF0000CB2EE041A4FF0010E00
:104DD000B3EE093ABFEE004A0023002006E000BF10
:104DE0000EFA03F108430133032B38D055F8231092
:104DF00054F82320891A48BF494207EE101AB8EE2A
:104E0000C77AF15C27EE007AF1B1F15CF0EE430A6B
:104E10000139F15409060AD0F15CF0EE430A00BFF3
:104E200001390A0660EE860AFAD106F803C087EE59
:104E3000207A37EE047AB0EEC77AB4EE457AF1EE16
:104E400010FAD0DDCCE700BFB4EE417AF1EE10FAF3
:104E5000C6DBB4EE427AF1EE10FAC4DDC0E702B070
:104E600070BD00BF0000803754E3853F295C0F3ED2
:104E70000000D242B0B5044600F00EF80546E01C32
:104E800000F00AF845EAC005A01D00F005F845EA63
:104E9000801080B2B0BD000090F900100029C4BF9E
:104EA0000020704744BF0420704790F9011000298A
:104EB000C4BF0120704744BF0520704790F902002D
:104EC0000028C4BF022070474FF0060008BF07202B
:104ED00070470000FCF7F0FBFEF7AEFAFDF754FF59
:104EE000FEF7E4F8FEF718F8FEF7B0F9FEF7A6F8BB
:104EF000FEF744F9FDF7F0FFFEF77AF9FDF75EFEE5
:104F000000F068F9014633A0FBF776FA40F21C4046
:104F100040F22221C2F20000C2F200010122FDF79C
:104F20007FFC40F2B426C2F200063046FCF7D8FF00
:104F300040F2FC24C2F200042046FCF7D1FF40F20C
:104F40004437C2F200073846FCF7CAFF40F28C35FE
:104F5000C2F200052846FCF7C3FF40F2D430C2F28B
:104F60000000FCF7BDFF304600214FF00008FDF7C0
:104F700033FA30460821FDF72FFA38460021FDF7B5
:104F80002BFA20463C21FDF711F928463C21FDF77C
:104F90000DF940F2F414C2F20004A17E40F6B830DC
:104FA000E0602061481EC1B20229C4F8048005D81F
:104FB00040B20AA151F82000FEF7D2FD94ED010A9B
:104FC000E1682069BDEEC00A10EE102AFDF7AAFDC7
:104FD000F4E700BF0D0A25640D0A0000C98300082C
:104FE000D3830008C983000870470000F0B581B082
:104FF00040F21C05C2F2000595F8241019B10024F6
:10500000204601B0F0BDA97AC1B100F0FE07287DAD
:105010003940CC1B2E7C297418BF4FF0FF34384325
:1050200018BF012000F0E2FF002FE9D000F0D4FB10
:1050300000281CBF2E744FF0FF34E1E74FF0FF341F
:10504000DEE70000000000002DE9F0412DED0E8BA1
:105050008CB004460DF11E0090460D460DF11D0763
:1050600000900DF1260008A903AA0BAB0197FFF7EA
:10507000B1F808B10120A0E0BDF81E00C00501D4C0
:1050800002209AE09DED030A9DED041A9FED504A1F
:105090009DED052A9DED063AB8EEC00A20EE049A71
:1050A000B8EEC10A20EE04AAB8EEC20A20EE04BA95
:1050B000B8EEC30A20EE04CAB8EE000A2AEE00DAFF
:1050C00039EE098A2DEE0C0A28EE0B1A31EE000A91
:1050D00010EE100A02F034FA41EC100B00F0CCFF95
:1050E00051EC100B9FED380B56EC107B3A463346D3
:1050F00001F066FF01F0EAFC3BEE0BEA2EEE0C0A33
:1051000028EE0A1A31EE000A206010EE100A02F0B2
:1051100017FA2AEE0D0A2BEE0E1A30EE410AB7EE00
:10512000001A30EE010A41EC180B10EE100A02F0E2
:1051300007FA41EC110BB0EE480AF0EE680A01F0F4
:10514000B7FA51EC100B3A46334601F039FF01F043
:10515000BDFC2AEE0B0A29EE0C1A30EE010A30EEE5
:10516000000A286010EE100A02F0EAF929EE090A96
:105170002AEE0A1A30EE010A2BEE0B1A30EE410A23
:105180002CEE0C1A30EE410A41EC180B10EE100A0E
:1051900002F0D6F941EC110BB0EE480AF0EE680AC5
:1051A00001F086FA51EC100B3A46334601F008FF45
:1051B00001F08CFCC8F8000000200CB0BDEC0E8B98
:1051C000BDE8F08100BF00BF6666666666A64C401B
:1051D0000000803080B500F0EDF800281CBF0A20E8
:1051E00080BD782000F02AFE00061CBF012080BD93
:1051F0007820FFF7FBFE00061CBF022080BDC82000
:1052000000F0D6FD00061CBF032080BDFEF7D4FFD2
:1052100000061CBF042080BD40F21000C2F2000056
:10522000FFF728FEFFF79CF900061CBF052080BD94
:1052300040F27310FEF78EFE00061CBF062080BDF4
:10524000C820FFF7FDF800061CBF072080BD00F056
:1052500085FE012000F0BAFCC0B2002818BF09206A
:1052600080BD000040F21C01C2F200014A7A032A0C
:1052700084BF4FF0FF30704740F20243D200C1F2CA
:10528000080323FA02F20270C97C002904BF00203F
:1052900070470178490001700020704740F21C0CF3
:1052A000C2F2000C9CF80930032B84BF4FF0FF3092
:1052B00070474FF48042DFE803F00A02050841F628
:1052C0009C7204E04FF4805201E04FF400629CF8BD
:1052D00013100280002904BF00207047018849088C
:1052E0000180002070470000014640F21C00C2F21D
:1052F0000000027C00200A707047000040F21C0190
:10530000C2F200010B7A0146032B07D8FA22DFE82C
:1053100003F00C02070A4FF4FA7206E0002204E0E0
:105320004FF47A7201E04FF4FA6200200A8070476D
:1053300040F21C01C2F2000191F90810032984BF58
:105340004FF0FF30704747F29C72C0F6000252F8EF
:10535000211001600020704740F21C01C2F20001E0
:10536000C97A4B1E052B014607D8BC22DFE803F0A3
:105370000E0307090B0D622208E0002206E02A2234
:1053800004E0142202E00A2200E0052200200A8044
:105390007047000040F21C01C2F2000191F8242085
:1053A000002A1CBF4FF0FF307047C98901800020E0
:1053B00070470000B0B582B040F21C058020C2F2F8
:1053C00000058DF80200D5E900100DF10203007808
:1053D000897C0122FDF7BAFC10B14FF0FF3497E051
:1053E0006420FBF7E7FE00208DF80200D5E90010ED
:1053F0000DF102030078897C0122FDF7A7FC10B1B2
:105400004FF0FF3484E0D5E900100DF1020300787D
:10541000897D0622FDF720FC10B14FF0FF3477E0C4
:105420009DF807109DF803009DF80520890062F3A0
:10543000410100F00100084410F0070003D00228E9
:1054400022D1002021E0D5E900100DF102030078FF
:10545000C9780122FDF700FC10B14FF0FF3457E08E
:105460009DF8020000F00F0004280AD00028E8D1BF
:1054700048F2DD30C0F60000FBF7F6F84FF0FF34DD
:1054800046E025A0FBF7F0F80120E8744FF6FF7026
:10549000E881FF202874A87401204FF0FF3428739E
:1054A00085F822000020AC60C5E90500E861288489
:1054B000C5F8230085F827004FF4FA6000F0CCFB14
:1054C00030BB022000F0D0FA10B14FF0FF341FE0E3
:1054D0002A2000F035FC10B14FF0FF3418E03220E4
:1054E00000F066FC10B14FF0FF3411E00020FFF730
:1054F0007DFD10B14FF0FF340AE0002000F0F0FA1B
:1055000010B14FF0FF3403E00020002400F096FCBF
:10551000204602B0B0BD00BF48616C662073656E66
:105520007369746976697479207061727420666F2A
:10553000756E642E000000002DE9F04F87B007461D
:1055400000294FF0FF3052D08B4640F21C01C2F2CE
:10555000000191F82510002949D1CDE900324FB35F
:1055600000200DF10C0A4FF0000800BFA7EB000966
:10557000B9F1100FA8BF4FF010090BEB00041FFA90
:1055800089F51FFA88F630462946224600F0B4FC19
:1055900010BB30462946524600F0ECF8E0B92046F0
:1055A00051462A46FBF776F820BBC8441FFA88F01C
:1055B000B842DBD3019840F21C0440BAC2F20004A6
:1055C000ADF80A00D4E900100DF10A030078897ED5
:1055D0000222FDF7BBFB20B14FF0FF3007B0BDE862
:1055E000F08F012084F825000098E084002007B0A7
:1055F000BDE8F08F6FF0010007B0BDE8F08F00004C
:10560000B0B582B0282802D94FF0FF344EE00446EE
:1056100048B1012000F060FB2020012C8DF806002D
:105620001CD100201DE00020002400F055FB40F2BA
:105630001C054FF4E060C2F20005ADF80600D5E9A4
:1056400000100DF106030078897C0222FDF77EFB35
:1056500000280CBF2C754FF0FF3427E0052C28D80C
:1056600001208DF80700052000F06AFB9DF8070077
:1056700040F21C0580010730C2F200058DF80700DA
:10568000D5E900100DF106030078897C0222FDF7B0
:105690005DFB10B14FF0FF3408E00820A872012034
:1056A0000024287500202C73FFF7A0FC204602B0D0
:1056B000B0BD142C04D802208DF807000A20D3E7CF
:1056C00003208DF807001420CEE700002DE9F041FB
:1056D00082B040F21C07C2F200070E4697F8241071
:1056E00005464FF0FF30D9B3B97AC9B3D7E90010F6
:1056F00014460078897A0DF106030222FDF7ACFA10
:1057000020BBBDF80600000490FA80F8A84502D23C
:10571000002020701AE078684188B8EB510F0CD94E
:1057200039680078497C0DF106030122FDF794FAEF
:1057300060B99DF80600C00615D4D7E90010EAB29A
:105740000078C97A3346FDF787FA20B14FF0FF3071
:1057500002B0BDE8F081B8FBF5F001382070002000
:1057600002B0BDE8F08100F037F86FF0010002B040
:10577000BDE8F08170B582B00D4601464FF0FF30B4
:1057800042B340F21C06C2F200061446B27A0AB3D3
:1057900070684ABA438955FA81F19942ADF80620FA
:1057A00008D831680078097E0DF106030222FDF762
:1057B000CDFA18B14FF0FF3002B070BDD6E900103D
:1057C000EAB20078497D2346FDF746FA002818BF63
:1057D0004FF0FF3002B070BD10B582B040F21C0433
:1057E000C2F20004A07A00B300208DF80700D4E9CB
:1057F00000100DF107030078C97B0122FDF7A6FA1E
:1058000098B9D4E900100DF1070300784979012215
:10581000FDF79CFA48B9D4E900100DF107030078B0
:1058200009790122FDF792FA18B14FF0FF3002B06A
:1058300010BD94F82400002845D00C208DF80700F6
:10584000D4E900100DF10703007809790122FDF772
:105850007DFA0028E9D13220FBF7ACFCA07A0DF1EB
:105860000703C0076FF01F0008BF6FF03F008DF8FF
:105870000700D4E90010012200780979FDF766FAE3
:105880000028D2D1607C0DF10703002818BF012049
:1058900040008DF80700D4E9001001220078C97B90
:1058A000FDF754FA0028C0D100208DF80700D4E994
:1058B00000100DF10703007849790122FDF746FA3F
:1058C0000028B2D145E004208DF80700D4E900108B
:1058D0000DF10703007809790122FDF737FA002856
:1058E000A3D1A07AA17CC0074FF0600008BF402080
:1058F000002918BF40208DF80700D4E900100DF1F1
:105900000703007809790122FDF720FA00288CD1DD
:105910003220FBF74FFC607C0DF10703002818BF15
:1059200001208DF80700D4E9001001220078C97B1E
:10593000FDF70CFA00287FF478AFD4E9001004F1E9
:105940001003007849790122FDF700FA00287FF45E
:105950006CAF002002B010BD2DE9F04F89B040F2CD
:105960001C0AC2F2000A9AF824200E4605462AB103
:10597000002000F02BF94FF0010901E04FF0000981
:1059800002A8FFF7BBFC0DF10B00FFF76BFC01A8B1
:10599000FFF7E2FC0DF10600FFF7FCFC9AF80A8025
:1059A0000DF10A00FFF7A0FC002400BF2846314695
:1059B0000022FFF72DF818B10134012CF6D0022493
:1059C000022C0FD000270DF1180B03AC58462146CE
:1059D0000122FFF71DF818B10137012FF6D0022779
:1059E000022F01D100250FE003A93046FEF726FA69
:1059F000044606A92846FFF7B5F9C0B2B0FA80F010
:105A00004509200608BF02354FF6FF70AAF80E00C0
:105A1000FF208AF810004FF0FF30CAF80800BDF8E8
:105A2000080001218AF80C1000F016F99DF80B000F
:105A300000F01AF8BDF8040000F082F9BDF8060085
:105A400000F0B6F9404600F0F9F99DF80A00FFF7BA
:105A5000CDFAB9F1000F02D0012000F0B7F82846C6
:105A600009B0BDE8F08F000010B582B040F21C0410
:105A7000C2F20004A17A41B302384FEA700107294B
:105A80004FF0FF302AD8DFE801F004062908292961
:105A9000290A002004E0082002E0102000E018207D
:105AA0008DF80700607A9DF80710B0EBD10F02D196
:105AB000002002B010BDD4E900100DF107030078FA
:105AC000C9790122FDF742F918B14FF0FF3002B059
:105AD00010BD9DF80700C0086072002002B010BD24
