:020000040800F2
:10000000E809002035020008BF2100085B1A00083B
:10001000BD2100084904000859280008000000001C
:10002000000000000000000000000000E9220008BD
:100030004B04000800000000C1210008EB2200086A
:100040004F0200084F0200084F0200084F0200084C
:100050004F0200084F0200084D0400084F0200083C
:100060004F0200084F0200085B0400084F0200081E
:100070004F0200084F0200084F0200084F0200081C
:100080004F0200084F0200084F0200080000000065
:1000900000000000000000000000000061040008F3
:1000A0004F0200084F0200084F0200084F020008EC
:1000B0004F0200084F0200084F0200084F020008DC
:1000C0004F0200084F0200084F0200084F020008CC
:1000D0004F0200084F0200084D28000800000000F1
:1000E000530400084F0200084F02000800000000FF
:1000F0000000000000000000000000004F020008A7
:10010000000000004F0200084F0200084F020008E4
:1001100000000000000000000000000000000000DF
:100120004F0200084F0200084F0200084F0200086B
:100130004F02000800000000000000000000000066
:100140000000000000000000000000004F02000856
:100150004F0200084F0200084F0200084F0200083B
:100160004F0200084F0200080000000000000000DD
:10017000000000000000000000000000000000007F
:10018000000000004F020008000000000000000016
:100190004F02000800F002F800F03CF80AA090E8D6
:1001A000000C82448344AAF10107DA4501D100F032
:1001B00031F8AFF2090EBAE80F0013F0010F18BFC3
:1001C000FB1A43F00103184740440000604400005C
:1001D000103A24BF78C878C1FAD8520724BF30C873
:1001E00030C144BF04680C60704700000023002445
:1001F00000250026103A28BF78C1FBD8520728BF37
:1002000030C148BF0B6070471FB504F046F91FBDF1
:1002100010B510BD00F0E2F81146FFF7F5FF03F04E
:10022000B3F900F000F903B4FFF7F2FF03BC00F0EC
:1002300005F900000948804709480047FEE7FEE746
:10024000FEE7FEE7FEE7FEE7FEE7FEE7FEE7FEE786
:1002500004480549054A064B7047000085230008FD
:1002600095010008E8030020E8090020E8050020C7
:10027000E805002053EA020C00F069802DE9F04BFC
:100280004FF00006002B1FBFB3FA83F503FA05F405
:1002900024FA05F65E4012BF1643B2FA82F502FA5E
:1002A00005F4C5F120051EBF22FA05FC44EA0C0442
:1002B000203556EA044C4FEA144418BF641C4FF032
:1002C00000084FF00009904271EB030C39D300296C
:1002D00019BFB1FA81F701FA07F6B0FA80F700FA10
:1002E00007F6C7F120071EBF20FA07FC46EA0C06F6
:1002F0002037B6FBF4FCA7EB0507103F07F01F0BF8
:10030000CBF120060CFA0BFB2CFA06F644BFB346E1
:100310000026202FA4BF5E464FF0000B5BEA060CC0
:1003200008BF4FF0010B19EB0B09ABFB027C48EB4C
:100330000608C01B06FB02CC0BFB03CC71EB0C01C7
:10034000C1E70B46024641464846BDE8F08B13B56F
:100350004FF000004FF00001AFF30080BDE81C40FB
:1003600070474FF0000200B5134694469646203978
:1003700022BFA0E80C50A0E80C50B1F12001BFF45E
:10038000F7AF090728BFA0E80C5048BF0CC05DF8C4
:1003900004EB890028BF40F8042B08BF704748BF12
:1003A00020F8022B11F0804F18BF00F8012B704786
:1003B00070477047704710B500F008F8006810BD2E
:1003C00010B5044600F002F8046010BD0048704704
:1003D0008803002000487047880300207546FFF717
:1003E000F9FFAE4605006946534620F007008546F2
:1003F00018B020B5FFF72CFFBDE820404FF00006F5
:100400004FF000074FF000084FF0000B21F00701FC
:10041000AC46ACE8C009ACE8C009ACE8C009ACE83F
:10042000C0098D46704710B50446AFF300802046E2
:10043000BDE81040FFF7F7BE7047000001491820E3
:10044000ABBEFEE726000200FEE77047012000F089
:1004500011B94FF4805000F00DB9102000F00AB926
:10046000202000F007B972B6FEE72DE9F0410446FE
:10047000876D00F00DFA064694F835000025022835
:1004800006D08020606584F834500120BDE8F081FA
:100490002068016821F0160101602068416921F09F
:1004A00080014161206C08B9A06C20B1206801680E
:1004B00021F0080101602068016821F0010101605C
:1004C0000CE000F0E5F9801B052807D920206065C5
:1004D000032084F8350084F83450D7E7206800689A
:1004E000C007EED194F85C103F208840B86001202E
:1004F00084F8350084F834500020C7E790F83510B0
:10050000022903D08021416501207047052180F830
:1005100035100068016821F001010160002070477A
:1005200070B5044600F0B4F90546601C02D00448DA
:100530000078044400F0ACF9401BA042FAD370BD2F
:10054000000000202DE9F041454C0126454F464D65
:10055000202815D0DFF81481012869D0102874D024
:100560004FF48058404561D10F20FFF7D9FF414635
:10057000204600F07BF9012858D10320387661E04D
:100580002021204600F072F900284FD1287808B9C0
:10059000A87828B1344A121F111F081F03F014F85D
:1005A000022001F08FFE78833C46042001F08AFE91
:1005B000A08301F075FE02F051F9BDEEC00A84ED92
:1005C000030A02F075F9BDEEC00A2649221D0C315E
:1005D00084ED040A081D01F00DFB94ED010ABCEE48
:1005E000C00A10EE100A82B2D4E9031001F034FB05
:1005F0001D4C4FF00008103C2088401C80B2208029
:100600000A2806D3A4F800804FF40051184800F0DF
:1006100032F9A879002809D06088401C80B2608037
:10062000F98A884202D3A4F80280EE70BDE8F08116
:100630000F20FFF775FF0121404600F017F9012850
:10064000F4D13E766E71F1E7FFE70F20FFF768FF08
:100650001021404600F00AF90128E7D102208DE779
:1006600000040240D8020020580000200000024090
:1006700000080240044910B50A68024202D008602E
:10068000FFF760FF10BD0000143C01402DE9F84F5A
:10069000DFF8B8A10022012403254FF00F090AF169
:1006A000040BAAF1040E00BF0B6804FA02F63340F3
:1006B000B34273D10F7907F00307012F01D0022F46
:1006C00016D187684FEA420805FA08FC27EA0C07AA
:1006D000D1F80CC00CFA08FC4CEA070CC0F808C0B2
:1006E0004768B7430E79C6F3001696403E4346600E
:1006F0000E79F643B6070DD0C768560005FA06FC1A
:1007000027EA0C07D1F808C00CFA06FC4CEA070CE3
:10071000C0F80CC00E7906F00306022E10D1D608E0
:1007200000EB8608D8F8206057074FEAD76C09FA23
:100730000CF7BE430F6907FA0CF73743C8F820706F
:1007400006684FEA420C05FA0CF7BE430F7907F032
:10075000030707FA0CF7374307604E6816F4403F6B
:100760006DD03B4E376847F480473760366822F0DB
:10077000030706F480460096364E07EB060CDCF8BD
:10078000086897073F0F09FA07F826EA0806DFF816
:10079000C880404503D14FF000081EE04FE0DFF86D
:1007A000BC80404502D14FF0010816E0DFF8B08070
:1007B000404502D14FF002080FE0DFF8A880404525
:1007C00002D14FF0030808E0DFF89C80404502D1D9
:1007D0004FF0040801E04FF0070808FA07F848EA6C
:1007E0000608CCF80888DAF800605746D1F804C04B
:1007F0009E435FEACC2C00D51E433E60DBF80060D0
:100800005F46D1F804C09E435FEA8C2C00D51E439E
:100810003E60DEF800607746D1F804C09E435FEA90
:100820008C3C00D51E433E60084F083F3E68D1F81F
:1008300004C09E435FEACC3C00D51E433E60521C80
:10084000102AFFF431AFBDE8F88F0000083C0140EA
:1008500044380240003001400000024000040240E1
:1008600000080240000C02400010024000690840ED
:1008700000D001207047426921EA02030A4043EA9E
:100880000241816170470AB1816170470904FBE749
:1008900001488068704700000000002070B5040027
:1008A00025D094F83D00002520B984F83C5020461E
:1008B00000F0B8F8242084F83D002068016821F099
:1008C000010101602068016841F400410160206875
:1008D000016821F40041016000F00EFA4D4A6168A0
:1008E000914201D84C4900E04C49884201D2012094
:1008F00070BD4B492368B0FBF1F15E6826F03F06FE
:100900000E435E606368934206D94FF49673594371
:100910004FF47A73B1FBF3F12368491C1E6A26F089
:100920003F06314319626168914210D84900401E68
:10093000B0FBF1F2521CC2F30B02042A01D20420D4
:1009400022E0B0FBF1F0401CC0F30B001CE0A268F9
:10095000F2B301EBC10303EB0116431EB3FBF6F345
:100960005B1C43F480431B0549D092B301EBC102E9
:1009700002EB0111401EB0FBF1F0401CC0F30B0074
:1009800040F4804040F400402168CA694CF6FF738F
:100990009A431043C861D4E90710014320680268F4
:1009A00022F0C00211430160D4E903010143206831
:1009B000826848F2FF339A4311438160D4E905010C
:1009C00008432168CA6822F0FF021043C86001E0B2
:1009D0000EE016E02068016841F001010160256425
:1009E000202084F83D00256384F83E50002070BD2F
:1009F00001EB4106431EB3FBF6F35B1CB3E701209A
:100A0000C2E701EB4101401EB0FBF1F0401CC0F316
:100A10000B00B7E7A086010080841E0000093D009E
:100A200040420F0010B586B0044614216846FFF717
:100A300098FC14492068884221D11348002102689B
:100A400042F002020260006800F0020005904FF4DC
:100A5000407000901220CDE9010103200390042092
:100A6000049069460948FFF711FE074810300168F5
:100A700041F400110160006800F40010059006B018
:100A800010BD000000540040303802400004024015
:100A9000024881680278114481607047000000209C
:100AA0000B4810B5016841F400710160016841F420
:100AB00080610160016841F480710160032000F0F1
:100AC0006FF80F2000F006F800F024F8002010BDA9
:100AD000003C024070B50D4D04464FF47A71287801
:100AE000B1FBF0F00A490968B1FBF0F000F00CFB33
:100AF00048B9102C07D200222146501E00F030F8D1
:100B000000206C6070BD012070BD0000000000205E
:100B10000C0000200A4808B5016841F480410160DA
:100B2000006800F4804000900548001F016841F013
:100B300080510160006800F08050009008BD000006
:100B400044380240002809DB00F01F0201219140D7
:100B50004009800000F1E020C0F80011704700005B
:100B6000F0B40E4B1B680C46C3F30223C3F1070518
:100B7000042D00D90425191D072901D2002300E006
:100B8000DB1E012606FA05F1491E214099409E40D0
:100B9000761E16403143F0BC01F068BF0CED00E05A
:100BA000064900F0070208684FF6FF03184040EAC4
:100BB0000220034A10430860704700000CED00E07B
:100BC0000000FA052DE9F0470E46050065D0DFF874
:100BD0001481D8F80000F7B200F00700B04207D245
:100BE00088F80070D8F8000000F00700B04254D137
:100BF00028683D4C810712D5400703D5206840F492
:100C0000E05020602878000703D5206840F4604059
:100C100020602068A96820F0F00008432060287850
:100C2000C0072DD0304968680839012812D0022841
:100C300013D0032811D00968890700292DDA21680B
:100C400021F0030101432160FFF722FE814641F2BA
:100C5000883A0EE009688903EFE709688901ECE743
:100C6000FFF716FEA0EB0901514502D90320BDE8AC
:100C7000F0872068696800F00C00B0EB810FEFD1BD
:100C8000D8F80010404601F00701B14207D90770BB
:100C9000006800F00700B04201D00120E7E72878A3
:100CA000400705D52068E96820F4E050084320603B
:100CB0002878000706D52068296920F4604040EABA
:100CC000C100206000F038F82168084AC1F3031120
:100CD000515CC8400649086006480068FFF7FAFE04
:100CE0000020C4E7003C024008380240AE4400083F
:100CF0000C00002004000020044805490068096831
:100D0000044AC1F38221515CC84070470C000020A6
:100D100008380240BE4400080448054900680968D4
:100D2000044AC1F34231515CC84070470C000020B6
:100D300008380240BE440008154810B5006810F09D
:100D40000C02144813D01449042A0FD0082A0ED1DB
:100D50000F4C241F2268236802F03F025B0207D574
:100D60002068C0F38810A0FB010106E0084610BD12
:100D70002168C1F38811A1FB00010023FFF77AFA73
:100D80002168C1F30141491C4900B0FBF1F010BDDD
:100D9000083802400024F40040787D012DE9F84F26
:100DA00004006ED02078DFF84C93C007A9F1040549
:100DB0004AD009F104000168C1F38101012908D07A
:100DC0000068C0F3810002280AD1D9F8000040026F
:100DD00006D52868800337D560680028E1D033E065
:100DE0006068B0F5803F10D0B0F5A02F286810D013
:100DF00020F480302860286820F480202860606813
:100E0000A8B1FFF745FD06460DE0286840F48030A4
:100E1000F4E740F480202860F7E700BFFFF738FDD3
:100E2000801B642873D828688003F7D50CE0FFF78F
:100E30002FFD064605E000BFFFF72AFD801B642852
:100E4000F0D828688003F7D42078DFF8AC828007D8
:100E50004FF0000A3ED5A748001D016811F00C0FA5
:100E600008D00068C0F3810002280BD1D9F8000037
:100E7000400207D42868800716D5E068012800D111
:100E800012E033E1E068B8B10120C8F80000FFF7D4
:100E9000FFFC064605E000BFFFF7FAFC801B0228B6
:100EA000C0D828688007F7D52868216920F0F800A5
:100EB00040EAC10028600DE0C8F800A0FFF7E8FC98
:100EC000064604E0FFF7E4FC801B02281FD82868D0
:100ED0008007F7D42078000722D5864F87486169BC
:100EE000703771B101210160FFF7D2FC064604E0C2
:100EF000FFF7CEFC801B022809D838688007F7D599
:100F00000EE0C0F800A0FFF7C3FC064605E082E053
:100F1000FFF7BEFC801B02287DD838688007F7D415
:100F20002078400768D5DFF8CCB100270BF13C0BE7
:100F3000DBF80000C0000BD4DBF8001041F080515A
:100F4000CBF80010DBF80000012700F08050009083
:100F50006B4E3068C00510D4306840F4807030604B
:100F6000FFF796FC009005E0FFF792FC0099401A0D
:100F7000022850D83068C005F6D55E4EA0686C36A1
:100F800001280FD00528306810D020F00100306013
:100F9000306820F004003060A068B8B1FFF778FC3A
:100FA00000900FE0306840F00100F4E740F00400EA
:100FB0003060F7E7FFF76CFC0099411A41F2883086
:100FC000814266D830688007F4D50EE0FFF760FCF8
:100FD000009007E0FFF75CFC0099411A41F288306D
:100FE000814256D830688007F4D42FB1DBF8001066
:100FF00021F08051CBF80010A069C8B33D49091D0C
:101000000968C1F3810102294AD00228504607D05D
:10101000C8F8600000E03CE0FFF73AFC04463BE023
:101020004746C8F86000FFF733FC064605E000BFFE
:10103000FFF72EFC801B02282BD828688001F7D4EC
:10104000D4E907010843A16A2E4A490802EB01418D
:10105000626A41EA8211084394F82C1040EA016167
:10106000C9F8001001203866FFF712FC044606E0BC
:101070003EE000BFFFF70CFC001B022809D82868DF
:101080008001F7D534E000BFFFF702FC001B022807
:1010900002D90320BDE8F88F28688001F4D427E046
:1010A0000128F7D0D9F80000E26900F480019142EC
:1010B0001CD1226A00F03F01914217D147F6C0715E
:1010C000626A0140B1EB821F10D1A26A4FF0FF3378
:1010D00000F4403103EB5202B1EB024F06D194F819
:1010E0002C1000F07060B0EB016F01D00120D1E74F
:1010F0000020CFE70438024000004742800E4742FC
:10110000007000400000FFFF10B5401EB0F1807F6E
:1011100001D3012010BD4FF0E02460610F21601762
:1011200001F0A4FC0020A06107202061002010BD78
:1011300010B590F83C20012A22D0012280F83C20F2
:10114000CA688C6822F4407222434C6822F48062A0
:1011500022430C6822F4006222430C6922F480527C
:1011600022434C6922F400522243C969002322F42D
:1011700080420A4301684A6480F83C30002010BD78
:10118000022010BD70B590F83C20012A2CD001241B
:1011900080F83C40022280F83D2003685A689D6830
:1011A00022F070060A6832435A60104B02689A4275
:1011B0000ED0B2F1804F0BD00D4B9A4208D00D4BA0
:1011C0009A4205D00C4B9A4202D00C4B9A4204D161
:1011D000496825F080031943916080F83D40002163
:1011E00080F83C10084670BD022070BD0000014030
:1011F0000004004000080040000C00400040014096
:1012000010B5040003D094F83D0010B107E00120B0
:1012100010BD002084F83C00204600F01FF802209A
:1012200084F83D00211D206801F0B4F8012084F805
:10123000460084F83E0084F83F0084F8400084F8BB
:10124000410084F8420084F8430084F8440084F8A4
:10125000450084F83D00002010BD000008B5134A89
:1012600001681348914207D1016841F00101016012
:10127000006800F001000BE00E4A91420AD10C48D0
:10128000001F016841F002010160006800F00200E7
:10129000009008BD084A9142FBD1016841F48031B9
:1012A0000160006800F48030F2E7000000000140B7
:1012B00044380240000400400040014070B504463C
:1012C00090F83C000025012817D0012684F83C60E6
:1012D000022084F83D002068826822F0770222F420
:1012E0007F4282600868502838D00DDC20284FD01B
:1012F00005DC90B3102811D14AE0022070BD3028DF
:1013000046D040280AD13BE060282FD070280DD06D
:10131000B0F5805F03D0B0F5005F12D0012584F8EE
:101320003D60002084F83C00284670BDCB68D1E9C0
:101330000121206801F080F82068816841F0770180
:1013400009E0CB68D1E90121206801F075F8206837
:10135000816841F480418160E1E719E0CA68496829
:10136000206801F01DF95021206806E0CA6849682C
:10137000206801F026F96021206801F067F8CEE7C7
:10138000CA684968206801F00BF940212068F4E739
:10139000226801461046F0E72DE9F0410D460400B1
:1013A00003D094F83D0018B108E00120BDE8F081B9
:1013B000002084F83C00204600F040F8022084F829
:1013C0003D002068816844F2070291438160211D3D
:1013D000206800F0DFFF226890689169166A2B6828
:1013E000AF69034340F20330814341EA0721A86813
:1013F000EF6908434FF6FC418843E96840EA07205B
:10140000014328692F6A000140EA073008436968F0
:101410006D6926F0AA0646EA0515294393602268FD
:10142000906154F8460B0162012004F81F09E07531
:101430002076E0762077A0750020B7E730B587B03A
:10144000044614216846FEF78CFF214824680022D8
:101450001F4910380223B4F1804F1FD01D4DAC42FC
:101460001AD10C6844F004040C60096801F004010E
:101470000591016841F0020101600068694600F0D1
:1014800002000590C0200090CDE901321248CDE95C
:10149000032300BFFFF7FAF807B030BD0C6844F033
:1014A00001040C60096801F001010591016841F037
:1014B000010101600068694600F001000590032009
:1014C0000090CDE901320120CDE903200348E1E796
:1014D0004038024000080040000402400000024082
:1014E00030B587B0044614216846FEF73AFF2468F9
:1014F000164D0021164A02231648AC4210D114683A
:1015000044F001041460126802F0010205924FF4E5
:10151000A0620092CDE9013103910121049110E014
:101520000D4DAC4210D1146844F0010414601268EF
:1015300002F00102059240220092CDE90131CDE98D
:1015400003136946FFF7A2F807B030BD0000014061
:1015500030380240000002400004004070B50446EC
:1015600090F83C0000260D4601280FD0012084F899
:101570003C006AB1042A1DD0082A2FD00C2A3FD083
:101580000126002084F83C00304670BD022070BD6A
:10159000206800F063FF2068816941F008018161E3
:1015A0002068816921F004018161206881692A69CC
:1015B000114311E0206800F079FF2068816941F44F
:1015C000006181612068816921F480618161206806
:1015D00081692A6941EA02218161D2E7206800F02D
:1015E00091FF2068C16941F00801C1612068C169AB
:1015F00021F00401C1612068C1692A69114311E029
:10160000206800F0ABFF2068C16941F40061C1614E
:101610002068C16921F48061C1612068C1692A69BB
:1016200041EA0221C161ACE710B5040003D094F88F
:101630003D0010B107E0012010BD002084F83C00FF
:10164000204600F01EF8022084F83D00211D20688D
:1016500000F0A0FE012084F8460084F83E0084F8E3
:101660003F0084F8400084F8410084F8420084F888
:10167000430084F8440084F8450084F83D000020CD
:1016800010BD70470246002041B1042909D0082945
:101690000AD00C2901D11068006C70471068406BAB
:1016A00070471068806B70471068C06B7047704758
:1016B00070470000F8B5016804460868CA684B69BD
:1016C00010F00F0F4FF0000559D003F0010602F49F
:1016D0009077374365D0C10705D0D10503D5616C3C
:1016E00041F001016164410705D5D90703D0616C60
:1016F00041F002016164810705D5D90703D0616C0F
:1017000041F004016164010707D502F02001314373
:1017100003D0616C41F008016164616C00293AD02A
:10172000800604D5900602D5204600F08BFF206885
:101730004069616CC0F38010090700D460B3204693
:1017400000F059FF20684069400621D52068143018
:1017500050E8001F21F0400140E80012002AF5D1B6
:10176000E06BA8B16E490165E06BFEF7C7FE00288B
:1017700011D0E06B016D01B0BDE8F0400847830671
:101780000FD593060DD52046BDE8F84000F05ABFAE
:101790002046FFF78DFFF8BD2046FFF789FF6564FF
:1017A000F8BD266B2023012E7DD1C6067BD5D6063B
:1017B00079D508684868009048694FF002064006ED
:1017C00041D5E16B086840680004000CE8D0A28DA8
:1017D0008242E5D9E085C869B0F5807F2DD02068C8
:1017E0000C3050E8001F21F4807140E80012002AFC
:1017F000F5D12068143050E8001F21F0010140E8C5
:101800000012002AF5D12068143050E8001F21F0A2
:10181000400140E80012002AF5D184F842302563E7
:1018200020680C3050E8001F21F0100140E8001241
:10183000002AF5D1E06BFEF718FE6663A08DE18DFE
:10184000401A81B22AE0A08DE18D401A81B2E08D6C
:101850000028A5D00029A3D022680C3252E8000F3E
:1018600020F4907042E80007002FF5D12068143072
:1018700050E8002F22F0010240E80027002FF5D1A8
:1018800084F84230256320680C3050E8002F22F0A5
:10189000100240E80023002BF5D166632046FFF7D5
:1018A00006FFF8BDFFE705062BD5150629D594F8E8
:1018B00041002128F5D1A068B0F5805F01D12069F1
:1018C000B0B1206A411C2162216800784860E08C38
:1018D000401E0004000CE084E3D12068C16821F0C0
:1018E0008001C1602068C16841F04001C160D8E753
:1018F000206A0088C0F308004860206A801C2062CB
:10190000E5E74006CDD55006CBD5CA68204622F083
:101910004002CA6084F8413000F09EF8C1E7000040
:10192000E725000870B5040004D094F841000025B4
:1019300010B106E0012070BD84F84050204600F050
:1019400023F8242084F841002068C16821F4005164
:10195000C160204600F0D8FE2068016921F4904162
:1019600001612068416921F02A0141612068C16854
:1019700041F40051C1606564202084F8410084F87E
:1019800042006563002070BD10B586B00446142186
:101990006846FEF7E6FC17492068884228D11648B9
:1019A0000021026842F400320260006800F4003056
:1019B000059011481038026842F001020260006888
:1019C00000F0010005900C2000900220CDE90101FB
:1019D000032003900720049069460848FEF756FE4E
:1019E000002211462620FFF7BBF82620FFF7AAF8B1
:1019F00006B010BD004400404038024000000240E4
:101A000090F84230202B01D00220704721B11AB14A
:101A10000023036300F0FEBE0120704700680A49FE
:101A200088420FD109480178491C0170017880294A
:101A300001D30021017006490078012201440548C4
:101A4000FFF7DEBF70470000004400405F00002049
:101A5000F8020020540200207047FEE7FF20401EDD
:101A6000FDD2704710B50B4C002202212046FEF734
:101A70000AFF012211462046FEF705FFFFF7EEFFA1
:101A8000012202212046FEF7FEFEBDE81040FFF7CE
:101A9000E5BF0000000002402DE9F041144E07466A
:101AA0000024012202213046FEF7EDFE00256006EB
:101AB000040E012211463046FEF7E5FEFFF7CEFF89
:101AC00002213046FEF7D2FE08B1641CE4B20022C7
:101AD00001213046FEF7D7FEFFF7C0FF6D1C082D31
:101AE000E5DB384600F068F82046BDE8F0810000EC
:101AF0000000024070B5114E05460024280601D5AD
:101B0000012200E0002202213046FEF7BCFEFFF772
:101B1000A5FF012211463046FEF7B5FEFFF79EFFF6
:101B2000002201213046FEF7AEFE6806050E641C59
:101B3000082CE3DBBDE8704000F020B80000024054
:101B400010B50D4C012202212046FEF79CFE012219
:101B500011462046FEF797FEFFF780FF0022022184
:101B60002046FEF790FEFFF779FF20460022BDE8F1
:101B700010400121FEF787BE0000024070B50D4DF8
:101B8000012202212846FEF77EFEFFF767FF0122B1
:101B900011462846FEF777FEFFF760FF0221284630
:101BA000FEF764FE0446002201212846FEF76BFE84
:101BB000204670BD0000024010B50D4C012814D025
:101BC000002202212046FEF75EFEFFF747FF0122BA
:101BD00011462046FEF757FEFFF740FF2046002241
:101BE000BDE810400121FEF74EBE0122E9E70000EA
:101BF0000000024030B541F6641504686B42AC4207
:101C000001DD2C4602E09C4200DA1C4604600868B4
:101C1000A84201DD2B4602E0984200DB03460B6040
:101C200092ED000A084910EE100A884202DD9FED8D
:101C3000070A06E010EE100A0549884201DA9FED16
:101C4000050A82ED000A30BD0080ED440080ED44BD
:101C50000000E1440000E1442DE9F0410C1E1E4E5D
:101C6000904605464FF480414FF4004705DD0122C0
:101C70003046FEF708FE002204E000223046FEF760
:101C800002FE012239463046FEF7FDFD4FF40051B9
:101C90004F10002D05DD01223046FEF7F4FD002235
:101CA00004E000223046FEF7EEFD012239463046C0
:101CB000FEF7E9FD002C00DA6442084801684C6335
:101CC000002D00DA6D420068056405490968C1F815
:101CD0003480BDE8F081000000040240EC000020E8
:101CE0007C0100202DE9F0411D4614460F460646B2
:101CF000FFF726FF7006000EFFF7FCFE3846FFF7E1
:101D0000F9FEFFF71DFF012000EB4600C0B2FFF710
:101D1000F1FE09E0012C0ED05FF00000FFF7BCFEE1
:101D2000641E05F8010BE4B2002CF3D1FFF79AFE14
:101D30000020BDE8F0810120F0E72DE9F0411E46CA
:101D400015460F460446FFF7FBFE6006000EFFF740
:101D5000D1FE3846FFF7CEFE002404E0305DFFF7E9
:101D6000C9FE641CE4B2AC42F8D3FFF77BFE00204E
:101D7000BDE8F0812DE9F04387B014216846FEF7F5
:101D8000F0FA4A480024016841F00401016001684A
:101D900001F004010591016841F0800101600168D2
:101DA00001F080010591016841F0010101600168C5
:101DB00001F001010591016841F002010160006834
:101DC0003B4F00F002004FF40055059000222946D9
:101DD0003846FEF758FDDFF8DC9000221021484617
:101DE000FEF751FDDFF8D08000224FF20601404699
:101DF000FEF749FD02260095CDE9026401256946FA
:101E000038460195FEF742FC102003948DE86100EE
:101E100069464846FEF73AFC31204FF48816CDE972
:101E20000006694602944046FEF730FC062000900A
:101E300011200394CDE9010569464046FEF726FCD2
:101E40004FF470400090CDE9015469464046039438
:101E5000FEF71CFC2803CDE90006694602944846BB
:101E6000FEF714FC002211460620FEF779FE06203C
:101E7000FEF768FE002211460A20FEF771FE0A20D6
:101E8000FEF760FE002211461720FEF769FE1720BC
:101E9000FEF758FE002211462820FEF761FE28209A
:101EA000FEF750FE07B0BDE8F08300003038024076
:101EB0000008024000000240000402400D4810B536
:101EC0000B4901600C49416000214FF48042816060
:101ED000C0E9031241618161C1610162FEF7DEFC6C
:101EE000002803D0BDE81040FEF7BDBA10BD0000C9
:101EF0000054004098000020A086010010B596B064
:101F000000240F9410941194129413941C21684689
:101F10001494FEF726FA202107A8FEF722FA2C488F
:101F20002A49C0E900144FF6FF71C0E9024104617B
:101F300044618461FFF764F908B1FEF794FA4FF445
:101F400080500F900FA92248FFF7B8F908B1FEF7AB
:101F50008AFA1F48FFF768FB08B1FEF784FA13946A
:101F600013A91B481494FFF70DF908B1FEF77BFA8B
:101F70006020CDE9000402940394049405940022A7
:101F8000694613480694FFF7E9FA08B1FEF76BFAC1
:101F9000082269460E48FFF7E1FA08B1FEF763FA36
:101FA0000794089409944FF400500A94CDE90B402B
:101FB00007A907480E94FFF7BBF808B1FEF753FADC
:101FC0000348FFF78DFA16B010BD00000000014075
:101FD000EC00002010B58CB024216846FEF7C1F952
:101FE0000024144809944FF080410A94C0E9001479
:101FF000611EC0E90241046184610120CDE9000451
:10200000CDE902040494CDE90540079469460948E6
:102010000894FFF7C1F908B1FEF725FA099409A958
:1020200004480A94FFF7AEF8002801D0FEF71BFA27
:102030000CB010BD3401002010B58EB00024079400
:10204000089409940A940B941C2168460C94FEF79A
:1020500088F91E481C49C0E900144FF6FF71C0E919
:10206000024104618461FFF7CBF808B1FEF7FBF988
:102070004FF48050079007A91448FFF71FF908B1E3
:10208000FEF7F1F91148FFF7CFFA08B1FEF7EBF9C7
:102090000B940BA90D480C94FFF774F808B1FEF7E8
:1020A000E2F96020CDE90004029400226946074865
:1020B0000494FFF753FA08B1FEF7D5F90348FFF788
:1020C0000FFA0EB010BD0000000400407C0100209B
:1020D00010B58CB024216846FEF743F9002415485A
:1020E000099413490A94C0E900144FF6FF71C0E93E
:1020F0000241046184610120CDE90004CDE90204BC
:102100000494CDE90540079469460A480894FFF70E
:1021100043F908B1FEF7A7F9099409A905480A94FB
:10212000FFF730F8002801D0FEF79DF90CB010BD84
:1021300000080040C40100201FB500211048009194
:10214000019102910D4A0391C0E900214FF6FF72FF
:10215000C0E9021201618161FFF752F808B1FEF790
:1021600082F94FF48050009069460548FFF7A6F8C1
:10217000002801D0FEF777F91FBD000000400140A4
:102180000C0200200C4810B50A4901604FF4E131FF
:102190004160002181600C22C160C0E904128161AC
:1021A000C161FFF7BFFB002803D0BDE81040FEF778
:1021B0005AB910BD0044004054020020FEE7FEE77B
:1021C0007047000010B500212DED028BB0EE408A63
:1021D0002948FFF757FA00EE100A284CF8EE400A9B
:1021E000C4ED050A10EE900A02F0E6F89FED240B0C
:1021F00053EC102B01F01EFF9FED230B53EC102B23
:1022000001F01AFE9FED220B53EC102B01F0A4FC01
:1022100001F0C8FB00EE900A1F48C4ED040A78EEF6
:10222000600AC4ED000A94ED020A30EE201A84ED33
:10223000021A90ED000A20EE202A9FED180AC2EE45
:10224000001A90ED012A22EE011A81EE002A31EEE9
:10225000821A94ED032AD0ED021A30EEC22A61EE02
:10226000821A81EE802A31EE020A84ED010AC4ED61
:10227000030ABDEC028B10BD7C0100201000002081
:102280000000000000789E40000000000000224096
:1022900000000000000024409C0200200000C84212
:1022A00010B5074C94ED020AFFF78CFF84ED000A8D
:1022B000D4ED010A30EE800A84ED010A10BD000061
:1022C000D8020020024600200146022A06D0042A35
:1022D00003D103480268506A516270470148F9E728
:1022E000C4010020340100207047FEF7D1BB00007C
:1022F00030B593B030216846FEF733F814210CA8AE
:10230000FEF72FF81D480025016841F0805101605B
:10231000006800F0805011901948016821F4404194
:1023200041F4004101600068022400F44040119033
:1023300001200090000401908001CDE906401920A1
:102340000890A820CDE9090404200B906846FEF708
:1023500025FD08B172B6FEE70CA90F2081E8310017
:102360004FF48050CDE90F0502210CA8FEF72AFC9E
:10237000002801D072B6FEE713B030BD40380240ED
:10238000007000400248016841F47001016070472C
:1023900088ED00E0F0B50268204B214C9F03214DF1
:1023A000214E984207D0B84205D0A04203D0A8429F
:1023B00001D0B04204D122F0700C4A6842EA0C020B
:1023C000984210D0B8420ED0A0420CD0A8420AD0F9
:1023D000B04208D0154CA04205D0154CA04202D006
:1023E000144CA04203D122F44074CA6822434C69C1
:1023F00022F08002224302608A68C2620A68826216
:10240000984201D109690163012141610169C9074C
:1024100003D0016921F001010161F0BD000001401C
:102420000004004000080040000C00400040014053
:10243000004401400048014010B5846842EA03228C
:1024400024F47F440A432243826010BD826822F054
:1024500070020A4342F007018160704730B5036A99
:10246000026A22F0010202624268846924F0730564
:102470000C682C4323F002058B682B430A4DA842BD
:102480000BD123F00805CB6822F440722B434D6931
:1024900023F0040315438A692A4342608461496832
:1024A0004163036230BD00000000014030B5026AA4
:1024B000036A23F010030362436884690D6824F4FF
:1024C000E64444EA05248D6822F0200242EA05121F
:1024D0000B4DA8420ED1CD6822F0800242EA0512CF
:1024E0004D6923F4406343EA85038D6922F040027D
:1024F00043EA85034360846149688163026230BDB9
:102500000000014030B5036A026A22F48072026260
:102510004268C46923F4007324F073050C682C43EB
:102520008D6843EA05230C4DA8420ED1CD6823F4F3
:10253000006343EA05234D6922F4405242EA051242
:102540008D6923F4806342EA05124260C4614968E0
:10255000C163036230BD00000000014030B5046A71
:10256000026A22F4805202624268C3690D6823F451
:10257000E64343EA05238D6824F4005444EA053415
:10258000064DA84204D14D6922F4804242EA8512E8
:102590004260C36149680164046230BD00000140CB
:1025A00010B5036A046A24F001040462846924F00B
:1025B000F00444EA021423F00A020A43846102622E
:1025C00010BD10B5036A046A24F010040462846923
:1025D00023F0A00324F4704444EA023243EA0111D8
:1025E0008261016210BD10B5806B0021C185C1847C
:1025F000FFF75EF810BD01680C3151E8002F22F49E
:10260000907241E80023002BF5D10168143151E8A4
:10261000002F22F0010241E80023002BF5D1016BCD
:10262000012909D101680C3151E8002F22F0100274
:1026300041E80023002BF5D1202180F84210002131
:102640000163704708B590F84210222901D002209A
:1026500008BD82684FF480539A4201D1016921B1CB
:10266000816A9A421BD04AB10AE00268816A5268C4
:10267000C2F308020A80816A891C08E0026972B10B
:102680000268526802F07F020A70816A491C816206
:10269000C18D491E0904090CC18503D01BE00268E5
:1026A0005268F1E70168CA6822F02002CA60016836
:1026B000CA6822F48072CA6001684A6922F0010285
:1026C0004A61202180F8421000214163026B012AF7
:1026D00003D0FFF7A3F9002008BD016301680C31A6
:1026E00051E8002F22F0100241E80023002BF5D121
:1026F00001680A68D20602D50A6849680091818D8E
:10270000FEF7D5FFE7E7000070B5044600680169F1
:10271000E26821F44051114301612169A068E26936
:1027200008436169114308432168CA6849F20C6390
:102730009A430243CA6020684169A26921F440714A
:102740001143416131492068884202D030498842B2
:1027500002D1FEF7E1FA01E0FEF7CEFAE2690023CA
:10276000192164253226B2F5004F626828D0A0FBFB
:102770000101930F9200FDF77DFD0146B0FBF5F0DE
:102780006FF01802504301EB800006EB0010B0FB25
:10279000F5F000F0F002B1FBF5F002EB0012B1FB36
:1027A000F5F06FF01803584301EB800006EB0010C2
:1027B000B0FBF5F000F00F0021681044886070BD98
:1027C000A0FB010192185B41FDF754FD0146B0FBEF
:1027D000F5F00201B1FBF5F06FF01803584301EB7F
:1027E000800006EBC000B0FBF5F000F0F80002EB53
:1027F0004002B1FBF5F0584301EB800006EBC0004E
:10280000B0FBF5F000F00700D6E700000010014033
:102810000014014081628285C28500214164222129
:1028200080F84210016921B10168CA6842F48072DF
:10283000CA6001684A6942F001024A610068C168E1
:1028400041F02001C1600020704700000148FEF700
:1028500031BF000054020020FEE700000E4810B512
:10286000B0F91A0001F0D0FA9FED0C1B53EC112BBC
:1028700001F0E2FA9FED0B1B53EC112B01F06CF908
:1028800001F090F800EE100A084880ED070ABDE854
:10289000104000F037B80000D8020020000000000F
:1028A000004CED40000000000078CE409C0200206B
:1028B0000E4810B5B0F91C0001F0A6FA9FED0C1BF4
:1028C00053EC112B01F0B8FA9FED0B1B53EC112BBD
:1028D00001F042F901F066F800EE100A084880EDB8
:1028E0000D0ABDE8104000F05BB80000D8020020DF
:1028F00000000000004CED40000000000078CE40D9
:102900009C0200201F49D1ED060A70EEC00A10EEAD
:10291000900AB0F17C5F06DA10EE900AB0F13F4FFA
:1029200001D2DFED190A1948194B90ED080A30EE73
:10293000200A10EE102A80ED080A9A4202DD9FED6F
:10294000150A06E010EE102A134B9A4203D99FEDA8
:10295000130A80ED080A91ED030A91ED041AD0EDF7
:10296000081A20EE200A01EE210AD0ED071A91ED97
:10297000051A70EEE11A01EE210A80ED090AC0ED98
:10298000070A70479C020020000000001000002091
:1029900000802C4400802C4400802CC400802CC477
:1029A0001F49D1ED0C0A70EEC00A10EE900AB0F18A
:1029B0007C5F06DA10EE900AB0F13F4F01D2DFEDF6
:1029C000190A1948194B90ED0C0A30EE200A10EE46
:1029D000102A80ED0C0A9A4202DD9FED150A06E0EE
:1029E00010EE102A134B9A4203D99FED130A80ED83
:1029F0000C0A91ED090A91ED0A1AD0ED0C1A20EE9D
:102A0000200A01EE210AD0ED0B1A91ED0B1A70EE9F
:102A1000E11A01EE210A80ED0D0AC0ED0B0A7047A4
:102A20009C020020000000001000002000802C44C8
:102A300000802C4400802CC400802CC403B4019876
:102A40004100009850EAC12018BF04204A0D18BF69
:102A500040F0010040F2FF72B2EB515F08BF40F05E
:102A60000200012808BF052002B070470907090EBF
:102A7000002804DB00F1E02080F80014704700F02B
:102A80000F0000F1E02080F8141D704700000000E6
:102A900070B5C1482DED020B2DED0E8B82B0119D4E
:102AA00025F000449FEDBEDB9FEDBFEB84423EDB93
:102AB000A4F140511098A1F17F6108430FD0BC48A8
:102AC000844202DC28D1109830B39DED100B02B087
:102AD000BDEC0E8B02B0BDE8704000F069BC9DED0E
:102AE000100B53EC1D2B51EC100B01F0A5F99DEDD3
:102AF000100B41EC180B53EC1E2B51EC100B01F09A
:102B00009BF953EC182B00F07FFF41EC100B02B047
:102B1000BDEC0E8B02B070BD0120FDF751FC02B080
:102B2000BDEC0E8B02B0BDE8704000F055BCA14872
:102B30009FEDA18B844256DA9DED100BB4F1795FC5
:102B40000ADA51EC100BFFF779FF042808BF00F0F8
:102B500053FC9DED100BDAE753EC102B51EC100BEE
:102B600001F06AF941EC190B95480621B0EE490ACB
:102B7000F0EE690A784400F09FFB53EC192B51ECFE
:102B8000100B01F059F941EC1A0B8E48B0EE490ACE
:102B9000F0EE690A0421784400F08EFB53EC192B07
:102BA00051EC100B01F048F953EC182B00F02CFFFE
:102BB00041EC100B51EC1A0B53EC102B00F0CCFF36
:102BC000CDE900019DED000B53EC102B9DED100B9A
:102BD00051EC100B01F030F99DED101B53EC112B53
:102BE00000F012FFD2E09DED100B51EC100B00F045
:102BF000BFFC53EC182B01F01DFA9FED730BCDE9D0
:102C0000000153EC102B9DED000B51EC100B01F06B
:102C100013F941EC190B6E480621B0EE490AF0EEAB
:102C2000690A784400F048FB53EC192B51EC100B67
:102C300001F002F941EC1B0B6648B0EE490AF0EED8
:102C4000690A0421784400F037FB53EC192B51EC4E
:102C5000100B01F0F1F853EC182B00F0D5FE41EC0D
:102C60001C0B51EC190B00F059FE41EC180B5A48A3
:102C70009FED5BABA04222DC53EC1C2B51EC1B0BF9
:102C800000F06AFFCDE900019DED000B51EC180B3F
:102C900053EC102B01F0D0F853EC182B00F0B4FEDD
:102CA00053EC1A2B01F0C8F853EC1D2B01F09AFAE3
:102CB00053EC1E2B01F0BEF941EC100B5FE08DEDE3
:102CC000008B002000909DED000B51EC180B53EC95
:102CD000102B00F099FE9DED000B41EC1E0B53EC08
:102CE000102B51EC100B01F0A7F853EC192B01F04D
:102CF000A1F953EC1E2B00F02FFF41EC190B53EC04
:102D00001C2B51EC1B0B00F027FF41EC1B0B53EC71
:102D10001A2B51EC190B01F08FF853EC1D2B01F01D
:102D200089F941EC190B53EC1A2B51EC180B01F0FB
:102D300083F853EC1B2B01F07FF853EC192B01F0B7
:102D400051FA9DED000B41EC180B53EC1A2B51EC92
:102D5000100B01F071F89FED249B53EC192B01F03F
:102D600069F941EC100B51EC180B53EC102B01F0EE
:102D700039FA53EC192B01F05DF941EC100B002DE1
:102D80003FF7C5AE51EC100B00F0FFFD41EC100B0E
:102D9000BDE60000000000000000F03F0000000061
:102DA000075C143326A6913C182D4454FB21F93FAF
:102DB0000000F07F0000E03F000000000000F03F56
:102DC000A0190000AE190000000000000000E03F64
:102DD000F2180000001900003333EF3F000000003C
:102DE0000000000000000040182D4454FB21E93F82
:102DF00070B59B482DED020B2DED068B079D25F040
:102E00000044A04218DC9748844202DC0AD10698AC
:102E100040B19DED060BBDEC068B02B0BDE87040E5
:102E200000F0C6BA002DCCBF9FED8F0B9FED900B2D
:102E3000BDEC068B02B070BD8F48A04215DD8F48F7
:102E4000A042D8BF4FF0FF3458DD9DED060B51EC8A
:102E5000100BFFF7F3FD042808BF00F0CDFA9DED3D
:102E6000060BBDEC068B02B070BD9DED060B51EC60
:102E7000100B00F07DFBCDE9060181489FED828BB0
:102E8000A0423CDD8248A0421FDD00249FED82ABC2
:102E90009DED060B53EC1A2B51EC100B00F0B4FD1A
:102EA0009DED060B41EC190B53EC1A2B51EC100B5A
:102EB00000F0C2FF53EC182B01F094F953EC192BDE
:102EC00000F04AFECDE9060149E09DED060B012424
:102ED00053EC182B51EC100B00F096FD9DED060BFA
:102EE00041EC190B53EC182B51EC100B01F07AF953
:102EF00053EC192B00F030FECDE906012FE06848B5
:102F0000A0421FDD02249FED689B9DED060B53EC54
:102F1000192B51EC100B00F08FFF53EC182B00F025
:102F200073FD9DED060B41EC180B53EC192B51EC86
:102F3000100B01F057F953EC182B00F00DFECDE902
:102F400006010CE09DED060B032453EC102B9FEDC6
:102F5000580B51EC100B00F0FFFDCDE906019DED83
:102F6000060B53EC102B51EC100B00F065FF41ECFD
:102F7000180B53EC182B00F05FFF41EC190B4E4877
:102F80000621B0EE490AF0EE690A784400F094F99F
:102F900053EC182B51EC100B00F04EFF41EC180BCA
:102FA0004648B0EE490AF0EE690A0521784400F07F
:102FB00083F953EC192B51EC100B00F03DFF41EC61
:102FC000100B51EC180B53EC102B002C0EDA00F008
:102FD0001BFD9DED061B53EC112B00F02DFF9DED0D
:102FE000061B53EC112B01F025F835E000F00CFD29
:102FF0009DED061B53EC112B00F01EFF41EC100B56
:103000002F48784400EBC40090ED001B51EC100BEE
:1030100053EC112B01F0E6F89DED061B53EC112B40
:1030200001F0E0F841EC100B2648784400EBC400B6
:1030300090ED001B51EC100B53EC112B00F0FAFF3C
:1030400041EC100B002DA2BFBDEC068B02B070BD91
:1030500051EC100B00F099FC41EC100B01E7000063
:10306000000010440000F07F182D4454FB21F93F6C
:10307000182D4454FB21F9BF0000DC3F0000203E26
:103080000000F33F00000000000000000000F03FDF
:103090000000E63F000000000000000000000040CB
:1030A0000080034000000000000000000000F83F26
:1030B000000000000000F0BF42160000F8150000FC
:1030C000821500003A15000070B56B4E2DED040B13
:1030D0002DED028B82B0DDF81CC0DDE905235C42DA
:1030E0002CF000411C4341EAD474049D22F00040BE
:1030F000B44205D86C422C4340EAD474B4420BD994
:103100009DED061B9DED040B02B0BDEC028B04B0DF
:10311000BDE8704000F056B9ACF14054A4F17F64B2
:103120001C430BD0022404EAAC7444EAD274054375
:103130009FED538B9FED542B07D015E09DED040BB5
:1031400051EC100B00F068F942E0002C11BF012C8B
:103150009DED040B02B0BDEC028B04BF04B070BD4A
:10316000022C38D0032C3BD00B439FED491B9FED25
:103170004A0B0AD0B14218D1B04209D121F08041A6
:1031800020F08040079105900FE0002A15DA10E04A
:10319000434B7B44002C08BF93ED000B0DD0012C5A
:1031A00010D0022C17D0032C1AD0B0421DD1002A07
:1031B00003DAB0EE410AF0EE610A02B0BDEC028B18
:1031C00004B070BD93ED000B51EC100B00F0DDFB73
:1031D00041EC100BF1E7B0EE480AF0EE680AECE7BC
:1031E000B0EE420AF0EE620AE7E7401A00153C280A
:1031F000C8BF8DED000B19DCBCF1000FBEBF10F194
:103200003C0F9FED290B8DED000B0FDB9DED060BA9
:1032100053EC102B9DED040B51EC100B00F09CFCBB
:1032200000F0A6F900F0F8F8CDE90001002C08BF85
:103230009DED000BC1D0012C10D0022C9FED1C0B7A
:1032400053EC102B9DED000B51EC100B0DD000F04A
:10325000C9FF53EC182B00F0C5FFB9E7019880F0C7
:10326000004001909DED000BA7E700F0BBFF53EC81
:10327000182B00F0DFFEABE70000F07F000000003D
:10328000182D4454FB210940182D4454FB2109C03A
:10329000182D4454FB21F9BF182D4454FB21F93F4C
:1032A0006A140000000000000000000000000000A0
:1032B000075C143326A6A13C70B504462DED028BA5
:1032C0004D1E00EBC500B0EE408AF0EE608A90ED36
:1032D000000B35F0060017D053EC182B51EC100BF7
:1032E00000F0AAFD41EC100B6D1E04EBC50090ED43
:1032F000001B51EC100B53EC112B00F085FB41EC43
:10330000100B35F00600E7D1022D36D0042D1CD06D
:10331000062D1CBFBDEC028B70BD53EC182B51EC7D
:10332000100B00F089FD94ED0A1B53EC112B00F0FB
:103330006BFB53EC182B00F07FFD94ED081B53EC56
:10334000112B00F061FB41EC100B53EC182B51ECEE
:10335000100B00F071FD94ED061B53EC112B00F0E7
:1033600053FB53EC182B00F067FD94ED040B53EC6A
:10337000102B00F049FB41EC100B53EC182B51ECD7
:10338000100B00F059FD94ED021B53EC112B00F0D3
:103390003BFB53EC182B00F04FFD94ED001B53EC5E
:1033A000112B00F031FBBDEC028B41EC100B70BD1A
:1033B00010B553EC102B51EC100B00F025FB41EC39
:1033C000100B10BD10B553EC112B51EC100B00F08D
:1033D0001BFB41EC100B10BD9FED050B10B553EC22
:1033E000102B51EC100B00F0B7FB41EC100B10BD93
:1033F00000000000000000009FED050B10B553EC2D
:10340000102B51EC100B00F017FD41EC100B10BD10
:10341000000000000000001010B541EC100BFFF799
:10342000E7FC51EC100B10BD2DE9FF4F89B017469A
:10343000DDE9165200244D4E884681462C80A24676
:10344000B07B694600F072F94FF0FF3B18B1584667
:103450000DB0BDE8F08F708910F0140F3ED00099C8
:1034600009BA21F0FF029DF803100A433A6001995E
:103470009DF8073009BA21F0FF0119437960029BDA
:103480009DF80B401BBA23F0FF032343BB60039C52
:10349000121424BA24F0FF0C9DF80F4009144CEAD2
:1034A000040C1024C7F80CC01B144FEA2C4712FB65
:1034B00002F211FB012113FB03F217FB0722114457
:1034C000A1F17061B1F1007F04D900F077F9A5F89E
:1034D00000A0BCE7298841F4807129804206694632
:1034E00011D50A19A41D13885BBAA8F800305388B7
:1034F0005BBAA8F80230928852BAA8F804202A8849
:1035000042F008022A8010F4C07F11D00A19A41DCD
:1035100013885BBAA9F8003053885BBAA9F8023067
:10352000928852BAA9F804202A8842F070022A80B0
:10353000800716D00C44E07800F0C00500F03F0191
:103540006078C00706D0C80801F007013268491C3E
:1035500002B190476078000703D5716809B1A809E6
:1035600088470C9800F02EF8002071E778030020BF
:1035700082B0CDE9000121F0004001909DED000BEB
:1035800002B051EC100B7047FDF78AFAFEF7B0FE5F
:10359000FEF7F0FBFEF750FDFEF7B0FCFEF7F2FD84
:1035A000FEF718FDFEF794FDFEF788FCFEF7C4FD5C
:1035B000012202490248FEF723FAFEE7F802002042
:1035C000540200207047000070B50D462DED0C8BA5
:1035D0008EB006460CA902A81446F7EE00BACDE953
:1035E00000010BAB03AA09A907A8FFF71DFF20B133
:1035F00001200EB0BDEC0C8B70BDBDF80800C005FD
:103600007ED59DED030AF8EEC00A9FED450AB0EEA7
:1036100000CA60EE809ADDED040AF8EEE00A69EE79
:103620008CCA20EE808ADDED050AF8EEE00A60EE35
:10363000808ADDED060AF8EEE00A20EE809AB8EE08
:10364000000A28EE00BA2BEE090A0CEEA80A10EECA
:10365000100A00F0B1FE41EC100BFFF719FA9FEDD4
:1036600031AB51EC100B53EC1A2B00F0E5FB00F0E2
:1036700099F92BEE080A28EE8CDA30600DEE680A14
:1036800030EE2B0A10EE100A00F096FE2DEE090A1D
:1036900041EC1B0B0CEE880A10EE100A00F08CFEB9
:1036A00041EC100BB0EE4B1AF0EE6B1AFFF70CFD6D
:1036B00053EC1A2B51EC100B00F0BEFB00F072F92A
:1036C00029EEA90A286008EE080A08EEE80A09EEC1
:1036D000490A10EE100A00F06FFE28EE280A41ECAD
:1036E0001B0B09EE890A20EE0C0A10EE100A00F0FE
:1036F00063FE41EC100BB0EE4B1AF0EE6B1A00E0DB
:103700000CE0FFF7E1FC53EC1A2B51EC100B00F02E
:1037100093FB00F047F9206000206AE7022068E789
:10372000000080306666666666A64C402DE9F84368
:10373000214C0646174694F8240089464FF0FF387E
:1037400090B3A07A80B320686B460222817A6068C9
:103750000078FEF7C7FA38BBBDF8000045BAB5429D
:1037600002D2002038701FE060684188B5EB510F2D
:1037700011D9216800786B46497C0122FEF7B2FA24
:1037800090B99DF80000C00605D500F017F86FF05D
:103790000100BDE8F8832068F2B24B46C17A606848
:1037A0000078FEF79FFA08B14046F2E7B5FBF6F065
:1037B000401E38700020ECE760000020F8B5564C41
:1037C0004FF0FF36A07A00287DD000258DF80050FC
:1037D00020686B460122C17B60680078FEF7ADFA75
:1037E000002870D120686B4601224179606800781A
:1037F000FEF7A3FA002866D120686B460122017902
:1038000060680078FEF799FA00285CD194F82400EB
:10381000E0B30C208DF8000020686B46012201798E
:1038200060680078FEF789FA002872D13220FCF730
:1038300077FEC0208DF80000A07AC00702D0E020FB
:103840008DF8000020686B460122017960680078DD
:10385000FEF773FA00285CD1607C18B102208DF865
:10386000000001E08DF8005020686B460122C17B0A
:1038700060680078FEF761FA28BB8DF80050206878
:103880006B4601224179606800783EE0FFE7042042
:103890008DF8000020686B4601220179606800788D
:1038A000FEF74BFA78B9A07C90B9A07AC0070FD088
:1038B0005FF060008DF8000020686B4601220179FE
:1038C0006068007800E024E0FEF737FA08BB01E00A
:1038D0004020EFE73220FCF723FE607C18B1012086
:1038E0008DF8000001E08DF8005020686B46012241
:1038F000C17B60680078FEF720FA50B92068064B5B
:1039000001224179606810330078FEF716FA00282A
:1039100000D03046F8BD00006000002000B52DED5D
:10392000048B83B041EC190B00F090FB41EC180BB9
:1039300018EE100A18EE901A8DED008B002818BFB3
:103940000120084320F00040C0F17F6000F1E0401A
:10395000C00F14D019EE101A19EE900A8DED009BCD
:10396000002918BF0121084320F00040C0F17F600A
:1039700000F1E040C00F04BF0120FCF721FD51EC35
:10398000180B03B0BDEC048B00BD81F00041704703
:1039900080F00040704721F00041704720F0004067
:1039A0007047000021F00042A2F16052B2F5801F82
:1039B00001F0004328BFD2F17F6C0BD95FEA001CF5
:1039C00043EAC20242EB507018BF704728BF20F094
:1039D00001007047B2F5801FBCBF184670474FEA20
:1039E000410C1CF5001F02D2084600F05BBD70B50B
:1039F00000F0CCFA00000089FFF7F6BF4FF000405E
:103A0000A0F580007047000010B591EA030F48BF91
:103A100083F0004300F1EE83841A71EB030C05D2AE
:103A2000121943EB0C03001B61EB0C01DFF824E1DE
:103A30004FEA1154A4EB135C1EEA430F18BF9EEA31
:103A4000445F73D023EA0E03DCF1200E21EA045117
:103A500043F4801332D322FA0CFE10EB0E0023FA4B
:103A60000CFE41EB0E01CCF1200E03FA0EFE10EB22
:103A70000E0051F10001B1F5801FCCF1200E32D2C1
:103A800001EB045112FA0EF2BDE8104058BF704726
:103A9000401C38BF5FEA420218BF7047002814BFBD
:103AA00020F0010041F100014FEA410313F5001F2E
:103AB00038BF7047A1F1C04100F0B6BA012A43EB0C
:103AC0000302ACF1200CDCF11F0E32BF4FF0000EF0
:103AD00023FA0CF310EB030041EB0451B4EB115F3C
:103AE000D0D0A1EB045101F5801149085FEA300004
:103AF00001EB04510ED350F1000038BF12FA0EFE54
:103B000008D1BDE81040C9E7401C38BF5FEA420257
:103B1000CAD1C3E7BDE810404FEA410313F5001FC7
:103B200038BF7047A1F1C04100F07EBA9EEA445F01
:103B300008D011EA5E0FBDE8104004BF01F000415B
:103B400000207047BDE8104070B500F01FFA00BFBC
:103B500064FBBE3E0000E0FF2DE9C04130B4DFF859
:103B6000A0C23CEA111418BF3CEA131400F0EC8028
:103B700081EA03051CEA111444EAD57418BF1CEA53
:103B8000131500F0C780A4EB05044FF0004545EA8B
:103B9000C12145EAC32341EA505143EA525304F19B
:103BA0007F74994204F500344FEAC0204FEAC222E4
:103BB00008BF904200F09C804FEA13650FF2401658
:103BC000765D4FEA134506FB05F7C7F1807706FBE4
:103BD00007F74FEAD737A7FB03687642C8F5803866
:103BE000A7FB06CE38BFA8F1010807FB08E64FF097
:103BF000000EA6FB028CE6FB03CEDCF1000CCEF13E
:103C0000004E38BFAEF1010EA6FB0C584FF0000776
:103C10004FF00005E6FB0E87A1FB08C6A0FB07CE10
:103C200016EB0E0645F10005E1FB076515F1E04EC8
:103C30007EBFA4F580345FEA46066D4116F1800729
:103C400045F100054FEA17274FEA066647EA056780
:103C5000A6F1DE46B6F1805F4FEA15251FD938463A
:103C600024F0010C05EBC471BCF1FE6F01EB0C11EB
:103C700002D8F0BCBDE8008124425CBF01F5801E83
:103C80009EEAC47F02D4F0BCBDE80081244238D44F
:103C9000F0BCA1F1C041BDE8004100F0C5B94FEA58
:103CA000D22242EA43524FEAD323A7FB02864FEACD
:103CB000D02040EA415007FB03661EEA0E0F4FEA90
:103CC000D12105FB026658BFA6EB0056B6EB0056A5
:103CD0004FEA520E4EEAC37E18EB0E0E56EB530E11
:103CE000BDD518EB02085E417F1C55F10005B6E713
:103CF0004FF480154FF000074FF000064FF000081A
:103D0000ADE7F0BC4FF0000001F1C04101F000410F
:103D1000BDE8008111EA0C1F0CEA131500D00CE07D
:103D200013EA0C1F00F025804FF00000F0BC81EA80
:103D3000030101F00041BDE80081F0BCBDE8004195
:103D400081EA030100F070B9F0BCBDE8004170B534
:103D500000F01CF9097EFC3E00F007B881EA03017F
:103D60004FF0000001F00041704781EA030100F0CC
:103D70005BB9F0BCBDE800414FF00000214970473D
:103D8000FFFDFBF9F7F5F4F2F0EEEDEBE9E8E6E420
:103D9000E3E1E0DEDDDBDAD8D7D5D4D3D1D0CFCDA7
:103DA000CCCBCAC8C7C6C5C4C2C1C0BFBEBDBCBBE0
:103DB000BAB9B8B7B6B5B4B3B2B1B0AFAEADACABDB
:103DC000AAA9A8A8A7A6A5A4A3A3A2A1A09F9F9EB5
:103DD0009D9C9C9B9A999998979796959594939367
:103DE000929191908F8F8E8E8D8C8C8B8B8A8989FE
:103DF0008888878786858584848383828281818081
:103E00000000FF070000F87F10F0004248BF40426A
:103E1000B0FA80F310FA03F10AD0C3F11D0303F5E1
:103E200080634FEA415002EB035202EBD12170470D
:103E30004FF0000070470000DFF848C170B51CEA81
:103E4000111E1EBF1CEA13159EEA0C0F95EA0C0FFB
:103E500000F06F8081EA030423EA4C134EEAD47E1B
:103E600021EA4C1141F4801143F48013AE44A1FBCC
:103E7000024CA0FB0365AEF17F7E361955EB0C05B5
:103E8000A1FB034C4CF10003A0FB021C16EB0C063B
:103E9000654153F10003094218BF46F0010613F4CF
:103EA000007F0BD14FEA03314FEA0530340341EA7A
:103EB000155140EA16506FF003020AE04FEAC321A1
:103EC0004FEAC520F40241EA555140EA56506FF0DE
:103ED000020202EB2E4201EB025585EACE710AD0B6
:103EE0005FEA440C18BF24F0004450F1000041F197
:103EF000000120EAD47040F2FE7C624500D270BD21
:103F0000A84214BF4FF080444FF04044002E08BF39
:103F10000024BEF1806FA8BFA1F1C041BDE8704090
:103F200080F282804FF0000001F1C04101F00041B9
:103F300070479EEA0C0F0CEA131518BF95EA0C0F98
:103F400006D04FF0000081EA030E0EF0004170BD74
:103F500000F01CF88900013E00F007B800F009B835
:103F60004FEA430C5FEA5C5C08D081EA030100F091
:103F70005BB84FEA410C5FEA5C5CF6D14FF00000A1
:103F8000014970470000FF070000F87F0EF1020EA4
:103F90002EF0030E5EF8046B364205D4012A43EB83
:103FA000030515F5001F12D8012841EB010C1CF583
:103FB000001F0CD80ED14FEAD17C15F5001F0CEB79
:103FC0004C0C0CF1020C08BF4CEBD37C04E04FF01E
:103FD000080C01E04FEAD37C0CEB4C0526FA05F601
:103FE00006F00706B6F1040C06D20EEB860CBDE80F
:103FF00070404CF0010C6047DFE80CF0090B020246
:104000004FF000414FF00000A1F5002170BD1946AE
:104010001046012851EB010418BFD4F5001484BFE9
:10402000002001F0004170BD0808A0F500114FEA22
:104030003101704791EA030F10B581F000413FF55F
:10404000EBAC83F0004300F0D5B800002DE9F0415F
:1040500001F5801CBCF5001FC0F2A9804FEA115C7D
:1040600021EA0C510CF1FD0C41F480115FEA5C0C6B
:104070000CF5C07C01D34000494130A4890241EADB
:10408000905187028E0E0A0CA45D04FB04F602FB1D
:1040900006F6C6F14046A4FB0662F60D46EA422645
:1040A00006FB06F4A4FB01235242C3F1404338BF90
:1040B0005B1EA6FB02420024E6FB0324D20B42EA6D
:1040C0004446A6FB0623A1FB02E2A3FB07E4E3FBB5
:1040D00061426442C2F1404E38BFAEF1010EA6FB10
:1040E00004234FF00002E6FB0E32A2FB034634002D
:1040F000E2FB6264A1FB06E6A4FB07E8E4FB61685F
:104100007642C8F1405838BFA8F10108A2FB06E486
:10411000A3FB08E5E2FB6854A1FB05E6A7FB04E866
:10412000E1FB648618F1200556F10006A809A8F104
:104130001B08B10908F03F08B8F10A0F40EA866091
:104140001CD901EB0C51BDE8F08100BFFCF5EEE895
:10415000E2DDD8D3CFCBC7C3C0BDB9B6B4B1AEAC26
:10416000A9A7A5A3A19F9D9B9A9896959392908F9E
:104170008D8C8B898887868584838281A0FB0068EB
:1041800000FB01F208EB4208B8EB872807D534188A
:1041900058EB0104D5D5401C51F10001D1E7341A88
:1041A00078EB0104CDD4401E71F10001C9E75FEA4C
:1041B0004C0C5FEA9C5C0DD105D34FF0000001F080
:1041C0000041BDE8F081BDE8F04170B5FFF7DEFECB
:1041D0006DDBFFBEBDE8F0414FF0000000497047C5
:1041E0000000F87F10B591EA030F48BF83F0004349
:1041F0003FF512AC841A71EB030C07D212198CF044
:10420000004C43EB0C03001B61EB0C01DFF8A4E155
:104210004FEA1154A4EB135C1EEA430F18BF9EEA49
:10422000445F00F0B08023EA6E03524221EA045159
:10423000C3EB6E0338BF5B1EDCF1200E25D322FAE0
:104240000CFE10EB0E0043FA0CFE41EB0E01CCF11C
:10425000200E03FA0EFE10EB0E0051F10001CCF11E
:10426000200E29D412FA0EF201EB0451BDE81040E1
:1042700058BF7047401C1CBFB2F1004F7047002868
:104280000CBF491C20F00100704712EB020E43EBFB
:10429000030218BF4FF0010E4EEA4202ACF1200CAF
:1042A000DCF11E0E54D943FA0CFE10EB0E0051F156
:1042B000FF31CCF11E0ED5D50EF1010E12FA0EFE15
:1042C000404141EB010101EB445C5FEA5C5C10D9C9
:1042D00010EBDE7001EB045138BFBEF1004FBDE8BA
:1042E000104018BF704700280CBF491C20F0010087
:1042F000704730D24FEAD42C11F5001124F4006439
:104300001BD0B1FA81F20B3AA41AA41ED2F12003F9
:10431000914030FA03F31943904001EBCC71002C2B
:1043200001EB0451BDE81040A8BF704701F1C04146
:104330004FF0000001F000417047B0FA80F310FA2E
:1043400003F100D110BDE41A173C4805C90AE4E79F
:1043500001EB045110BD491001EB0451BDE81040C0
:104360004FEA300002E04FF0000170474A0008BFFA
:104370000042F8D0B2F5001F28BF704701F000419D
:104380004FF0000070479EEA445F07D011EA5E0FCD
:10439000BDE8104004BF002100207047BDE8104078
:1043A00070B5FFF7F3FD00BF40DFF63E83F000413C
:1043B000104670470000E0FF43004FEAD30C4FEA7D
:1043C0003C0C43401FBF40070CF1605113F0FE4FFF
:1043D00070471CF0006F03D100200CF000417047C3
:1043E0000CF0004343EA507010B540EACC0000F0F6
:1043F0000EF800BF000000924FEA0001FFF714BE64
:104400004FF000414FF00000A1F5002170470EF180
:10441000020E2EF0030E5EF8044B244204D44FEA41
:104420004102B2F17F4F11D84FEA4003B3F17F4F01
:104430000CD80ED14FEAD07CB2F17F4F0CEB4C0C74
:104440000CF1020C08BF4CEBD17C04E04FF0080CDF
:1044500001E04FEAD17C0CEB4C0324FA03F404F0A6
:104460000704B4F1040C06D20EEB840CBDE8104036
:104470004CF0010C6047DFE80CF0070802024FF037
:104480000040A0F5800010BD0846420018BFD2F1E0
:10449000807288BF00F0004010BD4FF04070E1EE28
:1044A000100A7047FF2141EAD050C0057047000054
:1044B00000000000000001020304060708090000D4
:1044C00000000102030475191A0C6A231B1C1F202B
:1044D0007274433B4138393A6B6C376F06246D6E0A
:1044E00070006800000476005401F7FD0001000030
:1044F00083000000000800000001001832000500E1
:10450000000020410000D242295C0F3E9A99993E5A
:104510003333733F295C0F3E555555555555C53FAF
:104520007D6FEB0312D6D4BF5544880E55C1C93FE9
:104530003B8F68B52882A4BF88B20175E0EF493F80
:1045400009F7FD0DE13D023F4B2D8A1C273A03C0C0
:10455000C88A599CE52A004059018D1B6C06E6BFAC
:1045600082922EB1C5B8B33F4FBB610567ACDD3F4A
:10457000182D4454FB21E93F9BF681D20B73EF3F8A
:10458000182D4454FB21F93FE2652F227F2B7A3C02
:10459000075C143326A6813CBDCBF07A8807703CBB
:1045A000075C143326A6913CC4EB98999999C9BF2E
:1045B000711623FEC671BCBF6D9A74AFF2B0B3BF63
:1045C0009AFDDE522DDEADBF2F6C6A2C44B4A2BF23
:1045D0000D5555555555D53FFF8300922449C23F8F
:1045E0006E204CC5CD45B73F513DD0A0660DB13FC3
:1045F000EB0D76244B7BA93F11DA22E33AAD903FD5
:104600000000000000000000284600080000002014
:1046100098000000D0010008C04600089800002063
:1046200050090000EC01000801000000100000002B
:10463000000000000024F400000000000000000062
:10464000000000000000000000000000000000006A
:10465000000000000000000000000000000000005A
:10466000000000000000000000000000000000004A
:10467000000000000000000000000000000000003A
:104680000000000000000000C6440008E2440008EA
:10469000000000000000000000000000000000001A
:1046A000000000000000000000000000000000000A
:1046B000F0440008010000000100000001000000BB
:040000050800019559
:00000001FF
