:020000040800F2
:10000000700900203D0200083D3100083927000832
:10001000393100087D0E00088D3D00080000000009
:10002000000000000000000000000000AD320008E9
:10003000C90E0008000000006D310008613600089C
:10004000570200085702000857020008570200082C
:100050005702000857020008CD0E0008570200089A
:100060005702000857020008E50E00085702000872
:1000700057020008570200085702000857020008FC
:10008000570200085702000857020008000000004D
:10009000000000000000000000000000F10E000859
:1000A00057020008570200085702000857020008CC
:1000B00057020008570200085702000857020008BC
:1000C00057020008570200085702000857020008AC
:1000D00057020008570200087D3D0008000000009C
:1000E000D90E00085702000857020008000000005F
:1000F000000000000000000000000000570200089F
:1001000000000000570200085702000857020008CC
:1001100000000000000000000000000000000000DF
:10012000570200085702000857020008570200084B
:10013000570200080000000000000000000000005E
:10014000000000000000000000000000570200084E
:10015000570200085702000857020008570200081B
:1001600057020008570200080000000000000000CD
:10017000000000000000000000000000000000007F
:10018000000000005702000800000000000000000E
:100190005702000800F002F800F041F80AA090E8C9
:1001A000000C82448344AAF10107DA4501D100F032
:1001B00036F8AFF2090EBAE80F0013F0010F18BFBE
:1001C000FB1A43F001031847206100004061000062
:1001D000103A24BF78C878C1FAD8520724BF30C873
:1001E00030C144BF04680C60704700000023002445
:1001F00000250026103A28BF78C1FBD8520728BF37
:1002000030C148BF0B607047782900F0D7800020CC
:1002100070471FB505F07DFF1FBD10B510BD00F084
:10022000AFF91146FFF7F5FF04F040F800F0CDF903
:1002300003B4FFF7F2FF03BC00F0D0F90948804790
:1002400009480047FEE7FEE7FEE7FEE7FEE7FEE7B8
:10025000FEE7FEE7FEE7FEE704480549054A064BD0
:10026000704700000937000895010008700300205E
:1002700070090020700500207005002053EA020C70
:1002800000F069802DE9F04B4FF00006002B1FBFF6
:10029000B3FA83F503FA05F424FA05F65E4012BFBB
:1002A0001643B2FA82F502FA05F4C5F120051EBF25
:1002B00022FA05FC44EA0C04203556EA044C4FEAC5
:1002C000144418BF641C4FF000084FF0000990421E
:1002D00071EB030C39D3002919BFB1FA81F701FA88
:1002E00007F6B0FA80F700FA07F6C7F120071EBF3D
:1002F00020FA07FC46EA0C062037B6FBF4FCA7EB15
:100300000507103F07F01F0BCBF120062CFA06F66D
:100310000CFA0BFB44BFB3460026202FA4BF5E4659
:100320004FF0000B5BEA060C08BF4FF0010B19EB16
:100330000B0948EB0608ABFB027C06FB02CC0BFB6F
:1003400003CCC01B71EB0C01C1E70B4602464146D2
:100350004846BDE8F08B13B5084318BF4FF0FF3097
:100360000146AFF30080BDE81C40704770B50446FD
:1003700085690068C10601D5302600E02026C00747
:1003800007D070BDD4E9012130469047206A401C57
:1003900020626D1EF6D570BD70B504468569007883
:1003A000C00707D170BDD4E9012120209047206A01
:1003B000401C20626D1EF6D570BD000070B504466D
:1003C0000D4621461068AFF300802188090502D54B
:1003D0000F4A7A4402E00E4A7A440E32002104F1B8
:1003E000240305E000F00F060009965D5E54491CE9
:1003F0000028F7D120780023000704D5702D02D003
:1004000009B1022311322046BDE8704000F056B811
:10041000605D000010B5431C02E010F8011B71B1D3
:100420008107FAD14FF0013202C88C1A8C4314EACA
:10043000C211F9D0C01A0A0603D0C01E10BDC01ADE
:1004400010BD0A0401D0801E10BD0902FCD0401E60
:1004500010BD4FF0000200B5134694469646203971
:1004600022BFA0E80C50A0E80C50B1F12001BFF46D
:10047000F7AF090728BFA0E80C5048BF0CC05DF8D3
:1004800004EB890028BF40F8042B08BF704748BF21
:1004900020F8022B11F0804F18BF00F8012B704795
:1004A00070477047704710B500F062F8006810BDE3
:1004B00010B5044600F05CF8046010BD2DE9F0476B
:1004C0000D4699469246044600F1240801688806C4
:1004D00004D5E06921F01001216000E00120A8426C
:1004E00001DD471B00E00027A1697A1902EB090032
:1004F000081AA0612078C00602D42046FFF736FF14
:10050000002608E0D4E901211AF806009047206A85
:10051000401C761C20624E45F4DB2078C0060AD5CC
:100520002046FFF723FF06E0D4E901213020904761
:10053000206A401C2062381EA7F10107F4DC07E0A6
:10054000D4E9012118F805009047206A401C206278
:10055000281EA5F10105F3DC2046FFF71DFF2078DA
:10056000000602D50220BDE8F0870120FBE700006D
:1005700000487047380000200048704738000020CD
:100580007546FFF7F9FFAE4605006946534620F071
:100590000700854618B020B5FFF75EFEBDE8204095
:1005A0004FF000064FF000074FF000084FF0000B2F
:1005B000AC46ACE8C009ACE8C009ACE8C009ACE89E
:1005C000C00921F007018D46704710B50446AFF30E
:1005D00000802046BDE81040FFF72ABE01491820E0
:1005E000ABBEFEE72600020070470000B0B540F247
:1005F0009805C2F2000568790138082827D8DFE895
:1006000010F009002900550073009700B700E400BE
:1006100000011E012878E0B140F26830C2F200000B
:100620009FED990A90ED001AF0EE400A02F034F9BD
:1006300004F0D4F840F25431C2F2000101280860FD
:1006400007D14FF48070288002206871B0BD01206E
:100650006871B0BD68780024C4F20204B0B1A87912
:10066000A0B99FED820AF0EE400AB0EE401A02F007
:1006700013F90120A87140F2E800C2F200006421E1
:10068000018320461021012200F0E6FDE8780028D1
:10069000DFD0204610210022002400F0DDFD40F2D2
:1006A0000130AC71EC706C70A880B0BD2879012865
:1006B00011D1A87978B99FED720A9FED721AF0EE08
:1006C000400A02F0E9F80120A87140F2E800C2F205
:1006D000000048210183E8780028BAD00020E870A3
:1006E0000420A5F80500B0BD287901280BD1A87910
:1006F00048B9DFED620A9FED601ABBEE040A02F012
:10070000CBF80120A87040F26830C2F2000090EDF2
:10071000000ABDEEC00A10EE100A002848BF404291
:10072000502896DB0020A87040F20250A880B0BD8F
:100730002879022811D1A87978B99FED500A9FED48
:100740004B1AF0EE400A02F0A7F80120A87140F21F
:10075000E800C2F2000096210183E87800283FF407
:1007600078AF4FF4C020C5F8030001206870B0BD19
:1007700068780024C4F20204B8B1A879A8B99FED42
:100780003B0AF0EE400AB0EE401A02F085F8012074
:10079000A87140F2E800C2F200004FF4FA71018340
:1007A00020461021012200F057FDE87800283FF490
:1007B00050AF204610210022002400F04DFD0720FC
:1007C000EC706C70A5F80500B0BD687878B99FED45
:1007D000280A9FED261AF0EE400A02F05DF801208B
:1007E000A87140F2E800C2F2000055210183E878C8
:1007F00000283FF42EAF0020E8700820A5F805007F
:10080000B0BDA87978B99FED1A0ADFED1A0A9FEDFD
:100810001A1A02F041F80120A87140F2E800C2F271
:10082000000096210183E87800283FF412AF0020F1
:10083000E870012068700920A5F80500B0BD68784F
:1008400000283FF406AFA879002818BFB0BD9FED7F
:10085000070AF0EE400AB0EE401A02F01DF846F228
:10086000AF20C0F6000003F093FAB0BD0000000016
:100870000000C842000048430080C0430000C8C2D6
:10088000000070C20000AA420000704270B540F241
:100890009805C2F2000568790138132832D8DFE8DC
:1008A00010F0140034005C007A009E00BE00EB00E3
:1008B0000701300150017D01A201C201F5011502BD
:1008C000420261028202A002C2022878E0B140F234
:1008D0006830C2F200009FEDE60A90ED001AF0EEDB
:1008E000400A01F0D9FF03F079FF40F25431C2F21F
:1008F00000010128086007D14FF480702880022091
:10090000687170BD0120687170BD68780024C4F200
:100910000204B0B1A879A0B99FEDD60AF0EE400A62
:10092000B0EE401A01F0B8FF0120A87140F2E800D3
:10093000C2F200006421018320461021012200F050
:100940008BFCE8780028DFD020461021002200240C
:1009500000F082FC40F201301BE12879012811D11E
:10096000A87978B99FEDC40A9FEDC41AF0EE400A49
:1009700001F092FF0120A87140F2E800C2F20000ED
:1009800048210183E8780028BED00020E8700420C8
:10099000A5F8050070BD287901280BD1A87948B9C0
:1009A0009FEDB70ADFEDB70A9FEDB71A01F074FFAC
:1009B0000120A87040F26830C2F2000090ED000AF9
:1009C000BDEEC00A10EE100A002848BF4042502871
:1009D0009ADB0020A87040F20250A88070BD2879F0
:1009E000022811D1A87978B99FEDA30A9FEDA11A29
:1009F000F0EE400A01F050FF0120A87140F2E8003B
:100A0000C2F2000096210183E87800283FF47CAF11
:100A10004FF4C020C5F803000120687070BD6878ED
:100A20000024C4F20204B8B1A879A8B99FED910AD4
:100A3000F0EE400AB0EE401A01F02EFF0120A8713E
:100A400040F2E800C2F200004FF4FA710183204640
:100A50001021012200F000FCE87800283FF454AF98
:100A6000204610210022002400F0F6FB0720EC7045
:100A70006C70A5F8050070BD687878B99FED7C0AA8
:100A80009FED7C1AF0EE400A01F006FF0120A871EC
:100A900040F2E800C2F200004B210183E878002810
:100AA0003FF432AF0020E8700820A5F8050070BDC3
:100AB000A87948B99FEDE70ADFEDEF0A9FEDE81A44
:100AC00001F0EAFE0120A87040F26830C2F2000096
:100AD00090ED000ABDEEC00A10EE100A002848BFD3
:100AE000404205283FF710AF0020A8700120287071
:100AF00046F2AF20C0F6000003F04AF90920687101
:100B000070BD287800283FF4FFAE40F26830C2F292
:100B100000009FEDD10A90ED001AF0EE400A01F0BE
:100B2000BBFE03F05BFE40F25431C2F2000102282A
:100B300008607FF4E9AE4FF4807028800A20687165
:100B400070BD68780024C4F20204B0B1A879A0B9DD
:100B50009FEDC00AF0EE400AB0EE401A01F09CFE94
:100B60000120A87140F2E800C2F200006421018374
:100B700020461021012200F06FFBE87800283FF4A6
:100B8000C3AE204610210022002400F065FB40F691
:100B90000130AC71EC706C70A88070BD28790128B0
:100BA0000BD1A87948B99FEDAB0ADFEDB20A9FEDF2
:100BB000AC1A01F071FE0120A87040F26830C2F258
:100BC000000090ED000ABDEEC00A10EE100A0028E9
:100BD00048BF404228287FF497AE0020A87040F616
:100BE0000240A88070BD2879022811D1A87978B96F
:100BF0009FED9D0A9FED9D1AF0EE400A01F04CFE1C
:100C00000120A87140F2E800C2F2000064210183D3
:100C1000E87800283FF478AE40F20030C0F20D00D2
:100C2000C5F8030070BD287903280BD1A87948B90D
:100C30009FED8F0ADFED8C0A9FED8A1A01F02CFEE2
:100C40000120A87040F26830C2F2000090ED000A66
:100C5000BDEEC00A10EE100A002848BF4042052829
:100C60003FF752AE0020A8714FF46060A88070BDBD
:100C70000000C842000000000000C8C20000AA42F4
:100C8000000048C2000016C30080C0432879A9793B
:100C900008430FD19FED700A9FED741AF0EE400AE1
:100CA00001F0FAFD0120A87140F2E800C2F2000054
:100CB00064210183E87800283FF426AE0020E87024
:100CC000012068700F20A5F8050070BD6878002429
:100CD000C4F20204B8B1A879A8B99FED5E0AF0EE9B
:100CE000400AB0EE401A01F0D7FD0120A87140F291
:100CF000E800C2F200004FF4FA710183204610218F
:100D0000012200F0A9FAE87800283FF4FDAD204662
:100D1000102100221026002400F09EFAEC706C7066
:100D2000A5F8056070BDE878A97908430FD19FED5B
:100D30004E0A9FED4E1AF0EE400A01F0ADFD012083
:100D4000A87140F2E800C2F200003C210183E8787B
:100D500000283FF4D9AD0020E87068701120A5F894
:100D6000050070BD687848B99FED3C0ADFED390A8F
:100D70009FED3C1A01F090FD0120A87040F2683010
:100D8000C2F2000090ED000ABDEEC00A10EE100A9B
:100D9000002848BF40422828FFF6B6AD0020A870C2
:100DA0001220687170BDE878A97908430FD19FEDD2
:100DB0002A0A9FED281AF0EE400A01F06DFD01208D
:100DC000A87140F2E800C2F2000050210183E878E7
:100DD00000283FF499AD0020E8701320A5F8050025
:100DE00070BDA87948B99FED1C0ADFED1C0A9FED84
:100DF0001C1A01F051FD0120A87040F26830C2F2C7
:100E0000000090ED000ABDEEC00A10EE100A0028A6
:100E100048BF404205283FF777AD0120A5F8010003
:100E20001420687170BD687800283FF46DADA87912
:100E3000002818BF70BD9FED070AF0EE400AB0EE23
:100E4000401A01F029FD46F2B720C0F6000002F07A
:100E50009FFF70BD000000000000C8420000164364
:100E60000080C043000057C30000C8C20000AA426F
:100E7000000048C3000016C300004843FEE700001E
:100E800010B540F2A804C2F20004204603F088FA2C
:100E90002078032806D0022807D0012808D1FFF7C0
:100EA000A5FB10BDFFF7F2FC10BD02F001FA10BD6A
:100EB0009FED040AF0EE400AB0EE401A01F0ECFC9F
:100EC00010BD00BF000000007047000080B5012089
:100ED00000F0D8F880BD000080B54FF4805000F0DD
:100EE000D1F880BD80B5102000F0CCF880BD0000A6
:100EF00080B5202000F0C6F880BD000072B600BFAB
:100F0000FEE7000070B5866D044600F0ABF994F87A
:100F10003510022925D105462068216C026822F08F
:100F200016020260426922F08002426109B9A16C96
:100F300019B1016821F008010160016821F0010187
:100F4000016000BF20680068C0070ED000F08AF979
:100F5000401B0628F6D320206065032084F8350066
:100F60000CE080206065012008E0E06D3F2101FA7F
:100F700000F0B060012084F835000020002184F8E2
:100F8000341070BD90F83510022909D1052180F880
:100F900035100068016821F00101016000207047F0
:100FA0008021416501207047B0B5044600F05AF930
:100FB000054640F23000C2F200000078611C18BF04
:100FC000044400BF00F04EF9401BA042FAD3B0BD6C
:100FD000202818BF7047B0B540F2503040F2583169
:100FE00040F26832C2F20000C2F20001C2F2000216
:100FF00003F01AFA022002F043F940F2E804C2F2C8
:101000000004A083042002F03BF9E08302F026F9FB
:1010100002F0CEFEBDEEC00A10EE100A254645F8DD
:101020000C0F02F0F5FEBDEEC00A10EE100A44F8F7
:10103000100FA4F10C022046294601F093FC14ED98
:10104000030A20682968BDEEC00A10EE102A01F0DC
:10105000BBFC40F2A000C2F20000018801318AB25C
:101060000A2A018009D30021018040F60000C4F261
:1010700002004FF4005100F0E7F802F0CBFCBDE8AD
:10108000B040704780B543F61441C4F201010A68CC
:10109000024208BF80BD0860FFF79AFF80BD0000D4
:1010A0002DE9F04F83B000F13E4202F1FF724FEAAA
:1010B000B22241F200070192C4F2020707224FF068
:1010C000010E00254FF0000A4FF00008B84208BF9B
:1010D000042200920AE000BF08F101080AF1040AA4
:1010E000B8F1100F05F1020500F0A4800C680EFAAB
:1010F00008FB14EA0B09EFD04C6804F0030CACF1C8
:10110000010EBEF1010F11D80322876802FA05F61D
:10111000CA68B743AA403A4382604268C4F30017E2
:1011200022EA0B0207FA08F73A434260BCF1030FC8
:101130001CD0C26803238E6803FA05F7BA4306FA87
:1011400005F73A43BCF1020FC2600FD16FF0030202
:1011500002EA580202440AF01C060F23176A03FA37
:1011600006F40B69A743B3403B43136202680323B1
:101170004F68AB409A4307F00303AB401A4317F4A0
:10118000403F4FF0010E0260A6D0002243F6440318
:101190000292C4F202031A6843F6004442F4804209
:1011A0001A601A68C4F2010402F480420292029AA0
:1011B00028F003024FF6084B2244CFF6FF7B52F88B
:1011C0000B300AF00C070F26BE4023EA060C019BE9
:1011D000009E042B38BF1E4606FA07F747EA0C03A9
:1011E00042F80B30A2684B6842EA090743F60C4C00
:1011F000DE0258BF22EA0907A760C4F2010CDCF83E
:1012000000209E0242EA090758BF22EA0907CCF8EB
:10121000007062689E0342EA090758BF22EA090784
:1012200067602268DB0342EA090358BF22EA090328
:10123000236051E703B0BDE8F08F0000006908406B
:1012400018BF012070470000426902EA0103914380
:1012500041EA034181617047002A08BF09048161A6
:101260007047000040F26030C2F200000068704732
:1012700070B5B0B3044690F83D0028B9002084F85A
:101280003C00204600F0BCF8242084F83D00206893
:10129000016821F001010160016841F40041016031
:1012A000016821F40041016000F020FA48F2804119
:1012B000C0F21E0140F60012666888424FF000013D
:1012C000C0F23D0248F2A16C4FF0000338BF01218B
:1012D0009042C0F2010C38BF0123664538BF0B466F
:1012E0000BB1012070BD4DF68361C4F21B31A0FB30
:1012F00001122168930C4D68664525F03F0545EACB
:1013000092424A600A6A22F03F0C09D34FF4967267
:101310005A4344F6D353C1F26203A2FB03239B0951
:101320005A1C42EA0C020A6248F2A063CA69C0F27F
:1013300001039E424CF6FF7322EA030C0AD80138DF
:101340007200B0FBF2F001306FF31F30042898BF39
:1013500004202BE0A368A0F1010E9BB1192070437B
:10136000BEFBF0F00422013062F31F30000512D002
:101370009BB119207043BEFBF0F00422013062F3F0
:101380001F3011E006EB4600BEFBF0F001306FF3BA
:101390001F300005ECD1012008E006EB4600BEFB43
:1013A000F0F001306FF31F3040F4004040EA0C00D1
:1013B000C8610868D4E9072320F0C000104318432F
:1013C0000860886848F2FF3204F10C0690434CCE66
:1013D00018431043A5698860C86820F0FF003043B7
:1013E0002843C860086840F0010008600020202100
:1013F000206484F83D10206384F83E0070BD000036
:10140000B0B586B000240594CDE9034445F200410F
:101410000068C4F2000188420294019401D006B031
:10142000B0BD43F630050094C4F20205286840F0D0
:1014300002002860286800F00200009000984FF435
:10144000407001901220CDE9020403200490042092
:10145000059001F5D83001A9FFF722FE0094286914
:1014600040F400102861286900F4001000900098F2
:1014700006B0B0BD40F2300040F26031C2F2000070
:10148000C2F2000100780A6810440860704700004A
:1014900080B543F60040C4F20200016841F40071D7
:1014A0000160016841F480610160016841F480716C
:1014B0000160032000F060F80F2000F005F800F054
:1014C0002BF8002080BD0000B0B540F23002C2F21F
:1014D000000240F200011278C2F200014FF47A7368
:1014E0000968B3FBF2F20446B1FBF2F1084600F0E2
:1014F000F7FA0F2C4FF001050CD858B94FF0FF3018
:1015000021460022002500F027F840F23400C2F204
:10151000000004602846B0BD82B0002043F64001C0
:101520000190C4F202014A6842F480424A604A686B
:1015300002F480420192019A0090086840F08050C5
:101540000860086800F080500090009802B0704772
:1015500080B502F051FD80BD70B514460D460646BB
:1015600002F05AFD2946224601F0EAFD01463046C6
:1015700002F05AFD70BD000080B502F067FD80BD2D
:101580002DE9F041002800F08B8043F60808C4F2F2
:1015900002080446D8F8F8030D4600F00700884218
:1015A00007D288F8F853D8F8F80300F00700A842EB
:1015B00076D12068810717D5410705D5D8F80010E6
:1015C00041F4E051C8F80010010705D5D8F8001023
:1015D00041F46041C8F80010D8F80010A26821F06A
:1015E000F0011143C8F80010C0073FD1D8F8F80344
:1015F00000F00700A84207D988F8F853D8F8F80394
:1016000000F00700A8424BD12068410707D5D8F861
:101610000010E26821F4E0511143C8F800100007FF
:1016200008D5D8F80000216920F4604040EAC100E4
:10163000C8F8000000F07EF8D8F8001046F27022DA
:10164000C1F30311C0F60002515C40F2000220FA1F
:1016500001F140F23400C2F200000068C2F2000260
:101660001160FFF731FF0020BDE8F0816068811E46
:10167000022907D258F8081C89015CBF0120BDE887
:10168000F08110E0012807D158F8081C89035CBFDD
:101690000120BDE8F08106E058F8081C890702D453
:1016A0000120BDE8F081D8F8001021F003010843C3
:1016B000C8F80000FFF7D6FD064641F2883700BFA4
:1016C000D8F80000616800F00C00B0EB810F8DD0FD
:1016D000FFF7C8FD801BB842F2D90320BDE8F081B6
:1016E00040F20000C2F200000068704780B5FFF7CA
:1016F000F7FF43F60801C4F20201096846F28022AE
:10170000C1F38221C0F60002515CC84080BD0000D8
:1017100080B5FFF7E5FF43F60801C4F2020109684E
:1017200046F28022C1F34231C0F60002515CC8404B
:1017300080BD000010B543F60404C4F202046068E2
:1017400000F00C0008280AD0042819BF42F200401B
:10175000C0F2F40047F64000C0F27D1010BD2068D2
:1017600021682368490247F64001C0F27D1100F06C
:101770003F02C3F388105CBF42F20041C0F2F401A3
:10178000A1FB00010023FEF779FD21680222C1F3CD
:10179000014102EB4101B0FBF1F010BD2DE9F04138
:1017A00082B0002800F09F800446007843F60006CF
:1017B000C007C4F2020641D0B06800F00C00042853
:1017C00005D13068800339D56068B8BB8BE0B0685C
:1017D00000F00C00082802D170684002F1D465685E
:1017E000B5F5803F06D03068B5F5A02F06D140F49E
:1017F00080203060306840F4803005E020F4803094
:101800003060306820F480203060FFF72BFD002D21
:10181000054610D03068800310D4FFF723FD401B2D
:101820006428F7D922E100BFFFF71CFD401B6428A4
:101830004FF0030054D830688003F5D42078800737
:101840001AD5B06810F00C0F09D0B06800F00C0089
:10185000082840F08C807068400200F18880306871
:10186000800702D5E06801283DD13068216920F069
:10187000F80040EAC10030602078000737D42078B3
:1018800040074AD4A56955B3B06800F00C00082899
:1018900040F0A080012D26D07068E16900F480023C
:1018A0008A4220D1216A00F03F028A421BD147F6CA
:1018B000C071626A0140B1EB821F14D1A16A4FF678
:1018C000FF73C903994300F44032A1F580318A4285
:1018D00009D1E16A00F07060B0EB016F03D1002024
:1018E00002B0BDE8F081012002B0BDE8F08160697E
:1018F000002840F20000C4F247205AD00121C0F86D
:10190000801EFFF7AFFC0546706F8007B7D4FFF766
:10191000A9FC401B0228F7D9A8E0306C4FF0000862
:10192000C0000CD4CDF80480306C4FF0010840F0BA
:1019300080503064306C00F080500190019847F284
:101940000007C4F200073868C00525D4386840F4A1
:1019500080703860FFF786FC054600BF3868C00518
:101960001AD4FFF77FFC401B0228F7D97EE0E0681D
:10197000002851D00020C4F2472001210160FFF768
:1019800071FC0546306880073FF56FAFFFF76AFCD2
:10199000401B0228F6D969E0A568012D05D0306FFB
:1019A000052D4DD140F004003067306F40F001004C
:1019B0004CE00021C0F8801EFFF754FC054600BF34
:1019C000706F80077FF55BAFFFF74CFC401B022870
:1019D000F6D94BE00027C4F2472700203866FFF70E
:1019E00041FC022D05460BD13068800156D5FFF72A
:1019F00039FC401B02284FF00300F5D970E700BF07
:101A0000306880017FF56BAFFFF72CFC401B02288C
:101A10004FF00300F4D963E70020C4F2472000210F
:101A20000160FFF71FFC0546306880077FF524AF93
:101A3000FFF718FC401B02284FF00300F4D94FE7D2
:101A400020F001003067306F20F004003067FFF7AE
:101A500009FC002D054641F2883713D0306F80070E
:101A600013D4FFF7FFFB401BB842F7D9032002B0A5
:101A7000BDE8F081FFF7F6FB401BB8424FF00300D2
:101A80003FF62EAF306F8007F4D4B8F1000F3FF46B
:101A9000F9AE306C20F080503064F3E604F11C05A0
:101AA0002FCD084340EA8210D9034FF6FF729143CD
:101AB000A1F5803140EA0560084370600120386676
:101AC000FFF7D0FB044600BF306880013FF507AF49
:101AD000FFF7C8FB001B02284FF00300F4D9FFE614
:101AE00080B501F0A5FD80BDB0B590F83C20012A7D
:101AF00004BF0220B0BD01F108053CCDD1E900CE04
:101B000023F47C5322F470521A432EF4F0431A4308
:101B10002CF4E0431A4324F4C0431A432A43C9690E
:101B200022F48042036811435964002180F83C107C
:101B30000846B0BD10B590F83C20012A4FF00202D3
:101B400040D0012380F83C3080F83D200268D2F874
:101B500004E0D2F808C00C682EF07003234340F66E
:101B6000FF34C4F20004A24253600FDCB2F1804F94
:101B70001DD040F20043C4F200039A4217D040F651
:101B80000003C4F200039A4211D015E040F600436E
:101B9000C4F200039A420AD044F20003C4F20103E3
:101BA0009A4204D00023C4F201039A4204D1496846
:101BB0002CF08003194391600121002280F83D1030
:101BC00080F83C20104610BD002804BF012070475B
:101BD00010B5044690F83D0028B9002084F83C0078
:101BE000204600F01FF8022084F83D002068211DE7
:101BF00001F094FD012084F8460084F83E0084F84A
:101C00003F0084F8400084F8410084F8420084F8E2
:101C1000430084F8440084F8450084F83D00002027
:101C200010BD000083B0006840F20041C4F2000122
:101C300088421BD044F20001C4F20101884229D03D
:101C40000021C4F20101884233D10020029043F602
:101C50004400C4F20200016841F001010160006823
:101C600000F001000290029803B07047002001903C
:101C700043F64400C4F2020050F8041C41F0020193
:101C800040F8041C50F8040C00F002000190019888
:101C900003B070470020009043F64400C4F20200F5
:101CA000016841F480310160006800F480300090E8
:101CB000009803B07047000090F83D1001291CBF48
:101CC00001207047022180F83D10006840F6FF3186
:101CD000C4F2000188420FDCB0F1804F1DD040F209
:101CE0000041C4F20001884217D040F60001C4F25E
:101CF0000001884211D017E040F60041C4F2000113
:101D000088420AD044F20001C4F20101884204D0A2
:101D10000021C4F20101884206D1816801F0070167
:101D2000062904BF00207047016841F001010160ED
:101D30000020704710B5044690F83C0001284FF091
:101D4000020008BF10BD012284F83C2084F83D0049
:101D500020684FF6777382689A4382600A684F2A38
:101D60000FDC1F2A22DD202A23D0302A21D0402A4E
:101D70004DD14B68CA68194601F028FE2068402101
:101D80003BE06F2A17DDB2F5005F20D0B2F5805F2F
:101D90002AD0702A3BD1D1E9012CCB68614601F0F1
:101DA00045FD2068816841F077011AE00AB1102AE8
:101DB0002DD1114621E0502A18D0602A27D14B6836
:101DC000CA68194601F014FE2068602115E0D1E9C7
:101DD000012CCB68614601F029FD2068816841F43F
:101DE0008041816000200BE0002009E04B68CA6858
:101DF000194601F0EBFD2068502101F023FD002081
:101E0000012184F83D10002184F83C1010BD012010
:101E1000F6E70000002804BF012070472DE9F047D5
:101E2000044690F83D000D4628B9002084F83C0097
:101E3000204600F049F8022084F83D00206844F272
:101E40000702816891438160211D01F067FC2068D1
:101E50004FF6FF7881688269D0F820C0D5E9003E4E
:101E6000D5E9026A43EA0109AB6922EA080246EAB7
:101E700003234FF6FC46B343D5E9076742EA0A025B
:101E800029691A4342EA062242EA01112CF0AA0209
:101E90006B6942EA0E0241EA073142EA0312C0F8D6
:101EA000089081610262012084F8460084F83E00B7
:101EB00084F83F0084F8420084F8430084F83D0031
:101EC0000020BDE8F087000080B586B00021CDE994
:101ED0000411CDE90211006840F60002C4F20002CC
:101EE0009042019122D0B0F1804F48D1002043F6BA
:101EF00030010090C4F202010A6942F001020A6155
:101F00000A6902F001020092009A0090086840F00D
:101F1000010008600868012100F0010000900098AD
:101F2000032001900020C4F202001FE043F63000BD
:101F30000091C4F20200026942F0040202610269E7
:101F400002F004020092009A0091016841F002013F
:101F500001600068022100F0020000900098C0209B
:101F600001900020C4F2020000F58060022202927B
:101F70000022CDE90322059101A9FFF791F806B0EF
:101F800080BD000010B5044690F83E0094F83F2054
:101F900094F8423094F843C0042907D089B9012845
:101FA0004FF0010008BF012B23D010BD012A4FF0D4
:101FB000010008BFBCF1010FF7D1022084F83F00F7
:101FC00012E001284FF0010008BF012AEDD1012BDA
:101FD000EBD1BCF1010F18BF10BD022084F83E0008
:101FE00084F83F0084F8420084F84300042907D1B4
:101FF0000EE0022084F83E0084F84200042907D055
:1020000009B9002105E020680021012201F0FCFB54
:1020100004212068012201F0F7FB2068016841F0EB
:1020200001010160002010BD80B586B00021CDE91E
:102030000411CDE90211006840F20042C4F200022E
:102040009042019118D00021C4F20101884230D1A0
:102050000020009043F63000C4F20200016841F015
:1020600001010160006800F00100009000984FF449
:10207000A0600190012010E043F630000091C4F20E
:102080000200016841F001010160006800F00100F8
:10209000009000984020019002200221029100212E
:1020A000CDE9031105900020C4F2020001A9FEF75A
:1020B000F7FF06B080BD0000B0B5044690F83C00C4
:1020C000012804BF0220B0BD0D464FEAB201012035
:1020D000032984F83C0037D8DFE801F0020A122215
:1020E0002068294601F0B6FB206850F8181F0EE062
:1020F0002068294601F0DEFB206850F8181F16E022
:102100002068294601F00AFC206850F81C1F41F0A5
:1021100008010160016821F00401016029690FE0F4
:102120002068294601F02EFC206850F81C1F41F45D
:1021300000610160016821F4806101602969090280
:102140000268114301600020002184F83C10B0BDFA
:10215000002804BF0120704710B5044690F83D00E8
:1021600028B9002084F83C00204600F01FF8022027
:1021700084F83D002068211D01F0D0FA012084F888
:10218000460084F83E0084F83F0084F8400084F85C
:10219000410084F8420084F8430084F8440084F845
:1021A000450084F83D00002010BD0000704700008D
:1021B000B0B5044641B1082909D0042914BF04F17F
:1021C000410004F13F0004E004F13E0001E004F1AD
:1021D0004000007801281CBF0120B0BD022041B1A1
:1021E000082909D0042914BF84F8410084F83F006D
:1021F00004E084F83E0001E084F8400020684425B3
:102200000122C4F2010501F0FFFA2068A5F14401A2
:10221000884203D1296841F40041296040F6FF312A
:10222000C4F2000188420FDCB0F1804F1DD040F2B3
:102230000041C4F20001884217D040F60001C4F208
:102240000001884211D017E040F60041C4F20001BD
:1022500088420AD044F20001C4F20101884204D04D
:102260000021C4F20101884206D1816801F0070112
:10227000062904BF0020B0BD016841F001010160E2
:102280000020B0BD4FEAB101032984BF0020704790
:10229000DFE801F0020E060A00683430006870477B
:1022A00000683C3000687047006840300068704744
:1022B00000683830006870477047000070470000C1
:1022C00070B582B0036804461868D9685D6900F08B
:1022D0002F02202A01F0200205D122B1204601F070
:1022E000F3FB02B070BD5FEA007C08D005F0010E80
:1022F00011F4907F8EF001054FD1002D4DD0226B4F
:102300000840C1063FD5012A3DD100200190186840
:1023100001905868019001985869400600F19C802E
:10232000A08DE18DE28D002A1CBF401A5FEA0041BA
:1023300002D102B070BD00BF216851E8031F2268BE
:1023400021F4907142E80313002BF5D1216851E884
:10235000051F226821F0010142E80513002BF5D189
:10236000202184F842100021216300BF216851E838
:10237000031F226821F0100142E80313002BF5D15E
:1023800002216163AEE0010600F1B2804006D0D5C3
:10239000204601F08DFB02B070BDC30718BF11F4D9
:1023A000807303D0636C43F00103636400F00406A0
:1023B000012383EA96062E4303D1666C46F002069B
:1023C000666400F0020683EA56032B4303D1636C74
:1023D00043F00403636452EA0E0218BF0122BCF109
:1023E000000F04D51AB1626C42F008026264626C9C
:1023F000002A9ED00840800602D5204601F064FBEA
:1024000020684069616C00F0400001F0080140184C
:1024100078D0204601F024FB2068406940066CD546
:10242000206850E8050F216820F0400041E80502CF
:10243000002AF5D1E06B00285FD043F65121C0F6A9
:1024400000010165FEF79EFD00283FF472AFE06BCE
:10245000016D884702B070BDE06B016849688AB2BF
:10246000002A3FF466AFA38D9A42BFF462AFE185C4
:10247000C069B0F5807F30D0206850E8030F216834
:1024800020F4807041E80302002AF5D1206850E86A
:10249000050F216820F0010041E80502002AF5D16E
:1024A000206850E8050F216820F0400041E805024F
:1024B000002AF5D1202084F842000020206300BFCC
:1024C000206850E8030F216820F0100041E8030263
:1024D000002AF5D1E06BFEF715FD02206063A08DA8
:1024E000E18D401A81B22046FFF7E6FE02B070BDD2
:1024F000204601F0D5FB02B070BD2046FFF7DEFE9E
:1025000002B070BD2046FFF7D9FE0020606402B023
:1025100070BD0000002804BF0120704710B50446BC
:1025200090F8410028B9002084F84000204600F0CF
:1025300021F8242084F841002068C16821F400516A
:10254000C160204601F024FB2068016921F490411C
:102550000161416921F02A014161C16841F40051E2
:10256000C16000202021606484F8411084F842108A
:10257000606310BD80B586B000220592CDE90322CC
:1025800044F200410068C4F20001884202920192C4
:1025900001D006B080BD43F630000092C4F20200C4
:1025A000036943F400330361036903F400330093C8
:1025B000009B0092036843F001030360006800F091
:1025C0000100009000980C2001900220CDE9020249
:1025D000032004900720059001F5DE3001A9FEF7E5
:1025E0005FFD262000210022FEF7B6FF2620FEF721
:1025F000AFFF06B080BD000010B590F84230202B30
:102600001CBF022010BD00294FF0010418BF002A92
:1026100001D1204610BD0024046301F027FB2046B1
:1026200010BD000080B5006844F20041C4F2000112
:10263000884218BF80BD40F25C30C2F20000012128
:10264000017040F2271140F2261CC2F20001C2F2D2
:10265000000C08789CF8003040F21612C2F200021A
:10266000D054581CC2B20F2A88BF00208CF800003A
:1026700040F20830C2F200000122FFF7BDFF80BD2A
:102680002DE9F041044690F8410020281CBF0220AB
:10269000BDE8F0810E4600294FF0010042D01746F8
:1026A000002A08BFBDE8F0814FF0000821201D4638
:1026B000C4F8448084F84100FEF7D4FDA784E78481
:1026C000A1680746B1F5805F0DD12069002814BFCD
:1026D0003046B046064606E016F8010B2168486011
:1026E000E08C0138E084E08C80B1204680213A46BD
:1026F0002B4601F0FFFAB8B9002EEDD138F8020BE5
:1027000021686FF35F2048600026E9E720464021FA
:102710003A462B4601F0EEFA202184F841100028B9
:1027200018BF0320BDE8F081202084F84100032079
:10273000BDE8F08170470000FEE7000010B540F2F0
:102740000044C4F20204204604210022FEF784FD66
:10275000204602210122FEF77FFD204604210122AE
:10276000FEF77AFD10BD0000F0B581B040F20045E3
:10277000C4F202050446284604210122FEF76CFD3E
:1027800000260827284602210122FEF765FD28467B
:102790000421FEF753FD002818BF012040EA460639
:1027A000284602210022FEF757FD013FEAD12046CC
:1027B00000F05AF8F0B201B0F0BD000070B540F280
:1027C000004504460826C4F2020500BFE0B2C20973
:1027D00028460421FEF740FD284602210122FEF78B
:1027E0003BFD284602210022FEF736FD013E4FEA5E
:1027F0004404EBD100F01CF870BD000010B540F2AD
:102800000044C4F20204204604210122FEF724FD04
:10281000204602210122FEF71FFD2046042100224E
:10282000FEF71AFD204602210022FEF715FD10BD1D
:10283000B0B540F20044C4F2020420460421012253
:10284000FEF70AFD204602210122FEF705FD204683
:102850000421FEF7F3FC0546204602210022FEF784
:10286000FBFC2846B0BD000010B5013840F2004422
:10287000B0FA80F0C4F20204420920460421FEF7B7
:10288000EBFC204602210122FEF7E6FC2046022155
:102890000022FEF7E1FC10BD10B52DED048B9FED7D
:1028A0002A2A9FED2A9A40F29800B4EE421AC2F208
:1028B0000000F1EE10FAB8BFB0EE421AB4EE491AB9
:1028C0000178F1EE10FA40F2AC04B0EE408AB8BFE5
:1028D000B0EE419AC2F2000409BB007901281ED172
:1028E0009FED1B0A9FED1B1A29EE000A80EE010ADC
:1028F00002F0DEFB9FED181A9FED182A20EE010A68
:1029000080EE020AB7EE001A31EE402A30EE010ADC
:1029100022EE082A60EE080A84ED062A01E084ED22
:10292000068AB1EE040A9FED0E1A29EE000A40F263
:10293000E80030EE010AC2F20000C4ED0C0A80ED9E
:10294000020ABDEC048B10BD000070C20000704292
:10295000DB0F494000003443C1CA213E3F359E3E53
:102960000000AA4280B503684EF29C6CCFF6FF7C53
:102970006345D8BF634641F6641E7345A8BF7346DE
:10298000036008689FED0E1A6045C8BF844692ED4B
:10299000000AF445B4EE410AA8BFF446F1EE10FA7D
:1029A000C1F800C008DC9FED071AB4EE410AF1EE51
:1029B00010FAA8BFB0EE401A82ED001A80BD00BF29
:1029C00000008243000010422DE9F04381B040F244
:1029D000004901294FF00004C4F2020990460E4656
:1029E0000546B8BF012400294FF0000248464FF4C5
:1029F00080414FF00007C8BF0122FEF72DFC48467A
:102A00004FF400412246FEF727FC012D4FF0000451
:102A1000B8BF0124002DC8BF012748464FF400511C
:102A20003A46FEF719FC48464FF480512246FEF71D
:102A300013FC40F2A010C2F20000002E48BF764204
:102A40000068002D466348BF6D42C56340F23020E8
:102A5000C2F200000068C0F8348001B0BDE8F08325
:102A600080B56B20802100F0B1F86420FEF79CFA5D
:102A70006B20002100F0AAF8032000F06FF800207E
:102A800000F064F8322000F08BF83820012100F0CB
:102A90009DF86A20002100F099F82320002100F021
:102AA00095F83720802100F091F8752000F00EF89D
:102AB0006B20012100F08AF86C20002100F086F8DC
:102AC000C82000F06DF8002080BD000010B504465D
:102AD000FFF794FED020FFF771FE2046FFF76EFE51
:102AE000FFF78CFED120FFF769FE0120FFF73CFEC7
:102AF0000446FFF723FE204610BD0000F0B581B06C
:102B00001C4615460E460746FFF778FE7F00F8B2D2
:102B1000FFF754FE3046FFF751FEFFF76FFE781CBB
:102B2000C0B2FFF74BFE05E0C0B2FFF71DFE04F890
:102B3000010B013DE9B201292846F5D009B1002079
:102B4000F2E7FFF7FBFD002001B0F0BD80B5C0004B
:102B5000C1B21C2000F03AF880BD000080B5C00072
:102B6000C1B21B2000F032F880BD0000BB2801D9A3
:102B700001210FE0612801D902210BE0292801D9A8
:102B8000032107E0132801D9042103E006210928C5
:102B900088BF052180B51A2000F018F880BD00001C
:102BA00010B504464FF47A70B4F57A7F28BF044616
:102BB000042C98BF0424B0FBF4F00138C1B21920F2
:102BC00000F004F86008FFF7D1FF10BDB0B50C4667
:102BD0000546FFF713FED020FFF7F0FD2846FFF76C
:102BE000EDFD2046FFF7EAFDFFF7A8FD0020B0BD90
:102BF000F0B581B01D4614460E460746FFF7FEFDB0
:102C00007800C0B2FFF7DAFD3046FFF7D7FD3CB1E0
:102C1000013D00BF15F8010FFFF7D0FD013CF9D1D0
:102C2000FFF78CFD002001B0F0BD00002DE9F04F52
:102C300087B0002443F630000694CDE90444CDE982
:102C400002440194C4F20200016840F2004841F0DD
:102C5000040101600168C4F2020801F0040101915D
:102C600001990194016808F5806741F080010160D5
:102C70000168002201F0800101910199019401682D
:102C80004FF4005541F001010160016801F00101BC
:102C9000019101990194016841F00201016000680D
:102CA0004FF4005100F00200019001983846FEF701
:102CB000D3FAA8F5806A5046102100224FF0100B7D
:102CC000FEF7CAFA40464FF206010022FEF7C4FAA8
:102CD00002AE029501254FF00209384631460395B0
:102CE000CDE90494FEF7DCF950463146CDE902B552
:102CF000CDE90494FEF7D4F9312002904FF4041783
:102D000040463146CDE90375FEF7CAF90620029028
:102D10001120CDE90305404631460594FEF7C0F980
:102D20004FF47040CDE9020540463146CDE90444F8
:102D3000FEF7B6F94FF4805002A981E881025046AF
:102D40003146FEF7ADF9062000210022FEF704FC13
:102D50000620FEF7FDFB0A2000210022FEF7FCFB07
:102D60000A20FEF7F5FB172000210022FEF7F4FBF6
:102D70001720FEF7EDFB282000210022FEF7ECFBD8
:102D80002820FEF7E5FB07B0BDE8F08F80B540F2E4
:102D90004C1045F20041C2F20000C4F2000148F2BA
:102DA000A06200234FF4804CC0F2010280E80E00C4
:102DB000C0E9033CC0E90533C0E90733FEF758FA20
:102DC000002818BFFEF79AF880BD000010B596B035
:102DD00040F2A01000220021C2F20000C4F2010261
:102DE00042F2CF031591CDE91311CDE91111CDE9CF
:102DF0000F11CDE90D11CDE90B11CDE90911CDE987
:102E00000711CDE90511CDE90311CDE90111C0E9A3
:102E10000021C0E90213C0E904118161FEF7D4FE6C
:102E2000002818BFFEF76AF84FF48050129040F265
:102E3000A010C2F2000012A9FEF77CFF002818BF04
:102E4000FEF75CF840F2A010C2F20000FFF780F934
:102E5000002818BFFEF752F840F2A0100024C2F27A
:102E6000000010A9CDE91044FEF764FE002818BF49
:102E7000FEF744F86020CDE9090440F2A010C2F248
:102E8000000009A90022CDE90B44CDE90D440F94BF
:102E9000FFF712F9002818BFFEF730F840F2A01033
:102EA000C2F2000009A90822FFF706F9002818BF9E
:102EB000FEF724F800200590CDE90300CDE90100DC
:102EC0004FF40051089040F2A0100691C2F20000A9
:102ED00001A9FEF709FE002818BFFEF70FF840F21F
:102EE000A010C2F20000FFF79FF816B010BD00005E
:102EF000B0B58CB003AC20462421FDF7AAFA40F20D
:102F0000E8100025C2F200004FF08041C0E9001532
:102F100001214FF0FF32CDE90315CDE90515CDE9CB
:102F20000755CDE909152146CDE90055C0E9025202
:102F3000056185610B95FEF76DFF002818BFFDF751
:102F4000DDFF40F2E810C2F200006946CDE900550D
:102F5000FEF7F0FD002818BFFDF7D0FF0CB0B0BDA4
:102F600010B58EB040F2302040F200420021C2F293
:102F70000000C4F2000240F2473340F2CF740D91DA
:102F8000CDE90B11CDE90911CDE90711CDE9051105
:102F9000CDE90311CDE90111C0E90023C0E9021414
:102FA00001618161FEF710FE002818BFFDF7A6FF42
:102FB0004FF480500A9040F23020C2F200000AA97B
:102FC000FEF7B8FE002818BFFDF798FF40F230204A
:102FD000C2F20000FFF7BCF8002818BFFDF78EFF13
:102FE00040F230200024C2F2000008A9CDE90844D4
:102FF000FEF7A0FD002818BFFDF780FF6020CDE997
:10300000010440F23020C2F2000001A90022039422
:103010000594FFF751F8002818BFFDF76FFF40F245
:103020003020C2F20000FEF7FFFF0EB010BD00001E
:10303000B0B58CB003AC20462421FDF70AFA40F26B
:10304000782040F600010025C2F20000C4F2000121
:10305000C0E9001501214FF6FF72CDE90315CDE956
:103060000515CDE90755CDE909152146CDE90055EE
:10307000C0E90252056185610B95FEF7CBFE002881
:1030800018BFFDF73BFF40F27820C2F2000069460E
:10309000CDE90055FEF74EFD002818BFFDF72EFFC5
:1030A0000CB0B0BD80B584B040F2C02044F2000244
:1030B0000021C2F20000C4F201024FF6FF73CDE915
:1030C0000211CDE90011C0E90021C0E9021301613C
:1030D0008161FEF779FD002818BFFDF70FFF4FF45F
:1030E0008050009040F2C020C2F200006946FEF716
:1030F00021FE002818BFFDF701FF04B080BD0000CD
:1031000080B540F2083044F20041C2F20000C4F23F
:10311000000100234FF00C0C4FF4E13280E80E0068
:10312000C0E90333C0E905C3C361FFF7F3F9002821
:1031300018BFFDF7E3FE80BDFEE70000FEE70000DC
:1031400000F0070080F00703042B28BF04234FF092
:10315000FF3C03380CFA03F338BF00209943814049
:103160000CFA00F022EA00000843704770470000A4
:1031700080B52DED028B40F23020C2F2000000211C
:10318000B0EE408AFFF77EF800EE100AB8EE400A73
:1031900010EE100A02F04CFF9FED290B53EC102BA0
:1031A00002F03EFA9FED280B53EC102B02F080FC4E
:1031B0009FED270B53EC102B02F0E6FA02F0FEF91C
:1031C00040F2AC01C2F2000191ED002A91ED013A0A
:1031D00091ED024A40F20C1100EE100A40F210107C
:1031E000C2F20001C2F2000091ED005A38EE000A6E
:1031F00090ED001A30EE455A31EE001A24EE054AE1
:103200009FED155A22EE002A23EE013A82EE052A9E
:1032100083EE053A84EE054A80ED001A40F208106C
:10322000C2F2000080ED000A0068086032EE030A76
:1032300034EE000ABDEC028B80BD00BF00BF00BFB2
:103240000000000000789EC0000000000000224046
:1032500000000000000024400000C84210B540F209
:10326000E804C2F2000494ED020AFFF781FF94ED36
:10327000011A84ED000A30EE010A84ED010A10BD46
:10328000014602284FF0000007D0042918BF7047FC
:1032900040F27821C2F2000103E040F2E811C2F2EC
:1032A000000109684A6A486210467047704700008A
:1032B000B0B540F29805C2F20005687901380B28D4
:1032C0002AD8DFE810F00C002C0058007C009B008E
:1032D000C000E0000D012B014C016A018C0128782F
:1032E000E0B140F26830C2F200009FEDC90A90EDF3
:1032F000001AF0EE400AFFF7CFFA01F06FFA40F241
:103300005431C2F200010128086007D14FF48070E7
:10331000288002206871B0BD01206871B0BD687856
:103320000024C4F20204B0B1A879A0B99FEDB70A95
:10333000F0EE400AB0EE401AFFF7AEFA0120A87195
:1033400040F2E800C2F2000064210183204610210F
:103350000122FDF781FFE8780028DFD02046102108
:1033600000220024FDF778FF40F20130AC71EC70D0
:103370006C70A880B0BD287901280BD1A87948B914
:103380009FEDA20ADFEDA90A9FEDA31AFFF784FAC9
:103390000120A87040F26830C2F2000090ED000AEF
:1033A000BDEEC00A10EE100A002848BF404228288F
:1033B000B4DB0020A87040F20240A880B0BD28799C
:1033C000022811D1A87978B99FED950A9FED951A39
:1033D000F0EE400AFFF760FA0120A87140F2E80021
:1033E000C2F2000064210183E878002896D040F200
:1033F0000030C0F20500C5F80300B0BD28790328ED
:103400000BD1A87948B99FED880ADFED850A9FEDB9
:10341000831AFFF741FA0120A87040F26830C2F227
:10342000000090ED000ABDEEC00A10EE100A002860
:1034300048BF404205283FF771AF0020A8704FF405
:10344000C060A880B0BD2879A97908430FD19FED4D
:10345000700A9FED741AF0EE400AFFF71DFA012082
:10346000A87140F2E800C2F2000064210183E8780C
:1034700000283FF453AF0020E87001206870072057
:10348000A5F80500B0BD68780024C4F20204B8B104
:10349000A879A8B99FED5D0AF0EE400AB0EE401A97
:1034A000FFF7FAF90120A87140F2E800C2F200002B
:1034B0004FF4FA710183204610210122FDF7CCFE62
:1034C000E87800283FF42AAF20461021002200248B
:1034D000FDF7C2FE0820EC706C70A5F80500B0BDC9
:1034E000E878A97908430FD19FED4D0A9FED4D1A59
:1034F000F0EE400AFFF7D0F90120A87140F2E80091
:10350000C2F200003C210183E87800283FF406AFB6
:103510000020E8700920A5F80500B0BD687848B91A
:103520009FED3C0ADFED390A9FED3C1AFFF7B4F935
:103530000120A87040F26830C2F2000090ED000A4D
:10354000BDEEC00A10EE100A002848BF40422828ED
:10355000FFF6E4AE0020A8700A206871B0BDE878DC
:10356000A97908430FD19FED2A0A9FED281AF0EEA2
:10357000400AFFF791F90120A87140F2E800C2F279
:10358000000050210183E87800283FF4C7AE0020F6
:10359000E8700B20A5F80500B0BDA87948B99FEDEB
:1035A0001C0ADFED1C0A9FED1C1AFFF775F90120BC
:1035B000A87040F26830C2F2000090ED000ABDEE43
:1035C000C00A10EE100A002848BF404205283FF705
:1035D000A5AE0120A5F801000C206871B0BD687887
:1035E00000283FF49BAEA879002818BFB0BD9FED1E
:1035F000070AF0EE400AB0EE401AFFF74DF946F226
:10360000B720C0F6000000F0C3FBB0BD0000000012
:103610000000C842000048430080C043000057C378
:103620000000C8C20000AA42000066C3000048C3F0
:10363000B0B501380024B4EB106F1CBF0120B0BD41
:103640004EF21005CEF2000568604FF0FF300F21FA
:1036500000F0EAFC0720AC6028602046B0BD000006
:1036600080B5FDF707FF80BD70B592B006AC20466F
:103670003021FCF7EEFE002543F640000595CDE92C
:103680000355CDE901550095C4F2020001680226F8
:1036900041F080510160006800F080500090009877
:1036A00047F200000095C4F20000016866F38F3114
:1036B0000160006800F440400090009801200690EE
:1036C0004FF4803007904FF480000D9019200E9039
:1036D000A8200C96CDE90F06042011902046FEF795
:1036E0005DF878B90F20CDE901064FF480500395BD
:1036F000CDE9040501A80221FDF742FF002804BF1F
:1037000012B070BDFDF7FAFB4EF68850CEF2000005
:10371000016841F4700101607047000010B540F28B
:10372000FF7E0368C4F2000E40F2000C7045C4F244
:10373000010C0ADD40F60002C4F2000290420DD0F6
:1037400060450BD040F6004204E0B0F1804F05D058
:1037500040F20042C4F20002904203D14A6823F0D2
:10376000700313434FF6FF72C4F20002904209DC6B
:10377000704512DCB0F1804F26D040F20042C4F216
:1037800000021FE044F2FF32C4F2010290420FDC5B
:10379000604519D044F2000212E040F60002C4F283
:1037A0000002904210D040F60042C4F2000209E04C
:1037B00044F60002C4F20102904205D044F20042F5
:1037C000C4F20102904203D1CA6823F44073134348
:1037D00023F080024B69D1F800E08C681A43604501
:1037E0000260C462C0F828E002D10969CCF8301048
:1037F000012141610169C90708BF10BD016921F0BC
:103800000101016110BD000080B501F01F014FF002
:10381000010CD0F820E00CFA01F32EEA0303036256
:10382000036A02FA01F11943016280BDD0F808C0B1
:1038300011432CF47F4C41EA032141EA0C018160E1
:1038400070470000826822F07002114341F00701C6
:103850008160704770B5026A036A40F2000E23F07F
:1038600001030362456883690C688E6823F0730363
:1038700022F00202C4F2010E43EA040C704542EA4F
:10388000060208D070450ED04560C0F818C04968DF
:103890004163026270BDCB6822F00C0223F0040386
:1038A0001A437045F0D125F44073D1E905653343DF
:1038B0001D43E9E770B5026A036A40F2000E23F087
:1038C00010030362456883690C688E6823F4E6433D
:1038D00022F02002C4F2010E43EA042C704542EAB1
:1038E000061208D0704510D04560C0F818C049686D
:1038F0008163026270BDCB686FF0400422F0C002A9
:1039000004EA03131A437045EED125F44063D1E96C
:10391000056543EA860343EA8505E5E770B5026A73
:10392000036A40F2000E23F4807303624568C369A2
:103930000C688E6823F0730322F40072C4F2010E47
:1039400043EA040C704542EA062208D0704510D0C4
:103950004560C0F81CC04968C163026270BDCB6895
:1039600040F2FF441B0222F44062A3431A43704515
:10397000EED125F44053D1E9056543EA061343EA45
:103980000515E5E7B0B5D0F820E0026A22F48052D0
:1039900002624468C3690A6823F4E6438D6843EA17
:1039A000022C00232EF40052C4F20103984242EA92
:1039B000053304D14A6924F4804545EA8214446001
:1039C000C0F81CC0496801640362B0BDD0F820C0D3
:1039D000036A23F001030362836923F0F00343EADF
:1039E00002122CF00A031943826101627047000041
:1039F000D0F820C0036A23F010030362836923F424
:103A0000704343EA02322CF0A00343EA01118261C1
:103A10000162704740F2980CC2F2000C9CF806104C
:103A2000A1B140F21411C2F200010A8840F2E80389
:103A3000C2F2000301321B8B90B298420A8038BF59
:103A400070470020088001208CF8030070470000B8
:103A500080B5806B0021C185C184FEF72FFC80BD3D
:103A6000016851E8031F026821F4907142E80313D2
:103A7000002BF5D1016851E8051F026821F0010112
:103A800042E80513002BF5D1016B01290AD100BFD3
:103A9000016851E8031F026821F0100142E8031396
:103AA000002BF5D1202180F84210002101637047DE
:103AB00080B50168CA6822F04002CA60202180F8FF
:103AC0004110FEF737FE80BD80B582B090F84210FD
:103AD00022291ED18268B2F5805F02D101690029D6
:103AE0004AD0816AB2F5805F07D00AB9026922B173
:103AF0000268526802F07F0201E0026852680A70B0
:103B00000121826A11448162C18D01390A04C18593
:103B100001D002B080BD0168CA6822F02002CA60EC
:103B2000CA6822F48072CA604A6922F001024A61BE
:103B3000202180F8421000214163026B012A23D129
:103B4000016300BF016851E8031F026821F0100102
:103B500042E80313002BF5D101680A68D20606D5A6
:103B6000002201920A680192496801910199818DB0
:103B7000FEF7A2FB02B080BD0168826A49686FF35C
:103B80005F2111800221BCE7FEF74CFD02B080BD31
:103B900010B504460068D4E902C22369016921F422
:103BA000405111430161626943EA0C01E369114329
:103BB000C268194349F20C639A431143C1604169D9
:103BC000A26921F4407141F20043114340F4806244
:103BD000C4F201039A42416102D1FDF799FD01E06F
:103BE000FDF784FDE16963681922B1F5004FA0FB80
:103BF00002011CD15A00DB0FFCF740FB48F21F51B9
:103C0000C5F2EB11A0FB01235A096FF0630302FB1D
:103C10000300322303EBC000A0FB01014FF4F87056
:103C200000EA111000EB0210C1F342111AE09A00F1
:103C30009B0FFCF723FB48F21F51C5F2EB11A0FBD1
:103C400001235A096FF0630302FB0300322303EBE5
:103C50000010A0FB0101F02000EA511000EB02105F
:103C6000C1F3431122680843906010BD81620021B6
:103C70008285C2854164222180F84210016921B108
:103C80000168CA6842F48072CA600168486940F0FD
:103C900001004861C86840F020020020CA607047F7
:103CA00090F84110212923D18168B1F5805F01D1BD
:103CB000016931B1016A02684B1C036209785160E5
:103CC00007E0016A036831F8022B6FF35F225A6044
:103CD0000162C18C01390A04C18418BF70470068B1
:103CE000C16821F08001C160C16841F04001C1603C
:103CF000704700002DE9F04182B00446006800687A
:103D00000840884203D1002002B0BDE8F0811D4682
:103D10000E4690465F1C04E0206800683040B042C8
:103D200028D0002FF8D0FDF79DFA01464FF0030090
:103D30000DB3A1EB0801A9421DD82068C16849074D
:103D4000EAD5402EE8D0802EE6D001680907E3D5F9
:103D50000025019501680191406801900198204675
:103D6000FFF77EFE0820606484F84050012002B016
:103D7000BDE8F081002002B0BDE8F08180B540F2DE
:103D80000830C2F20000FEF79BFA80BDFEE700009B
:103D900010B50446FCF73EFB82B240F20830C2F296
:103DA000000021464FF0FF33FEF76AFC10BD000013
:103DB00080B540F2E800C2F20000B0F91C0000EE4D
:103DC000100AB8EEC00A10EE100A02F031F99FEDA9
:103DD0000C0B53EC102B01F06BFE9FED0B0B53EC17
:103DE000102B01F0D1FC01F0E9FB40F2AC0100EE38
:103DF000100AC2F20001C86100F03AF880BD00BFAD
:103E000000000000004CED40000000000050C440E5
:103E100080B540F2E800C2F20000B0F91E0000EEEA
:103E2000100AB8EEC00A10EE100A02F001F99FED78
:103E30000C0B53EC102B01F03BFE9FED0B0B53ECE6
:103E4000102B01F0A1FC01F0B9FB40F2AC0100EE37
:103E5000100AC2F20001486300F06CF880BD00BF98
:103E600000000000004CED40000000000078CE4053
:103E700040F2AC00C2F2000090ED063A9FED2A5AE3
:103E800033EE400ABEEE003AB4EE430AB0EE403ADA
:103E900090ED031A90ED042A90ED054AF1EE10FA28
:103EA000C8BFB0EE453AB6EE005A40F23011B4EE5B
:103EB000450AC2F20001F1EE10FAB8BFB0EE430AB3
:103EC00091ED003A9FED195A33EE003AB4EE453ABF
:103ED000F1EE10FAB8BFB0EE453A9FED155A40F238
:103EE0002810C2F20000B4EE453A80ED000AF1EE6F
:103EF00010FAB8BFB0EE435A81ED005A40F22C11CF
:103F0000C2F2000191ED003A21EE001A22EE052ADC
:103F100030EE430A31EE021A24EE000A006830EE59
:103F2000010A0860704700BF0000000000802CC438
:103F300000802C4440F2AC00C2F2000090ED0C3A3C
:103F40009FED2A5A33EE400ABEEE003AB4EE430A21
:103F5000B0EE403A90ED091A90ED0A2A90ED0B4A26
:103F6000F1EE10FAC8BFB0EE453AB6EE005A40F294
:103F70003C11B4EE450AC2F20001F1EE10FAB8BFEE
:103F8000B0EE430A91ED003A9FED195A33EE003A34
:103F9000B4EE453AF1EE10FAB8BFB0EE453A9FEDF7
:103FA000155A40F23410C2F20000B4EE453A80EDEA
:103FB000000AF1EE10FAB8BFB0EE435A81ED005A94
:103FC00040F23811C2F2000191ED003A21EE001AE0
:103FD00022EE052A30EE430A31EE021A24EE000AE0
:103FE000006830EE010A0860704700BF0000000062
:103FF00000802CC400802C44002848BF704700F08B
:104000001F01012202FA01F14EF200124009CEF224
:10401000000242F8201070474EF60C50CEF200001D
:104020000068C0F3022070474EF6145300F00F02F0
:10403000CEF2000309011A4400F16043B0F1FF3FE2
:10404000C8BF03F564421170704700004EF60C5172
:10405000CEF200010A684FF6FF031A4060F30A220D
:1040600042F0806040F0FD7008607047B0B50446D3
:104070004078E578C0070BD040F24010C2F2000053
:1040800002682AB105F00700411CC5F3C200904741
:104090006078000709D540F24410C2F200000168C0
:1040A000002908BFB0BDA8098847B0BD2DE9F04F71
:1040B00089B01446DDE912920F460021A9F80010DC
:1040C00040F24A11C2F2000109780DF1040A834658
:1040D00008465146984600F06DFA20B14FF0FF3087
:1040E00009B0BDE8F08F40F24810C2F20000B0F80D
:1040F00000C01CF0140F4ED09DF805209DF8041050
:104100009DF8063012049DF8075042EA016141EA29
:1041100003222A4422609DF809209DF808301204E9
:1041200042EA03629DF80A309DF80B5042EA0323ED
:104130002B4463609DF80D309DF80C501B0443EA3E
:1041400005639DF80E509DF80F6043EA05252E4447
:10415000A6609DF811609DF8105011FB31F13604F6
:1041600012FB321146EA05669DF8125013FB33111B
:104170009DF8130016FB361146EA052501F1714141
:104180002844B1F1007FE0600AD900F067FA00200E
:10419000A9F80000A2E700215FEA4C600AD430E0F1
:1041A000B9F80000102140F48070A9F800005FEA1F
:1041B0004C6026D541F001021AF801001AF80220DD
:1041C00041F0030342EA002041F002021AF8022003
:1041D0001AF80330388043EA022041F0040241F02B
:1041E00005031AF802201AF80330788043EA022007
:1041F000B880B9F8000041F0060140F00800A9F8C5
:1042000000001CF4C07F18D03AF801000AEB01024C
:1042100000BA5388000CABF8000018BA9288000C62
:10422000ABF8020010BA000CABF80400B9F80000BB
:10423000063140F07000A9F800005FEA8C7003D0EE
:104240000AEB0100FFF712FF404600F0A7F800203C
:1042500009B0BDE8F08F0000B0B504460078022830
:104260000CD0012813D088B908461146FCF7E6FFA8
:10427000002818BFB0BD01202070B0BD084611460F
:10428000FCF7DCFF012804BF00202070B0BD084609
:1042900011461D46FCF7D2FF10B100202070B0BDC2
:1042A0000220207001202870B0BD0000FDF7F0F85A
:1042B000FFF7DAF9FEF7BAFCFEF752FEFEF786FDCD
:1042C000FEF71EFFFEF714FEFEF7B2FEFEF75EFDE0
:1042D000FEF7E8FEFEF7C4FB6420FCF765FE40F243
:1042E000083040F21611C2F20000C2F200010122B1
:1042F0004FF00108FEF780F940F2A016C2F2000666
:104300003046FDF7D9FC40F2E814C2F20004204622
:10431000FDF7D2FC40F23027C2F200073846FDF725
:10432000CBFC40F27825C2F200052846FDF7C4FC1C
:1043300040F2C020C2F20000FDF7BEFC3046002172
:10434000FDF736FF30460821FDF732FF38460021E1
:10435000FDF72EFF20463C21FDF714FE28463C21A8
:10436000FDF710FE40F2E800C2F2000041F2883191
:10437000C0E903110021C4F21631416080F81A80AF
:1043800003A0FFF705FD00BFFCF77AFDFCE700BFC7
:104390007374617274636E743100000070470000C2
:1043A0002DE9F04381B040F2A2070024804640F29C
:1043B000A300C2F20007C4F20204C2F200002146C8
:1043C00001223B460125FFF747FF40F2A40940F2D6
:1043D000A500C2F20009C2F20000214601224B46AC
:1043E000FFF73AFF40F2A60640F2A700C2F200062D
:1043F000C2F20000214601223346FFF72DFF387834
:10440000012809D099F80000012801D1022503E014
:104410003078012802D1032588F8005001B0BDE8AA
:10442000F0830000000000002DE9F0412DED0E8B1F
:104430008CB004460DF11E0090460D460DF11D078F
:1044400000900DF1260008A903AA0BAB0197FFF716
:104450002DFE08B10120A0E0BDF81E00C00501D46A
:1044600002209AE09DED030A9DED041A9FED504A4B
:104470009DED052A9DED063AB8EEC00A20EE049A9D
:10448000B8EEC10A20EE04AAB8EEC20A20EE04BAC1
:10449000B8EEC30A20EE04CAB8EE000A2AEE00DA2B
:1044A00039EE098A2DEE0C0A28EE0B1A31EE000ABD
:1044B00010EE100A01F0BCFD41EC100B00F0DCF92D
:1044C00051EC100B9FED380B56EC107B3A463346FF
:1044D00001F0EEFA01F072F83BEE0BEA2EEE0C0A58
:1044E00028EE0A1A31EE000A206010EE100A01F0E0
:1044F0009FFD2AEE0D0A2BEE0E1A30EE410AB7EEA2
:10450000001A30EE010A41EC180B10EE100A01F00F
:104510008FFD41EC110BB0EE480AF0EE680A00F096
:10452000C7FC51EC100B3A46334601F0C1FA01F0DA
:1045300045F82AEE0B0A29EE0C1A30EE010A30EE8D
:10454000000A286010EE100A01F072FD29EE090A37
:104550002AEE0A1A30EE010A2BEE0B1A30EE410A4F
:104560002CEE0C1A30EE410A41EC180B10EE100A3A
:1045700001F05EFD41EC110BB0EE480AF0EE680A66
:1045800000F096FC51EC100B3A46334601F090FADD
:1045900001F014F8C8F8000000200CB0BDEC0E8B40
:1045A000BDE8F08100BF00BF6666666666A64C4047
:1045B000000080302DE9F04182B040F20407C2F2E1
:1045C00000070E4697F8241005464FF0FF30D9B388
:1045D000B97AC9B3D7E9001014460078897A0DF189
:1045E00006030222FEF78AFA20BBBDF8060000048B
:1045F00090FA80F8A84502D2002020701AE078686E
:104600004188B8EB510F0CD939680078497C0DF11D
:1046100006030122FEF772FA60B99DF80600C00693
:1046200015D4D7E90010EAB20078C97A3346FEF70C
:1046300065FA20B14FF0FF3002B0BDE8F081B8FB61
:10464000F5F001382070002002B0BDE8F08100F0E4
:1046500005F86FF0010002B0BDE8F08110B582B03E
:1046600040F20404C2F20004A07A00B300208DF8E6
:104670000700D4E900100DF107030078C97B01227F
:10468000FEF7B6FA98B9D4E900100DF107030078E7
:1046900049790122FEF7ACFA48B9D4E900100DF1CE
:1046A0000703007809790122FEF7A2FA18B14FF04A
:1046B000FF3002B010BD94F82400002845D00C2033
:1046C0008DF80700D4E900100DF10703007809798F
:1046D0000122FEF78DFA0028E9D13220FCF764FCB4
:1046E000A07A0DF10703C0076FF01F0008BF6FF03D
:1046F0003F008DF80700D4E9001001220078097905
:10470000FEF776FA0028D2D1607C0DF1070300286D
:1047100018BF012040008DF80700D4E900100122E5
:104720000078C97BFEF764FA0028C0D100208DF81C
:104730000700D4E900100DF1070300784979012240
:10474000FEF756FA0028B2D145E004208DF80700A4
:10475000D4E900100DF10703007809790122FEF772
:1047600047FA0028A3D1A07AA17CC0074FF06000CF
:1047700008BF4020002918BF40208DF80700D4E969
:1047800000100DF10703007809790122FEF730FAD5
:1047900000288CD13220FCF707FC607C0DF1070368
:1047A000002818BF01208DF80700D4E9001001226D
:1047B0000078C97BFEF71CFA00287FF478AFD4E9B3
:1047C000001004F11003007849790122FEF710FA75
:1047D00000287FF46CAF002002B010BD40F25C30C6
:1047E000C2F20000007801281CBF0020704740F290
:1047F0002611C2F200010878002804BF4FF0FF30F4
:10480000704740F21612C2F20002104410F8010C78
:1048100040F264323038C2F20002106000220A70A6
:10482000704703B401984100009850EAC12018BFB6
:1048300004204A0D18BF40F0010040F2FF72B2EBB5
:10484000515F08BF40F00200012808BF052002B0F8
:1048500070474100080218BF04200A0E18BF40F03C
:1048600001004FF07F4232EA010108BF40F0020030
:10487000012808BF0520704770B5C1482DED020B17
:104880002DED0E8B82B0119D25F000449FEDBEDB17
:104890009FEDBFEB84423EDBA4F140511098A1F1A3
:1048A0007F6108430FD0BC48844202DC28D11098B5
:1048B00030B39DED100B02B0BDEC0E8B02B0BDE825
:1048C000704000F02FBD9DED100B53EC1D2B51ECF3
:1048D000100B01F0EDF89DED100B41EC180B53ECB3
:1048E0001E2B51EC100B01F0E3F853EC182B00F0E9
:1048F00097FE41EC100B02B0BDEC0E8B02B070BD08
:104900000120FBF7D5FD02B0BDEC0E8B02B0BDE877
:10491000704000F01DBDA1489FEDA18B844256DA86
:104920009DED100BB4F1795F0ADA51EC100BFFF733
:1049300078FF042808BF00F01BFD9DED100BDAE79F
:1049400053EC102B51EC100B01F0B2F841EC190BA9
:1049500095480621B0EE490AF0EE690A784400F065
:1049600065FC53EC192B51EC100B01F0A1F841EC54
:104970001A0B8E48B0EE490AF0EE690A0421784419
:1049800000F054FC53EC192B51EC100B01F090F893
:1049900053EC182B00F044FE41EC100B51EC1A0BB9
:1049A00053EC102B00F0F0FECDE900019DED000B63
:1049B00053EC102B9DED100B51EC100B01F078F81F
:1049C0009DED101B53EC112B00F02AFED2E09DED63
:1049D000100B51EC100B00F0A1FD53EC182B01F063
:1049E00065F99FED730BCDE9000153EC102B9DEDA4
:1049F000000B51EC100B01F05BF841EC190B6E4809
:104A00000621B0EE490AF0EE690A784400F00EFC87
:104A100053EC192B51EC100B01F04AF841EC1B0B35
:104A20006648B0EE490AF0EE690A0421784400F0C5
:104A3000FDFB53EC192B51EC100B01F039F853EC42
:104A4000182B00F0EDFD41EC1C0B51EC190B00F0A4
:104A500071FD41EC180B5A489FED5BABA04222DC84
:104A600053EC1C2B51EC1B0B00F08EFECDE900012A
:104A70009DED000B51EC180B53EC102B01F018F8C6
:104A800053EC182B00F0CCFD53EC1A2B01F010F86E
:104A900053EC1D2B01F0E2F953EC1E2B01F006F94B
:104AA00041EC100B5FE08DED008B002000909DED40
:104AB000000B51EC180B53EC102B00F0B1FD9DEDE9
:104AC000000B41EC1E0B53EC102B51EC100B00F0C3
:104AD000EFFF53EC192B01F0E9F853EC1E2B00F01B
:104AE00053FE41EC190B53EC1C2B51EC1B0B00F04B
:104AF0004BFE41EC1B0B53EC1A2B51EC190B00F045
:104B0000D7FF53EC1D2B01F0D1F841EC190B53ECFE
:104B10001A2B51EC180B00F0CBFF53EC1B2B00F0C1
:104B2000C7FF53EC192B01F099F99DED000B41ECF7
:104B3000180B53EC1A2B51EC100B00F0B9FF9FED42
:104B4000249B53EC192B01F0B1F841EC100B51EC04
:104B5000180B53EC102B01F081F953EC192B01F0D9
:104B6000A5F841EC100B002D3FF7C5AE51EC100B32
:104B700000F017FD41EC100BBDE600000000000046
:104B80000000F03F00000000075C143326A6913CB3
:104B9000182D4454FB21F93F0000F07F0000E03F56
:104BA000000000000000F03F001800000E18000098
:104BB000000000000000E03F5217000060170000F6
:104BC0003333EF3F00000000000000000000004011
:104BD000182D4454FB21E93F70B59B482DED020B85
:104BE0002DED068B079D25F00044A04218DC974868
:104BF000844202DC0AD1069840B19DED060BBDEC63
:104C0000068B02B0BDE8704000F08CBB002DCCBF1D
:104C10009FED8F0B9FED900BBDEC068B02B070BD2E
:104C20008F48A04215DD8F48A042D8BF4FF0FF3417
:104C300058DD9DED060B51EC100BFFF7F2FD04283B
:104C400008BF00F095FB9DED060BBDEC068B02B096
:104C500070BD9DED060B51EC100B00F05FFCCDE933
:104C6000060181489FED828BA0423CDD8248A04234
:104C70001FDD00249FED82AB9DED060B53EC1A2B3C
:104C800051EC100B00F0CCFC9DED060B41EC190B28
:104C900053EC1A2B51EC100B00F00AFF53EC182BBD
:104CA00001F0DCF853EC192B00F06EFDCDE90601A4
:104CB00049E09DED060B012453EC182B51EC100B31
:104CC00000F0AEFC9DED060B41EC190B53EC182BDC
:104CD00051EC100B01F0C2F853EC192B00F054FD0D
:104CE000CDE906012FE06848A0421FDD02249FEDB8
:104CF000689B9DED060B53EC192B51EC100B00F04B
:104D0000D7FE53EC182B00F08BFC9DED060B41EC0D
:104D1000180B53EC192B51EC100B01F09FF853ECCE
:104D2000182B00F031FDCDE906010CE09DED060BDE
:104D3000032453EC102B9FED580B51EC100B00F09B
:104D400023FDCDE906019DED060B53EC102B51EC34
:104D5000100B00F0ADFE41EC180B53EC182B00F0DB
:104D6000A7FE41EC190B4E480621B0EE490AF0EEC1
:104D7000690A784400F05AFA53EC182B51EC100BE6
:104D800000F096FE41EC180B4648B0EE490AF0EEF2
:104D9000690A0521784400F049FA53EC192B51ECCB
:104DA000100B00F085FE41EC100B51EC180B53EC8E
:104DB000102B002C0EDA00F033FC9DED061B53EC9B
:104DC000112B00F075FE9DED061B53EC112B00F02E
:104DD0006DFF35E000F024FC9DED061B53EC112B1C
:104DE00000F066FE41EC100B2F48784400EBC40045
:104DF00090ED001B51EC100B53EC112B01F02EF831
:104E00009DED061B53EC112B01F028F841EC100B23
:104E10002648784400EBC40090ED001B51EC100BC9
:104E200053EC112B00F042FF41EC100B002DA2BF00
:104E3000BDEC068B02B070BD51EC100B00F0B1FB65
:104E400041EC100B01E70000000010440000F07F6F
:104E5000182D4454FB21F93F182D4454FB21F9BF70
:104E60000000DC3F0000203E0000F33F0000000097
:104E7000000000000000F03F0000E63F00000000DE
:104E8000000000000000004000800340000000001F
:104E9000000000000000F83F000000000000F0BF2C
:104EA000A214000058140000E21300009A1300003E
:104EB00070B56F4E2DED040B2DED048B82B0DDF837
:104EC00024C0DDE907235C422CF000411C4341EA89
:104ED000D474069D22F00040B44205D86C422C43A5
:104EE00040EAD474B4420BD99DED081B9DED060B2E
:104EF00002B0BDEC048B04B0BDE8704000F01CBAF9
:104F0000ACF14054A4F17F641C430BD0022404EAAA
:104F1000AC7444EAD27405439FED578B9FED582B38
:104F200007D015E09DED060B51EC100B00F0EEFAEA
:104F300042E0002C11BF012C9DED060B02B0BDEC30
:104F4000048B04BF04B070BD022C38D0032C3BD0BE
:104F50000B439FED4D1B9FED4E0B0AD0B14218D174
:104F6000B04209D121F0804120F0804009910790A2
:104F70000FE0002A15DA10E0474B7B44002C08BFF5
:104F800093ED000B0DD0012C10D0022C17D0032C68
:104F90001AD0B0421DD1002A03DAB0EE410AF0EE79
:104FA000610A02B0BDEC048B04B070BD93ED000B40
:104FB00051EC100B00F0F5FA41EC100BF1E7B0EEFC
:104FC000480AF0EE680AECE7B0EE420AF0EE620A38
:104FD000E7E7401A00159FED329B3C28C8BF8DEDD6
:104FE000000B17DCBCF1000FBCBF10F13C0F8DEDC6
:104FF000009B0FDB9DED080B53EC102B9DED060B7A
:1050000051EC100B00F0C0FB00F088FA00F07EFAC3
:10501000CDE90001B4B1012C10D0022C9FED220B80
:1050200053EC102B9DED000B51EC100B19D000F040
:1050300015FF53EC182B00F011FFBDE7019880F02D
:10504000004001909DED000B53EC192B51EC100B1F
:1050500000F0F2FC04BF0220FBF72AFA9DED000BE2
:105060009FE700F0FBFE53EC182B00F01FFEA3E7B8
:105070000000F07F00000000182D4454FB2109407F
:10508000182D4454FB2109C0182D4454FB21F9BFAD
:10509000182D4454FB21F93FCA1200000000000003
:1050A0000000000000000000075C143326A6A13CAD
:1050B00000B510EE101A2DED028B81B04D4A6846F6
:1050C000B2EB410F3CD94FF0E640B0EB410F94BF3B
:1050D00000204FF0FF3000900098B0EE408A00288A
:1050E0005FDB28EE080ADFED440A9FED441A00EE6C
:1050F000201ADFED430A40EE010A9FED421A00EE4E
:10510000201ADFED410A10F0010F40EE010A9FED79
:105110003F1A00EE201A61EE000AB0EE480A08EECF
:10512000200A02BF01B0BDEC028B00BDBFEE001A29
:1051300001B0C1EE000ABDEC028BB0EE600A00BD0A
:10514000334B21F00042934228D911F0004FDFED9C
:10515000310A20EE201ADFED300A19BF31EE601A55
:1051600071EE200A31EE201A71EE600ABDEEE01AEF
:1051700011EE100A9FED291A00F0030000EEC10A9B
:105180009FED271A009000EEC10A9FED261A00EE4F
:10519000C10A9FED251A00EEC10A9DE700F00CF947
:1051A0009AE718EE100A4000B0F17F4F0DD218EECA
:1051B000100AFFF74EFB042808BF00F0F5F8B0EE28
:1051C000480A01B0BDEC028B00BD09D10120FBF7FC
:1051D0006FF901B0BDEC028B5DF804EB00F0DCB8B8
:1051E00001B0B0EE480ABDEC028B5DF804EB00F0B4
:1051F000CFB80000B61F927EBCE9223C0B6D063B87
:105200008A76CE3CACB5593D35A1083E29AAAA3EC6
:10521000490E494683F9223F0000004B0000C93F78
:1052200000A0FD390020A2331A61342C70B5044669
:105230002DED028B4D1E00EBC500B0EE408AF0EE66
:10524000608A90ED000B35F0060017D053EC182B58
:1052500051EC100B00F02CFC41EC100B6D1E04EB1C
:10526000C50090ED001B51EC100B53EC112B00F01E
:10527000D7F941EC100B35F00600E7D1022D36D0FE
:10528000042D1CD0062D1CBFBDEC028B70BD53EC51
:10529000182B51EC100B00F00BFC94ED0A1B53EC97
:1052A000112B00F0BDF953EC182B00F001FC94ED2C
:1052B000081B53EC112B00F0B3F941EC100B53EC2D
:1052C000182B51EC100B00F0F3FB94ED061B53EC84
:1052D000112B00F0A5F953EC182B00F0E9FB94ED2D
:1052E000040B53EC102B00F09BF941EC100B53EC2A
:1052F000182B51EC100B00F0DBFB94ED021B53EC70
:10530000112B00F08DF953EC182B00F0D1FB94ED2C
:10531000001B53EC112B00F083F9BDEC028B41EC28
:10532000100B70BD10B553EC102B51EC100B00F0AE
:1053300077F941EC100B10BD10B553EC112B51EC6B
:10534000100B00F06DF941EC100B10BD00000000D7
:105350009FED050B10B553EC102B51EC100B00F02A
:1053600013FA41EC100B10BD00000000000000001B
:105370009FED050B10B553EC102B51EC100B00F00A
:1053800097FB41EC100B10BD000000000000001066
:1053900030EE000A70470000DFED020A80EEA00A3E
:1053A00070470000000000009FED020A20EE000A96
:1053B00070470000000000102DE9F0014FF07F421F
:1053C000B2EB410F9FBF4FF0FF310160BDE8F0012C
:1053D00070474FF0004242EA0123C1F3C752783AC6
:1053E000551112F01F0C434CCCF120067C44C1F344
:1053F000C752A2F178024FEA621204EB820254F81B
:10540000254008BFD2E9015612D0556804FA0CF4C1
:1054100025FA06F73C43976805FA0CF527FA06F8D3
:10542000D26807FA0CFCF24045EA08054CEA02068D
:10543000A4FB034CA5FB0352A6FB03631D449D4242
:1054400034BF012600261319334416B1934202D902
:1054500003E0934201D2012200E00022624402F103
:10546000200C9206DC0C42EA443200EE102A5B0368
:10547000DFED210AF8EEC01A00EE103A4FEA9C1C4C
:1054800011F0004FB8EE400AC0F800C020EE201A1C
:1054900000EE105ADFED190AB8EE400A20EE200A9D
:1054A00071EE810A70EE800A10EE902A02F5006219
:1054B0006FF30B0200EE902A70EEE11A31EEC11A82
:1054C000DFED101A30EE411A9FED0D0A20EE800A32
:1054D00001EE210A9FED0C1A00EE810A04BFBDE81F
:1054E000F0017047CCF180510160BDE8F001B1EEF0
:1054F000400A7047600E0000000000360000802C5B
:1055000022AAFD29DB0FC92F0000C92F10B541ECDD
:10551000100BFFF761FB51EC100B10BD82B0CDE911
:10552000000121F0004001909DED000B02B051EC14
:10553000100B704700B52DED048B83B041EC190BB7
:1055400000F0C0FB41EC180B18EE100A18EE901A90
:105550008DED008B002818BF0120084320F000408B
:10556000C0F17F6000F1E040C00F14D019EE101AB6
:1055700019EE900A8DED009B002918BF0121084308
:1055800020F00040C0F17F6000F1E040C00F04BF98
:105590000120FAF78DFF51EC180B03B0BDEC048B22
:1055A00000BD81F00041704780F00040704721F05D
:1055B0000041704720F000407047000021F0004299
:1055C00001F00043A2F16052B2F5801F28BFD2F172
:1055D0007F6C0BD95FEA001C43EAC20242EB5070B9
:1055E00018BF704728BF20F001007047B2F5801F38
:1055F000BCBF184670474FEA410C1CF5001F02D291
:10560000084600F093BD70B500F0FCFA0000008978
:10561000FFF7F6BF4FF00040A0F580007047000094
:1056200010B591EA030F48BF83F0004300F11E84D8
:10563000841A71EB030C05D2121943EB0C03001B07
:1056400061EB0C014FEA1154A4EB135CDFF81CE191
:105650001EEA430F18BF9EEA445F73D021EA04514B
:1056600023EA0E0343F48013DCF1200E32D322FA36
:105670000CFE10EB0E0023FA0CFE41EB0E01CCF1F8
:10568000200E03FA0EFE10EB0E00CCF1200E51F1AD
:105690000001B1F5801F32D201EB045112FA0EF273
:1056A000BDE8104058BF7047401C38BF5FEA420257
:1056B00018BF7047002814BF20F0010041F100011D
:1056C0004FEA410313F5001F38BF7047A1F1C041F5
:1056D00000F0E6BA012A43EB0302ACF1200CDCF146
:1056E0001F0E32BF4FF0000E23FA0CF310EB030035
:1056F00041EB0451B4EB115FD0D0A1EB045101F5A3
:105700008011490801EB04515FEA30000ED350F1DB
:10571000000038BF12FA0EFE08D1BDE81040C9E7FC
:10572000401C38BF5FEA4202CAD1C3E7BDE810405F
:105730004FEA410313F5001F38BF7047A1F1C04184
:1057400000F0AEBA9EEA445F08D011EA5E0FBDE8F1
:10575000104004BF01F0004100207047BDE8104038
:1057600070B500F04FFA00BF64FBBE3E0000E0FFE2
:10577000491058BFC1F140415B1058BFC3F14043CD
:105780008B42EFF3008070472DE9C04130B4DFF861
:10579000A0C23CEA111418BF3CEA131400F0EC80DC
:1057A0001CEA111481EA030544EAD57418BF1CEA07
:1057B000131500F0C780A4EB050404F17F7404F511
:1057C00000344FF0004545EAC12145EAC32341EAD0
:1057D000505143EA52534FEAC0204FEAC222994245
:1057E00008BF904200F09C804FEA13650FF240160C
:1057F000765D4FEA134506FB05F7C7F1807706FB98
:1058000007F74FEAD737A7FB03687642A7FB06CE18
:10581000C8F5803838BFA8F1010807FB08E6A6FBE9
:10582000028C4FF0000EE6FB03CEDCF1000CCEF153
:10583000004E38BFAEF1010EA6FB0C584FF000072A
:10584000E6FB0E87A1FB08C6A0FB07CE16EB0E06F3
:105850004FF0000545F10005E1FB076515F1E04E4D
:105860007EBFA4F580345FEA46066D4116F18007DD
:1058700045F100054FEA172747EA05674FEA152566
:105880004FEA0666A6F1DE46B6F1805F1FD93846BC
:1058900005EBC47124F0010C01EB0C11BCF1FE6F9F
:1058A00002D8F0BCBDE8008124425CBF01F5801E37
:1058B0009EEAC47F02D4F0BCBDE80081244238D403
:1058C000A1F1C041F0BCBDE8004100F0E9B94FEAE8
:1058D000D02040EA41504FEAD1214FEAD22242EA99
:1058E00043524FEAD323A7FB028607FB036605FB5F
:1058F00002661EEA0E0F58BFA6EB0056B6EB005626
:105900004FEA520E4EEAC37E18EB0E0E56EB530EC4
:10591000BDD518EB02085E417F1C55F10005B6E7C6
:105920004FF480154FF000074FF000064FF00008CD
:10593000ADE701F1C04101F000414FF00000F0BCC3
:10594000BDE800810CEA131511EA0C1F00D00CE031
:1059500013EA0C1F00F025804FF0000081EA0301DC
:1059600001F00041F0BCBDE80081F0BCBDE80041A1
:1059700081EA030100F094B9F0BCBDE8004170B5C4
:1059800000F040F9097EFC3E00F007B84FF000003F
:1059900081EA030101F00041704781EA030100F050
:1059A0007FB9F0BCBDE8004122494FF000007047CC
:1059B000FFFDFBF9F7F5F4F2F0EEEDEBE9E8E6E4D4
:1059C000E3E1E0DEDDDBDAD8D7D5D4D3D1D0CFCD5B
:1059D000CCCBCAC8C7C6C5C4C2C1C0BFBEBDBCBB94
:1059E000BAB9B8B7B6B5B4B3B2B1B0AFAEADACAB8F
:1059F000AAA9A8A8A7A6A5A4A3A3A2A1A09F9F9E69
:105A00009D9C9C9B9A99999897979695959493931A
:105A1000929191908F8F8E8E8D8C8C8B8B8A8989B1
:105A20008888878786858584848383828281818034
:105A30000000FF070000F87F51EA030C17D41CF5A3
:105A4000801F58BFBCF5801F00F10680994218BF27
:105A5000704708BF9042704707D711F5801F58BFA5
:105A600013F5801F19D499427047894270471CF57D
:105A7000801F08D5BCF5801FF7D58B4218BF704733
:105A800008BF824270474FF4001C1CEB410F38BF27
:105A90001CEB430F01D28B42704770B500F0B2F897
:105AA000922449004FF000514FF08053FFF760BE41
:105AB00070B5DFF848C11CEA111E1EBF1CEA1315A1
:105AC0009EEA0C0F95EA0C0F00F06F8081EA030448
:105AD0004EEAD47EAE4421EA4C1123EA4C1341F441
